{"contracts/Wallet.sol":{"Wallet":{"abi":[{"inputs":[{"internalType":"bytes32[]","name":"guardianAddrHashes","type":"bytes32[]"},{"internalType":"uint256","name":"_threshold","type":"uint256"}],"stateMutability":"nonpayable","type":"constructor"},{"anonymous":false,"inputs":[{"indexed":true,"internalType":"address","name":"from","type":"address"},{"indexed":false,"internalType":"uint256","name":"value","type":"uint256"}],"name":"Deposit","type":"event"},{"anonymous":false,"inputs":[{"indexed":true,"internalType":"bytes32","name":"guardianHash","type":"bytes32"}],"name":"GuardianRemovalQueued","type":"event"},{"anonymous":false,"inputs":[{"indexed":true,"internalType":"bytes32","name":"oldGuardianHash","type":"bytes32"},{"indexed":true,"internalType":"bytes32","name":"newGuardianHash","type":"bytes32"}],"name":"GuardianRemoved","type":"event"},{"anonymous":false,"inputs":[{"indexed":true,"internalType":"bytes32","name":"guardianHash","type":"bytes32"},{"indexed":true,"internalType":"address","name":"guardianAddr","type":"address"}],"name":"GuardianRevealed","type":"event"},{"anonymous":false,"inputs":[{"indexed":true,"internalType":"address","name":"from","type":"address"},{"indexed":true,"internalType":"bytes32","name":"newGuardianHash","type":"bytes32"}],"name":"GuardinshipTransferred","type":"event"},{"anonymous":false,"inputs":[{"indexed":false,"internalType":"address","name":"by","type":"address"},{"indexed":true,"internalType":"uint256","name":"round","type":"uint256"}],"name":"RecoveryCancelled","type":"event"},{"anonymous":false,"inputs":[{"indexed":false,"internalType":"address","name":"oldOwner","type":"address"},{"indexed":false,"internalType":"address","name":"newOwner","type":"address"},{"indexed":true,"internalType":"uint256","name":"round","type":"uint256"}],"name":"RecoveryExecuted","type":"event"},{"anonymous":false,"inputs":[{"indexed":true,"internalType":"address","name":"by","type":"address"},{"indexed":false,"internalType":"address","name":"newProposedOwner","type":"address"},{"indexed":true,"internalType":"uint256","name":"round","type":"uint256"}],"name":"RecoveryInitiated","type":"event"},{"anonymous":false,"inputs":[{"indexed":false,"internalType":"address","name":"by","type":"address"},{"indexed":false,"internalType":"address","name":"newProposedOwner","type":"address"},{"indexed":true,"internalType":"uint256","name":"round","type":"uint256"}],"name":"RecoverySupported","type":"event"},{"anonymous":false,"inputs":[{"indexed":true,"internalType":"address","name":"callee","type":"address"},{"indexed":false,"internalType":"uint256","name":"value","type":"uint256"},{"indexed":false,"internalType":"bytes","name":"data","type":"bytes"}],"name":"TransactionExecuted","type":"event"},{"anonymous":false,"inputs":[{"indexed":true,"internalType":"address","name":"to","type":"address"},{"indexed":false,"internalType":"uint256","name":"value","type":"uint256"}],"name":"Withdraw","type":"event"},{"stateMutability":"payable","type":"fallback"},{"inputs":[{"internalType":"bytes32","name":"guardianHash","type":"bytes32"}],"name":"cancelGuardianRemoval","outputs":[],"stateMutability":"nonpayable","type":"function"},{"inputs":[],"name":"cancelRecovery","outputs":[],"stateMutability":"nonpayable","type":"function"},{"inputs":[],"name":"currRecoveryRound","outputs":[{"internalType":"uint256","name":"","type":"uint256"}],"stateMutability":"view","type":"function"},{"inputs":[],"name":"deposit","outputs":[],"stateMutability":"payable","type":"function"},{"inputs":[{"internalType":"address","name":"callee","type":"address"},{"internalType":"uint256","name":"value","type":"uint256"},{"internalType":"bytes","name":"data","type":"bytes"}],"name":"executeExternalTx","outputs":[{"internalType":"bytes","name":"","type":"bytes"}],"stateMutability":"nonpayable","type":"function"},{"inputs":[{"internalType":"bytes32","name":"oldGuardianHash","type":"bytes32"},{"internalType":"bytes32","name":"newGuardianHash","type":"bytes32"}],"name":"executeGuardianRemoval","outputs":[],"stateMutability":"nonpayable","type":"function"},{"inputs":[{"internalType":"address","name":"newOwner","type":"address"},{"internalType":"address[]","name":"guardianList","type":"address[]"}],"name":"executeRecovery","outputs":[],"stateMutability":"nonpayable","type":"function"},{"inputs":[],"name":"getBalance","outputs":[{"internalType":"uint256","name":"","type":"uint256"}],"stateMutability":"view","type":"function"},{"inputs":[{"internalType":"bytes32","name":"","type":"bytes32"}],"name":"guardianHashToRemovalTimestamp","outputs":[{"internalType":"uint256","name":"","type":"uint256"}],"stateMutability":"view","type":"function"},{"inputs":[{"internalType":"address","name":"","type":"address"}],"name":"guardianToRecovery","outputs":[{"internalType":"address","name":"proposedOwner","type":"address"},{"internalType":"uint256","name":"recoveryRound","type":"uint256"},{"internalType":"bool","name":"usedInExecuteRecovery","type":"bool"}],"stateMutability":"view","type":"function"},{"inputs":[],"name":"inRecovery","outputs":[{"internalType":"bool","name":"","type":"bool"}],"stateMutability":"view","type":"function"},{"inputs":[{"internalType":"bytes32","name":"guardianHash","type":"bytes32"}],"name":"initiateGuardianRemoval","outputs":[],"stateMutability":"nonpayable","type":"function"},{"inputs":[{"internalType":"address","name":"_proposedOwner","type":"address"}],"name":"initiateRecovery","outputs":[],"stateMutability":"nonpayable","type":"function"},{"inputs":[{"internalType":"bytes32","name":"","type":"bytes32"}],"name":"isGuardian","outputs":[{"internalType":"bool","name":"","type":"bool"}],"stateMutability":"view","type":"function"},{"inputs":[{"internalType":"address","name":"","type":"address"},{"internalType":"address","name":"","type":"address"},{"internalType":"uint256[]","name":"","type":"uint256[]"},{"internalType":"uint256[]","name":"","type":"uint256[]"},{"internalType":"bytes","name":"","type":"bytes"}],"name":"onERC1155BatchReceived","outputs":[{"internalType":"bytes4","name":"","type":"bytes4"}],"stateMutability":"pure","type":"function"},{"inputs":[{"internalType":"address","name":"","type":"address"},{"internalType":"address","name":"","type":"address"},{"internalType":"uint256","name":"","type":"uint256"},{"internalType":"uint256","name":"","type":"uint256"},{"internalType":"bytes","name":"","type":"bytes"}],"name":"onERC1155Received","outputs":[{"internalType":"bytes4","name":"","type":"bytes4"}],"stateMutability":"pure","type":"function"},{"inputs":[{"internalType":"address","name":"","type":"address"},{"internalType":"address","name":"","type":"address"},{"internalType":"uint256","name":"","type":"uint256"},{"internalType":"bytes","name":"","type":"bytes"}],"name":"onERC721Received","outputs":[{"internalType":"bytes4","name":"","type":"bytes4"}],"stateMutability":"pure","type":"function"},{"inputs":[],"name":"owner","outputs":[{"internalType":"address","name":"","type":"address"}],"stateMutability":"view","type":"function"},{"inputs":[],"name":"revealGuardianIdentity","outputs":[],"stateMutability":"nonpayable","type":"function"},{"inputs":[{"internalType":"address","name":"_proposedOwner","type":"address"}],"name":"supportRecovery","outputs":[],"stateMutability":"nonpayable","type":"function"},{"inputs":[{"internalType":"bytes4","name":"interfaceId","type":"bytes4"}],"name":"supportsInterface","outputs":[{"internalType":"bool","name":"","type":"bool"}],"stateMutability":"pure","type":"function"},{"inputs":[],"name":"threshold","outputs":[{"internalType":"uint256","name":"","type":"uint256"}],"stateMutability":"view","type":"function"},{"inputs":[{"internalType":"address payable","name":"_addr","type":"address"}],"name":"transferFTMTo","outputs":[{"internalType":"bytes","name":"","type":"bytes"}],"stateMutability":"payable","type":"function"},{"inputs":[{"internalType":"bytes32","name":"newGuardianHash","type":"bytes32"}],"name":"transferGuardianship","outputs":[],"stateMutability":"nonpayable","type":"function"},{"inputs":[{"internalType":"uint256","name":"amount","type":"uint256"}],"name":"withdraw","outputs":[],"stateMutability":"nonpayable","type":"function"},{"stateMutability":"payable","type":"receive"}],"evm":{"bytecode":{"linkReferences":{},"object":"60806040523480156200001157600080fd5b50604051620037b4380380620037b48339818101604052810190620000379190620003c2565b6001600081905550815181111562000086576040517f08c379a00000000000000000000000000000000000000000000000000000000081526004016200007d9062000489565b60405180910390fd5b60005b8251811015620001725760016000848381518110620000ad57620000ac620004ab565b5b6020026020010151815260200190815260200160002060009054906101000a900460ff161562000114576040517f08c379a00000000000000000000000000000000000000000000000000000000081526004016200010b906200052a565b60405180910390fd5b60018060008584815181106200012f576200012e620004ab565b5b6020026020010151815260200190815260200160002060006101000a81548160ff021916908315150217905550808062000169906200057b565b91505062000089565b508060028190555033600360006101000a81548173ffffffffffffffffffffffffffffffffffffffff021916908373ffffffffffffffffffffffffffffffffffffffff1602179055505050620005c8565b6000604051905090565b600080fd5b600080fd5b600080fd5b6000601f19601f8301169050919050565b7f4e487b7100000000000000000000000000000000000000000000000000000000600052604160045260246000fd5b6200022782620001dc565b810181811067ffffffffffffffff82111715620002495762000248620001ed565b5b80604052505050565b60006200025e620001c3565b90506200026c82826200021c565b919050565b600067ffffffffffffffff8211156200028f576200028e620001ed565b5b602082029050602081019050919050565b600080fd5b6000819050919050565b620002ba81620002a5565b8114620002c657600080fd5b50565b600081519050620002da81620002af565b92915050565b6000620002f7620002f18462000271565b62000252565b905080838252602082019050602084028301858111156200031d576200031c620002a0565b5b835b818110156200034a5780620003358882620002c9565b8452602084019350506020810190506200031f565b5050509392505050565b600082601f8301126200036c576200036b620001d7565b5b81516200037e848260208601620002e0565b91505092915050565b6000819050919050565b6200039c8162000387565b8114620003a857600080fd5b50565b600081519050620003bc8162000391565b92915050565b60008060408385031215620003dc57620003db620001cd565b5b600083015167ffffffffffffffff811115620003fd57620003fc620001d2565b5b6200040b8582860162000354565b92505060206200041e85828601620003ab565b9150509250929050565b600082825260208201905092915050565b7f7468726573686f6c6420746f6f20686967680000000000000000000000000000600082015250565b60006200047160128362000428565b91506200047e8262000439565b602082019050919050565b60006020820190508181036000830152620004a48162000462565b9050919050565b7f4e487b7100000000000000000000000000000000000000000000000000000000600052603260045260246000fd5b7f6475706c696361746520677561726469616e0000000000000000000000000000600082015250565b60006200051260128362000428565b91506200051f82620004da565b602082019050919050565b60006020820190508181036000830152620005458162000503565b9050919050565b7f4e487b7100000000000000000000000000000000000000000000000000000000600052601160045260246000fd5b6000620005888262000387565b91507fffffffffffffffffffffffffffffffffffffffffffffffffffffffffffffffff8203620005bd57620005bc6200054c565b5b600182019050919050565b6131dc80620005d86000396000f3fe60806040526004361061016a5760003560e01c806391e8715f116100d1578063d0e30db01161008a578063df6204ae11610064578063df6204ae146105b2578063f05151df146105db578063f23a6e6114610606578063f48bf4c314610643576101bf565b8063d0e30db014610556578063d5ce9aad14610560578063daafaa7514610589576101bf565b806391e8715f14610432578063a079e2a11461045b578063a774f4121461049a578063ace7c993146104b1578063bc197c81146104dc578063c42fe50a14610519576101bf565b80633c7ca796116101235780633c7ca7961461033157806342cde4e81461035a57806357e685bc146103855780635fc489a7146103ae5780638da5cb5b146103d7578063905c5fa214610402576101bf565b806301ffc9a71461020f5780630ba234d61461024c57806312065fe014610263578063150b7a021461028e5780632e1a7d4d146102cb578063361ad252146102f4576101bf565b366101bf573373ffffffffffffffffffffffffffffffffffffffff167fe1fffcc4923d04b559f4d29a8bfc6cda04eb5b0d3c460751c2402c5c5cc9109c346040516101b59190611f12565b60405180910390a2005b3373ffffffffffffffffffffffffffffffffffffffff167fe1fffcc4923d04b559f4d29a8bfc6cda04eb5b0d3c460751c2402c5c5cc9109c346040516102059190611f12565b60405180910390a2005b34801561021b57600080fd5b5061023660048036038101906102319190611f99565b610680565b6040516102439190611fe1565b60405180910390f35b34801561025857600080fd5b50610261610723565b005b34801561026f57600080fd5b50610278610859565b6040516102859190611f12565b60405180910390f35b34801561029a57600080fd5b506102b560048036038101906102b091906121cc565b610861565b6040516102c2919061225e565b60405180910390f35b3480156102d757600080fd5b506102f260048036038101906102ed9190612279565b610875565b005b34801561030057600080fd5b5061031b600480360381019061031691906122dc565b6109e7565b6040516103289190611f12565b60405180910390f35b34801561033d57600080fd5b5061035860048036038101906103539190612309565b6109ff565b005b34801561036657600080fd5b5061036f610bdd565b60405161037c9190611f12565b60405180910390f35b34801561039157600080fd5b506103ac60048036038101906103a79190612349565b610be3565b005b3480156103ba57600080fd5b506103d560048036038101906103d091906123d6565b610de0565b005b3480156103e357600080fd5b506103ec611256565b6040516103f99190612445565b60405180910390f35b61041c6004803603810190610417919061249e565b61127c565b604051610429919061254a565b60405180910390f35b34801561043e57600080fd5b50610459600480360381019061045491906122dc565b611414565b005b34801561046757600080fd5b50610482600480360381019061047d9190612349565b6114c0565b6040516104919392919061256c565b60405180910390f35b3480156104a657600080fd5b506104af611517565b005b3480156104bd57600080fd5b506104c6611609565b6040516104d39190611f12565b60405180910390f35b3480156104e857600080fd5b5061050360048036038101906104fe919061264f565b61160f565b604051610510919061225e565b60405180910390f35b34801561052557600080fd5b50610540600480360381019061053b91906122dc565b611627565b60405161054d9190611fe1565b60405180910390f35b61055e611647565b005b34801561056c57600080fd5b5061058760048036038101906105829190612349565b611727565b005b34801561059557600080fd5b506105b060048036038101906105ab91906122dc565b61196d565b005b3480156105be57600080fd5b506105d960048036038101906105d491906122dc565b611ab3565b005b3480156105e757600080fd5b506105f0611cc9565b6040516105fd9190611fe1565b60405180910390f35b34801561061257600080fd5b5061062d6004803603810190610628919061272b565b611cdc565b60405161063a919061225e565b60405180910390f35b34801561064f57600080fd5b5061066a600480360381019061066591906127c5565b611cf2565b604051610677919061254a565b60405180910390f35b60006301ffc9a760e01b827bffffffffffffffffffffffffffffffffffffffffffffffffffffffff191614806106db575063150b7a0260e01b827bffffffffffffffffffffffffffffffffffffffffffffffffffffffff1916145b8061070b5750634e2312e060e01b827bffffffffffffffffffffffffffffffffffffffffffffffffffffffff1916145b15610719576001905061071e565b600090505b919050565b600360009054906101000a900473ffffffffffffffffffffffffffffffffffffffff1673ffffffffffffffffffffffffffffffffffffffff163373ffffffffffffffffffffffffffffffffffffffff16146107b3576040517f08c379a00000000000000000000000000000000000000000000000000000000081526004016107aa90612891565b60405180910390fd5b600360149054906101000a900460ff16610802576040517f08c379a00000000000000000000000000000000000000000000000000000000081526004016107f9906128fd565b60405180910390fd5b6000600360146101000a81548160ff0219169083151502179055506004547f500ec1d4b692d3c788bfd78a898de379cfd93ab8177575efc7593f87bd051a073360405161084f9190612445565b60405180910390a2565b600047905090565b600063150b7a0260e01b9050949350505050565b600360009054906101000a900473ffffffffffffffffffffffffffffffffffffffff1673ffffffffffffffffffffffffffffffffffffffff163373ffffffffffffffffffffffffffffffffffffffff1614610905576040517f08c379a00000000000000000000000000000000000000000000000000000000081526004016108fc90612891565b60405180910390fd5b61090d610859565b81111561094f576040517f08c379a000000000000000000000000000000000000000000000000000000000815260040161094690612969565b60405180910390fd5b3373ffffffffffffffffffffffffffffffffffffffff166108fc829081150290604051600060405180830381858888f19350505050158015610995573d6000803e3d6000fd5b503373ffffffffffffffffffffffffffffffffffffffff167f884edad9ce6fa2440d8a54cc123490eb96d2768479d49ff9c7366125a9424364826040516109dc9190611f12565b60405180910390a250565b60056020528060005260406000206000915090505481565b600360009054906101000a900473ffffffffffffffffffffffffffffffffffffffff1673ffffffffffffffffffffffffffffffffffffffff163373ffffffffffffffffffffffffffffffffffffffff1614610a8f576040517f08c379a0000000000000000000000000000000000000000000000000000000008152600401610a8690612891565b60405180910390fd5b6000600560008481526020019081526020016000205411610ae5576040517f08c379a0000000000000000000000000000000000000000000000000000000008152600401610adc906129fb565b60405180910390fd5b4260056000848152602001908152602001600020541115610b3b576040517f08c379a0000000000000000000000000000000000000000000000000000000008152600401610b3290612a67565b60405180910390fd5b6000600560008481526020019081526020016000208190555060006001600084815260200190815260200160002060006101000a81548160ff021916908315150217905550600180600083815260200190815260200160002060006101000a81548160ff02191690831515021790555080827f8187100adcd2468151d7572d3d2a17cdb4ab9f7688acaf80ada4bff51aea8ca660405160405180910390a35050565b60025481565b6001600033604051602001610bf89190612acf565b60405160208183030381529060405280519060200120815260200190815260200160002060009054906101000a900460ff16610c69576040517f08c379a0000000000000000000000000000000000000000000000000000000008152600401610c6090612b36565b60405180910390fd5b600360149054906101000a900460ff16610cb8576040517f08c379a0000000000000000000000000000000000000000000000000000000008152600401610caf906128fd565b60405180910390fd5b60405180606001604052808273ffffffffffffffffffffffffffffffffffffffff168152602001600454815260200160001515815250600660003373ffffffffffffffffffffffffffffffffffffffff1673ffffffffffffffffffffffffffffffffffffffff16815260200190815260200160002060008201518160000160006101000a81548173ffffffffffffffffffffffffffffffffffffffff021916908373ffffffffffffffffffffffffffffffffffffffff1602179055506020820151816001015560408201518160020160006101000a81548160ff0219169083151502179055509050506004547f7a0b940199ff58e943823fe8c0e916df112be357049d8105a7e83cf9a4000e4a3383604051610dd5929190612b56565b60405180910390a250565b6001600033604051602001610df59190612acf565b60405160208183030381529060405280519060200120815260200190815260200160002060009054906101000a900460ff16610e66576040517f08c379a0000000000000000000000000000000000000000000000000000000008152600401610e5d90612b36565b60405180910390fd5b600360149054906101000a900460ff16610eb5576040517f08c379a0000000000000000000000000000000000000000000000000000000008152600401610eac906128fd565b60405180910390fd5b600254828290501015610efd576040517f08c379a0000000000000000000000000000000000000000000000000000000008152600401610ef490612bf1565b60405180910390fd5b60005b8282905081101561119057600060066000858585818110610f2457610f23612c11565b5b9050602002016020810190610f399190612349565b73ffffffffffffffffffffffffffffffffffffffff1673ffffffffffffffffffffffffffffffffffffffff1681526020019081526020016000206040518060600160405290816000820160009054906101000a900473ffffffffffffffffffffffffffffffffffffffff1673ffffffffffffffffffffffffffffffffffffffff1673ffffffffffffffffffffffffffffffffffffffff168152602001600182015481526020016002820160009054906101000a900460ff1615151515815250509050600454816020015114611043576040517f08c379a000000000000000000000000000000000000000000000000000000000815260040161103a90612c8c565b60405180910390fd5b8473ffffffffffffffffffffffffffffffffffffffff16816000015173ffffffffffffffffffffffffffffffffffffffff16146110b5576040517f08c379a00000000000000000000000000000000000000000000000000000000081526004016110ac90612cf8565b60405180910390fd5b8060400151156110fa576040517f08c379a00000000000000000000000000000000000000000000000000000000081526004016110f190612d8a565b60405180910390fd5b60016006600086868681811061111357611112612c11565b5b90506020020160208101906111289190612349565b73ffffffffffffffffffffffffffffffffffffffff1673ffffffffffffffffffffffffffffffffffffffff16815260200190815260200160002060020160006101000a81548160ff02191690831515021790555050808061118890612dd9565b915050610f00565b506000600360146101000a81548160ff0219169083151502179055506000600360009054906101000a900473ffffffffffffffffffffffffffffffffffffffff16905083600360006101000a81548173ffffffffffffffffffffffffffffffffffffffff021916908373ffffffffffffffffffffffffffffffffffffffff1602179055506004547fcbaa7c7c351e2d5655fc08d9c383adcf4736af160c800b53df1f1dd221f826c88286604051611248929190612b56565b60405180910390a250505050565b600360009054906101000a900473ffffffffffffffffffffffffffffffffffffffff1681565b6060600360009054906101000a900473ffffffffffffffffffffffffffffffffffffffff1673ffffffffffffffffffffffffffffffffffffffff163373ffffffffffffffffffffffffffffffffffffffff161461130e576040517f08c379a000000000000000000000000000000000000000000000000000000000815260040161130590612891565b60405180910390fd5b6000808373ffffffffffffffffffffffffffffffffffffffff163460405161133590612e52565b60006040518083038185875af1925050503d8060008114611372576040519150601f19603f3d011682016040523d82523d6000602084013e611377565b606091505b5091509150816113bc576040517f08c379a00000000000000000000000000000000000000000000000000000000081526004016113b390612eb3565b60405180910390fd5b8373ffffffffffffffffffffffffffffffffffffffff167f47d99ad340f52da66535aff7e10da1ceb85a32bcbd9fa1c42314d194545e14d2346040516114029190612ef6565b60405180910390a28092505050919050565b600360009054906101000a900473ffffffffffffffffffffffffffffffffffffffff1673ffffffffffffffffffffffffffffffffffffffff163373ffffffffffffffffffffffffffffffffffffffff16146114a4576040517f08c379a000000000000000000000000000000000000000000000000000000000815260040161149b90612891565b60405180910390fd5b6000600560008381526020019081526020016000208190555050565b60066020528060005260406000206000915090508060000160009054906101000a900473ffffffffffffffffffffffffffffffffffffffff16908060010154908060020160009054906101000a900460ff16905083565b600160003360405160200161152c9190612acf565b60405160208183030381529060405280519060200120815260200190815260200160002060009054906101000a900460ff1661159d576040517f08c379a000000000000000000000000000000000000000000000000000000000815260040161159490612b36565b60405180910390fd5b3373ffffffffffffffffffffffffffffffffffffffff16336040516020016115c59190612acf565b604051602081830303815290604052805190602001207faeee4dc34642964bd6d8194b8689894338b209de063b46447e53fe54d54eb99b60405160405180910390a3565b60045481565b600063bc197c8160e01b905098975050505050505050565b60016020528060005260406000206000915054906101000a900460ff1681565b600360009054906101000a900473ffffffffffffffffffffffffffffffffffffffff1673ffffffffffffffffffffffffffffffffffffffff163373ffffffffffffffffffffffffffffffffffffffff16146116d7576040517f08c379a00000000000000000000000000000000000000000000000000000000081526004016116ce90612891565b60405180910390fd5b3373ffffffffffffffffffffffffffffffffffffffff167fe1fffcc4923d04b559f4d29a8bfc6cda04eb5b0d3c460751c2402c5c5cc9109c3460405161171d9190611f12565b60405180910390a2565b600160003360405160200161173c9190612acf565b60405160208183030381529060405280519060200120815260200190815260200160002060009054906101000a900460ff166117ad576040517f08c379a00000000000000000000000000000000000000000000000000000000081526004016117a490612b36565b60405180910390fd5b600360149054906101000a900460ff16156117fd576040517f08c379a00000000000000000000000000000000000000000000000000000000081526004016117f490612f70565b60405180910390fd5b6004600081548092919061181090612dd9565b919050555060405180606001604052808273ffffffffffffffffffffffffffffffffffffffff168152602001600454815260200160001515815250600660003373ffffffffffffffffffffffffffffffffffffffff1673ffffffffffffffffffffffffffffffffffffffff16815260200190815260200160002060008201518160000160006101000a81548173ffffffffffffffffffffffffffffffffffffffff021916908373ffffffffffffffffffffffffffffffffffffffff1602179055506020820151816001015560408201518160020160006101000a81548160ff0219169083151502179055509050506001600360146101000a81548160ff0219169083151502179055506004543373ffffffffffffffffffffffffffffffffffffffff167fe290ea2cc3cfeb5114f992dc8be9e503de30042c13b9298644a2679b09e17a04836040516119629190612445565b60405180910390a350565b600360009054906101000a900473ffffffffffffffffffffffffffffffffffffffff1673ffffffffffffffffffffffffffffffffffffffff163373ffffffffffffffffffffffffffffffffffffffff16146119fd576040517f08c379a00000000000000000000000000000000000000000000000000000000081526004016119f490612891565b60405180910390fd5b6001600082815260200190815260200160002060009054906101000a900460ff16611a5d576040517f08c379a0000000000000000000000000000000000000000000000000000000008152600401611a5490612fdc565b60405180910390fd5b6203f48042611a6c9190612ffc565b6005600083815260200190815260200160002081905550807f7c5906c97abceb0e2aa5b3aa0181decc25ff01fe67d8926b62600f44e0785e4560405160405180910390a250565b6001600033604051602001611ac89190612acf565b60405160208183030381529060405280519060200120815260200190815260200160002060009054906101000a900460ff16611b39576040517f08c379a0000000000000000000000000000000000000000000000000000000008152600401611b3090612b36565b60405180910390fd5b600360149054906101000a900460ff1615611b89576040517f08c379a0000000000000000000000000000000000000000000000000000000008152600401611b8090612f70565b60405180910390fd5b60006005600033604051602001611ba09190612acf565b6040516020818303038152906040528051906020012081526020019081526020016000205414611c05576040517f08c379a0000000000000000000000000000000000000000000000000000000008152600401611bfc906130a2565b60405180910390fd5b60006001600033604051602001611c1c9190612acf565b60405160208183030381529060405280519060200120815260200190815260200160002060006101000a81548160ff021916908315150217905550600180600083815260200190815260200160002060006101000a81548160ff021916908315150217905550803373ffffffffffffffffffffffffffffffffffffffff167febb73463791ab4e1ce8ac274520eca412b3aea13fcfac358e8e834f6d8ba716660405160405180910390a350565b600360149054906101000a900460ff1681565b600063f23a6e6160e01b90509695505050505050565b6060600360009054906101000a900473ffffffffffffffffffffffffffffffffffffffff1673ffffffffffffffffffffffffffffffffffffffff163373ffffffffffffffffffffffffffffffffffffffff1614611d84576040517f08c379a0000000000000000000000000000000000000000000000000000000008152600401611d7b90612891565b60405180910390fd5b611d8c611ea0565b6000808573ffffffffffffffffffffffffffffffffffffffff168585604051611db591906130f3565b60006040518083038185875af1925050503d8060008114611df2576040519150601f19603f3d011682016040523d82523d6000602084013e611df7565b606091505b509150915081611e3c576040517f08c379a0000000000000000000000000000000000000000000000000000000008152600401611e3390612eb3565b60405180910390fd5b8573ffffffffffffffffffffffffffffffffffffffff167f47d99ad340f52da66535aff7e10da1ceb85a32bcbd9fa1c42314d194545e14d28686604051611e8492919061310a565b60405180910390a28092505050611e99611eef565b9392505050565b600260005403611ee5576040517f08c379a0000000000000000000000000000000000000000000000000000000008152600401611edc90613186565b60405180910390fd5b6002600081905550565b6001600081905550565b6000819050919050565b611f0c81611ef9565b82525050565b6000602082019050611f276000830184611f03565b92915050565b6000604051905090565b600080fd5b600080fd5b60007fffffffff0000000000000000000000000000000000000000000000000000000082169050919050565b611f7681611f41565b8114611f8157600080fd5b50565b600081359050611f9381611f6d565b92915050565b600060208284031215611faf57611fae611f37565b5b6000611fbd84828501611f84565b91505092915050565b60008115159050919050565b611fdb81611fc6565b82525050565b6000602082019050611ff66000830184611fd2565b92915050565b600073ffffffffffffffffffffffffffffffffffffffff82169050919050565b600061202782611ffc565b9050919050565b6120378161201c565b811461204257600080fd5b50565b6000813590506120548161202e565b92915050565b61206381611ef9565b811461206e57600080fd5b50565b6000813590506120808161205a565b92915050565b600080fd5b600080fd5b6000601f19601f8301169050919050565b7f4e487b7100000000000000000000000000000000000000000000000000000000600052604160045260246000fd5b6120d982612090565b810181811067ffffffffffffffff821117156120f8576120f76120a1565b5b80604052505050565b600061210b611f2d565b905061211782826120d0565b919050565b600067ffffffffffffffff821115612137576121366120a1565b5b61214082612090565b9050602081019050919050565b82818337600083830152505050565b600061216f61216a8461211c565b612101565b90508281526020810184848401111561218b5761218a61208b565b5b61219684828561214d565b509392505050565b600082601f8301126121b3576121b2612086565b5b81356121c384826020860161215c565b91505092915050565b600080600080608085870312156121e6576121e5611f37565b5b60006121f487828801612045565b945050602061220587828801612045565b935050604061221687828801612071565b925050606085013567ffffffffffffffff81111561223757612236611f3c565b5b6122438782880161219e565b91505092959194509250565b61225881611f41565b82525050565b6000602082019050612273600083018461224f565b92915050565b60006020828403121561228f5761228e611f37565b5b600061229d84828501612071565b91505092915050565b6000819050919050565b6122b9816122a6565b81146122c457600080fd5b50565b6000813590506122d6816122b0565b92915050565b6000602082840312156122f2576122f1611f37565b5b6000612300848285016122c7565b91505092915050565b600080604083850312156123205761231f611f37565b5b600061232e858286016122c7565b925050602061233f858286016122c7565b9150509250929050565b60006020828403121561235f5761235e611f37565b5b600061236d84828501612045565b91505092915050565b600080fd5b600080fd5b60008083601f84011261239657612395612086565b5b8235905067ffffffffffffffff8111156123b3576123b2612376565b5b6020830191508360208202830111156123cf576123ce61237b565b5b9250929050565b6000806000604084860312156123ef576123ee611f37565b5b60006123fd86828701612045565b935050602084013567ffffffffffffffff81111561241e5761241d611f3c565b5b61242a86828701612380565b92509250509250925092565b61243f8161201c565b82525050565b600060208201905061245a6000830184612436565b92915050565b600061246b82611ffc565b9050919050565b61247b81612460565b811461248657600080fd5b50565b60008135905061249881612472565b92915050565b6000602082840312156124b4576124b3611f37565b5b60006124c284828501612489565b91505092915050565b600081519050919050565b600082825260208201905092915050565b60005b838110156125055780820151818401526020810190506124ea565b60008484015250505050565b600061251c826124cb565b61252681856124d6565b93506125368185602086016124e7565b61253f81612090565b840191505092915050565b600060208201905081810360008301526125648184612511565b905092915050565b60006060820190506125816000830186612436565b61258e6020830185611f03565b61259b6040830184611fd2565b949350505050565b60008083601f8401126125b9576125b8612086565b5b8235905067ffffffffffffffff8111156125d6576125d5612376565b5b6020830191508360208202830111156125f2576125f161237b565b5b9250929050565b60008083601f84011261260f5761260e612086565b5b8235905067ffffffffffffffff81111561262c5761262b612376565b5b6020830191508360018202830111156126485761264761237b565b5b9250929050565b60008060008060008060008060a0898b03121561266f5761266e611f37565b5b600061267d8b828c01612045565b985050602061268e8b828c01612045565b975050604089013567ffffffffffffffff8111156126af576126ae611f3c565b5b6126bb8b828c016125a3565b9650965050606089013567ffffffffffffffff8111156126de576126dd611f3c565b5b6126ea8b828c016125a3565b9450945050608089013567ffffffffffffffff81111561270d5761270c611f3c565b5b6127198b828c016125f9565b92509250509295985092959890939650565b60008060008060008060a0878903121561274857612747611f37565b5b600061275689828a01612045565b965050602061276789828a01612045565b955050604061277889828a01612071565b945050606061278989828a01612071565b935050608087013567ffffffffffffffff8111156127aa576127a9611f3c565b5b6127b689828a016125f9565b92509250509295509295509295565b6000806000606084860312156127de576127dd611f37565b5b60006127ec86828701612045565b93505060206127fd86828701612071565b925050604084013567ffffffffffffffff81111561281e5761281d611f3c565b5b61282a8682870161219e565b9150509250925092565b600082825260208201905092915050565b7f6f6e6c79206f776e657200000000000000000000000000000000000000000000600082015250565b600061287b600a83612834565b915061288682612845565b602082019050919050565b600060208201905081810360008301526128aa8161286e565b9050919050565b7f77616c6c6574206973206e6f7420696e207265636f76657279206d6f64650000600082015250565b60006128e7601e83612834565b91506128f2826128b1565b602082019050919050565b60006020820190508181036000830152612916816128da565b9050919050565b7f6e6f7420656e6f7567682062616c616e63650000000000000000000000000000600082015250565b6000612953601283612834565b915061295e8261291d565b602082019050919050565b6000602082019050818103600083015261298281612946565b9050919050565b7f677561726469616e2069736e27742071756575656420666f722072656d6f766160008201527f6c00000000000000000000000000000000000000000000000000000000000000602082015250565b60006129e5602183612834565b91506129f082612989565b604082019050919050565b60006020820190508181036000830152612a14816129d8565b9050919050565b7f74696d652064656c617920686173206e6f742070617373656400000000000000600082015250565b6000612a51601983612834565b9150612a5c82612a1b565b602082019050919050565b60006020820190508181036000830152612a8081612a44565b9050919050565b60008160601b9050919050565b6000612a9f82612a87565b9050919050565b6000612ab182612a94565b9050919050565b612ac9612ac48261201c565b612aa6565b82525050565b6000612adb8284612ab8565b60148201915081905092915050565b7f6f6e6c7920677561726469616e00000000000000000000000000000000000000600082015250565b6000612b20600d83612834565b9150612b2b82612aea565b602082019050919050565b60006020820190508181036000830152612b4f81612b13565b9050919050565b6000604082019050612b6b6000830185612436565b612b786020830184612436565b9392505050565b7f6d6f726520677561726469616e7320726571756972656420746f207472616e7360008201527f666572206f776e65727368697000000000000000000000000000000000000000602082015250565b6000612bdb602d83612834565b9150612be682612b7f565b604082019050919050565b60006020820190508181036000830152612c0a81612bce565b9050919050565b7f4e487b7100000000000000000000000000000000000000000000000000000000600052603260045260246000fd5b7f726f756e64206d69736d61746368000000000000000000000000000000000000600082015250565b6000612c76600e83612834565b9150612c8182612c40565b602082019050919050565b60006020820190508181036000830152612ca581612c69565b9050919050565b7f64697361677265656d656e74206f6e206e6577206f776e657200000000000000600082015250565b6000612ce2601983612834565b9150612ced82612cac565b602082019050919050565b60006020820190508181036000830152612d1181612cd5565b9050919050565b7f6475706c696361746520677561726469616e207573656420696e207265636f7660008201527f6572790000000000000000000000000000000000000000000000000000000000602082015250565b6000612d74602383612834565b9150612d7f82612d18565b604082019050919050565b60006020820190508181036000830152612da381612d67565b9050919050565b7f4e487b7100000000000000000000000000000000000000000000000000000000600052601160045260246000fd5b6000612de482611ef9565b91507fffffffffffffffffffffffffffffffffffffffffffffffffffffffffffffffff8203612e1657612e15612daa565b5b600182019050919050565b600081905092915050565b50565b6000612e3c600083612e21565b9150612e4782612e2c565b600082019050919050565b6000612e5d82612e2f565b9150819050919050565b7f65787465726e616c2063616c6c20726576657274656400000000000000000000600082015250565b6000612e9d601683612834565b9150612ea882612e67565b602082019050919050565b60006020820190508181036000830152612ecc81612e90565b9050919050565b6000612ee06000836124d6565b9150612eeb82612e2c565b600082019050919050565b6000604082019050612f0b6000830184611f03565b8181036020830152612f1c81612ed3565b905092915050565b7f77616c6c657420697320696e207265636f76657279206d6f6465000000000000600082015250565b6000612f5a601a83612834565b9150612f6582612f24565b602082019050919050565b60006020820190508181036000830152612f8981612f4d565b9050919050565b7f6e6f74206120677561726469616e000000000000000000000000000000000000600082015250565b6000612fc6600e83612834565b9150612fd182612f90565b602082019050919050565b60006020820190508181036000830152612ff581612fb9565b9050919050565b600061300782611ef9565b915061301283611ef9565b925082820190508082111561302a57613029612daa565b5b92915050565b7f677561726469616e207175657565756420666f722072656d6f76616c2c20636160008201527f6e6e6f74207472616e7366657220677561726469616e73686970000000000000602082015250565b600061308c603a83612834565b915061309782613030565b604082019050919050565b600060208201905081810360008301526130bb8161307f565b9050919050565b60006130cd826124cb565b6130d78185612e21565b93506130e78185602086016124e7565b80840191505092915050565b60006130ff82846130c2565b915081905092915050565b600060408201905061311f6000830185611f03565b81810360208301526131318184612511565b90509392505050565b7f5265656e7472616e637947756172643a207265656e7472616e742063616c6c00600082015250565b6000613170601f83612834565b915061317b8261313a565b602082019050919050565b6000602082019050818103600083015261319f81613163565b905091905056fea26469706673582212203292b37d25255e44abd7a002cadf8398945e0232b288340e9ed305450ff6793364736f6c63430008110033","opcodes":"PUSH1 0x80 PUSH1 0x40 MSTORE CALLVALUE DUP1 ISZERO PUSH3 0x11 JUMPI PUSH1 0x0 DUP1 REVERT JUMPDEST POP PUSH1 0x40 MLOAD PUSH3 0x37B4 CODESIZE SUB DUP1 PUSH3 0x37B4 DUP4 CODECOPY DUP2 DUP2 ADD PUSH1 0x40 MSTORE DUP2 ADD SWAP1 PUSH3 0x37 SWAP2 SWAP1 PUSH3 0x3C2 JUMP JUMPDEST PUSH1 0x1 PUSH1 0x0 DUP2 SWAP1 SSTORE POP DUP2 MLOAD DUP2 GT ISZERO PUSH3 0x86 JUMPI PUSH1 0x40 MLOAD PUSH32 0x8C379A000000000000000000000000000000000000000000000000000000000 DUP2 MSTORE PUSH1 0x4 ADD PUSH3 0x7D SWAP1 PUSH3 0x489 JUMP JUMPDEST PUSH1 0x40 MLOAD DUP1 SWAP2 SUB SWAP1 REVERT JUMPDEST PUSH1 0x0 JUMPDEST DUP3 MLOAD DUP2 LT ISZERO PUSH3 0x172 JUMPI PUSH1 0x1 PUSH1 0x0 DUP5 DUP4 DUP2 MLOAD DUP2 LT PUSH3 0xAD JUMPI PUSH3 0xAC PUSH3 0x4AB JUMP JUMPDEST JUMPDEST PUSH1 0x20 MUL PUSH1 0x20 ADD ADD MLOAD DUP2 MSTORE PUSH1 0x20 ADD SWAP1 DUP2 MSTORE PUSH1 0x20 ADD PUSH1 0x0 KECCAK256 PUSH1 0x0 SWAP1 SLOAD SWAP1 PUSH2 0x100 EXP SWAP1 DIV PUSH1 0xFF AND ISZERO PUSH3 0x114 JUMPI PUSH1 0x40 MLOAD PUSH32 0x8C379A000000000000000000000000000000000000000000000000000000000 DUP2 MSTORE PUSH1 0x4 ADD PUSH3 0x10B SWAP1 PUSH3 0x52A JUMP JUMPDEST PUSH1 0x40 MLOAD DUP1 SWAP2 SUB SWAP1 REVERT JUMPDEST PUSH1 0x1 DUP1 PUSH1 0x0 DUP6 DUP5 DUP2 MLOAD DUP2 LT PUSH3 0x12F JUMPI PUSH3 0x12E PUSH3 0x4AB JUMP JUMPDEST JUMPDEST PUSH1 0x20 MUL PUSH1 0x20 ADD ADD MLOAD DUP2 MSTORE PUSH1 0x20 ADD SWAP1 DUP2 MSTORE PUSH1 0x20 ADD PUSH1 0x0 KECCAK256 PUSH1 0x0 PUSH2 0x100 EXP DUP2 SLOAD DUP2 PUSH1 0xFF MUL NOT AND SWAP1 DUP4 ISZERO ISZERO MUL OR SWAP1 SSTORE POP DUP1 DUP1 PUSH3 0x169 SWAP1 PUSH3 0x57B JUMP JUMPDEST SWAP2 POP POP PUSH3 0x89 JUMP JUMPDEST POP DUP1 PUSH1 0x2 DUP2 SWAP1 SSTORE POP CALLER PUSH1 0x3 PUSH1 0x0 PUSH2 0x100 EXP DUP2 SLOAD DUP2 PUSH20 0xFFFFFFFFFFFFFFFFFFFFFFFFFFFFFFFFFFFFFFFF MUL NOT AND SWAP1 DUP4 PUSH20 0xFFFFFFFFFFFFFFFFFFFFFFFFFFFFFFFFFFFFFFFF AND MUL OR SWAP1 SSTORE POP POP POP PUSH3 0x5C8 JUMP JUMPDEST PUSH1 0x0 PUSH1 0x40 MLOAD SWAP1 POP SWAP1 JUMP JUMPDEST PUSH1 0x0 DUP1 REVERT JUMPDEST PUSH1 0x0 DUP1 REVERT JUMPDEST PUSH1 0x0 DUP1 REVERT JUMPDEST PUSH1 0x0 PUSH1 0x1F NOT PUSH1 0x1F DUP4 ADD AND SWAP1 POP SWAP2 SWAP1 POP JUMP JUMPDEST PUSH32 0x4E487B7100000000000000000000000000000000000000000000000000000000 PUSH1 0x0 MSTORE PUSH1 0x41 PUSH1 0x4 MSTORE PUSH1 0x24 PUSH1 0x0 REVERT JUMPDEST PUSH3 0x227 DUP3 PUSH3 0x1DC JUMP JUMPDEST DUP2 ADD DUP2 DUP2 LT PUSH8 0xFFFFFFFFFFFFFFFF DUP3 GT OR ISZERO PUSH3 0x249 JUMPI PUSH3 0x248 PUSH3 0x1ED JUMP JUMPDEST JUMPDEST DUP1 PUSH1 0x40 MSTORE POP POP POP JUMP JUMPDEST PUSH1 0x0 PUSH3 0x25E PUSH3 0x1C3 JUMP JUMPDEST SWAP1 POP PUSH3 0x26C DUP3 DUP3 PUSH3 0x21C JUMP JUMPDEST SWAP2 SWAP1 POP JUMP JUMPDEST PUSH1 0x0 PUSH8 0xFFFFFFFFFFFFFFFF DUP3 GT ISZERO PUSH3 0x28F JUMPI PUSH3 0x28E PUSH3 0x1ED JUMP JUMPDEST JUMPDEST PUSH1 0x20 DUP3 MUL SWAP1 POP PUSH1 0x20 DUP2 ADD SWAP1 POP SWAP2 SWAP1 POP JUMP JUMPDEST PUSH1 0x0 DUP1 REVERT JUMPDEST PUSH1 0x0 DUP2 SWAP1 POP SWAP2 SWAP1 POP JUMP JUMPDEST PUSH3 0x2BA DUP2 PUSH3 0x2A5 JUMP JUMPDEST DUP2 EQ PUSH3 0x2C6 JUMPI PUSH1 0x0 DUP1 REVERT JUMPDEST POP JUMP JUMPDEST PUSH1 0x0 DUP2 MLOAD SWAP1 POP PUSH3 0x2DA DUP2 PUSH3 0x2AF JUMP JUMPDEST SWAP3 SWAP2 POP POP JUMP JUMPDEST PUSH1 0x0 PUSH3 0x2F7 PUSH3 0x2F1 DUP5 PUSH3 0x271 JUMP JUMPDEST PUSH3 0x252 JUMP JUMPDEST SWAP1 POP DUP1 DUP4 DUP3 MSTORE PUSH1 0x20 DUP3 ADD SWAP1 POP PUSH1 0x20 DUP5 MUL DUP4 ADD DUP6 DUP2 GT ISZERO PUSH3 0x31D JUMPI PUSH3 0x31C PUSH3 0x2A0 JUMP JUMPDEST JUMPDEST DUP4 JUMPDEST DUP2 DUP2 LT ISZERO PUSH3 0x34A JUMPI DUP1 PUSH3 0x335 DUP9 DUP3 PUSH3 0x2C9 JUMP JUMPDEST DUP5 MSTORE PUSH1 0x20 DUP5 ADD SWAP4 POP POP PUSH1 0x20 DUP2 ADD SWAP1 POP PUSH3 0x31F JUMP JUMPDEST POP POP POP SWAP4 SWAP3 POP POP POP JUMP JUMPDEST PUSH1 0x0 DUP3 PUSH1 0x1F DUP4 ADD SLT PUSH3 0x36C JUMPI PUSH3 0x36B PUSH3 0x1D7 JUMP JUMPDEST JUMPDEST DUP2 MLOAD PUSH3 0x37E DUP5 DUP3 PUSH1 0x20 DUP7 ADD PUSH3 0x2E0 JUMP JUMPDEST SWAP2 POP POP SWAP3 SWAP2 POP POP JUMP JUMPDEST PUSH1 0x0 DUP2 SWAP1 POP SWAP2 SWAP1 POP JUMP JUMPDEST PUSH3 0x39C DUP2 PUSH3 0x387 JUMP JUMPDEST DUP2 EQ PUSH3 0x3A8 JUMPI PUSH1 0x0 DUP1 REVERT JUMPDEST POP JUMP JUMPDEST PUSH1 0x0 DUP2 MLOAD SWAP1 POP PUSH3 0x3BC DUP2 PUSH3 0x391 JUMP JUMPDEST SWAP3 SWAP2 POP POP JUMP JUMPDEST PUSH1 0x0 DUP1 PUSH1 0x40 DUP4 DUP6 SUB SLT ISZERO PUSH3 0x3DC JUMPI PUSH3 0x3DB PUSH3 0x1CD JUMP JUMPDEST JUMPDEST PUSH1 0x0 DUP4 ADD MLOAD PUSH8 0xFFFFFFFFFFFFFFFF DUP2 GT ISZERO PUSH3 0x3FD JUMPI PUSH3 0x3FC PUSH3 0x1D2 JUMP JUMPDEST JUMPDEST PUSH3 0x40B DUP6 DUP3 DUP7 ADD PUSH3 0x354 JUMP JUMPDEST SWAP3 POP POP PUSH1 0x20 PUSH3 0x41E DUP6 DUP3 DUP7 ADD PUSH3 0x3AB JUMP JUMPDEST SWAP2 POP POP SWAP3 POP SWAP3 SWAP1 POP JUMP JUMPDEST PUSH1 0x0 DUP3 DUP3 MSTORE PUSH1 0x20 DUP3 ADD SWAP1 POP SWAP3 SWAP2 POP POP JUMP JUMPDEST PUSH32 0x7468726573686F6C6420746F6F20686967680000000000000000000000000000 PUSH1 0x0 DUP3 ADD MSTORE POP JUMP JUMPDEST PUSH1 0x0 PUSH3 0x471 PUSH1 0x12 DUP4 PUSH3 0x428 JUMP JUMPDEST SWAP2 POP PUSH3 0x47E DUP3 PUSH3 0x439 JUMP JUMPDEST PUSH1 0x20 DUP3 ADD SWAP1 POP SWAP2 SWAP1 POP JUMP JUMPDEST PUSH1 0x0 PUSH1 0x20 DUP3 ADD SWAP1 POP DUP2 DUP2 SUB PUSH1 0x0 DUP4 ADD MSTORE PUSH3 0x4A4 DUP2 PUSH3 0x462 JUMP JUMPDEST SWAP1 POP SWAP2 SWAP1 POP JUMP JUMPDEST PUSH32 0x4E487B7100000000000000000000000000000000000000000000000000000000 PUSH1 0x0 MSTORE PUSH1 0x32 PUSH1 0x4 MSTORE PUSH1 0x24 PUSH1 0x0 REVERT JUMPDEST PUSH32 0x6475706C696361746520677561726469616E0000000000000000000000000000 PUSH1 0x0 DUP3 ADD MSTORE POP JUMP JUMPDEST PUSH1 0x0 PUSH3 0x512 PUSH1 0x12 DUP4 PUSH3 0x428 JUMP JUMPDEST SWAP2 POP PUSH3 0x51F DUP3 PUSH3 0x4DA JUMP JUMPDEST PUSH1 0x20 DUP3 ADD SWAP1 POP SWAP2 SWAP1 POP JUMP JUMPDEST PUSH1 0x0 PUSH1 0x20 DUP3 ADD SWAP1 POP DUP2 DUP2 SUB PUSH1 0x0 DUP4 ADD MSTORE PUSH3 0x545 DUP2 PUSH3 0x503 JUMP JUMPDEST SWAP1 POP SWAP2 SWAP1 POP JUMP JUMPDEST PUSH32 0x4E487B7100000000000000000000000000000000000000000000000000000000 PUSH1 0x0 MSTORE PUSH1 0x11 PUSH1 0x4 MSTORE PUSH1 0x24 PUSH1 0x0 REVERT JUMPDEST PUSH1 0x0 PUSH3 0x588 DUP3 PUSH3 0x387 JUMP JUMPDEST SWAP2 POP PUSH32 0xFFFFFFFFFFFFFFFFFFFFFFFFFFFFFFFFFFFFFFFFFFFFFFFFFFFFFFFFFFFFFFFF DUP3 SUB PUSH3 0x5BD JUMPI PUSH3 0x5BC PUSH3 0x54C JUMP JUMPDEST JUMPDEST PUSH1 0x1 DUP3 ADD SWAP1 POP SWAP2 SWAP1 POP JUMP JUMPDEST PUSH2 0x31DC DUP1 PUSH3 0x5D8 PUSH1 0x0 CODECOPY PUSH1 0x0 RETURN INVALID PUSH1 0x80 PUSH1 0x40 MSTORE PUSH1 0x4 CALLDATASIZE LT PUSH2 0x16A JUMPI PUSH1 0x0 CALLDATALOAD PUSH1 0xE0 SHR DUP1 PUSH4 0x91E8715F GT PUSH2 0xD1 JUMPI DUP1 PUSH4 0xD0E30DB0 GT PUSH2 0x8A JUMPI DUP1 PUSH4 0xDF6204AE GT PUSH2 0x64 JUMPI DUP1 PUSH4 0xDF6204AE EQ PUSH2 0x5B2 JUMPI DUP1 PUSH4 0xF05151DF EQ PUSH2 0x5DB JUMPI DUP1 PUSH4 0xF23A6E61 EQ PUSH2 0x606 JUMPI DUP1 PUSH4 0xF48BF4C3 EQ PUSH2 0x643 JUMPI PUSH2 0x1BF JUMP JUMPDEST DUP1 PUSH4 0xD0E30DB0 EQ PUSH2 0x556 JUMPI DUP1 PUSH4 0xD5CE9AAD EQ PUSH2 0x560 JUMPI DUP1 PUSH4 0xDAAFAA75 EQ PUSH2 0x589 JUMPI PUSH2 0x1BF JUMP JUMPDEST DUP1 PUSH4 0x91E8715F EQ PUSH2 0x432 JUMPI DUP1 PUSH4 0xA079E2A1 EQ PUSH2 0x45B JUMPI DUP1 PUSH4 0xA774F412 EQ PUSH2 0x49A JUMPI DUP1 PUSH4 0xACE7C993 EQ PUSH2 0x4B1 JUMPI DUP1 PUSH4 0xBC197C81 EQ PUSH2 0x4DC JUMPI DUP1 PUSH4 0xC42FE50A EQ PUSH2 0x519 JUMPI PUSH2 0x1BF JUMP JUMPDEST DUP1 PUSH4 0x3C7CA796 GT PUSH2 0x123 JUMPI DUP1 PUSH4 0x3C7CA796 EQ PUSH2 0x331 JUMPI DUP1 PUSH4 0x42CDE4E8 EQ PUSH2 0x35A JUMPI DUP1 PUSH4 0x57E685BC EQ PUSH2 0x385 JUMPI DUP1 PUSH4 0x5FC489A7 EQ PUSH2 0x3AE JUMPI DUP1 PUSH4 0x8DA5CB5B EQ PUSH2 0x3D7 JUMPI DUP1 PUSH4 0x905C5FA2 EQ PUSH2 0x402 JUMPI PUSH2 0x1BF JUMP JUMPDEST DUP1 PUSH4 0x1FFC9A7 EQ PUSH2 0x20F JUMPI DUP1 PUSH4 0xBA234D6 EQ PUSH2 0x24C JUMPI DUP1 PUSH4 0x12065FE0 EQ PUSH2 0x263 JUMPI DUP1 PUSH4 0x150B7A02 EQ PUSH2 0x28E JUMPI DUP1 PUSH4 0x2E1A7D4D EQ PUSH2 0x2CB JUMPI DUP1 PUSH4 0x361AD252 EQ PUSH2 0x2F4 JUMPI PUSH2 0x1BF JUMP JUMPDEST CALLDATASIZE PUSH2 0x1BF JUMPI CALLER PUSH20 0xFFFFFFFFFFFFFFFFFFFFFFFFFFFFFFFFFFFFFFFF AND PUSH32 0xE1FFFCC4923D04B559F4D29A8BFC6CDA04EB5B0D3C460751C2402C5C5CC9109C CALLVALUE PUSH1 0x40 MLOAD PUSH2 0x1B5 SWAP2 SWAP1 PUSH2 0x1F12 JUMP JUMPDEST PUSH1 0x40 MLOAD DUP1 SWAP2 SUB SWAP1 LOG2 STOP JUMPDEST CALLER PUSH20 0xFFFFFFFFFFFFFFFFFFFFFFFFFFFFFFFFFFFFFFFF AND PUSH32 0xE1FFFCC4923D04B559F4D29A8BFC6CDA04EB5B0D3C460751C2402C5C5CC9109C CALLVALUE PUSH1 0x40 MLOAD PUSH2 0x205 SWAP2 SWAP1 PUSH2 0x1F12 JUMP JUMPDEST PUSH1 0x40 MLOAD DUP1 SWAP2 SUB SWAP1 LOG2 STOP JUMPDEST CALLVALUE DUP1 ISZERO PUSH2 0x21B JUMPI PUSH1 0x0 DUP1 REVERT JUMPDEST POP PUSH2 0x236 PUSH1 0x4 DUP1 CALLDATASIZE SUB DUP2 ADD SWAP1 PUSH2 0x231 SWAP2 SWAP1 PUSH2 0x1F99 JUMP JUMPDEST PUSH2 0x680 JUMP JUMPDEST PUSH1 0x40 MLOAD PUSH2 0x243 SWAP2 SWAP1 PUSH2 0x1FE1 JUMP JUMPDEST PUSH1 0x40 MLOAD DUP1 SWAP2 SUB SWAP1 RETURN JUMPDEST CALLVALUE DUP1 ISZERO PUSH2 0x258 JUMPI PUSH1 0x0 DUP1 REVERT JUMPDEST POP PUSH2 0x261 PUSH2 0x723 JUMP JUMPDEST STOP JUMPDEST CALLVALUE DUP1 ISZERO PUSH2 0x26F JUMPI PUSH1 0x0 DUP1 REVERT JUMPDEST POP PUSH2 0x278 PUSH2 0x859 JUMP JUMPDEST PUSH1 0x40 MLOAD PUSH2 0x285 SWAP2 SWAP1 PUSH2 0x1F12 JUMP JUMPDEST PUSH1 0x40 MLOAD DUP1 SWAP2 SUB SWAP1 RETURN JUMPDEST CALLVALUE DUP1 ISZERO PUSH2 0x29A JUMPI PUSH1 0x0 DUP1 REVERT JUMPDEST POP PUSH2 0x2B5 PUSH1 0x4 DUP1 CALLDATASIZE SUB DUP2 ADD SWAP1 PUSH2 0x2B0 SWAP2 SWAP1 PUSH2 0x21CC JUMP JUMPDEST PUSH2 0x861 JUMP JUMPDEST PUSH1 0x40 MLOAD PUSH2 0x2C2 SWAP2 SWAP1 PUSH2 0x225E JUMP JUMPDEST PUSH1 0x40 MLOAD DUP1 SWAP2 SUB SWAP1 RETURN JUMPDEST CALLVALUE DUP1 ISZERO PUSH2 0x2D7 JUMPI PUSH1 0x0 DUP1 REVERT JUMPDEST POP PUSH2 0x2F2 PUSH1 0x4 DUP1 CALLDATASIZE SUB DUP2 ADD SWAP1 PUSH2 0x2ED SWAP2 SWAP1 PUSH2 0x2279 JUMP JUMPDEST PUSH2 0x875 JUMP JUMPDEST STOP JUMPDEST CALLVALUE DUP1 ISZERO PUSH2 0x300 JUMPI PUSH1 0x0 DUP1 REVERT JUMPDEST POP PUSH2 0x31B PUSH1 0x4 DUP1 CALLDATASIZE SUB DUP2 ADD SWAP1 PUSH2 0x316 SWAP2 SWAP1 PUSH2 0x22DC JUMP JUMPDEST PUSH2 0x9E7 JUMP JUMPDEST PUSH1 0x40 MLOAD PUSH2 0x328 SWAP2 SWAP1 PUSH2 0x1F12 JUMP JUMPDEST PUSH1 0x40 MLOAD DUP1 SWAP2 SUB SWAP1 RETURN JUMPDEST CALLVALUE DUP1 ISZERO PUSH2 0x33D JUMPI PUSH1 0x0 DUP1 REVERT JUMPDEST POP PUSH2 0x358 PUSH1 0x4 DUP1 CALLDATASIZE SUB DUP2 ADD SWAP1 PUSH2 0x353 SWAP2 SWAP1 PUSH2 0x2309 JUMP JUMPDEST PUSH2 0x9FF JUMP JUMPDEST STOP JUMPDEST CALLVALUE DUP1 ISZERO PUSH2 0x366 JUMPI PUSH1 0x0 DUP1 REVERT JUMPDEST POP PUSH2 0x36F PUSH2 0xBDD JUMP JUMPDEST PUSH1 0x40 MLOAD PUSH2 0x37C SWAP2 SWAP1 PUSH2 0x1F12 JUMP JUMPDEST PUSH1 0x40 MLOAD DUP1 SWAP2 SUB SWAP1 RETURN JUMPDEST CALLVALUE DUP1 ISZERO PUSH2 0x391 JUMPI PUSH1 0x0 DUP1 REVERT JUMPDEST POP PUSH2 0x3AC PUSH1 0x4 DUP1 CALLDATASIZE SUB DUP2 ADD SWAP1 PUSH2 0x3A7 SWAP2 SWAP1 PUSH2 0x2349 JUMP JUMPDEST PUSH2 0xBE3 JUMP JUMPDEST STOP JUMPDEST CALLVALUE DUP1 ISZERO PUSH2 0x3BA JUMPI PUSH1 0x0 DUP1 REVERT JUMPDEST POP PUSH2 0x3D5 PUSH1 0x4 DUP1 CALLDATASIZE SUB DUP2 ADD SWAP1 PUSH2 0x3D0 SWAP2 SWAP1 PUSH2 0x23D6 JUMP JUMPDEST PUSH2 0xDE0 JUMP JUMPDEST STOP JUMPDEST CALLVALUE DUP1 ISZERO PUSH2 0x3E3 JUMPI PUSH1 0x0 DUP1 REVERT JUMPDEST POP PUSH2 0x3EC PUSH2 0x1256 JUMP JUMPDEST PUSH1 0x40 MLOAD PUSH2 0x3F9 SWAP2 SWAP1 PUSH2 0x2445 JUMP JUMPDEST PUSH1 0x40 MLOAD DUP1 SWAP2 SUB SWAP1 RETURN JUMPDEST PUSH2 0x41C PUSH1 0x4 DUP1 CALLDATASIZE SUB DUP2 ADD SWAP1 PUSH2 0x417 SWAP2 SWAP1 PUSH2 0x249E JUMP JUMPDEST PUSH2 0x127C JUMP JUMPDEST PUSH1 0x40 MLOAD PUSH2 0x429 SWAP2 SWAP1 PUSH2 0x254A JUMP JUMPDEST PUSH1 0x40 MLOAD DUP1 SWAP2 SUB SWAP1 RETURN JUMPDEST CALLVALUE DUP1 ISZERO PUSH2 0x43E JUMPI PUSH1 0x0 DUP1 REVERT JUMPDEST POP PUSH2 0x459 PUSH1 0x4 DUP1 CALLDATASIZE SUB DUP2 ADD SWAP1 PUSH2 0x454 SWAP2 SWAP1 PUSH2 0x22DC JUMP JUMPDEST PUSH2 0x1414 JUMP JUMPDEST STOP JUMPDEST CALLVALUE DUP1 ISZERO PUSH2 0x467 JUMPI PUSH1 0x0 DUP1 REVERT JUMPDEST POP PUSH2 0x482 PUSH1 0x4 DUP1 CALLDATASIZE SUB DUP2 ADD SWAP1 PUSH2 0x47D SWAP2 SWAP1 PUSH2 0x2349 JUMP JUMPDEST PUSH2 0x14C0 JUMP JUMPDEST PUSH1 0x40 MLOAD PUSH2 0x491 SWAP4 SWAP3 SWAP2 SWAP1 PUSH2 0x256C JUMP JUMPDEST PUSH1 0x40 MLOAD DUP1 SWAP2 SUB SWAP1 RETURN JUMPDEST CALLVALUE DUP1 ISZERO PUSH2 0x4A6 JUMPI PUSH1 0x0 DUP1 REVERT JUMPDEST POP PUSH2 0x4AF PUSH2 0x1517 JUMP JUMPDEST STOP JUMPDEST CALLVALUE DUP1 ISZERO PUSH2 0x4BD JUMPI PUSH1 0x0 DUP1 REVERT JUMPDEST POP PUSH2 0x4C6 PUSH2 0x1609 JUMP JUMPDEST PUSH1 0x40 MLOAD PUSH2 0x4D3 SWAP2 SWAP1 PUSH2 0x1F12 JUMP JUMPDEST PUSH1 0x40 MLOAD DUP1 SWAP2 SUB SWAP1 RETURN JUMPDEST CALLVALUE DUP1 ISZERO PUSH2 0x4E8 JUMPI PUSH1 0x0 DUP1 REVERT JUMPDEST POP PUSH2 0x503 PUSH1 0x4 DUP1 CALLDATASIZE SUB DUP2 ADD SWAP1 PUSH2 0x4FE SWAP2 SWAP1 PUSH2 0x264F JUMP JUMPDEST PUSH2 0x160F JUMP JUMPDEST PUSH1 0x40 MLOAD PUSH2 0x510 SWAP2 SWAP1 PUSH2 0x225E JUMP JUMPDEST PUSH1 0x40 MLOAD DUP1 SWAP2 SUB SWAP1 RETURN JUMPDEST CALLVALUE DUP1 ISZERO PUSH2 0x525 JUMPI PUSH1 0x0 DUP1 REVERT JUMPDEST POP PUSH2 0x540 PUSH1 0x4 DUP1 CALLDATASIZE SUB DUP2 ADD SWAP1 PUSH2 0x53B SWAP2 SWAP1 PUSH2 0x22DC JUMP JUMPDEST PUSH2 0x1627 JUMP JUMPDEST PUSH1 0x40 MLOAD PUSH2 0x54D SWAP2 SWAP1 PUSH2 0x1FE1 JUMP JUMPDEST PUSH1 0x40 MLOAD DUP1 SWAP2 SUB SWAP1 RETURN JUMPDEST PUSH2 0x55E PUSH2 0x1647 JUMP JUMPDEST STOP JUMPDEST CALLVALUE DUP1 ISZERO PUSH2 0x56C JUMPI PUSH1 0x0 DUP1 REVERT JUMPDEST POP PUSH2 0x587 PUSH1 0x4 DUP1 CALLDATASIZE SUB DUP2 ADD SWAP1 PUSH2 0x582 SWAP2 SWAP1 PUSH2 0x2349 JUMP JUMPDEST PUSH2 0x1727 JUMP JUMPDEST STOP JUMPDEST CALLVALUE DUP1 ISZERO PUSH2 0x595 JUMPI PUSH1 0x0 DUP1 REVERT JUMPDEST POP PUSH2 0x5B0 PUSH1 0x4 DUP1 CALLDATASIZE SUB DUP2 ADD SWAP1 PUSH2 0x5AB SWAP2 SWAP1 PUSH2 0x22DC JUMP JUMPDEST PUSH2 0x196D JUMP JUMPDEST STOP JUMPDEST CALLVALUE DUP1 ISZERO PUSH2 0x5BE JUMPI PUSH1 0x0 DUP1 REVERT JUMPDEST POP PUSH2 0x5D9 PUSH1 0x4 DUP1 CALLDATASIZE SUB DUP2 ADD SWAP1 PUSH2 0x5D4 SWAP2 SWAP1 PUSH2 0x22DC JUMP JUMPDEST PUSH2 0x1AB3 JUMP JUMPDEST STOP JUMPDEST CALLVALUE DUP1 ISZERO PUSH2 0x5E7 JUMPI PUSH1 0x0 DUP1 REVERT JUMPDEST POP PUSH2 0x5F0 PUSH2 0x1CC9 JUMP JUMPDEST PUSH1 0x40 MLOAD PUSH2 0x5FD SWAP2 SWAP1 PUSH2 0x1FE1 JUMP JUMPDEST PUSH1 0x40 MLOAD DUP1 SWAP2 SUB SWAP1 RETURN JUMPDEST CALLVALUE DUP1 ISZERO PUSH2 0x612 JUMPI PUSH1 0x0 DUP1 REVERT JUMPDEST POP PUSH2 0x62D PUSH1 0x4 DUP1 CALLDATASIZE SUB DUP2 ADD SWAP1 PUSH2 0x628 SWAP2 SWAP1 PUSH2 0x272B JUMP JUMPDEST PUSH2 0x1CDC JUMP JUMPDEST PUSH1 0x40 MLOAD PUSH2 0x63A SWAP2 SWAP1 PUSH2 0x225E JUMP JUMPDEST PUSH1 0x40 MLOAD DUP1 SWAP2 SUB SWAP1 RETURN JUMPDEST CALLVALUE DUP1 ISZERO PUSH2 0x64F JUMPI PUSH1 0x0 DUP1 REVERT JUMPDEST POP PUSH2 0x66A PUSH1 0x4 DUP1 CALLDATASIZE SUB DUP2 ADD SWAP1 PUSH2 0x665 SWAP2 SWAP1 PUSH2 0x27C5 JUMP JUMPDEST PUSH2 0x1CF2 JUMP JUMPDEST PUSH1 0x40 MLOAD PUSH2 0x677 SWAP2 SWAP1 PUSH2 0x254A JUMP JUMPDEST PUSH1 0x40 MLOAD DUP1 SWAP2 SUB SWAP1 RETURN JUMPDEST PUSH1 0x0 PUSH4 0x1FFC9A7 PUSH1 0xE0 SHL DUP3 PUSH28 0xFFFFFFFFFFFFFFFFFFFFFFFFFFFFFFFFFFFFFFFFFFFFFFFFFFFFFFFF NOT AND EQ DUP1 PUSH2 0x6DB JUMPI POP PUSH4 0x150B7A02 PUSH1 0xE0 SHL DUP3 PUSH28 0xFFFFFFFFFFFFFFFFFFFFFFFFFFFFFFFFFFFFFFFFFFFFFFFFFFFFFFFF NOT AND EQ JUMPDEST DUP1 PUSH2 0x70B JUMPI POP PUSH4 0x4E2312E0 PUSH1 0xE0 SHL DUP3 PUSH28 0xFFFFFFFFFFFFFFFFFFFFFFFFFFFFFFFFFFFFFFFFFFFFFFFFFFFFFFFF NOT AND EQ JUMPDEST ISZERO PUSH2 0x719 JUMPI PUSH1 0x1 SWAP1 POP PUSH2 0x71E JUMP JUMPDEST PUSH1 0x0 SWAP1 POP JUMPDEST SWAP2 SWAP1 POP JUMP JUMPDEST PUSH1 0x3 PUSH1 0x0 SWAP1 SLOAD SWAP1 PUSH2 0x100 EXP SWAP1 DIV PUSH20 0xFFFFFFFFFFFFFFFFFFFFFFFFFFFFFFFFFFFFFFFF AND PUSH20 0xFFFFFFFFFFFFFFFFFFFFFFFFFFFFFFFFFFFFFFFF AND CALLER PUSH20 0xFFFFFFFFFFFFFFFFFFFFFFFFFFFFFFFFFFFFFFFF AND EQ PUSH2 0x7B3 JUMPI PUSH1 0x40 MLOAD PUSH32 0x8C379A000000000000000000000000000000000000000000000000000000000 DUP2 MSTORE PUSH1 0x4 ADD PUSH2 0x7AA SWAP1 PUSH2 0x2891 JUMP JUMPDEST PUSH1 0x40 MLOAD DUP1 SWAP2 SUB SWAP1 REVERT JUMPDEST PUSH1 0x3 PUSH1 0x14 SWAP1 SLOAD SWAP1 PUSH2 0x100 EXP SWAP1 DIV PUSH1 0xFF AND PUSH2 0x802 JUMPI PUSH1 0x40 MLOAD PUSH32 0x8C379A000000000000000000000000000000000000000000000000000000000 DUP2 MSTORE PUSH1 0x4 ADD PUSH2 0x7F9 SWAP1 PUSH2 0x28FD JUMP JUMPDEST PUSH1 0x40 MLOAD DUP1 SWAP2 SUB SWAP1 REVERT JUMPDEST PUSH1 0x0 PUSH1 0x3 PUSH1 0x14 PUSH2 0x100 EXP DUP2 SLOAD DUP2 PUSH1 0xFF MUL NOT AND SWAP1 DUP4 ISZERO ISZERO MUL OR SWAP1 SSTORE POP PUSH1 0x4 SLOAD PUSH32 0x500EC1D4B692D3C788BFD78A898DE379CFD93AB8177575EFC7593F87BD051A07 CALLER PUSH1 0x40 MLOAD PUSH2 0x84F SWAP2 SWAP1 PUSH2 0x2445 JUMP JUMPDEST PUSH1 0x40 MLOAD DUP1 SWAP2 SUB SWAP1 LOG2 JUMP JUMPDEST PUSH1 0x0 SELFBALANCE SWAP1 POP SWAP1 JUMP JUMPDEST PUSH1 0x0 PUSH4 0x150B7A02 PUSH1 0xE0 SHL SWAP1 POP SWAP5 SWAP4 POP POP POP POP JUMP JUMPDEST PUSH1 0x3 PUSH1 0x0 SWAP1 SLOAD SWAP1 PUSH2 0x100 EXP SWAP1 DIV PUSH20 0xFFFFFFFFFFFFFFFFFFFFFFFFFFFFFFFFFFFFFFFF AND PUSH20 0xFFFFFFFFFFFFFFFFFFFFFFFFFFFFFFFFFFFFFFFF AND CALLER PUSH20 0xFFFFFFFFFFFFFFFFFFFFFFFFFFFFFFFFFFFFFFFF AND EQ PUSH2 0x905 JUMPI PUSH1 0x40 MLOAD PUSH32 0x8C379A000000000000000000000000000000000000000000000000000000000 DUP2 MSTORE PUSH1 0x4 ADD PUSH2 0x8FC SWAP1 PUSH2 0x2891 JUMP JUMPDEST PUSH1 0x40 MLOAD DUP1 SWAP2 SUB SWAP1 REVERT JUMPDEST PUSH2 0x90D PUSH2 0x859 JUMP JUMPDEST DUP2 GT ISZERO PUSH2 0x94F JUMPI PUSH1 0x40 MLOAD PUSH32 0x8C379A000000000000000000000000000000000000000000000000000000000 DUP2 MSTORE PUSH1 0x4 ADD PUSH2 0x946 SWAP1 PUSH2 0x2969 JUMP JUMPDEST PUSH1 0x40 MLOAD DUP1 SWAP2 SUB SWAP1 REVERT JUMPDEST CALLER PUSH20 0xFFFFFFFFFFFFFFFFFFFFFFFFFFFFFFFFFFFFFFFF AND PUSH2 0x8FC DUP3 SWAP1 DUP2 ISZERO MUL SWAP1 PUSH1 0x40 MLOAD PUSH1 0x0 PUSH1 0x40 MLOAD DUP1 DUP4 SUB DUP2 DUP6 DUP9 DUP9 CALL SWAP4 POP POP POP POP ISZERO DUP1 ISZERO PUSH2 0x995 JUMPI RETURNDATASIZE PUSH1 0x0 DUP1 RETURNDATACOPY RETURNDATASIZE PUSH1 0x0 REVERT JUMPDEST POP CALLER PUSH20 0xFFFFFFFFFFFFFFFFFFFFFFFFFFFFFFFFFFFFFFFF AND PUSH32 0x884EDAD9CE6FA2440D8A54CC123490EB96D2768479D49FF9C7366125A9424364 DUP3 PUSH1 0x40 MLOAD PUSH2 0x9DC SWAP2 SWAP1 PUSH2 0x1F12 JUMP JUMPDEST PUSH1 0x40 MLOAD DUP1 SWAP2 SUB SWAP1 LOG2 POP JUMP JUMPDEST PUSH1 0x5 PUSH1 0x20 MSTORE DUP1 PUSH1 0x0 MSTORE PUSH1 0x40 PUSH1 0x0 KECCAK256 PUSH1 0x0 SWAP2 POP SWAP1 POP SLOAD DUP2 JUMP JUMPDEST PUSH1 0x3 PUSH1 0x0 SWAP1 SLOAD SWAP1 PUSH2 0x100 EXP SWAP1 DIV PUSH20 0xFFFFFFFFFFFFFFFFFFFFFFFFFFFFFFFFFFFFFFFF AND PUSH20 0xFFFFFFFFFFFFFFFFFFFFFFFFFFFFFFFFFFFFFFFF AND CALLER PUSH20 0xFFFFFFFFFFFFFFFFFFFFFFFFFFFFFFFFFFFFFFFF AND EQ PUSH2 0xA8F JUMPI PUSH1 0x40 MLOAD PUSH32 0x8C379A000000000000000000000000000000000000000000000000000000000 DUP2 MSTORE PUSH1 0x4 ADD PUSH2 0xA86 SWAP1 PUSH2 0x2891 JUMP JUMPDEST PUSH1 0x40 MLOAD DUP1 SWAP2 SUB SWAP1 REVERT JUMPDEST PUSH1 0x0 PUSH1 0x5 PUSH1 0x0 DUP5 DUP2 MSTORE PUSH1 0x20 ADD SWAP1 DUP2 MSTORE PUSH1 0x20 ADD PUSH1 0x0 KECCAK256 SLOAD GT PUSH2 0xAE5 JUMPI PUSH1 0x40 MLOAD PUSH32 0x8C379A000000000000000000000000000000000000000000000000000000000 DUP2 MSTORE PUSH1 0x4 ADD PUSH2 0xADC SWAP1 PUSH2 0x29FB JUMP JUMPDEST PUSH1 0x40 MLOAD DUP1 SWAP2 SUB SWAP1 REVERT JUMPDEST TIMESTAMP PUSH1 0x5 PUSH1 0x0 DUP5 DUP2 MSTORE PUSH1 0x20 ADD SWAP1 DUP2 MSTORE PUSH1 0x20 ADD PUSH1 0x0 KECCAK256 SLOAD GT ISZERO PUSH2 0xB3B JUMPI PUSH1 0x40 MLOAD PUSH32 0x8C379A000000000000000000000000000000000000000000000000000000000 DUP2 MSTORE PUSH1 0x4 ADD PUSH2 0xB32 SWAP1 PUSH2 0x2A67 JUMP JUMPDEST PUSH1 0x40 MLOAD DUP1 SWAP2 SUB SWAP1 REVERT JUMPDEST PUSH1 0x0 PUSH1 0x5 PUSH1 0x0 DUP5 DUP2 MSTORE PUSH1 0x20 ADD SWAP1 DUP2 MSTORE PUSH1 0x20 ADD PUSH1 0x0 KECCAK256 DUP2 SWAP1 SSTORE POP PUSH1 0x0 PUSH1 0x1 PUSH1 0x0 DUP5 DUP2 MSTORE PUSH1 0x20 ADD SWAP1 DUP2 MSTORE PUSH1 0x20 ADD PUSH1 0x0 KECCAK256 PUSH1 0x0 PUSH2 0x100 EXP DUP2 SLOAD DUP2 PUSH1 0xFF MUL NOT AND SWAP1 DUP4 ISZERO ISZERO MUL OR SWAP1 SSTORE POP PUSH1 0x1 DUP1 PUSH1 0x0 DUP4 DUP2 MSTORE PUSH1 0x20 ADD SWAP1 DUP2 MSTORE PUSH1 0x20 ADD PUSH1 0x0 KECCAK256 PUSH1 0x0 PUSH2 0x100 EXP DUP2 SLOAD DUP2 PUSH1 0xFF MUL NOT AND SWAP1 DUP4 ISZERO ISZERO MUL OR SWAP1 SSTORE POP DUP1 DUP3 PUSH32 0x8187100ADCD2468151D7572D3D2A17CDB4AB9F7688ACAF80ADA4BFF51AEA8CA6 PUSH1 0x40 MLOAD PUSH1 0x40 MLOAD DUP1 SWAP2 SUB SWAP1 LOG3 POP POP JUMP JUMPDEST PUSH1 0x2 SLOAD DUP2 JUMP JUMPDEST PUSH1 0x1 PUSH1 0x0 CALLER PUSH1 0x40 MLOAD PUSH1 0x20 ADD PUSH2 0xBF8 SWAP2 SWAP1 PUSH2 0x2ACF JUMP JUMPDEST PUSH1 0x40 MLOAD PUSH1 0x20 DUP2 DUP4 SUB SUB DUP2 MSTORE SWAP1 PUSH1 0x40 MSTORE DUP1 MLOAD SWAP1 PUSH1 0x20 ADD KECCAK256 DUP2 MSTORE PUSH1 0x20 ADD SWAP1 DUP2 MSTORE PUSH1 0x20 ADD PUSH1 0x0 KECCAK256 PUSH1 0x0 SWAP1 SLOAD SWAP1 PUSH2 0x100 EXP SWAP1 DIV PUSH1 0xFF AND PUSH2 0xC69 JUMPI PUSH1 0x40 MLOAD PUSH32 0x8C379A000000000000000000000000000000000000000000000000000000000 DUP2 MSTORE PUSH1 0x4 ADD PUSH2 0xC60 SWAP1 PUSH2 0x2B36 JUMP JUMPDEST PUSH1 0x40 MLOAD DUP1 SWAP2 SUB SWAP1 REVERT JUMPDEST PUSH1 0x3 PUSH1 0x14 SWAP1 SLOAD SWAP1 PUSH2 0x100 EXP SWAP1 DIV PUSH1 0xFF AND PUSH2 0xCB8 JUMPI PUSH1 0x40 MLOAD PUSH32 0x8C379A000000000000000000000000000000000000000000000000000000000 DUP2 MSTORE PUSH1 0x4 ADD PUSH2 0xCAF SWAP1 PUSH2 0x28FD JUMP JUMPDEST PUSH1 0x40 MLOAD DUP1 SWAP2 SUB SWAP1 REVERT JUMPDEST PUSH1 0x40 MLOAD DUP1 PUSH1 0x60 ADD PUSH1 0x40 MSTORE DUP1 DUP3 PUSH20 0xFFFFFFFFFFFFFFFFFFFFFFFFFFFFFFFFFFFFFFFF AND DUP2 MSTORE PUSH1 0x20 ADD PUSH1 0x4 SLOAD DUP2 MSTORE PUSH1 0x20 ADD PUSH1 0x0 ISZERO ISZERO DUP2 MSTORE POP PUSH1 0x6 PUSH1 0x0 CALLER PUSH20 0xFFFFFFFFFFFFFFFFFFFFFFFFFFFFFFFFFFFFFFFF AND PUSH20 0xFFFFFFFFFFFFFFFFFFFFFFFFFFFFFFFFFFFFFFFF AND DUP2 MSTORE PUSH1 0x20 ADD SWAP1 DUP2 MSTORE PUSH1 0x20 ADD PUSH1 0x0 KECCAK256 PUSH1 0x0 DUP3 ADD MLOAD DUP2 PUSH1 0x0 ADD PUSH1 0x0 PUSH2 0x100 EXP DUP2 SLOAD DUP2 PUSH20 0xFFFFFFFFFFFFFFFFFFFFFFFFFFFFFFFFFFFFFFFF MUL NOT AND SWAP1 DUP4 PUSH20 0xFFFFFFFFFFFFFFFFFFFFFFFFFFFFFFFFFFFFFFFF AND MUL OR SWAP1 SSTORE POP PUSH1 0x20 DUP3 ADD MLOAD DUP2 PUSH1 0x1 ADD SSTORE PUSH1 0x40 DUP3 ADD MLOAD DUP2 PUSH1 0x2 ADD PUSH1 0x0 PUSH2 0x100 EXP DUP2 SLOAD DUP2 PUSH1 0xFF MUL NOT AND SWAP1 DUP4 ISZERO ISZERO MUL OR SWAP1 SSTORE POP SWAP1 POP POP PUSH1 0x4 SLOAD PUSH32 0x7A0B940199FF58E943823FE8C0E916DF112BE357049D8105A7E83CF9A4000E4A CALLER DUP4 PUSH1 0x40 MLOAD PUSH2 0xDD5 SWAP3 SWAP2 SWAP1 PUSH2 0x2B56 JUMP JUMPDEST PUSH1 0x40 MLOAD DUP1 SWAP2 SUB SWAP1 LOG2 POP JUMP JUMPDEST PUSH1 0x1 PUSH1 0x0 CALLER PUSH1 0x40 MLOAD PUSH1 0x20 ADD PUSH2 0xDF5 SWAP2 SWAP1 PUSH2 0x2ACF JUMP JUMPDEST PUSH1 0x40 MLOAD PUSH1 0x20 DUP2 DUP4 SUB SUB DUP2 MSTORE SWAP1 PUSH1 0x40 MSTORE DUP1 MLOAD SWAP1 PUSH1 0x20 ADD KECCAK256 DUP2 MSTORE PUSH1 0x20 ADD SWAP1 DUP2 MSTORE PUSH1 0x20 ADD PUSH1 0x0 KECCAK256 PUSH1 0x0 SWAP1 SLOAD SWAP1 PUSH2 0x100 EXP SWAP1 DIV PUSH1 0xFF AND PUSH2 0xE66 JUMPI PUSH1 0x40 MLOAD PUSH32 0x8C379A000000000000000000000000000000000000000000000000000000000 DUP2 MSTORE PUSH1 0x4 ADD PUSH2 0xE5D SWAP1 PUSH2 0x2B36 JUMP JUMPDEST PUSH1 0x40 MLOAD DUP1 SWAP2 SUB SWAP1 REVERT JUMPDEST PUSH1 0x3 PUSH1 0x14 SWAP1 SLOAD SWAP1 PUSH2 0x100 EXP SWAP1 DIV PUSH1 0xFF AND PUSH2 0xEB5 JUMPI PUSH1 0x40 MLOAD PUSH32 0x8C379A000000000000000000000000000000000000000000000000000000000 DUP2 MSTORE PUSH1 0x4 ADD PUSH2 0xEAC SWAP1 PUSH2 0x28FD JUMP JUMPDEST PUSH1 0x40 MLOAD DUP1 SWAP2 SUB SWAP1 REVERT JUMPDEST PUSH1 0x2 SLOAD DUP3 DUP3 SWAP1 POP LT ISZERO PUSH2 0xEFD JUMPI PUSH1 0x40 MLOAD PUSH32 0x8C379A000000000000000000000000000000000000000000000000000000000 DUP2 MSTORE PUSH1 0x4 ADD PUSH2 0xEF4 SWAP1 PUSH2 0x2BF1 JUMP JUMPDEST PUSH1 0x40 MLOAD DUP1 SWAP2 SUB SWAP1 REVERT JUMPDEST PUSH1 0x0 JUMPDEST DUP3 DUP3 SWAP1 POP DUP2 LT ISZERO PUSH2 0x1190 JUMPI PUSH1 0x0 PUSH1 0x6 PUSH1 0x0 DUP6 DUP6 DUP6 DUP2 DUP2 LT PUSH2 0xF24 JUMPI PUSH2 0xF23 PUSH2 0x2C11 JUMP JUMPDEST JUMPDEST SWAP1 POP PUSH1 0x20 MUL ADD PUSH1 0x20 DUP2 ADD SWAP1 PUSH2 0xF39 SWAP2 SWAP1 PUSH2 0x2349 JUMP JUMPDEST PUSH20 0xFFFFFFFFFFFFFFFFFFFFFFFFFFFFFFFFFFFFFFFF AND PUSH20 0xFFFFFFFFFFFFFFFFFFFFFFFFFFFFFFFFFFFFFFFF AND DUP2 MSTORE PUSH1 0x20 ADD SWAP1 DUP2 MSTORE PUSH1 0x20 ADD PUSH1 0x0 KECCAK256 PUSH1 0x40 MLOAD DUP1 PUSH1 0x60 ADD PUSH1 0x40 MSTORE SWAP1 DUP2 PUSH1 0x0 DUP3 ADD PUSH1 0x0 SWAP1 SLOAD SWAP1 PUSH2 0x100 EXP SWAP1 DIV PUSH20 0xFFFFFFFFFFFFFFFFFFFFFFFFFFFFFFFFFFFFFFFF AND PUSH20 0xFFFFFFFFFFFFFFFFFFFFFFFFFFFFFFFFFFFFFFFF AND PUSH20 0xFFFFFFFFFFFFFFFFFFFFFFFFFFFFFFFFFFFFFFFF AND DUP2 MSTORE PUSH1 0x20 ADD PUSH1 0x1 DUP3 ADD SLOAD DUP2 MSTORE PUSH1 0x20 ADD PUSH1 0x2 DUP3 ADD PUSH1 0x0 SWAP1 SLOAD SWAP1 PUSH2 0x100 EXP SWAP1 DIV PUSH1 0xFF AND ISZERO ISZERO ISZERO ISZERO DUP2 MSTORE POP POP SWAP1 POP PUSH1 0x4 SLOAD DUP2 PUSH1 0x20 ADD MLOAD EQ PUSH2 0x1043 JUMPI PUSH1 0x40 MLOAD PUSH32 0x8C379A000000000000000000000000000000000000000000000000000000000 DUP2 MSTORE PUSH1 0x4 ADD PUSH2 0x103A SWAP1 PUSH2 0x2C8C JUMP JUMPDEST PUSH1 0x40 MLOAD DUP1 SWAP2 SUB SWAP1 REVERT JUMPDEST DUP5 PUSH20 0xFFFFFFFFFFFFFFFFFFFFFFFFFFFFFFFFFFFFFFFF AND DUP2 PUSH1 0x0 ADD MLOAD PUSH20 0xFFFFFFFFFFFFFFFFFFFFFFFFFFFFFFFFFFFFFFFF AND EQ PUSH2 0x10B5 JUMPI PUSH1 0x40 MLOAD PUSH32 0x8C379A000000000000000000000000000000000000000000000000000000000 DUP2 MSTORE PUSH1 0x4 ADD PUSH2 0x10AC SWAP1 PUSH2 0x2CF8 JUMP JUMPDEST PUSH1 0x40 MLOAD DUP1 SWAP2 SUB SWAP1 REVERT JUMPDEST DUP1 PUSH1 0x40 ADD MLOAD ISZERO PUSH2 0x10FA JUMPI PUSH1 0x40 MLOAD PUSH32 0x8C379A000000000000000000000000000000000000000000000000000000000 DUP2 MSTORE PUSH1 0x4 ADD PUSH2 0x10F1 SWAP1 PUSH2 0x2D8A JUMP JUMPDEST PUSH1 0x40 MLOAD DUP1 SWAP2 SUB SWAP1 REVERT JUMPDEST PUSH1 0x1 PUSH1 0x6 PUSH1 0x0 DUP7 DUP7 DUP7 DUP2 DUP2 LT PUSH2 0x1113 JUMPI PUSH2 0x1112 PUSH2 0x2C11 JUMP JUMPDEST JUMPDEST SWAP1 POP PUSH1 0x20 MUL ADD PUSH1 0x20 DUP2 ADD SWAP1 PUSH2 0x1128 SWAP2 SWAP1 PUSH2 0x2349 JUMP JUMPDEST PUSH20 0xFFFFFFFFFFFFFFFFFFFFFFFFFFFFFFFFFFFFFFFF AND PUSH20 0xFFFFFFFFFFFFFFFFFFFFFFFFFFFFFFFFFFFFFFFF AND DUP2 MSTORE PUSH1 0x20 ADD SWAP1 DUP2 MSTORE PUSH1 0x20 ADD PUSH1 0x0 KECCAK256 PUSH1 0x2 ADD PUSH1 0x0 PUSH2 0x100 EXP DUP2 SLOAD DUP2 PUSH1 0xFF MUL NOT AND SWAP1 DUP4 ISZERO ISZERO MUL OR SWAP1 SSTORE POP POP DUP1 DUP1 PUSH2 0x1188 SWAP1 PUSH2 0x2DD9 JUMP JUMPDEST SWAP2 POP POP PUSH2 0xF00 JUMP JUMPDEST POP PUSH1 0x0 PUSH1 0x3 PUSH1 0x14 PUSH2 0x100 EXP DUP2 SLOAD DUP2 PUSH1 0xFF MUL NOT AND SWAP1 DUP4 ISZERO ISZERO MUL OR SWAP1 SSTORE POP PUSH1 0x0 PUSH1 0x3 PUSH1 0x0 SWAP1 SLOAD SWAP1 PUSH2 0x100 EXP SWAP1 DIV PUSH20 0xFFFFFFFFFFFFFFFFFFFFFFFFFFFFFFFFFFFFFFFF AND SWAP1 POP DUP4 PUSH1 0x3 PUSH1 0x0 PUSH2 0x100 EXP DUP2 SLOAD DUP2 PUSH20 0xFFFFFFFFFFFFFFFFFFFFFFFFFFFFFFFFFFFFFFFF MUL NOT AND SWAP1 DUP4 PUSH20 0xFFFFFFFFFFFFFFFFFFFFFFFFFFFFFFFFFFFFFFFF AND MUL OR SWAP1 SSTORE POP PUSH1 0x4 SLOAD PUSH32 0xCBAA7C7C351E2D5655FC08D9C383ADCF4736AF160C800B53DF1F1DD221F826C8 DUP3 DUP7 PUSH1 0x40 MLOAD PUSH2 0x1248 SWAP3 SWAP2 SWAP1 PUSH2 0x2B56 JUMP JUMPDEST PUSH1 0x40 MLOAD DUP1 SWAP2 SUB SWAP1 LOG2 POP POP POP POP JUMP JUMPDEST PUSH1 0x3 PUSH1 0x0 SWAP1 SLOAD SWAP1 PUSH2 0x100 EXP SWAP1 DIV PUSH20 0xFFFFFFFFFFFFFFFFFFFFFFFFFFFFFFFFFFFFFFFF AND DUP2 JUMP JUMPDEST PUSH1 0x60 PUSH1 0x3 PUSH1 0x0 SWAP1 SLOAD SWAP1 PUSH2 0x100 EXP SWAP1 DIV PUSH20 0xFFFFFFFFFFFFFFFFFFFFFFFFFFFFFFFFFFFFFFFF AND PUSH20 0xFFFFFFFFFFFFFFFFFFFFFFFFFFFFFFFFFFFFFFFF AND CALLER PUSH20 0xFFFFFFFFFFFFFFFFFFFFFFFFFFFFFFFFFFFFFFFF AND EQ PUSH2 0x130E JUMPI PUSH1 0x40 MLOAD PUSH32 0x8C379A000000000000000000000000000000000000000000000000000000000 DUP2 MSTORE PUSH1 0x4 ADD PUSH2 0x1305 SWAP1 PUSH2 0x2891 JUMP JUMPDEST PUSH1 0x40 MLOAD DUP1 SWAP2 SUB SWAP1 REVERT JUMPDEST PUSH1 0x0 DUP1 DUP4 PUSH20 0xFFFFFFFFFFFFFFFFFFFFFFFFFFFFFFFFFFFFFFFF AND CALLVALUE PUSH1 0x40 MLOAD PUSH2 0x1335 SWAP1 PUSH2 0x2E52 JUMP JUMPDEST PUSH1 0x0 PUSH1 0x40 MLOAD DUP1 DUP4 SUB DUP2 DUP6 DUP8 GAS CALL SWAP3 POP POP POP RETURNDATASIZE DUP1 PUSH1 0x0 DUP2 EQ PUSH2 0x1372 JUMPI PUSH1 0x40 MLOAD SWAP2 POP PUSH1 0x1F NOT PUSH1 0x3F RETURNDATASIZE ADD AND DUP3 ADD PUSH1 0x40 MSTORE RETURNDATASIZE DUP3 MSTORE RETURNDATASIZE PUSH1 0x0 PUSH1 0x20 DUP5 ADD RETURNDATACOPY PUSH2 0x1377 JUMP JUMPDEST PUSH1 0x60 SWAP2 POP JUMPDEST POP SWAP2 POP SWAP2 POP DUP2 PUSH2 0x13BC JUMPI PUSH1 0x40 MLOAD PUSH32 0x8C379A000000000000000000000000000000000000000000000000000000000 DUP2 MSTORE PUSH1 0x4 ADD PUSH2 0x13B3 SWAP1 PUSH2 0x2EB3 JUMP JUMPDEST PUSH1 0x40 MLOAD DUP1 SWAP2 SUB SWAP1 REVERT JUMPDEST DUP4 PUSH20 0xFFFFFFFFFFFFFFFFFFFFFFFFFFFFFFFFFFFFFFFF AND PUSH32 0x47D99AD340F52DA66535AFF7E10DA1CEB85A32BCBD9FA1C42314D194545E14D2 CALLVALUE PUSH1 0x40 MLOAD PUSH2 0x1402 SWAP2 SWAP1 PUSH2 0x2EF6 JUMP JUMPDEST PUSH1 0x40 MLOAD DUP1 SWAP2 SUB SWAP1 LOG2 DUP1 SWAP3 POP POP POP SWAP2 SWAP1 POP JUMP JUMPDEST PUSH1 0x3 PUSH1 0x0 SWAP1 SLOAD SWAP1 PUSH2 0x100 EXP SWAP1 DIV PUSH20 0xFFFFFFFFFFFFFFFFFFFFFFFFFFFFFFFFFFFFFFFF AND PUSH20 0xFFFFFFFFFFFFFFFFFFFFFFFFFFFFFFFFFFFFFFFF AND CALLER PUSH20 0xFFFFFFFFFFFFFFFFFFFFFFFFFFFFFFFFFFFFFFFF AND EQ PUSH2 0x14A4 JUMPI PUSH1 0x40 MLOAD PUSH32 0x8C379A000000000000000000000000000000000000000000000000000000000 DUP2 MSTORE PUSH1 0x4 ADD PUSH2 0x149B SWAP1 PUSH2 0x2891 JUMP JUMPDEST PUSH1 0x40 MLOAD DUP1 SWAP2 SUB SWAP1 REVERT JUMPDEST PUSH1 0x0 PUSH1 0x5 PUSH1 0x0 DUP4 DUP2 MSTORE PUSH1 0x20 ADD SWAP1 DUP2 MSTORE PUSH1 0x20 ADD PUSH1 0x0 KECCAK256 DUP2 SWAP1 SSTORE POP POP JUMP JUMPDEST PUSH1 0x6 PUSH1 0x20 MSTORE DUP1 PUSH1 0x0 MSTORE PUSH1 0x40 PUSH1 0x0 KECCAK256 PUSH1 0x0 SWAP2 POP SWAP1 POP DUP1 PUSH1 0x0 ADD PUSH1 0x0 SWAP1 SLOAD SWAP1 PUSH2 0x100 EXP SWAP1 DIV PUSH20 0xFFFFFFFFFFFFFFFFFFFFFFFFFFFFFFFFFFFFFFFF AND SWAP1 DUP1 PUSH1 0x1 ADD SLOAD SWAP1 DUP1 PUSH1 0x2 ADD PUSH1 0x0 SWAP1 SLOAD SWAP1 PUSH2 0x100 EXP SWAP1 DIV PUSH1 0xFF AND SWAP1 POP DUP4 JUMP JUMPDEST PUSH1 0x1 PUSH1 0x0 CALLER PUSH1 0x40 MLOAD PUSH1 0x20 ADD PUSH2 0x152C SWAP2 SWAP1 PUSH2 0x2ACF JUMP JUMPDEST PUSH1 0x40 MLOAD PUSH1 0x20 DUP2 DUP4 SUB SUB DUP2 MSTORE SWAP1 PUSH1 0x40 MSTORE DUP1 MLOAD SWAP1 PUSH1 0x20 ADD KECCAK256 DUP2 MSTORE PUSH1 0x20 ADD SWAP1 DUP2 MSTORE PUSH1 0x20 ADD PUSH1 0x0 KECCAK256 PUSH1 0x0 SWAP1 SLOAD SWAP1 PUSH2 0x100 EXP SWAP1 DIV PUSH1 0xFF AND PUSH2 0x159D JUMPI PUSH1 0x40 MLOAD PUSH32 0x8C379A000000000000000000000000000000000000000000000000000000000 DUP2 MSTORE PUSH1 0x4 ADD PUSH2 0x1594 SWAP1 PUSH2 0x2B36 JUMP JUMPDEST PUSH1 0x40 MLOAD DUP1 SWAP2 SUB SWAP1 REVERT JUMPDEST CALLER PUSH20 0xFFFFFFFFFFFFFFFFFFFFFFFFFFFFFFFFFFFFFFFF AND CALLER PUSH1 0x40 MLOAD PUSH1 0x20 ADD PUSH2 0x15C5 SWAP2 SWAP1 PUSH2 0x2ACF JUMP JUMPDEST PUSH1 0x40 MLOAD PUSH1 0x20 DUP2 DUP4 SUB SUB DUP2 MSTORE SWAP1 PUSH1 0x40 MSTORE DUP1 MLOAD SWAP1 PUSH1 0x20 ADD KECCAK256 PUSH32 0xAEEE4DC34642964BD6D8194B8689894338B209DE063B46447E53FE54D54EB99B PUSH1 0x40 MLOAD PUSH1 0x40 MLOAD DUP1 SWAP2 SUB SWAP1 LOG3 JUMP JUMPDEST PUSH1 0x4 SLOAD DUP2 JUMP JUMPDEST PUSH1 0x0 PUSH4 0xBC197C81 PUSH1 0xE0 SHL SWAP1 POP SWAP9 SWAP8 POP POP POP POP POP POP POP POP JUMP JUMPDEST PUSH1 0x1 PUSH1 0x20 MSTORE DUP1 PUSH1 0x0 MSTORE PUSH1 0x40 PUSH1 0x0 KECCAK256 PUSH1 0x0 SWAP2 POP SLOAD SWAP1 PUSH2 0x100 EXP SWAP1 DIV PUSH1 0xFF AND DUP2 JUMP JUMPDEST PUSH1 0x3 PUSH1 0x0 SWAP1 SLOAD SWAP1 PUSH2 0x100 EXP SWAP1 DIV PUSH20 0xFFFFFFFFFFFFFFFFFFFFFFFFFFFFFFFFFFFFFFFF AND PUSH20 0xFFFFFFFFFFFFFFFFFFFFFFFFFFFFFFFFFFFFFFFF AND CALLER PUSH20 0xFFFFFFFFFFFFFFFFFFFFFFFFFFFFFFFFFFFFFFFF AND EQ PUSH2 0x16D7 JUMPI PUSH1 0x40 MLOAD PUSH32 0x8C379A000000000000000000000000000000000000000000000000000000000 DUP2 MSTORE PUSH1 0x4 ADD PUSH2 0x16CE SWAP1 PUSH2 0x2891 JUMP JUMPDEST PUSH1 0x40 MLOAD DUP1 SWAP2 SUB SWAP1 REVERT JUMPDEST CALLER PUSH20 0xFFFFFFFFFFFFFFFFFFFFFFFFFFFFFFFFFFFFFFFF AND PUSH32 0xE1FFFCC4923D04B559F4D29A8BFC6CDA04EB5B0D3C460751C2402C5C5CC9109C CALLVALUE PUSH1 0x40 MLOAD PUSH2 0x171D SWAP2 SWAP1 PUSH2 0x1F12 JUMP JUMPDEST PUSH1 0x40 MLOAD DUP1 SWAP2 SUB SWAP1 LOG2 JUMP JUMPDEST PUSH1 0x1 PUSH1 0x0 CALLER PUSH1 0x40 MLOAD PUSH1 0x20 ADD PUSH2 0x173C SWAP2 SWAP1 PUSH2 0x2ACF JUMP JUMPDEST PUSH1 0x40 MLOAD PUSH1 0x20 DUP2 DUP4 SUB SUB DUP2 MSTORE SWAP1 PUSH1 0x40 MSTORE DUP1 MLOAD SWAP1 PUSH1 0x20 ADD KECCAK256 DUP2 MSTORE PUSH1 0x20 ADD SWAP1 DUP2 MSTORE PUSH1 0x20 ADD PUSH1 0x0 KECCAK256 PUSH1 0x0 SWAP1 SLOAD SWAP1 PUSH2 0x100 EXP SWAP1 DIV PUSH1 0xFF AND PUSH2 0x17AD JUMPI PUSH1 0x40 MLOAD PUSH32 0x8C379A000000000000000000000000000000000000000000000000000000000 DUP2 MSTORE PUSH1 0x4 ADD PUSH2 0x17A4 SWAP1 PUSH2 0x2B36 JUMP JUMPDEST PUSH1 0x40 MLOAD DUP1 SWAP2 SUB SWAP1 REVERT JUMPDEST PUSH1 0x3 PUSH1 0x14 SWAP1 SLOAD SWAP1 PUSH2 0x100 EXP SWAP1 DIV PUSH1 0xFF AND ISZERO PUSH2 0x17FD JUMPI PUSH1 0x40 MLOAD PUSH32 0x8C379A000000000000000000000000000000000000000000000000000000000 DUP2 MSTORE PUSH1 0x4 ADD PUSH2 0x17F4 SWAP1 PUSH2 0x2F70 JUMP JUMPDEST PUSH1 0x40 MLOAD DUP1 SWAP2 SUB SWAP1 REVERT JUMPDEST PUSH1 0x4 PUSH1 0x0 DUP2 SLOAD DUP1 SWAP3 SWAP2 SWAP1 PUSH2 0x1810 SWAP1 PUSH2 0x2DD9 JUMP JUMPDEST SWAP2 SWAP1 POP SSTORE POP PUSH1 0x40 MLOAD DUP1 PUSH1 0x60 ADD PUSH1 0x40 MSTORE DUP1 DUP3 PUSH20 0xFFFFFFFFFFFFFFFFFFFFFFFFFFFFFFFFFFFFFFFF AND DUP2 MSTORE PUSH1 0x20 ADD PUSH1 0x4 SLOAD DUP2 MSTORE PUSH1 0x20 ADD PUSH1 0x0 ISZERO ISZERO DUP2 MSTORE POP PUSH1 0x6 PUSH1 0x0 CALLER PUSH20 0xFFFFFFFFFFFFFFFFFFFFFFFFFFFFFFFFFFFFFFFF AND PUSH20 0xFFFFFFFFFFFFFFFFFFFFFFFFFFFFFFFFFFFFFFFF AND DUP2 MSTORE PUSH1 0x20 ADD SWAP1 DUP2 MSTORE PUSH1 0x20 ADD PUSH1 0x0 KECCAK256 PUSH1 0x0 DUP3 ADD MLOAD DUP2 PUSH1 0x0 ADD PUSH1 0x0 PUSH2 0x100 EXP DUP2 SLOAD DUP2 PUSH20 0xFFFFFFFFFFFFFFFFFFFFFFFFFFFFFFFFFFFFFFFF MUL NOT AND SWAP1 DUP4 PUSH20 0xFFFFFFFFFFFFFFFFFFFFFFFFFFFFFFFFFFFFFFFF AND MUL OR SWAP1 SSTORE POP PUSH1 0x20 DUP3 ADD MLOAD DUP2 PUSH1 0x1 ADD SSTORE PUSH1 0x40 DUP3 ADD MLOAD DUP2 PUSH1 0x2 ADD PUSH1 0x0 PUSH2 0x100 EXP DUP2 SLOAD DUP2 PUSH1 0xFF MUL NOT AND SWAP1 DUP4 ISZERO ISZERO MUL OR SWAP1 SSTORE POP SWAP1 POP POP PUSH1 0x1 PUSH1 0x3 PUSH1 0x14 PUSH2 0x100 EXP DUP2 SLOAD DUP2 PUSH1 0xFF MUL NOT AND SWAP1 DUP4 ISZERO ISZERO MUL OR SWAP1 SSTORE POP PUSH1 0x4 SLOAD CALLER PUSH20 0xFFFFFFFFFFFFFFFFFFFFFFFFFFFFFFFFFFFFFFFF AND PUSH32 0xE290EA2CC3CFEB5114F992DC8BE9E503DE30042C13B9298644A2679B09E17A04 DUP4 PUSH1 0x40 MLOAD PUSH2 0x1962 SWAP2 SWAP1 PUSH2 0x2445 JUMP JUMPDEST PUSH1 0x40 MLOAD DUP1 SWAP2 SUB SWAP1 LOG3 POP JUMP JUMPDEST PUSH1 0x3 PUSH1 0x0 SWAP1 SLOAD SWAP1 PUSH2 0x100 EXP SWAP1 DIV PUSH20 0xFFFFFFFFFFFFFFFFFFFFFFFFFFFFFFFFFFFFFFFF AND PUSH20 0xFFFFFFFFFFFFFFFFFFFFFFFFFFFFFFFFFFFFFFFF AND CALLER PUSH20 0xFFFFFFFFFFFFFFFFFFFFFFFFFFFFFFFFFFFFFFFF AND EQ PUSH2 0x19FD JUMPI PUSH1 0x40 MLOAD PUSH32 0x8C379A000000000000000000000000000000000000000000000000000000000 DUP2 MSTORE PUSH1 0x4 ADD PUSH2 0x19F4 SWAP1 PUSH2 0x2891 JUMP JUMPDEST PUSH1 0x40 MLOAD DUP1 SWAP2 SUB SWAP1 REVERT JUMPDEST PUSH1 0x1 PUSH1 0x0 DUP3 DUP2 MSTORE PUSH1 0x20 ADD SWAP1 DUP2 MSTORE PUSH1 0x20 ADD PUSH1 0x0 KECCAK256 PUSH1 0x0 SWAP1 SLOAD SWAP1 PUSH2 0x100 EXP SWAP1 DIV PUSH1 0xFF AND PUSH2 0x1A5D JUMPI PUSH1 0x40 MLOAD PUSH32 0x8C379A000000000000000000000000000000000000000000000000000000000 DUP2 MSTORE PUSH1 0x4 ADD PUSH2 0x1A54 SWAP1 PUSH2 0x2FDC JUMP JUMPDEST PUSH1 0x40 MLOAD DUP1 SWAP2 SUB SWAP1 REVERT JUMPDEST PUSH3 0x3F480 TIMESTAMP PUSH2 0x1A6C SWAP2 SWAP1 PUSH2 0x2FFC JUMP JUMPDEST PUSH1 0x5 PUSH1 0x0 DUP4 DUP2 MSTORE PUSH1 0x20 ADD SWAP1 DUP2 MSTORE PUSH1 0x20 ADD PUSH1 0x0 KECCAK256 DUP2 SWAP1 SSTORE POP DUP1 PUSH32 0x7C5906C97ABCEB0E2AA5B3AA0181DECC25FF01FE67D8926B62600F44E0785E45 PUSH1 0x40 MLOAD PUSH1 0x40 MLOAD DUP1 SWAP2 SUB SWAP1 LOG2 POP JUMP JUMPDEST PUSH1 0x1 PUSH1 0x0 CALLER PUSH1 0x40 MLOAD PUSH1 0x20 ADD PUSH2 0x1AC8 SWAP2 SWAP1 PUSH2 0x2ACF JUMP JUMPDEST PUSH1 0x40 MLOAD PUSH1 0x20 DUP2 DUP4 SUB SUB DUP2 MSTORE SWAP1 PUSH1 0x40 MSTORE DUP1 MLOAD SWAP1 PUSH1 0x20 ADD KECCAK256 DUP2 MSTORE PUSH1 0x20 ADD SWAP1 DUP2 MSTORE PUSH1 0x20 ADD PUSH1 0x0 KECCAK256 PUSH1 0x0 SWAP1 SLOAD SWAP1 PUSH2 0x100 EXP SWAP1 DIV PUSH1 0xFF AND PUSH2 0x1B39 JUMPI PUSH1 0x40 MLOAD PUSH32 0x8C379A000000000000000000000000000000000000000000000000000000000 DUP2 MSTORE PUSH1 0x4 ADD PUSH2 0x1B30 SWAP1 PUSH2 0x2B36 JUMP JUMPDEST PUSH1 0x40 MLOAD DUP1 SWAP2 SUB SWAP1 REVERT JUMPDEST PUSH1 0x3 PUSH1 0x14 SWAP1 SLOAD SWAP1 PUSH2 0x100 EXP SWAP1 DIV PUSH1 0xFF AND ISZERO PUSH2 0x1B89 JUMPI PUSH1 0x40 MLOAD PUSH32 0x8C379A000000000000000000000000000000000000000000000000000000000 DUP2 MSTORE PUSH1 0x4 ADD PUSH2 0x1B80 SWAP1 PUSH2 0x2F70 JUMP JUMPDEST PUSH1 0x40 MLOAD DUP1 SWAP2 SUB SWAP1 REVERT JUMPDEST PUSH1 0x0 PUSH1 0x5 PUSH1 0x0 CALLER PUSH1 0x40 MLOAD PUSH1 0x20 ADD PUSH2 0x1BA0 SWAP2 SWAP1 PUSH2 0x2ACF JUMP JUMPDEST PUSH1 0x40 MLOAD PUSH1 0x20 DUP2 DUP4 SUB SUB DUP2 MSTORE SWAP1 PUSH1 0x40 MSTORE DUP1 MLOAD SWAP1 PUSH1 0x20 ADD KECCAK256 DUP2 MSTORE PUSH1 0x20 ADD SWAP1 DUP2 MSTORE PUSH1 0x20 ADD PUSH1 0x0 KECCAK256 SLOAD EQ PUSH2 0x1C05 JUMPI PUSH1 0x40 MLOAD PUSH32 0x8C379A000000000000000000000000000000000000000000000000000000000 DUP2 MSTORE PUSH1 0x4 ADD PUSH2 0x1BFC SWAP1 PUSH2 0x30A2 JUMP JUMPDEST PUSH1 0x40 MLOAD DUP1 SWAP2 SUB SWAP1 REVERT JUMPDEST PUSH1 0x0 PUSH1 0x1 PUSH1 0x0 CALLER PUSH1 0x40 MLOAD PUSH1 0x20 ADD PUSH2 0x1C1C SWAP2 SWAP1 PUSH2 0x2ACF JUMP JUMPDEST PUSH1 0x40 MLOAD PUSH1 0x20 DUP2 DUP4 SUB SUB DUP2 MSTORE SWAP1 PUSH1 0x40 MSTORE DUP1 MLOAD SWAP1 PUSH1 0x20 ADD KECCAK256 DUP2 MSTORE PUSH1 0x20 ADD SWAP1 DUP2 MSTORE PUSH1 0x20 ADD PUSH1 0x0 KECCAK256 PUSH1 0x0 PUSH2 0x100 EXP DUP2 SLOAD DUP2 PUSH1 0xFF MUL NOT AND SWAP1 DUP4 ISZERO ISZERO MUL OR SWAP1 SSTORE POP PUSH1 0x1 DUP1 PUSH1 0x0 DUP4 DUP2 MSTORE PUSH1 0x20 ADD SWAP1 DUP2 MSTORE PUSH1 0x20 ADD PUSH1 0x0 KECCAK256 PUSH1 0x0 PUSH2 0x100 EXP DUP2 SLOAD DUP2 PUSH1 0xFF MUL NOT AND SWAP1 DUP4 ISZERO ISZERO MUL OR SWAP1 SSTORE POP DUP1 CALLER PUSH20 0xFFFFFFFFFFFFFFFFFFFFFFFFFFFFFFFFFFFFFFFF AND PUSH32 0xEBB73463791AB4E1CE8AC274520ECA412B3AEA13FCFAC358E8E834F6D8BA7166 PUSH1 0x40 MLOAD PUSH1 0x40 MLOAD DUP1 SWAP2 SUB SWAP1 LOG3 POP JUMP JUMPDEST PUSH1 0x3 PUSH1 0x14 SWAP1 SLOAD SWAP1 PUSH2 0x100 EXP SWAP1 DIV PUSH1 0xFF AND DUP2 JUMP JUMPDEST PUSH1 0x0 PUSH4 0xF23A6E61 PUSH1 0xE0 SHL SWAP1 POP SWAP7 SWAP6 POP POP POP POP POP POP JUMP JUMPDEST PUSH1 0x60 PUSH1 0x3 PUSH1 0x0 SWAP1 SLOAD SWAP1 PUSH2 0x100 EXP SWAP1 DIV PUSH20 0xFFFFFFFFFFFFFFFFFFFFFFFFFFFFFFFFFFFFFFFF AND PUSH20 0xFFFFFFFFFFFFFFFFFFFFFFFFFFFFFFFFFFFFFFFF AND CALLER PUSH20 0xFFFFFFFFFFFFFFFFFFFFFFFFFFFFFFFFFFFFFFFF AND EQ PUSH2 0x1D84 JUMPI PUSH1 0x40 MLOAD PUSH32 0x8C379A000000000000000000000000000000000000000000000000000000000 DUP2 MSTORE PUSH1 0x4 ADD PUSH2 0x1D7B SWAP1 PUSH2 0x2891 JUMP JUMPDEST PUSH1 0x40 MLOAD DUP1 SWAP2 SUB SWAP1 REVERT JUMPDEST PUSH2 0x1D8C PUSH2 0x1EA0 JUMP JUMPDEST PUSH1 0x0 DUP1 DUP6 PUSH20 0xFFFFFFFFFFFFFFFFFFFFFFFFFFFFFFFFFFFFFFFF AND DUP6 DUP6 PUSH1 0x40 MLOAD PUSH2 0x1DB5 SWAP2 SWAP1 PUSH2 0x30F3 JUMP JUMPDEST PUSH1 0x0 PUSH1 0x40 MLOAD DUP1 DUP4 SUB DUP2 DUP6 DUP8 GAS CALL SWAP3 POP POP POP RETURNDATASIZE DUP1 PUSH1 0x0 DUP2 EQ PUSH2 0x1DF2 JUMPI PUSH1 0x40 MLOAD SWAP2 POP PUSH1 0x1F NOT PUSH1 0x3F RETURNDATASIZE ADD AND DUP3 ADD PUSH1 0x40 MSTORE RETURNDATASIZE DUP3 MSTORE RETURNDATASIZE PUSH1 0x0 PUSH1 0x20 DUP5 ADD RETURNDATACOPY PUSH2 0x1DF7 JUMP JUMPDEST PUSH1 0x60 SWAP2 POP JUMPDEST POP SWAP2 POP SWAP2 POP DUP2 PUSH2 0x1E3C JUMPI PUSH1 0x40 MLOAD PUSH32 0x8C379A000000000000000000000000000000000000000000000000000000000 DUP2 MSTORE PUSH1 0x4 ADD PUSH2 0x1E33 SWAP1 PUSH2 0x2EB3 JUMP JUMPDEST PUSH1 0x40 MLOAD DUP1 SWAP2 SUB SWAP1 REVERT JUMPDEST DUP6 PUSH20 0xFFFFFFFFFFFFFFFFFFFFFFFFFFFFFFFFFFFFFFFF AND PUSH32 0x47D99AD340F52DA66535AFF7E10DA1CEB85A32BCBD9FA1C42314D194545E14D2 DUP7 DUP7 PUSH1 0x40 MLOAD PUSH2 0x1E84 SWAP3 SWAP2 SWAP1 PUSH2 0x310A JUMP JUMPDEST PUSH1 0x40 MLOAD DUP1 SWAP2 SUB SWAP1 LOG2 DUP1 SWAP3 POP POP POP PUSH2 0x1E99 PUSH2 0x1EEF JUMP JUMPDEST SWAP4 SWAP3 POP POP POP JUMP JUMPDEST PUSH1 0x2 PUSH1 0x0 SLOAD SUB PUSH2 0x1EE5 JUMPI PUSH1 0x40 MLOAD PUSH32 0x8C379A000000000000000000000000000000000000000000000000000000000 DUP2 MSTORE PUSH1 0x4 ADD PUSH2 0x1EDC SWAP1 PUSH2 0x3186 JUMP JUMPDEST PUSH1 0x40 MLOAD DUP1 SWAP2 SUB SWAP1 REVERT JUMPDEST PUSH1 0x2 PUSH1 0x0 DUP2 SWAP1 SSTORE POP JUMP JUMPDEST PUSH1 0x1 PUSH1 0x0 DUP2 SWAP1 SSTORE POP JUMP JUMPDEST PUSH1 0x0 DUP2 SWAP1 POP SWAP2 SWAP1 POP JUMP JUMPDEST PUSH2 0x1F0C DUP2 PUSH2 0x1EF9 JUMP JUMPDEST DUP3 MSTORE POP POP JUMP JUMPDEST PUSH1 0x0 PUSH1 0x20 DUP3 ADD SWAP1 POP PUSH2 0x1F27 PUSH1 0x0 DUP4 ADD DUP5 PUSH2 0x1F03 JUMP JUMPDEST SWAP3 SWAP2 POP POP JUMP JUMPDEST PUSH1 0x0 PUSH1 0x40 MLOAD SWAP1 POP SWAP1 JUMP JUMPDEST PUSH1 0x0 DUP1 REVERT JUMPDEST PUSH1 0x0 DUP1 REVERT JUMPDEST PUSH1 0x0 PUSH32 0xFFFFFFFF00000000000000000000000000000000000000000000000000000000 DUP3 AND SWAP1 POP SWAP2 SWAP1 POP JUMP JUMPDEST PUSH2 0x1F76 DUP2 PUSH2 0x1F41 JUMP JUMPDEST DUP2 EQ PUSH2 0x1F81 JUMPI PUSH1 0x0 DUP1 REVERT JUMPDEST POP JUMP JUMPDEST PUSH1 0x0 DUP2 CALLDATALOAD SWAP1 POP PUSH2 0x1F93 DUP2 PUSH2 0x1F6D JUMP JUMPDEST SWAP3 SWAP2 POP POP JUMP JUMPDEST PUSH1 0x0 PUSH1 0x20 DUP3 DUP5 SUB SLT ISZERO PUSH2 0x1FAF JUMPI PUSH2 0x1FAE PUSH2 0x1F37 JUMP JUMPDEST JUMPDEST PUSH1 0x0 PUSH2 0x1FBD DUP5 DUP3 DUP6 ADD PUSH2 0x1F84 JUMP JUMPDEST SWAP2 POP POP SWAP3 SWAP2 POP POP JUMP JUMPDEST PUSH1 0x0 DUP2 ISZERO ISZERO SWAP1 POP SWAP2 SWAP1 POP JUMP JUMPDEST PUSH2 0x1FDB DUP2 PUSH2 0x1FC6 JUMP JUMPDEST DUP3 MSTORE POP POP JUMP JUMPDEST PUSH1 0x0 PUSH1 0x20 DUP3 ADD SWAP1 POP PUSH2 0x1FF6 PUSH1 0x0 DUP4 ADD DUP5 PUSH2 0x1FD2 JUMP JUMPDEST SWAP3 SWAP2 POP POP JUMP JUMPDEST PUSH1 0x0 PUSH20 0xFFFFFFFFFFFFFFFFFFFFFFFFFFFFFFFFFFFFFFFF DUP3 AND SWAP1 POP SWAP2 SWAP1 POP JUMP JUMPDEST PUSH1 0x0 PUSH2 0x2027 DUP3 PUSH2 0x1FFC JUMP JUMPDEST SWAP1 POP SWAP2 SWAP1 POP JUMP JUMPDEST PUSH2 0x2037 DUP2 PUSH2 0x201C JUMP JUMPDEST DUP2 EQ PUSH2 0x2042 JUMPI PUSH1 0x0 DUP1 REVERT JUMPDEST POP JUMP JUMPDEST PUSH1 0x0 DUP2 CALLDATALOAD SWAP1 POP PUSH2 0x2054 DUP2 PUSH2 0x202E JUMP JUMPDEST SWAP3 SWAP2 POP POP JUMP JUMPDEST PUSH2 0x2063 DUP2 PUSH2 0x1EF9 JUMP JUMPDEST DUP2 EQ PUSH2 0x206E JUMPI PUSH1 0x0 DUP1 REVERT JUMPDEST POP JUMP JUMPDEST PUSH1 0x0 DUP2 CALLDATALOAD SWAP1 POP PUSH2 0x2080 DUP2 PUSH2 0x205A JUMP JUMPDEST SWAP3 SWAP2 POP POP JUMP JUMPDEST PUSH1 0x0 DUP1 REVERT JUMPDEST PUSH1 0x0 DUP1 REVERT JUMPDEST PUSH1 0x0 PUSH1 0x1F NOT PUSH1 0x1F DUP4 ADD AND SWAP1 POP SWAP2 SWAP1 POP JUMP JUMPDEST PUSH32 0x4E487B7100000000000000000000000000000000000000000000000000000000 PUSH1 0x0 MSTORE PUSH1 0x41 PUSH1 0x4 MSTORE PUSH1 0x24 PUSH1 0x0 REVERT JUMPDEST PUSH2 0x20D9 DUP3 PUSH2 0x2090 JUMP JUMPDEST DUP2 ADD DUP2 DUP2 LT PUSH8 0xFFFFFFFFFFFFFFFF DUP3 GT OR ISZERO PUSH2 0x20F8 JUMPI PUSH2 0x20F7 PUSH2 0x20A1 JUMP JUMPDEST JUMPDEST DUP1 PUSH1 0x40 MSTORE POP POP POP JUMP JUMPDEST PUSH1 0x0 PUSH2 0x210B PUSH2 0x1F2D JUMP JUMPDEST SWAP1 POP PUSH2 0x2117 DUP3 DUP3 PUSH2 0x20D0 JUMP JUMPDEST SWAP2 SWAP1 POP JUMP JUMPDEST PUSH1 0x0 PUSH8 0xFFFFFFFFFFFFFFFF DUP3 GT ISZERO PUSH2 0x2137 JUMPI PUSH2 0x2136 PUSH2 0x20A1 JUMP JUMPDEST JUMPDEST PUSH2 0x2140 DUP3 PUSH2 0x2090 JUMP JUMPDEST SWAP1 POP PUSH1 0x20 DUP2 ADD SWAP1 POP SWAP2 SWAP1 POP JUMP JUMPDEST DUP3 DUP2 DUP4 CALLDATACOPY PUSH1 0x0 DUP4 DUP4 ADD MSTORE POP POP POP JUMP JUMPDEST PUSH1 0x0 PUSH2 0x216F PUSH2 0x216A DUP5 PUSH2 0x211C JUMP JUMPDEST PUSH2 0x2101 JUMP JUMPDEST SWAP1 POP DUP3 DUP2 MSTORE PUSH1 0x20 DUP2 ADD DUP5 DUP5 DUP5 ADD GT ISZERO PUSH2 0x218B JUMPI PUSH2 0x218A PUSH2 0x208B JUMP JUMPDEST JUMPDEST PUSH2 0x2196 DUP5 DUP3 DUP6 PUSH2 0x214D JUMP JUMPDEST POP SWAP4 SWAP3 POP POP POP JUMP JUMPDEST PUSH1 0x0 DUP3 PUSH1 0x1F DUP4 ADD SLT PUSH2 0x21B3 JUMPI PUSH2 0x21B2 PUSH2 0x2086 JUMP JUMPDEST JUMPDEST DUP2 CALLDATALOAD PUSH2 0x21C3 DUP5 DUP3 PUSH1 0x20 DUP7 ADD PUSH2 0x215C JUMP JUMPDEST SWAP2 POP POP SWAP3 SWAP2 POP POP JUMP JUMPDEST PUSH1 0x0 DUP1 PUSH1 0x0 DUP1 PUSH1 0x80 DUP6 DUP8 SUB SLT ISZERO PUSH2 0x21E6 JUMPI PUSH2 0x21E5 PUSH2 0x1F37 JUMP JUMPDEST JUMPDEST PUSH1 0x0 PUSH2 0x21F4 DUP8 DUP3 DUP9 ADD PUSH2 0x2045 JUMP JUMPDEST SWAP5 POP POP PUSH1 0x20 PUSH2 0x2205 DUP8 DUP3 DUP9 ADD PUSH2 0x2045 JUMP JUMPDEST SWAP4 POP POP PUSH1 0x40 PUSH2 0x2216 DUP8 DUP3 DUP9 ADD PUSH2 0x2071 JUMP JUMPDEST SWAP3 POP POP PUSH1 0x60 DUP6 ADD CALLDATALOAD PUSH8 0xFFFFFFFFFFFFFFFF DUP2 GT ISZERO PUSH2 0x2237 JUMPI PUSH2 0x2236 PUSH2 0x1F3C JUMP JUMPDEST JUMPDEST PUSH2 0x2243 DUP8 DUP3 DUP9 ADD PUSH2 0x219E JUMP JUMPDEST SWAP2 POP POP SWAP3 SWAP6 SWAP2 SWAP5 POP SWAP3 POP JUMP JUMPDEST PUSH2 0x2258 DUP2 PUSH2 0x1F41 JUMP JUMPDEST DUP3 MSTORE POP POP JUMP JUMPDEST PUSH1 0x0 PUSH1 0x20 DUP3 ADD SWAP1 POP PUSH2 0x2273 PUSH1 0x0 DUP4 ADD DUP5 PUSH2 0x224F JUMP JUMPDEST SWAP3 SWAP2 POP POP JUMP JUMPDEST PUSH1 0x0 PUSH1 0x20 DUP3 DUP5 SUB SLT ISZERO PUSH2 0x228F JUMPI PUSH2 0x228E PUSH2 0x1F37 JUMP JUMPDEST JUMPDEST PUSH1 0x0 PUSH2 0x229D DUP5 DUP3 DUP6 ADD PUSH2 0x2071 JUMP JUMPDEST SWAP2 POP POP SWAP3 SWAP2 POP POP JUMP JUMPDEST PUSH1 0x0 DUP2 SWAP1 POP SWAP2 SWAP1 POP JUMP JUMPDEST PUSH2 0x22B9 DUP2 PUSH2 0x22A6 JUMP JUMPDEST DUP2 EQ PUSH2 0x22C4 JUMPI PUSH1 0x0 DUP1 REVERT JUMPDEST POP JUMP JUMPDEST PUSH1 0x0 DUP2 CALLDATALOAD SWAP1 POP PUSH2 0x22D6 DUP2 PUSH2 0x22B0 JUMP JUMPDEST SWAP3 SWAP2 POP POP JUMP JUMPDEST PUSH1 0x0 PUSH1 0x20 DUP3 DUP5 SUB SLT ISZERO PUSH2 0x22F2 JUMPI PUSH2 0x22F1 PUSH2 0x1F37 JUMP JUMPDEST JUMPDEST PUSH1 0x0 PUSH2 0x2300 DUP5 DUP3 DUP6 ADD PUSH2 0x22C7 JUMP JUMPDEST SWAP2 POP POP SWAP3 SWAP2 POP POP JUMP JUMPDEST PUSH1 0x0 DUP1 PUSH1 0x40 DUP4 DUP6 SUB SLT ISZERO PUSH2 0x2320 JUMPI PUSH2 0x231F PUSH2 0x1F37 JUMP JUMPDEST JUMPDEST PUSH1 0x0 PUSH2 0x232E DUP6 DUP3 DUP7 ADD PUSH2 0x22C7 JUMP JUMPDEST SWAP3 POP POP PUSH1 0x20 PUSH2 0x233F DUP6 DUP3 DUP7 ADD PUSH2 0x22C7 JUMP JUMPDEST SWAP2 POP POP SWAP3 POP SWAP3 SWAP1 POP JUMP JUMPDEST PUSH1 0x0 PUSH1 0x20 DUP3 DUP5 SUB SLT ISZERO PUSH2 0x235F JUMPI PUSH2 0x235E PUSH2 0x1F37 JUMP JUMPDEST JUMPDEST PUSH1 0x0 PUSH2 0x236D DUP5 DUP3 DUP6 ADD PUSH2 0x2045 JUMP JUMPDEST SWAP2 POP POP SWAP3 SWAP2 POP POP JUMP JUMPDEST PUSH1 0x0 DUP1 REVERT JUMPDEST PUSH1 0x0 DUP1 REVERT JUMPDEST PUSH1 0x0 DUP1 DUP4 PUSH1 0x1F DUP5 ADD SLT PUSH2 0x2396 JUMPI PUSH2 0x2395 PUSH2 0x2086 JUMP JUMPDEST JUMPDEST DUP3 CALLDATALOAD SWAP1 POP PUSH8 0xFFFFFFFFFFFFFFFF DUP2 GT ISZERO PUSH2 0x23B3 JUMPI PUSH2 0x23B2 PUSH2 0x2376 JUMP JUMPDEST JUMPDEST PUSH1 0x20 DUP4 ADD SWAP2 POP DUP4 PUSH1 0x20 DUP3 MUL DUP4 ADD GT ISZERO PUSH2 0x23CF JUMPI PUSH2 0x23CE PUSH2 0x237B JUMP JUMPDEST JUMPDEST SWAP3 POP SWAP3 SWAP1 POP JUMP JUMPDEST PUSH1 0x0 DUP1 PUSH1 0x0 PUSH1 0x40 DUP5 DUP7 SUB SLT ISZERO PUSH2 0x23EF JUMPI PUSH2 0x23EE PUSH2 0x1F37 JUMP JUMPDEST JUMPDEST PUSH1 0x0 PUSH2 0x23FD DUP7 DUP3 DUP8 ADD PUSH2 0x2045 JUMP JUMPDEST SWAP4 POP POP PUSH1 0x20 DUP5 ADD CALLDATALOAD PUSH8 0xFFFFFFFFFFFFFFFF DUP2 GT ISZERO PUSH2 0x241E JUMPI PUSH2 0x241D PUSH2 0x1F3C JUMP JUMPDEST JUMPDEST PUSH2 0x242A DUP7 DUP3 DUP8 ADD PUSH2 0x2380 JUMP JUMPDEST SWAP3 POP SWAP3 POP POP SWAP3 POP SWAP3 POP SWAP3 JUMP JUMPDEST PUSH2 0x243F DUP2 PUSH2 0x201C JUMP JUMPDEST DUP3 MSTORE POP POP JUMP JUMPDEST PUSH1 0x0 PUSH1 0x20 DUP3 ADD SWAP1 POP PUSH2 0x245A PUSH1 0x0 DUP4 ADD DUP5 PUSH2 0x2436 JUMP JUMPDEST SWAP3 SWAP2 POP POP JUMP JUMPDEST PUSH1 0x0 PUSH2 0x246B DUP3 PUSH2 0x1FFC JUMP JUMPDEST SWAP1 POP SWAP2 SWAP1 POP JUMP JUMPDEST PUSH2 0x247B DUP2 PUSH2 0x2460 JUMP JUMPDEST DUP2 EQ PUSH2 0x2486 JUMPI PUSH1 0x0 DUP1 REVERT JUMPDEST POP JUMP JUMPDEST PUSH1 0x0 DUP2 CALLDATALOAD SWAP1 POP PUSH2 0x2498 DUP2 PUSH2 0x2472 JUMP JUMPDEST SWAP3 SWAP2 POP POP JUMP JUMPDEST PUSH1 0x0 PUSH1 0x20 DUP3 DUP5 SUB SLT ISZERO PUSH2 0x24B4 JUMPI PUSH2 0x24B3 PUSH2 0x1F37 JUMP JUMPDEST JUMPDEST PUSH1 0x0 PUSH2 0x24C2 DUP5 DUP3 DUP6 ADD PUSH2 0x2489 JUMP JUMPDEST SWAP2 POP POP SWAP3 SWAP2 POP POP JUMP JUMPDEST PUSH1 0x0 DUP2 MLOAD SWAP1 POP SWAP2 SWAP1 POP JUMP JUMPDEST PUSH1 0x0 DUP3 DUP3 MSTORE PUSH1 0x20 DUP3 ADD SWAP1 POP SWAP3 SWAP2 POP POP JUMP JUMPDEST PUSH1 0x0 JUMPDEST DUP4 DUP2 LT ISZERO PUSH2 0x2505 JUMPI DUP1 DUP3 ADD MLOAD DUP2 DUP5 ADD MSTORE PUSH1 0x20 DUP2 ADD SWAP1 POP PUSH2 0x24EA JUMP JUMPDEST PUSH1 0x0 DUP5 DUP5 ADD MSTORE POP POP POP POP JUMP JUMPDEST PUSH1 0x0 PUSH2 0x251C DUP3 PUSH2 0x24CB JUMP JUMPDEST PUSH2 0x2526 DUP2 DUP6 PUSH2 0x24D6 JUMP JUMPDEST SWAP4 POP PUSH2 0x2536 DUP2 DUP6 PUSH1 0x20 DUP7 ADD PUSH2 0x24E7 JUMP JUMPDEST PUSH2 0x253F DUP2 PUSH2 0x2090 JUMP JUMPDEST DUP5 ADD SWAP2 POP POP SWAP3 SWAP2 POP POP JUMP JUMPDEST PUSH1 0x0 PUSH1 0x20 DUP3 ADD SWAP1 POP DUP2 DUP2 SUB PUSH1 0x0 DUP4 ADD MSTORE PUSH2 0x2564 DUP2 DUP5 PUSH2 0x2511 JUMP JUMPDEST SWAP1 POP SWAP3 SWAP2 POP POP JUMP JUMPDEST PUSH1 0x0 PUSH1 0x60 DUP3 ADD SWAP1 POP PUSH2 0x2581 PUSH1 0x0 DUP4 ADD DUP7 PUSH2 0x2436 JUMP JUMPDEST PUSH2 0x258E PUSH1 0x20 DUP4 ADD DUP6 PUSH2 0x1F03 JUMP JUMPDEST PUSH2 0x259B PUSH1 0x40 DUP4 ADD DUP5 PUSH2 0x1FD2 JUMP JUMPDEST SWAP5 SWAP4 POP POP POP POP JUMP JUMPDEST PUSH1 0x0 DUP1 DUP4 PUSH1 0x1F DUP5 ADD SLT PUSH2 0x25B9 JUMPI PUSH2 0x25B8 PUSH2 0x2086 JUMP JUMPDEST JUMPDEST DUP3 CALLDATALOAD SWAP1 POP PUSH8 0xFFFFFFFFFFFFFFFF DUP2 GT ISZERO PUSH2 0x25D6 JUMPI PUSH2 0x25D5 PUSH2 0x2376 JUMP JUMPDEST JUMPDEST PUSH1 0x20 DUP4 ADD SWAP2 POP DUP4 PUSH1 0x20 DUP3 MUL DUP4 ADD GT ISZERO PUSH2 0x25F2 JUMPI PUSH2 0x25F1 PUSH2 0x237B JUMP JUMPDEST JUMPDEST SWAP3 POP SWAP3 SWAP1 POP JUMP JUMPDEST PUSH1 0x0 DUP1 DUP4 PUSH1 0x1F DUP5 ADD SLT PUSH2 0x260F JUMPI PUSH2 0x260E PUSH2 0x2086 JUMP JUMPDEST JUMPDEST DUP3 CALLDATALOAD SWAP1 POP PUSH8 0xFFFFFFFFFFFFFFFF DUP2 GT ISZERO PUSH2 0x262C JUMPI PUSH2 0x262B PUSH2 0x2376 JUMP JUMPDEST JUMPDEST PUSH1 0x20 DUP4 ADD SWAP2 POP DUP4 PUSH1 0x1 DUP3 MUL DUP4 ADD GT ISZERO PUSH2 0x2648 JUMPI PUSH2 0x2647 PUSH2 0x237B JUMP JUMPDEST JUMPDEST SWAP3 POP SWAP3 SWAP1 POP JUMP JUMPDEST PUSH1 0x0 DUP1 PUSH1 0x0 DUP1 PUSH1 0x0 DUP1 PUSH1 0x0 DUP1 PUSH1 0xA0 DUP10 DUP12 SUB SLT ISZERO PUSH2 0x266F JUMPI PUSH2 0x266E PUSH2 0x1F37 JUMP JUMPDEST JUMPDEST PUSH1 0x0 PUSH2 0x267D DUP12 DUP3 DUP13 ADD PUSH2 0x2045 JUMP JUMPDEST SWAP9 POP POP PUSH1 0x20 PUSH2 0x268E DUP12 DUP3 DUP13 ADD PUSH2 0x2045 JUMP JUMPDEST SWAP8 POP POP PUSH1 0x40 DUP10 ADD CALLDATALOAD PUSH8 0xFFFFFFFFFFFFFFFF DUP2 GT ISZERO PUSH2 0x26AF JUMPI PUSH2 0x26AE PUSH2 0x1F3C JUMP JUMPDEST JUMPDEST PUSH2 0x26BB DUP12 DUP3 DUP13 ADD PUSH2 0x25A3 JUMP JUMPDEST SWAP7 POP SWAP7 POP POP PUSH1 0x60 DUP10 ADD CALLDATALOAD PUSH8 0xFFFFFFFFFFFFFFFF DUP2 GT ISZERO PUSH2 0x26DE JUMPI PUSH2 0x26DD PUSH2 0x1F3C JUMP JUMPDEST JUMPDEST PUSH2 0x26EA DUP12 DUP3 DUP13 ADD PUSH2 0x25A3 JUMP JUMPDEST SWAP5 POP SWAP5 POP POP PUSH1 0x80 DUP10 ADD CALLDATALOAD PUSH8 0xFFFFFFFFFFFFFFFF DUP2 GT ISZERO PUSH2 0x270D JUMPI PUSH2 0x270C PUSH2 0x1F3C JUMP JUMPDEST JUMPDEST PUSH2 0x2719 DUP12 DUP3 DUP13 ADD PUSH2 0x25F9 JUMP JUMPDEST SWAP3 POP SWAP3 POP POP SWAP3 SWAP6 SWAP9 POP SWAP3 SWAP6 SWAP9 SWAP1 SWAP4 SWAP7 POP JUMP JUMPDEST PUSH1 0x0 DUP1 PUSH1 0x0 DUP1 PUSH1 0x0 DUP1 PUSH1 0xA0 DUP8 DUP10 SUB SLT ISZERO PUSH2 0x2748 JUMPI PUSH2 0x2747 PUSH2 0x1F37 JUMP JUMPDEST JUMPDEST PUSH1 0x0 PUSH2 0x2756 DUP10 DUP3 DUP11 ADD PUSH2 0x2045 JUMP JUMPDEST SWAP7 POP POP PUSH1 0x20 PUSH2 0x2767 DUP10 DUP3 DUP11 ADD PUSH2 0x2045 JUMP JUMPDEST SWAP6 POP POP PUSH1 0x40 PUSH2 0x2778 DUP10 DUP3 DUP11 ADD PUSH2 0x2071 JUMP JUMPDEST SWAP5 POP POP PUSH1 0x60 PUSH2 0x2789 DUP10 DUP3 DUP11 ADD PUSH2 0x2071 JUMP JUMPDEST SWAP4 POP POP PUSH1 0x80 DUP8 ADD CALLDATALOAD PUSH8 0xFFFFFFFFFFFFFFFF DUP2 GT ISZERO PUSH2 0x27AA JUMPI PUSH2 0x27A9 PUSH2 0x1F3C JUMP JUMPDEST JUMPDEST PUSH2 0x27B6 DUP10 DUP3 DUP11 ADD PUSH2 0x25F9 JUMP JUMPDEST SWAP3 POP SWAP3 POP POP SWAP3 SWAP6 POP SWAP3 SWAP6 POP SWAP3 SWAP6 JUMP JUMPDEST PUSH1 0x0 DUP1 PUSH1 0x0 PUSH1 0x60 DUP5 DUP7 SUB SLT ISZERO PUSH2 0x27DE JUMPI PUSH2 0x27DD PUSH2 0x1F37 JUMP JUMPDEST JUMPDEST PUSH1 0x0 PUSH2 0x27EC DUP7 DUP3 DUP8 ADD PUSH2 0x2045 JUMP JUMPDEST SWAP4 POP POP PUSH1 0x20 PUSH2 0x27FD DUP7 DUP3 DUP8 ADD PUSH2 0x2071 JUMP JUMPDEST SWAP3 POP POP PUSH1 0x40 DUP5 ADD CALLDATALOAD PUSH8 0xFFFFFFFFFFFFFFFF DUP2 GT ISZERO PUSH2 0x281E JUMPI PUSH2 0x281D PUSH2 0x1F3C JUMP JUMPDEST JUMPDEST PUSH2 0x282A DUP7 DUP3 DUP8 ADD PUSH2 0x219E JUMP JUMPDEST SWAP2 POP POP SWAP3 POP SWAP3 POP SWAP3 JUMP JUMPDEST PUSH1 0x0 DUP3 DUP3 MSTORE PUSH1 0x20 DUP3 ADD SWAP1 POP SWAP3 SWAP2 POP POP JUMP JUMPDEST PUSH32 0x6F6E6C79206F776E657200000000000000000000000000000000000000000000 PUSH1 0x0 DUP3 ADD MSTORE POP JUMP JUMPDEST PUSH1 0x0 PUSH2 0x287B PUSH1 0xA DUP4 PUSH2 0x2834 JUMP JUMPDEST SWAP2 POP PUSH2 0x2886 DUP3 PUSH2 0x2845 JUMP JUMPDEST PUSH1 0x20 DUP3 ADD SWAP1 POP SWAP2 SWAP1 POP JUMP JUMPDEST PUSH1 0x0 PUSH1 0x20 DUP3 ADD SWAP1 POP DUP2 DUP2 SUB PUSH1 0x0 DUP4 ADD MSTORE PUSH2 0x28AA DUP2 PUSH2 0x286E JUMP JUMPDEST SWAP1 POP SWAP2 SWAP1 POP JUMP JUMPDEST PUSH32 0x77616C6C6574206973206E6F7420696E207265636F76657279206D6F64650000 PUSH1 0x0 DUP3 ADD MSTORE POP JUMP JUMPDEST PUSH1 0x0 PUSH2 0x28E7 PUSH1 0x1E DUP4 PUSH2 0x2834 JUMP JUMPDEST SWAP2 POP PUSH2 0x28F2 DUP3 PUSH2 0x28B1 JUMP JUMPDEST PUSH1 0x20 DUP3 ADD SWAP1 POP SWAP2 SWAP1 POP JUMP JUMPDEST PUSH1 0x0 PUSH1 0x20 DUP3 ADD SWAP1 POP DUP2 DUP2 SUB PUSH1 0x0 DUP4 ADD MSTORE PUSH2 0x2916 DUP2 PUSH2 0x28DA JUMP JUMPDEST SWAP1 POP SWAP2 SWAP1 POP JUMP JUMPDEST PUSH32 0x6E6F7420656E6F7567682062616C616E63650000000000000000000000000000 PUSH1 0x0 DUP3 ADD MSTORE POP JUMP JUMPDEST PUSH1 0x0 PUSH2 0x2953 PUSH1 0x12 DUP4 PUSH2 0x2834 JUMP JUMPDEST SWAP2 POP PUSH2 0x295E DUP3 PUSH2 0x291D JUMP JUMPDEST PUSH1 0x20 DUP3 ADD SWAP1 POP SWAP2 SWAP1 POP JUMP JUMPDEST PUSH1 0x0 PUSH1 0x20 DUP3 ADD SWAP1 POP DUP2 DUP2 SUB PUSH1 0x0 DUP4 ADD MSTORE PUSH2 0x2982 DUP2 PUSH2 0x2946 JUMP JUMPDEST SWAP1 POP SWAP2 SWAP1 POP JUMP JUMPDEST PUSH32 0x677561726469616E2069736E27742071756575656420666F722072656D6F7661 PUSH1 0x0 DUP3 ADD MSTORE PUSH32 0x6C00000000000000000000000000000000000000000000000000000000000000 PUSH1 0x20 DUP3 ADD MSTORE POP JUMP JUMPDEST PUSH1 0x0 PUSH2 0x29E5 PUSH1 0x21 DUP4 PUSH2 0x2834 JUMP JUMPDEST SWAP2 POP PUSH2 0x29F0 DUP3 PUSH2 0x2989 JUMP JUMPDEST PUSH1 0x40 DUP3 ADD SWAP1 POP SWAP2 SWAP1 POP JUMP JUMPDEST PUSH1 0x0 PUSH1 0x20 DUP3 ADD SWAP1 POP DUP2 DUP2 SUB PUSH1 0x0 DUP4 ADD MSTORE PUSH2 0x2A14 DUP2 PUSH2 0x29D8 JUMP JUMPDEST SWAP1 POP SWAP2 SWAP1 POP JUMP JUMPDEST PUSH32 0x74696D652064656C617920686173206E6F742070617373656400000000000000 PUSH1 0x0 DUP3 ADD MSTORE POP JUMP JUMPDEST PUSH1 0x0 PUSH2 0x2A51 PUSH1 0x19 DUP4 PUSH2 0x2834 JUMP JUMPDEST SWAP2 POP PUSH2 0x2A5C DUP3 PUSH2 0x2A1B JUMP JUMPDEST PUSH1 0x20 DUP3 ADD SWAP1 POP SWAP2 SWAP1 POP JUMP JUMPDEST PUSH1 0x0 PUSH1 0x20 DUP3 ADD SWAP1 POP DUP2 DUP2 SUB PUSH1 0x0 DUP4 ADD MSTORE PUSH2 0x2A80 DUP2 PUSH2 0x2A44 JUMP JUMPDEST SWAP1 POP SWAP2 SWAP1 POP JUMP JUMPDEST PUSH1 0x0 DUP2 PUSH1 0x60 SHL SWAP1 POP SWAP2 SWAP1 POP JUMP JUMPDEST PUSH1 0x0 PUSH2 0x2A9F DUP3 PUSH2 0x2A87 JUMP JUMPDEST SWAP1 POP SWAP2 SWAP1 POP JUMP JUMPDEST PUSH1 0x0 PUSH2 0x2AB1 DUP3 PUSH2 0x2A94 JUMP JUMPDEST SWAP1 POP SWAP2 SWAP1 POP JUMP JUMPDEST PUSH2 0x2AC9 PUSH2 0x2AC4 DUP3 PUSH2 0x201C JUMP JUMPDEST PUSH2 0x2AA6 JUMP JUMPDEST DUP3 MSTORE POP POP JUMP JUMPDEST PUSH1 0x0 PUSH2 0x2ADB DUP3 DUP5 PUSH2 0x2AB8 JUMP JUMPDEST PUSH1 0x14 DUP3 ADD SWAP2 POP DUP2 SWAP1 POP SWAP3 SWAP2 POP POP JUMP JUMPDEST PUSH32 0x6F6E6C7920677561726469616E00000000000000000000000000000000000000 PUSH1 0x0 DUP3 ADD MSTORE POP JUMP JUMPDEST PUSH1 0x0 PUSH2 0x2B20 PUSH1 0xD DUP4 PUSH2 0x2834 JUMP JUMPDEST SWAP2 POP PUSH2 0x2B2B DUP3 PUSH2 0x2AEA JUMP JUMPDEST PUSH1 0x20 DUP3 ADD SWAP1 POP SWAP2 SWAP1 POP JUMP JUMPDEST PUSH1 0x0 PUSH1 0x20 DUP3 ADD SWAP1 POP DUP2 DUP2 SUB PUSH1 0x0 DUP4 ADD MSTORE PUSH2 0x2B4F DUP2 PUSH2 0x2B13 JUMP JUMPDEST SWAP1 POP SWAP2 SWAP1 POP JUMP JUMPDEST PUSH1 0x0 PUSH1 0x40 DUP3 ADD SWAP1 POP PUSH2 0x2B6B PUSH1 0x0 DUP4 ADD DUP6 PUSH2 0x2436 JUMP JUMPDEST PUSH2 0x2B78 PUSH1 0x20 DUP4 ADD DUP5 PUSH2 0x2436 JUMP JUMPDEST SWAP4 SWAP3 POP POP POP JUMP JUMPDEST PUSH32 0x6D6F726520677561726469616E7320726571756972656420746F207472616E73 PUSH1 0x0 DUP3 ADD MSTORE PUSH32 0x666572206F776E65727368697000000000000000000000000000000000000000 PUSH1 0x20 DUP3 ADD MSTORE POP JUMP JUMPDEST PUSH1 0x0 PUSH2 0x2BDB PUSH1 0x2D DUP4 PUSH2 0x2834 JUMP JUMPDEST SWAP2 POP PUSH2 0x2BE6 DUP3 PUSH2 0x2B7F JUMP JUMPDEST PUSH1 0x40 DUP3 ADD SWAP1 POP SWAP2 SWAP1 POP JUMP JUMPDEST PUSH1 0x0 PUSH1 0x20 DUP3 ADD SWAP1 POP DUP2 DUP2 SUB PUSH1 0x0 DUP4 ADD MSTORE PUSH2 0x2C0A DUP2 PUSH2 0x2BCE JUMP JUMPDEST SWAP1 POP SWAP2 SWAP1 POP JUMP JUMPDEST PUSH32 0x4E487B7100000000000000000000000000000000000000000000000000000000 PUSH1 0x0 MSTORE PUSH1 0x32 PUSH1 0x4 MSTORE PUSH1 0x24 PUSH1 0x0 REVERT JUMPDEST PUSH32 0x726F756E64206D69736D61746368000000000000000000000000000000000000 PUSH1 0x0 DUP3 ADD MSTORE POP JUMP JUMPDEST PUSH1 0x0 PUSH2 0x2C76 PUSH1 0xE DUP4 PUSH2 0x2834 JUMP JUMPDEST SWAP2 POP PUSH2 0x2C81 DUP3 PUSH2 0x2C40 JUMP JUMPDEST PUSH1 0x20 DUP3 ADD SWAP1 POP SWAP2 SWAP1 POP JUMP JUMPDEST PUSH1 0x0 PUSH1 0x20 DUP3 ADD SWAP1 POP DUP2 DUP2 SUB PUSH1 0x0 DUP4 ADD MSTORE PUSH2 0x2CA5 DUP2 PUSH2 0x2C69 JUMP JUMPDEST SWAP1 POP SWAP2 SWAP1 POP JUMP JUMPDEST PUSH32 0x64697361677265656D656E74206F6E206E6577206F776E657200000000000000 PUSH1 0x0 DUP3 ADD MSTORE POP JUMP JUMPDEST PUSH1 0x0 PUSH2 0x2CE2 PUSH1 0x19 DUP4 PUSH2 0x2834 JUMP JUMPDEST SWAP2 POP PUSH2 0x2CED DUP3 PUSH2 0x2CAC JUMP JUMPDEST PUSH1 0x20 DUP3 ADD SWAP1 POP SWAP2 SWAP1 POP JUMP JUMPDEST PUSH1 0x0 PUSH1 0x20 DUP3 ADD SWAP1 POP DUP2 DUP2 SUB PUSH1 0x0 DUP4 ADD MSTORE PUSH2 0x2D11 DUP2 PUSH2 0x2CD5 JUMP JUMPDEST SWAP1 POP SWAP2 SWAP1 POP JUMP JUMPDEST PUSH32 0x6475706C696361746520677561726469616E207573656420696E207265636F76 PUSH1 0x0 DUP3 ADD MSTORE PUSH32 0x6572790000000000000000000000000000000000000000000000000000000000 PUSH1 0x20 DUP3 ADD MSTORE POP JUMP JUMPDEST PUSH1 0x0 PUSH2 0x2D74 PUSH1 0x23 DUP4 PUSH2 0x2834 JUMP JUMPDEST SWAP2 POP PUSH2 0x2D7F DUP3 PUSH2 0x2D18 JUMP JUMPDEST PUSH1 0x40 DUP3 ADD SWAP1 POP SWAP2 SWAP1 POP JUMP JUMPDEST PUSH1 0x0 PUSH1 0x20 DUP3 ADD SWAP1 POP DUP2 DUP2 SUB PUSH1 0x0 DUP4 ADD MSTORE PUSH2 0x2DA3 DUP2 PUSH2 0x2D67 JUMP JUMPDEST SWAP1 POP SWAP2 SWAP1 POP JUMP JUMPDEST PUSH32 0x4E487B7100000000000000000000000000000000000000000000000000000000 PUSH1 0x0 MSTORE PUSH1 0x11 PUSH1 0x4 MSTORE PUSH1 0x24 PUSH1 0x0 REVERT JUMPDEST PUSH1 0x0 PUSH2 0x2DE4 DUP3 PUSH2 0x1EF9 JUMP JUMPDEST SWAP2 POP PUSH32 0xFFFFFFFFFFFFFFFFFFFFFFFFFFFFFFFFFFFFFFFFFFFFFFFFFFFFFFFFFFFFFFFF DUP3 SUB PUSH2 0x2E16 JUMPI PUSH2 0x2E15 PUSH2 0x2DAA JUMP JUMPDEST JUMPDEST PUSH1 0x1 DUP3 ADD SWAP1 POP SWAP2 SWAP1 POP JUMP JUMPDEST PUSH1 0x0 DUP2 SWAP1 POP SWAP3 SWAP2 POP POP JUMP JUMPDEST POP JUMP JUMPDEST PUSH1 0x0 PUSH2 0x2E3C PUSH1 0x0 DUP4 PUSH2 0x2E21 JUMP JUMPDEST SWAP2 POP PUSH2 0x2E47 DUP3 PUSH2 0x2E2C JUMP JUMPDEST PUSH1 0x0 DUP3 ADD SWAP1 POP SWAP2 SWAP1 POP JUMP JUMPDEST PUSH1 0x0 PUSH2 0x2E5D DUP3 PUSH2 0x2E2F JUMP JUMPDEST SWAP2 POP DUP2 SWAP1 POP SWAP2 SWAP1 POP JUMP JUMPDEST PUSH32 0x65787465726E616C2063616C6C20726576657274656400000000000000000000 PUSH1 0x0 DUP3 ADD MSTORE POP JUMP JUMPDEST PUSH1 0x0 PUSH2 0x2E9D PUSH1 0x16 DUP4 PUSH2 0x2834 JUMP JUMPDEST SWAP2 POP PUSH2 0x2EA8 DUP3 PUSH2 0x2E67 JUMP JUMPDEST PUSH1 0x20 DUP3 ADD SWAP1 POP SWAP2 SWAP1 POP JUMP JUMPDEST PUSH1 0x0 PUSH1 0x20 DUP3 ADD SWAP1 POP DUP2 DUP2 SUB PUSH1 0x0 DUP4 ADD MSTORE PUSH2 0x2ECC DUP2 PUSH2 0x2E90 JUMP JUMPDEST SWAP1 POP SWAP2 SWAP1 POP JUMP JUMPDEST PUSH1 0x0 PUSH2 0x2EE0 PUSH1 0x0 DUP4 PUSH2 0x24D6 JUMP JUMPDEST SWAP2 POP PUSH2 0x2EEB DUP3 PUSH2 0x2E2C JUMP JUMPDEST PUSH1 0x0 DUP3 ADD SWAP1 POP SWAP2 SWAP1 POP JUMP JUMPDEST PUSH1 0x0 PUSH1 0x40 DUP3 ADD SWAP1 POP PUSH2 0x2F0B PUSH1 0x0 DUP4 ADD DUP5 PUSH2 0x1F03 JUMP JUMPDEST DUP2 DUP2 SUB PUSH1 0x20 DUP4 ADD MSTORE PUSH2 0x2F1C DUP2 PUSH2 0x2ED3 JUMP JUMPDEST SWAP1 POP SWAP3 SWAP2 POP POP JUMP JUMPDEST PUSH32 0x77616C6C657420697320696E207265636F76657279206D6F6465000000000000 PUSH1 0x0 DUP3 ADD MSTORE POP JUMP JUMPDEST PUSH1 0x0 PUSH2 0x2F5A PUSH1 0x1A DUP4 PUSH2 0x2834 JUMP JUMPDEST SWAP2 POP PUSH2 0x2F65 DUP3 PUSH2 0x2F24 JUMP JUMPDEST PUSH1 0x20 DUP3 ADD SWAP1 POP SWAP2 SWAP1 POP JUMP JUMPDEST PUSH1 0x0 PUSH1 0x20 DUP3 ADD SWAP1 POP DUP2 DUP2 SUB PUSH1 0x0 DUP4 ADD MSTORE PUSH2 0x2F89 DUP2 PUSH2 0x2F4D JUMP JUMPDEST SWAP1 POP SWAP2 SWAP1 POP JUMP JUMPDEST PUSH32 0x6E6F74206120677561726469616E000000000000000000000000000000000000 PUSH1 0x0 DUP3 ADD MSTORE POP JUMP JUMPDEST PUSH1 0x0 PUSH2 0x2FC6 PUSH1 0xE DUP4 PUSH2 0x2834 JUMP JUMPDEST SWAP2 POP PUSH2 0x2FD1 DUP3 PUSH2 0x2F90 JUMP JUMPDEST PUSH1 0x20 DUP3 ADD SWAP1 POP SWAP2 SWAP1 POP JUMP JUMPDEST PUSH1 0x0 PUSH1 0x20 DUP3 ADD SWAP1 POP DUP2 DUP2 SUB PUSH1 0x0 DUP4 ADD MSTORE PUSH2 0x2FF5 DUP2 PUSH2 0x2FB9 JUMP JUMPDEST SWAP1 POP SWAP2 SWAP1 POP JUMP JUMPDEST PUSH1 0x0 PUSH2 0x3007 DUP3 PUSH2 0x1EF9 JUMP JUMPDEST SWAP2 POP PUSH2 0x3012 DUP4 PUSH2 0x1EF9 JUMP JUMPDEST SWAP3 POP DUP3 DUP3 ADD SWAP1 POP DUP1 DUP3 GT ISZERO PUSH2 0x302A JUMPI PUSH2 0x3029 PUSH2 0x2DAA JUMP JUMPDEST JUMPDEST SWAP3 SWAP2 POP POP JUMP JUMPDEST PUSH32 0x677561726469616E207175657565756420666F722072656D6F76616C2C206361 PUSH1 0x0 DUP3 ADD MSTORE PUSH32 0x6E6E6F74207472616E7366657220677561726469616E73686970000000000000 PUSH1 0x20 DUP3 ADD MSTORE POP JUMP JUMPDEST PUSH1 0x0 PUSH2 0x308C PUSH1 0x3A DUP4 PUSH2 0x2834 JUMP JUMPDEST SWAP2 POP PUSH2 0x3097 DUP3 PUSH2 0x3030 JUMP JUMPDEST PUSH1 0x40 DUP3 ADD SWAP1 POP SWAP2 SWAP1 POP JUMP JUMPDEST PUSH1 0x0 PUSH1 0x20 DUP3 ADD SWAP1 POP DUP2 DUP2 SUB PUSH1 0x0 DUP4 ADD MSTORE PUSH2 0x30BB DUP2 PUSH2 0x307F JUMP JUMPDEST SWAP1 POP SWAP2 SWAP1 POP JUMP JUMPDEST PUSH1 0x0 PUSH2 0x30CD DUP3 PUSH2 0x24CB JUMP JUMPDEST PUSH2 0x30D7 DUP2 DUP6 PUSH2 0x2E21 JUMP JUMPDEST SWAP4 POP PUSH2 0x30E7 DUP2 DUP6 PUSH1 0x20 DUP7 ADD PUSH2 0x24E7 JUMP JUMPDEST DUP1 DUP5 ADD SWAP2 POP POP SWAP3 SWAP2 POP POP JUMP JUMPDEST PUSH1 0x0 PUSH2 0x30FF DUP3 DUP5 PUSH2 0x30C2 JUMP JUMPDEST SWAP2 POP DUP2 SWAP1 POP SWAP3 SWAP2 POP POP JUMP JUMPDEST PUSH1 0x0 PUSH1 0x40 DUP3 ADD SWAP1 POP PUSH2 0x311F PUSH1 0x0 DUP4 ADD DUP6 PUSH2 0x1F03 JUMP JUMPDEST DUP2 DUP2 SUB PUSH1 0x20 DUP4 ADD MSTORE PUSH2 0x3131 DUP2 DUP5 PUSH2 0x2511 JUMP JUMPDEST SWAP1 POP SWAP4 SWAP3 POP POP POP JUMP JUMPDEST PUSH32 0x5265656E7472616E637947756172643A207265656E7472616E742063616C6C00 PUSH1 0x0 DUP3 ADD MSTORE POP JUMP JUMPDEST PUSH1 0x0 PUSH2 0x3170 PUSH1 0x1F DUP4 PUSH2 0x2834 JUMP JUMPDEST SWAP2 POP PUSH2 0x317B DUP3 PUSH2 0x313A JUMP JUMPDEST PUSH1 0x20 DUP3 ADD SWAP1 POP SWAP2 SWAP1 POP JUMP JUMPDEST PUSH1 0x0 PUSH1 0x20 DUP3 ADD SWAP1 POP DUP2 DUP2 SUB PUSH1 0x0 DUP4 ADD MSTORE PUSH2 0x319F DUP2 PUSH2 0x3163 JUMP JUMPDEST SWAP1 POP SWAP2 SWAP1 POP JUMP INVALID LOG2 PUSH5 0x6970667358 0x22 SLT KECCAK256 ORIGIN SWAP3 0xB3 PUSH30 0x25255E44ABD7A002CADF8398945E0232B288340E9ED305450FF679336473 PUSH16 0x6C634300081100330000000000000000 "},"methodIdentifiers":{"cancelGuardianRemoval(bytes32)":"91e8715f","cancelRecovery()":"0ba234d6","currRecoveryRound()":"ace7c993","deposit()":"d0e30db0","executeExternalTx(address,uint256,bytes)":"f48bf4c3","executeGuardianRemoval(bytes32,bytes32)":"3c7ca796","executeRecovery(address,address[])":"5fc489a7","getBalance()":"12065fe0","guardianHashToRemovalTimestamp(bytes32)":"361ad252","guardianToRecovery(address)":"a079e2a1","inRecovery()":"f05151df","initiateGuardianRemoval(bytes32)":"daafaa75","initiateRecovery(address)":"d5ce9aad","isGuardian(bytes32)":"c42fe50a","onERC1155BatchReceived(address,address,uint256[],uint256[],bytes)":"bc197c81","onERC1155Received(address,address,uint256,uint256,bytes)":"f23a6e61","onERC721Received(address,address,uint256,bytes)":"150b7a02","owner()":"8da5cb5b","revealGuardianIdentity()":"a774f412","supportRecovery(address)":"57e685bc","supportsInterface(bytes4)":"01ffc9a7","threshold()":"42cde4e8","transferFTMTo(address)":"905c5fa2","transferGuardianship(bytes32)":"df6204ae","withdraw(uint256)":"2e1a7d4d"}}}}}