{"contracts/Wallet.sol":{"Wallet":{"abi":[{"inputs":[{"internalType":"bytes32[]","name":"guardianAddrHashes","type":"bytes32[]"},{"internalType":"uint256","name":"_threshold","type":"uint256"}],"stateMutability":"nonpayable","type":"constructor"},{"anonymous":false,"inputs":[{"indexed":true,"internalType":"address","name":"from","type":"address"},{"indexed":false,"internalType":"uint256","name":"value","type":"uint256"}],"name":"Deposit","type":"event"},{"anonymous":false,"inputs":[{"indexed":true,"internalType":"bytes32","name":"guardianHash","type":"bytes32"},{"indexed":true,"internalType":"address","name":"guardianAddr","type":"address"}],"name":"GuardianAdded","type":"event"},{"anonymous":false,"inputs":[{"indexed":true,"internalType":"bytes32","name":"oldGuardianHash","type":"bytes32"},{"indexed":true,"internalType":"bytes32","name":"newGuardianHash","type":"bytes32"}],"name":"GuardianChanged","type":"event"},{"anonymous":false,"inputs":[{"indexed":true,"internalType":"bytes32","name":"guardianHash","type":"bytes32"}],"name":"GuardianRemovalQueued","type":"event"},{"anonymous":false,"inputs":[{"indexed":true,"internalType":"bytes32","name":"guardianHash","type":"bytes32"}],"name":"GuardianRemoved","type":"event"},{"anonymous":false,"inputs":[{"indexed":true,"internalType":"bytes32","name":"guardianHash","type":"bytes32"},{"indexed":true,"internalType":"address","name":"guardianAddr","type":"address"}],"name":"GuardianRevealed","type":"event"},{"anonymous":false,"inputs":[{"indexed":true,"internalType":"address","name":"from","type":"address"},{"indexed":true,"internalType":"bytes32","name":"newGuardianHash","type":"bytes32"}],"name":"GuardinshipTransferred","type":"event"},{"anonymous":false,"inputs":[{"indexed":false,"internalType":"address","name":"by","type":"address"},{"indexed":true,"internalType":"uint256","name":"round","type":"uint256"}],"name":"RecoveryCancelled","type":"event"},{"anonymous":false,"inputs":[{"indexed":false,"internalType":"address","name":"oldOwner","type":"address"},{"indexed":false,"internalType":"address","name":"newOwner","type":"address"},{"indexed":true,"internalType":"uint256","name":"round","type":"uint256"}],"name":"RecoveryExecuted","type":"event"},{"anonymous":false,"inputs":[{"indexed":true,"internalType":"address","name":"by","type":"address"},{"indexed":false,"internalType":"address","name":"newProposedOwner","type":"address"},{"indexed":true,"internalType":"uint256","name":"round","type":"uint256"}],"name":"RecoveryInitiated","type":"event"},{"anonymous":false,"inputs":[{"indexed":false,"internalType":"address","name":"by","type":"address"},{"indexed":false,"internalType":"address","name":"newProposedOwner","type":"address"},{"indexed":true,"internalType":"uint256","name":"round","type":"uint256"}],"name":"RecoverySupported","type":"event"},{"anonymous":false,"inputs":[{"indexed":true,"internalType":"address","name":"callee","type":"address"},{"indexed":false,"internalType":"uint256","name":"value","type":"uint256"},{"indexed":false,"internalType":"bytes","name":"data","type":"bytes"}],"name":"TransactionExecuted","type":"event"},{"anonymous":false,"inputs":[{"indexed":true,"internalType":"address","name":"to","type":"address"},{"indexed":false,"internalType":"uint256","name":"value","type":"uint256"}],"name":"Withdraw","type":"event"},{"stateMutability":"payable","type":"fallback"},{"inputs":[{"internalType":"address","name":"guardian","type":"address"}],"name":"addGuardian","outputs":[],"stateMutability":"nonpayable","type":"function"},{"inputs":[{"internalType":"bytes32","name":"guardianHash","type":"bytes32"}],"name":"cancelGuardianRemoval","outputs":[],"stateMutability":"nonpayable","type":"function"},{"inputs":[],"name":"cancelRecovery","outputs":[],"stateMutability":"nonpayable","type":"function"},{"inputs":[],"name":"currRecoveryRound","outputs":[{"internalType":"uint256","name":"","type":"uint256"}],"stateMutability":"view","type":"function"},{"inputs":[],"name":"deposit","outputs":[],"stateMutability":"payable","type":"function"},{"inputs":[{"internalType":"address","name":"callee","type":"address"},{"internalType":"uint256","name":"value","type":"uint256"},{"internalType":"bytes","name":"data","type":"bytes"}],"name":"executeExternalTx","outputs":[{"internalType":"bytes","name":"","type":"bytes"}],"stateMutability":"nonpayable","type":"function"},{"inputs":[{"internalType":"bytes32","name":"oldGuardianHash","type":"bytes32"},{"internalType":"bytes32","name":"newGuardianHash","type":"bytes32"}],"name":"executeGuardianRemoval","outputs":[],"stateMutability":"nonpayable","type":"function"},{"inputs":[{"internalType":"address","name":"newOwner","type":"address"}],"name":"executeRecovery","outputs":[],"stateMutability":"nonpayable","type":"function"},{"inputs":[{"internalType":"address","name":"newOwner","type":"address"},{"internalType":"address[]","name":"guardianList","type":"address[]"}],"name":"executeRecovery","outputs":[],"stateMutability":"nonpayable","type":"function"},{"inputs":[],"name":"getBalance","outputs":[{"internalType":"uint256","name":"","type":"uint256"}],"stateMutability":"view","type":"function"},{"inputs":[{"internalType":"address","name":"guardian","type":"address"}],"name":"getGuardianHash","outputs":[{"internalType":"bytes32","name":"","type":"bytes32"}],"stateMutability":"pure","type":"function"},{"inputs":[{"internalType":"address","name":"guardian","type":"address"}],"name":"getGuardianRecovery","outputs":[{"internalType":"address","name":"","type":"address"},{"internalType":"uint256","name":"","type":"uint256"},{"internalType":"bool","name":"","type":"bool"}],"stateMutability":"view","type":"function"},{"inputs":[{"internalType":"uint256","name":"recoveryRoundNum","type":"uint256"},{"internalType":"address","name":"newOwnerAddress","type":"address"}],"name":"getNewOwnerVoteCount","outputs":[{"internalType":"uint256","name":"","type":"uint256"}],"stateMutability":"view","type":"function"},{"inputs":[],"name":"getRecoveryRound","outputs":[{"internalType":"uint256","name":"","type":"uint256"}],"stateMutability":"view","type":"function"},{"inputs":[{"internalType":"bytes32","name":"","type":"bytes32"}],"name":"guardianHashToRemovalTimestamp","outputs":[{"internalType":"uint256","name":"","type":"uint256"}],"stateMutability":"view","type":"function"},{"inputs":[],"name":"guardianLength","outputs":[{"internalType":"uint256","name":"","type":"uint256"}],"stateMutability":"view","type":"function"},{"inputs":[{"internalType":"address","name":"","type":"address"}],"name":"guardianToRecovery","outputs":[{"internalType":"address","name":"proposedOwner","type":"address"},{"internalType":"uint256","name":"recoveryRound","type":"uint256"},{"internalType":"bool","name":"usedInExecuteRecovery","type":"bool"}],"stateMutability":"view","type":"function"},{"inputs":[],"name":"inRecovery","outputs":[{"internalType":"bool","name":"","type":"bool"}],"stateMutability":"view","type":"function"},{"inputs":[{"internalType":"bytes32","name":"guardianHash","type":"bytes32"}],"name":"initiateGuardianRemoval","outputs":[],"stateMutability":"nonpayable","type":"function"},{"inputs":[{"internalType":"address","name":"_proposedOwner","type":"address"}],"name":"initiateRecovery","outputs":[],"stateMutability":"nonpayable","type":"function"},{"inputs":[{"internalType":"bytes32","name":"","type":"bytes32"}],"name":"isGuardian","outputs":[{"internalType":"bool","name":"","type":"bool"}],"stateMutability":"view","type":"function"},{"inputs":[{"internalType":"address","name":"","type":"address"},{"internalType":"address","name":"","type":"address"},{"internalType":"uint256[]","name":"","type":"uint256[]"},{"internalType":"uint256[]","name":"","type":"uint256[]"},{"internalType":"bytes","name":"","type":"bytes"}],"name":"onERC1155BatchReceived","outputs":[{"internalType":"bytes4","name":"","type":"bytes4"}],"stateMutability":"pure","type":"function"},{"inputs":[{"internalType":"address","name":"","type":"address"},{"internalType":"address","name":"","type":"address"},{"internalType":"uint256","name":"","type":"uint256"},{"internalType":"uint256","name":"","type":"uint256"},{"internalType":"bytes","name":"","type":"bytes"}],"name":"onERC1155Received","outputs":[{"internalType":"bytes4","name":"","type":"bytes4"}],"stateMutability":"pure","type":"function"},{"inputs":[{"internalType":"address","name":"","type":"address"},{"internalType":"address","name":"","type":"address"},{"internalType":"uint256","name":"","type":"uint256"},{"internalType":"bytes","name":"","type":"bytes"}],"name":"onERC721Received","outputs":[{"internalType":"bytes4","name":"","type":"bytes4"}],"stateMutability":"pure","type":"function"},{"inputs":[],"name":"owner","outputs":[{"internalType":"address","name":"","type":"address"}],"stateMutability":"view","type":"function"},{"inputs":[{"internalType":"uint256","name":"","type":"uint256"}],"name":"recoveryRounds","outputs":[{"internalType":"uint256","name":"round","type":"uint256"}],"stateMutability":"view","type":"function"},{"inputs":[{"internalType":"address","name":"guardian","type":"address"}],"name":"removeGuardian","outputs":[],"stateMutability":"nonpayable","type":"function"},{"inputs":[],"name":"revealGuardianIdentity","outputs":[],"stateMutability":"nonpayable","type":"function"},{"inputs":[{"internalType":"address","name":"_proposedOwner","type":"address"}],"name":"supportRecovery","outputs":[],"stateMutability":"nonpayable","type":"function"},{"inputs":[{"internalType":"bytes4","name":"interfaceId","type":"bytes4"}],"name":"supportsInterface","outputs":[{"internalType":"bool","name":"","type":"bool"}],"stateMutability":"pure","type":"function"},{"inputs":[],"name":"threshold","outputs":[{"internalType":"uint256","name":"","type":"uint256"}],"stateMutability":"view","type":"function"},{"inputs":[{"internalType":"bytes32","name":"newGuardianHash","type":"bytes32"}],"name":"transferGuardianship","outputs":[],"stateMutability":"nonpayable","type":"function"},{"inputs":[{"internalType":"uint256","name":"amount","type":"uint256"}],"name":"withdraw","outputs":[],"stateMutability":"nonpayable","type":"function"},{"stateMutability":"payable","type":"receive"}],"evm":{"bytecode":{"linkReferences":{},"object":"60806040523480156200001157600080fd5b5060405162004178380380620041788339818101604052810190620000379190620003ca565b6001600081905550815181111562000086576040517f08c379a00000000000000000000000000000000000000000000000000000000081526004016200007d9062000491565b60405180910390fd5b60005b8251811015620001725760016000848381518110620000ad57620000ac620004b3565b5b6020026020010151815260200190815260200160002060009054906101000a900460ff161562000114576040517f08c379a00000000000000000000000000000000000000000000000000000000081526004016200010b9062000532565b60405180910390fd5b60018060008584815181106200012f576200012e620004b3565b5b6020026020010151815260200190815260200160002060006101000a81548160ff0219169083151502179055508080620001699062000583565b91505062000089565b5081516002819055508060038190555033600460006101000a81548173ffffffffffffffffffffffffffffffffffffffff021916908373ffffffffffffffffffffffffffffffffffffffff1602179055505050620005d0565b6000604051905090565b600080fd5b600080fd5b600080fd5b6000601f19601f8301169050919050565b7f4e487b7100000000000000000000000000000000000000000000000000000000600052604160045260246000fd5b6200022f82620001e4565b810181811067ffffffffffffffff82111715620002515762000250620001f5565b5b80604052505050565b600062000266620001cb565b905062000274828262000224565b919050565b600067ffffffffffffffff821115620002975762000296620001f5565b5b602082029050602081019050919050565b600080fd5b6000819050919050565b620002c281620002ad565b8114620002ce57600080fd5b50565b600081519050620002e281620002b7565b92915050565b6000620002ff620002f98462000279565b6200025a565b90508083825260208201905060208402830185811115620003255762000324620002a8565b5b835b818110156200035257806200033d8882620002d1565b84526020840193505060208101905062000327565b5050509392505050565b600082601f830112620003745762000373620001df565b5b815162000386848260208601620002e8565b91505092915050565b6000819050919050565b620003a4816200038f565b8114620003b057600080fd5b50565b600081519050620003c48162000399565b92915050565b60008060408385031215620003e457620003e3620001d5565b5b600083015167ffffffffffffffff811115620004055762000404620001da565b5b62000413858286016200035c565b92505060206200042685828601620003b3565b9150509250929050565b600082825260208201905092915050565b7f7468726573686f6c6420746f6f20686967680000000000000000000000000000600082015250565b60006200047960128362000430565b9150620004868262000441565b602082019050919050565b60006020820190508181036000830152620004ac816200046a565b9050919050565b7f4e487b7100000000000000000000000000000000000000000000000000000000600052603260045260246000fd5b7f6475706c696361746520677561726469616e0000000000000000000000000000600082015250565b60006200051a60128362000430565b91506200052782620004e2565b602082019050919050565b600060208201905081810360008301526200054d816200050b565b9050919050565b7f4e487b7100000000000000000000000000000000000000000000000000000000600052601160045260246000fd5b600062000590826200038f565b91507fffffffffffffffffffffffffffffffffffffffffffffffffffffffffffffffff8203620005c557620005c462000554565b5b600182019050919050565b613b9880620005e06000396000f3fe6080604052600436106101f25760003560e01c80637d2b51d31161010d578063c42fe50a116100a0578063df6204ae1161006f578063df6204ae146107a6578063e42c264f146107cf578063f05151df146107fa578063f23a6e6114610825578063f48bf4c31461086257610247565b8063c42fe50a1461070d578063d0e30db01461074a578063d5ce9aad14610754578063daafaa751461077d57610247565b8063a526d83b116100dc578063a526d83b14610665578063a774f4121461068e578063ace7c993146106a5578063bc197c81146106d057610247565b80637d2b51d3146105955780638da5cb5b146105d257806391e8715f146105fd578063a079e2a11461062657610247565b80633c7ca796116101855780635fc489a7116101545780635fc489a7146104c957806361253df9146104f2578063714041561461052f5780637c725e9a1461055857610247565b80633c7ca7961461042157806342cde4e81461044a5780634d822c3d1461047557806357e685bc146104a057610247565b806322edecd6116101c157806322edecd6146103535780632e1a7d4d14610392578063361ad252146103bb5780633bc2c4a7146103f857610247565b806301ffc9a7146102975780630ba234d6146102d457806312065fe0146102eb578063150b7a021461031657610247565b36610247573373ffffffffffffffffffffffffffffffffffffffff167fe1fffcc4923d04b559f4d29a8bfc6cda04eb5b0d3c460751c2402c5c5cc9109c3460405161023d9190612800565b60405180910390a2005b3373ffffffffffffffffffffffffffffffffffffffff167fe1fffcc4923d04b559f4d29a8bfc6cda04eb5b0d3c460751c2402c5c5cc9109c3460405161028d9190612800565b60405180910390a2005b3480156102a357600080fd5b506102be60048036038101906102b99190612887565b61089f565b6040516102cb91906128cf565b60405180910390f35b3480156102e057600080fd5b506102e9610942565b005b3480156102f757600080fd5b50610300610a78565b60405161030d9190612800565b60405180910390f35b34801561032257600080fd5b5061033d60048036038101906103389190612aba565b610a80565b60405161034a9190612b4c565b60405180910390f35b34801561035f57600080fd5b5061037a60048036038101906103759190612b67565b610a94565b60405161038993929190612ba3565b60405180910390f35b34801561039e57600080fd5b506103b960048036038101906103b49190612bda565b610b7e565b005b3480156103c757600080fd5b506103e260048036038101906103dd9190612c3d565b610cf0565b6040516103ef9190612800565b60405180910390f35b34801561040457600080fd5b5061041f600480360381019061041a9190612b67565b610d08565b005b34801561042d57600080fd5b5061044860048036038101906104439190612c6a565b610f3a565b005b34801561045657600080fd5b5061045f611118565b60405161046c9190612800565b60405180910390f35b34801561048157600080fd5b5061048a61111e565b6040516104979190612800565b60405180910390f35b3480156104ac57600080fd5b506104c760048036038101906104c29190612b67565b611128565b005b3480156104d557600080fd5b506104f060048036038101906104eb9190612d0a565b611390565b005b3480156104fe57600080fd5b5061051960048036038101906105149190612d6a565b611806565b6040516105269190612800565b60405180910390f35b34801561053b57600080fd5b5061055660048036038101906105519190612b67565b611864565b005b34801561056457600080fd5b5061057f600480360381019061057a9190612bda565b611a37565b60405161058c9190612800565b60405180910390f35b3480156105a157600080fd5b506105bc60048036038101906105b79190612b67565b611a55565b6040516105c99190612db9565b60405180910390f35b3480156105de57600080fd5b506105e7611a85565b6040516105f49190612dd4565b60405180910390f35b34801561060957600080fd5b50610624600480360381019061061f9190612c3d565b611aab565b005b34801561063257600080fd5b5061064d60048036038101906106489190612b67565b611b57565b60405161065c93929190612ba3565b60405180910390f35b34801561067157600080fd5b5061068c60048036038101906106879190612b67565b611bae565b005b34801561069a57600080fd5b506106a3611d44565b005b3480156106b157600080fd5b506106ba611e36565b6040516106c79190612800565b60405180910390f35b3480156106dc57600080fd5b506106f760048036038101906106f29190612e9b565b611e3c565b6040516107049190612b4c565b60405180910390f35b34801561071957600080fd5b50610734600480360381019061072f9190612c3d565b611e54565b60405161074191906128cf565b60405180910390f35b610752611e74565b005b34801561076057600080fd5b5061077b60048036038101906107769190612b67565b611f54565b005b34801561078957600080fd5b506107a4600480360381019061079f9190612c3d565b612205565b005b3480156107b257600080fd5b506107cd60048036038101906107c89190612c3d565b61239b565b005b3480156107db57600080fd5b506107e46125b1565b6040516107f19190612800565b60405180910390f35b34801561080657600080fd5b5061080f6125b7565b60405161081c91906128cf565b60405180910390f35b34801561083157600080fd5b5061084c60048036038101906108479190612f77565b6125ca565b6040516108599190612b4c565b60405180910390f35b34801561086e57600080fd5b5061088960048036038101906108849190613011565b6125e0565b60405161089691906130ff565b60405180910390f35b60006301ffc9a760e01b827bffffffffffffffffffffffffffffffffffffffffffffffffffffffff191614806108fa575063150b7a0260e01b827bffffffffffffffffffffffffffffffffffffffffffffffffffffffff1916145b8061092a5750634e2312e060e01b827bffffffffffffffffffffffffffffffffffffffffffffffffffffffff1916145b15610938576001905061093d565b600090505b919050565b600460009054906101000a900473ffffffffffffffffffffffffffffffffffffffff1673ffffffffffffffffffffffffffffffffffffffff163373ffffffffffffffffffffffffffffffffffffffff16146109d2576040517f08c379a00000000000000000000000000000000000000000000000000000000081526004016109c99061317e565b60405180910390fd5b600460149054906101000a900460ff16610a21576040517f08c379a0000000000000000000000000000000000000000000000000000000008152600401610a18906131ea565b60405180910390fd5b6000600460146101000a81548160ff0219169083151502179055506005547f500ec1d4b692d3c788bfd78a898de379cfd93ab8177575efc7593f87bd051a0733604051610a6e9190612dd4565b60405180910390a2565b600047905090565b600063150b7a0260e01b9050949350505050565b600080600080600860008673ffffffffffffffffffffffffffffffffffffffff1673ffffffffffffffffffffffffffffffffffffffff1681526020019081526020016000206040518060600160405290816000820160009054906101000a900473ffffffffffffffffffffffffffffffffffffffff1673ffffffffffffffffffffffffffffffffffffffff1673ffffffffffffffffffffffffffffffffffffffff168152602001600182015481526020016002820160009054906101000a900460ff1615151515815250509050806000015181602001518260400151935093509350509193909250565b600460009054906101000a900473ffffffffffffffffffffffffffffffffffffffff1673ffffffffffffffffffffffffffffffffffffffff163373ffffffffffffffffffffffffffffffffffffffff1614610c0e576040517f08c379a0000000000000000000000000000000000000000000000000000000008152600401610c059061317e565b60405180910390fd5b610c16610a78565b811115610c58576040517f08c379a0000000000000000000000000000000000000000000000000000000008152600401610c4f90613256565b60405180910390fd5b3373ffffffffffffffffffffffffffffffffffffffff166108fc829081150290604051600060405180830381858888f19350505050158015610c9e573d6000803e3d6000fd5b503373ffffffffffffffffffffffffffffffffffffffff167f884edad9ce6fa2440d8a54cc123490eb96d2768479d49ff9c7366125a942436482604051610ce59190612800565b60405180910390a250565b60066020528060005260406000206000915090505481565b6001600033604051602001610d1d91906132be565b60405160208183030381529060405280519060200120815260200190815260200160002060009054906101000a900460ff16610d8e576040517f08c379a0000000000000000000000000000000000000000000000000000000008152600401610d8590613325565b60405180910390fd5b600460149054906101000a900460ff16610ddd576040517f08c379a0000000000000000000000000000000000000000000000000000000008152600401610dd4906131ea565b60405180910390fd5b60035460076000600554815260200190815260200160002060010160008373ffffffffffffffffffffffffffffffffffffffff1673ffffffffffffffffffffffffffffffffffffffff168152602001908152602001600020541015610e77576040517f08c379a0000000000000000000000000000000000000000000000000000000008152600401610e6e906133b7565b60405180910390fd5b6000600460146101000a81548160ff0219169083151502179055506000600460009054906101000a900473ffffffffffffffffffffffffffffffffffffffff16905081600460006101000a81548173ffffffffffffffffffffffffffffffffffffffff021916908373ffffffffffffffffffffffffffffffffffffffff1602179055506005547fcbaa7c7c351e2d5655fc08d9c383adcf4736af160c800b53df1f1dd221f826c88284604051610f2e9291906133d7565b60405180910390a25050565b600460009054906101000a900473ffffffffffffffffffffffffffffffffffffffff1673ffffffffffffffffffffffffffffffffffffffff163373ffffffffffffffffffffffffffffffffffffffff1614610fca576040517f08c379a0000000000000000000000000000000000000000000000000000000008152600401610fc19061317e565b60405180910390fd5b6000600660008481526020019081526020016000205411611020576040517f08c379a000000000000000000000000000000000000000000000000000000000815260040161101790613472565b60405180910390fd5b4260066000848152602001908152602001600020541115611076576040517f08c379a000000000000000000000000000000000000000000000000000000000815260040161106d906134de565b60405180910390fd5b6000600660008481526020019081526020016000208190555060006001600084815260200190815260200160002060006101000a81548160ff021916908315150217905550600180600083815260200190815260200160002060006101000a81548160ff02191690831515021790555080827f9012e3ecb8e2ea8ff7ef8d688fe1593a8040a61d7c6678accc84f3556c8b722d60405160405180910390a35050565b60035481565b6000600554905090565b600160003360405160200161113d91906132be565b60405160208183030381529060405280519060200120815260200190815260200160002060009054906101000a900460ff166111ae576040517f08c379a00000000000000000000000000000000000000000000000000000000081526004016111a590613325565b60405180910390fd5b600460149054906101000a900460ff166111fd576040517f08c379a00000000000000000000000000000000000000000000000000000000081526004016111f4906131ea565b60405180910390fd5b60405180606001604052808273ffffffffffffffffffffffffffffffffffffffff168152602001600554815260200160001515815250600860003373ffffffffffffffffffffffffffffffffffffffff1673ffffffffffffffffffffffffffffffffffffffff16815260200190815260200160002060008201518160000160006101000a81548173ffffffffffffffffffffffffffffffffffffffff021916908373ffffffffffffffffffffffffffffffffffffffff1602179055506020820151816001015560408201518160020160006101000a81548160ff02191690831515021790555090505060076000600554815260200190815260200160002060010160008273ffffffffffffffffffffffffffffffffffffffff1673ffffffffffffffffffffffffffffffffffffffff168152602001908152602001600020600081548092919061134c9061352d565b91905055506005547f7a0b940199ff58e943823fe8c0e916df112be357049d8105a7e83cf9a4000e4a33836040516113859291906133d7565b60405180910390a250565b60016000336040516020016113a591906132be565b60405160208183030381529060405280519060200120815260200190815260200160002060009054906101000a900460ff16611416576040517f08c379a000000000000000000000000000000000000000000000000000000000815260040161140d90613325565b60405180910390fd5b600460149054906101000a900460ff16611465576040517f08c379a000000000000000000000000000000000000000000000000000000000815260040161145c906131ea565b60405180910390fd5b6003548282905010156114ad576040517f08c379a00000000000000000000000000000000000000000000000000000000081526004016114a4906133b7565b60405180910390fd5b60005b82829050811015611740576000600860008585858181106114d4576114d3613575565b5b90506020020160208101906114e99190612b67565b73ffffffffffffffffffffffffffffffffffffffff1673ffffffffffffffffffffffffffffffffffffffff1681526020019081526020016000206040518060600160405290816000820160009054906101000a900473ffffffffffffffffffffffffffffffffffffffff1673ffffffffffffffffffffffffffffffffffffffff1673ffffffffffffffffffffffffffffffffffffffff168152602001600182015481526020016002820160009054906101000a900460ff16151515158152505090506005548160200151146115f3576040517f08c379a00000000000000000000000000000000000000000000000000000000081526004016115ea906135f0565b60405180910390fd5b8473ffffffffffffffffffffffffffffffffffffffff16816000015173ffffffffffffffffffffffffffffffffffffffff1614611665576040517f08c379a000000000000000000000000000000000000000000000000000000000815260040161165c9061365c565b60405180910390fd5b8060400151156116aa576040517f08c379a00000000000000000000000000000000000000000000000000000000081526004016116a1906136ee565b60405180910390fd5b6001600860008686868181106116c3576116c2613575565b5b90506020020160208101906116d89190612b67565b73ffffffffffffffffffffffffffffffffffffffff1673ffffffffffffffffffffffffffffffffffffffff16815260200190815260200160002060020160006101000a81548160ff0219169083151502179055505080806117389061352d565b9150506114b0565b506000600460146101000a81548160ff0219169083151502179055506000600460009054906101000a900473ffffffffffffffffffffffffffffffffffffffff16905083600460006101000a81548173ffffffffffffffffffffffffffffffffffffffff021916908373ffffffffffffffffffffffffffffffffffffffff1602179055506005547fcbaa7c7c351e2d5655fc08d9c383adcf4736af160c800b53df1f1dd221f826c882866040516117f89291906133d7565b60405180910390a250505050565b60006007600084815260200190815260200160002060010160008373ffffffffffffffffffffffffffffffffffffffff1673ffffffffffffffffffffffffffffffffffffffff16815260200190815260200160002054905092915050565b600460009054906101000a900473ffffffffffffffffffffffffffffffffffffffff1673ffffffffffffffffffffffffffffffffffffffff163373ffffffffffffffffffffffffffffffffffffffff16146118f4576040517f08c379a00000000000000000000000000000000000000000000000000000000081526004016118eb9061317e565b60405180910390fd5b600460149054906101000a900460ff1615611944576040517f08c379a000000000000000000000000000000000000000000000000000000000815260040161193b90613780565b60405180910390fd5b600354600160025461195691906137a0565b1015611997576040517f08c379a000000000000000000000000000000000000000000000000000000000815260040161198e90613820565b60405180910390fd5b6000816040516020016119aa91906132be565b60405160208183030381529060405280519060200120905060006001600083815260200190815260200160002060006101000a81548160ff02191690831515021790555060026000815480929190611a0190613840565b9190505550807fc96852b343177e80d71dfadbb85fe0f2a94dd48301b2385a51564a187b7925af60405160405180910390a25050565b60076020528060005260406000206000915090508060000154905081565b600081604051602001611a6891906132be565b604051602081830303815290604052805190602001209050919050565b600460009054906101000a900473ffffffffffffffffffffffffffffffffffffffff1681565b600460009054906101000a900473ffffffffffffffffffffffffffffffffffffffff1673ffffffffffffffffffffffffffffffffffffffff163373ffffffffffffffffffffffffffffffffffffffff1614611b3b576040517f08c379a0000000000000000000000000000000000000000000000000000000008152600401611b329061317e565b60405180910390fd5b6000600660008381526020019081526020016000208190555050565b60086020528060005260406000206000915090508060000160009054906101000a900473ffffffffffffffffffffffffffffffffffffffff16908060010154908060020160009054906101000a900460ff16905083565b600460009054906101000a900473ffffffffffffffffffffffffffffffffffffffff1673ffffffffffffffffffffffffffffffffffffffff163373ffffffffffffffffffffffffffffffffffffffff1614611c3e576040517f08c379a0000000000000000000000000000000000000000000000000000000008152600401611c359061317e565b60405180910390fd5b600460149054906101000a900460ff1615611c8e576040517f08c379a0000000000000000000000000000000000000000000000000000000008152600401611c8590613780565b60405180910390fd5b600081604051602001611ca191906132be565b604051602081830303815290604052805190602001209050600180600083815260200190815260200160002060006101000a81548160ff02191690831515021790555060026000815480929190611cf79061352d565b91905055508173ffffffffffffffffffffffffffffffffffffffff16817fdfd29cf87a6fd17a11ddb0053bbd9909617308a4f52602e97030f428065ad22c60405160405180910390a35050565b6001600033604051602001611d5991906132be565b60405160208183030381529060405280519060200120815260200190815260200160002060009054906101000a900460ff16611dca576040517f08c379a0000000000000000000000000000000000000000000000000000000008152600401611dc190613325565b60405180910390fd5b3373ffffffffffffffffffffffffffffffffffffffff1633604051602001611df291906132be565b604051602081830303815290604052805190602001207faeee4dc34642964bd6d8194b8689894338b209de063b46447e53fe54d54eb99b60405160405180910390a3565b60055481565b600063bc197c8160e01b905098975050505050505050565b60016020528060005260406000206000915054906101000a900460ff1681565b600460009054906101000a900473ffffffffffffffffffffffffffffffffffffffff1673ffffffffffffffffffffffffffffffffffffffff163373ffffffffffffffffffffffffffffffffffffffff1614611f04576040517f08c379a0000000000000000000000000000000000000000000000000000000008152600401611efb9061317e565b60405180910390fd5b3373ffffffffffffffffffffffffffffffffffffffff167fe1fffcc4923d04b559f4d29a8bfc6cda04eb5b0d3c460751c2402c5c5cc9109c34604051611f4a9190612800565b60405180910390a2565b6001600033604051602001611f6991906132be565b60405160208183030381529060405280519060200120815260200190815260200160002060009054906101000a900460ff16611fda576040517f08c379a0000000000000000000000000000000000000000000000000000000008152600401611fd190613325565b60405180910390fd5b600460149054906101000a900460ff161561202a576040517f08c379a0000000000000000000000000000000000000000000000000000000008152600401612021906138b5565b60405180910390fd5b6005600081548092919061203d9061352d565b919050555060405180606001604052808273ffffffffffffffffffffffffffffffffffffffff168152602001600554815260200160001515815250600860003373ffffffffffffffffffffffffffffffffffffffff1673ffffffffffffffffffffffffffffffffffffffff16815260200190815260200160002060008201518160000160006101000a81548173ffffffffffffffffffffffffffffffffffffffff021916908373ffffffffffffffffffffffffffffffffffffffff1602179055506020820151816001015560408201518160020160006101000a81548160ff0219169083151502179055509050506001600460146101000a81548160ff02191690831515021790555060076000600554815260200190815260200160002060010160008273ffffffffffffffffffffffffffffffffffffffff1673ffffffffffffffffffffffffffffffffffffffff16815260200190815260200160002060008154809291906121ac9061352d565b91905055506005543373ffffffffffffffffffffffffffffffffffffffff167fe290ea2cc3cfeb5114f992dc8be9e503de30042c13b9298644a2679b09e17a04836040516121fa9190612dd4565b60405180910390a350565b600460009054906101000a900473ffffffffffffffffffffffffffffffffffffffff1673ffffffffffffffffffffffffffffffffffffffff163373ffffffffffffffffffffffffffffffffffffffff1614612295576040517f08c379a000000000000000000000000000000000000000000000000000000000815260040161228c9061317e565b60405180910390fd5b6001600082815260200190815260200160002060009054906101000a900460ff166122f5576040517f08c379a00000000000000000000000000000000000000000000000000000000081526004016122ec90613921565b60405180910390fd5b600460149054906101000a900460ff1615612345576040517f08c379a000000000000000000000000000000000000000000000000000000000815260040161233c90613780565b60405180910390fd5b6203f480426123549190613941565b6006600083815260200190815260200160002081905550807f7c5906c97abceb0e2aa5b3aa0181decc25ff01fe67d8926b62600f44e0785e4560405160405180910390a250565b60016000336040516020016123b091906132be565b60405160208183030381529060405280519060200120815260200190815260200160002060009054906101000a900460ff16612421576040517f08c379a000000000000000000000000000000000000000000000000000000000815260040161241890613325565b60405180910390fd5b600460149054906101000a900460ff1615612471576040517f08c379a0000000000000000000000000000000000000000000000000000000008152600401612468906138b5565b60405180910390fd5b6000600660003360405160200161248891906132be565b60405160208183030381529060405280519060200120815260200190815260200160002054146124ed576040517f08c379a00000000000000000000000000000000000000000000000000000000081526004016124e4906139e7565b60405180910390fd5b6000600160003360405160200161250491906132be565b60405160208183030381529060405280519060200120815260200190815260200160002060006101000a81548160ff021916908315150217905550600180600083815260200190815260200160002060006101000a81548160ff021916908315150217905550803373ffffffffffffffffffffffffffffffffffffffff167febb73463791ab4e1ce8ac274520eca412b3aea13fcfac358e8e834f6d8ba716660405160405180910390a350565b60025481565b600460149054906101000a900460ff1681565b600063f23a6e6160e01b90509695505050505050565b6060600460009054906101000a900473ffffffffffffffffffffffffffffffffffffffff1673ffffffffffffffffffffffffffffffffffffffff163373ffffffffffffffffffffffffffffffffffffffff1614612672576040517f08c379a00000000000000000000000000000000000000000000000000000000081526004016126699061317e565b60405180910390fd5b61267a61278e565b6000808573ffffffffffffffffffffffffffffffffffffffff1685856040516126a39190613a43565b60006040518083038185875af1925050503d80600081146126e0576040519150601f19603f3d011682016040523d82523d6000602084013e6126e5565b606091505b50915091508161272a576040517f08c379a000000000000000000000000000000000000000000000000000000000815260040161272190613aa6565b60405180910390fd5b8573ffffffffffffffffffffffffffffffffffffffff167f47d99ad340f52da66535aff7e10da1ceb85a32bcbd9fa1c42314d194545e14d28686604051612772929190613ac6565b60405180910390a280925050506127876127dd565b9392505050565b6002600054036127d3576040517f08c379a00000000000000000000000000000000000000000000000000000000081526004016127ca90613b42565b60405180910390fd5b6002600081905550565b6001600081905550565b6000819050919050565b6127fa816127e7565b82525050565b600060208201905061281560008301846127f1565b92915050565b6000604051905090565b600080fd5b600080fd5b60007fffffffff0000000000000000000000000000000000000000000000000000000082169050919050565b6128648161282f565b811461286f57600080fd5b50565b6000813590506128818161285b565b92915050565b60006020828403121561289d5761289c612825565b5b60006128ab84828501612872565b91505092915050565b60008115159050919050565b6128c9816128b4565b82525050565b60006020820190506128e460008301846128c0565b92915050565b600073ffffffffffffffffffffffffffffffffffffffff82169050919050565b6000612915826128ea565b9050919050565b6129258161290a565b811461293057600080fd5b50565b6000813590506129428161291c565b92915050565b612951816127e7565b811461295c57600080fd5b50565b60008135905061296e81612948565b92915050565b600080fd5b600080fd5b6000601f19601f8301169050919050565b7f4e487b7100000000000000000000000000000000000000000000000000000000600052604160045260246000fd5b6129c78261297e565b810181811067ffffffffffffffff821117156129e6576129e561298f565b5b80604052505050565b60006129f961281b565b9050612a0582826129be565b919050565b600067ffffffffffffffff821115612a2557612a2461298f565b5b612a2e8261297e565b9050602081019050919050565b82818337600083830152505050565b6000612a5d612a5884612a0a565b6129ef565b905082815260208101848484011115612a7957612a78612979565b5b612a84848285612a3b565b509392505050565b600082601f830112612aa157612aa0612974565b5b8135612ab1848260208601612a4a565b91505092915050565b60008060008060808587031215612ad457612ad3612825565b5b6000612ae287828801612933565b9450506020612af387828801612933565b9350506040612b048782880161295f565b925050606085013567ffffffffffffffff811115612b2557612b2461282a565b5b612b3187828801612a8c565b91505092959194509250565b612b468161282f565b82525050565b6000602082019050612b616000830184612b3d565b92915050565b600060208284031215612b7d57612b7c612825565b5b6000612b8b84828501612933565b91505092915050565b612b9d8161290a565b82525050565b6000606082019050612bb86000830186612b94565b612bc560208301856127f1565b612bd260408301846128c0565b949350505050565b600060208284031215612bf057612bef612825565b5b6000612bfe8482850161295f565b91505092915050565b6000819050919050565b612c1a81612c07565b8114612c2557600080fd5b50565b600081359050612c3781612c11565b92915050565b600060208284031215612c5357612c52612825565b5b6000612c6184828501612c28565b91505092915050565b60008060408385031215612c8157612c80612825565b5b6000612c8f85828601612c28565b9250506020612ca085828601612c28565b9150509250929050565b600080fd5b600080fd5b60008083601f840112612cca57612cc9612974565b5b8235905067ffffffffffffffff811115612ce757612ce6612caa565b5b602083019150836020820283011115612d0357612d02612caf565b5b9250929050565b600080600060408486031215612d2357612d22612825565b5b6000612d3186828701612933565b935050602084013567ffffffffffffffff811115612d5257612d5161282a565b5b612d5e86828701612cb4565b92509250509250925092565b60008060408385031215612d8157612d80612825565b5b6000612d8f8582860161295f565b9250506020612da085828601612933565b9150509250929050565b612db381612c07565b82525050565b6000602082019050612dce6000830184612daa565b92915050565b6000602082019050612de96000830184612b94565b92915050565b60008083601f840112612e0557612e04612974565b5b8235905067ffffffffffffffff811115612e2257612e21612caa565b5b602083019150836020820283011115612e3e57612e3d612caf565b5b9250929050565b60008083601f840112612e5b57612e5a612974565b5b8235905067ffffffffffffffff811115612e7857612e77612caa565b5b602083019150836001820283011115612e9457612e93612caf565b5b9250929050565b60008060008060008060008060a0898b031215612ebb57612eba612825565b5b6000612ec98b828c01612933565b9850506020612eda8b828c01612933565b975050604089013567ffffffffffffffff811115612efb57612efa61282a565b5b612f078b828c01612def565b9650965050606089013567ffffffffffffffff811115612f2a57612f2961282a565b5b612f368b828c01612def565b9450945050608089013567ffffffffffffffff811115612f5957612f5861282a565b5b612f658b828c01612e45565b92509250509295985092959890939650565b60008060008060008060a08789031215612f9457612f93612825565b5b6000612fa289828a01612933565b9650506020612fb389828a01612933565b9550506040612fc489828a0161295f565b9450506060612fd589828a0161295f565b935050608087013567ffffffffffffffff811115612ff657612ff561282a565b5b61300289828a01612e45565b92509250509295509295509295565b60008060006060848603121561302a57613029612825565b5b600061303886828701612933565b93505060206130498682870161295f565b925050604084013567ffffffffffffffff81111561306a5761306961282a565b5b61307686828701612a8c565b9150509250925092565b600081519050919050565b600082825260208201905092915050565b60005b838110156130ba57808201518184015260208101905061309f565b60008484015250505050565b60006130d182613080565b6130db818561308b565b93506130eb81856020860161309c565b6130f48161297e565b840191505092915050565b6000602082019050818103600083015261311981846130c6565b905092915050565b600082825260208201905092915050565b7f6f6e6c79206f776e657200000000000000000000000000000000000000000000600082015250565b6000613168600a83613121565b915061317382613132565b602082019050919050565b600060208201905081810360008301526131978161315b565b9050919050565b7f77616c6c6574206973206e6f7420696e207265636f76657279206d6f64650000600082015250565b60006131d4601e83613121565b91506131df8261319e565b602082019050919050565b60006020820190508181036000830152613203816131c7565b9050919050565b7f6e6f7420656e6f7567682062616c616e63650000000000000000000000000000600082015250565b6000613240601283613121565b915061324b8261320a565b602082019050919050565b6000602082019050818103600083015261326f81613233565b9050919050565b60008160601b9050919050565b600061328e82613276565b9050919050565b60006132a082613283565b9050919050565b6132b86132b38261290a565b613295565b82525050565b60006132ca82846132a7565b60148201915081905092915050565b7f6f6e6c7920677561726469616e00000000000000000000000000000000000000600082015250565b600061330f600d83613121565b915061331a826132d9565b602082019050919050565b6000602082019050818103600083015261333e81613302565b9050919050565b7f6d6f726520677561726469616e7320726571756972656420746f207472616e7360008201527f666572206f776e65727368697000000000000000000000000000000000000000602082015250565b60006133a1602d83613121565b91506133ac82613345565b604082019050919050565b600060208201905081810360008301526133d081613394565b9050919050565b60006040820190506133ec6000830185612b94565b6133f96020830184612b94565b9392505050565b7f677561726469616e2069736e27742071756575656420666f722072656d6f766160008201527f6c00000000000000000000000000000000000000000000000000000000000000602082015250565b600061345c602183613121565b915061346782613400565b604082019050919050565b6000602082019050818103600083015261348b8161344f565b9050919050565b7f74696d652064656c617920686173206e6f742070617373656400000000000000600082015250565b60006134c8601983613121565b91506134d382613492565b602082019050919050565b600060208201905081810360008301526134f7816134bb565b9050919050565b7f4e487b7100000000000000000000000000000000000000000000000000000000600052601160045260246000fd5b6000613538826127e7565b91507fffffffffffffffffffffffffffffffffffffffffffffffffffffffffffffffff820361356a576135696134fe565b5b600182019050919050565b7f4e487b7100000000000000000000000000000000000000000000000000000000600052603260045260246000fd5b7f726f756e64206d69736d61746368000000000000000000000000000000000000600082015250565b60006135da600e83613121565b91506135e5826135a4565b602082019050919050565b60006020820190508181036000830152613609816135cd565b9050919050565b7f64697361677265656d656e74206f6e206e6577206f776e657200000000000000600082015250565b6000613646601983613121565b915061365182613610565b602082019050919050565b6000602082019050818103600083015261367581613639565b9050919050565b7f6475706c696361746520677561726469616e207573656420696e207265636f7660008201527f6572790000000000000000000000000000000000000000000000000000000000602082015250565b60006136d8602383613121565b91506136e38261367c565b604082019050919050565b60006020820190508181036000830152613707816136cb565b9050919050565b7f63616e6e6f742072656d6f766520677561726469616e20647572696e6720726560008201527f636f766572790000000000000000000000000000000000000000000000000000602082015250565b600061376a602683613121565b91506137758261370e565b604082019050919050565b600060208201905081810360008301526137998161375d565b9050919050565b60006137ab826127e7565b91506137b6836127e7565b92508282039050818111156137ce576137cd6134fe565b5b92915050565b7f63616e6e6f742072656d6f766520677561726469616e00000000000000000000600082015250565b600061380a601683613121565b9150613815826137d4565b602082019050919050565b60006020820190508181036000830152613839816137fd565b9050919050565b600061384b826127e7565b91506000820361385e5761385d6134fe565b5b600182039050919050565b7f77616c6c657420697320696e207265636f76657279206d6f6465000000000000600082015250565b600061389f601a83613121565b91506138aa82613869565b602082019050919050565b600060208201905081810360008301526138ce81613892565b9050919050565b7f6e6f74206120677561726469616e000000000000000000000000000000000000600082015250565b600061390b600e83613121565b9150613916826138d5565b602082019050919050565b6000602082019050818103600083015261393a816138fe565b9050919050565b600061394c826127e7565b9150613957836127e7565b925082820190508082111561396f5761396e6134fe565b5b92915050565b7f677561726469616e207175657565756420666f722072656d6f76616c2c20636160008201527f6e6e6f74207472616e7366657220677561726469616e73686970000000000000602082015250565b60006139d1603a83613121565b91506139dc82613975565b604082019050919050565b60006020820190508181036000830152613a00816139c4565b9050919050565b600081905092915050565b6000613a1d82613080565b613a278185613a07565b9350613a3781856020860161309c565b80840191505092915050565b6000613a4f8284613a12565b915081905092915050565b7f65787465726e616c2063616c6c20726576657274656400000000000000000000600082015250565b6000613a90601683613121565b9150613a9b82613a5a565b602082019050919050565b60006020820190508181036000830152613abf81613a83565b9050919050565b6000604082019050613adb60008301856127f1565b8181036020830152613aed81846130c6565b90509392505050565b7f5265656e7472616e637947756172643a207265656e7472616e742063616c6c00600082015250565b6000613b2c601f83613121565b9150613b3782613af6565b602082019050919050565b60006020820190508181036000830152613b5b81613b1f565b905091905056fea264697066735822122007a9164209c7145ca59c045c201c802d9ca00c67e985227123b1c23203def84864736f6c63430008110033","opcodes":"PUSH1 0x80 PUSH1 0x40 MSTORE CALLVALUE DUP1 ISZERO PUSH3 0x11 JUMPI PUSH1 0x0 DUP1 REVERT JUMPDEST POP PUSH1 0x40 MLOAD PUSH3 0x4178 CODESIZE SUB DUP1 PUSH3 0x4178 DUP4 CODECOPY DUP2 DUP2 ADD PUSH1 0x40 MSTORE DUP2 ADD SWAP1 PUSH3 0x37 SWAP2 SWAP1 PUSH3 0x3CA JUMP JUMPDEST PUSH1 0x1 PUSH1 0x0 DUP2 SWAP1 SSTORE POP DUP2 MLOAD DUP2 GT ISZERO PUSH3 0x86 JUMPI PUSH1 0x40 MLOAD PUSH32 0x8C379A000000000000000000000000000000000000000000000000000000000 DUP2 MSTORE PUSH1 0x4 ADD PUSH3 0x7D SWAP1 PUSH3 0x491 JUMP JUMPDEST PUSH1 0x40 MLOAD DUP1 SWAP2 SUB SWAP1 REVERT JUMPDEST PUSH1 0x0 JUMPDEST DUP3 MLOAD DUP2 LT ISZERO PUSH3 0x172 JUMPI PUSH1 0x1 PUSH1 0x0 DUP5 DUP4 DUP2 MLOAD DUP2 LT PUSH3 0xAD JUMPI PUSH3 0xAC PUSH3 0x4B3 JUMP JUMPDEST JUMPDEST PUSH1 0x20 MUL PUSH1 0x20 ADD ADD MLOAD DUP2 MSTORE PUSH1 0x20 ADD SWAP1 DUP2 MSTORE PUSH1 0x20 ADD PUSH1 0x0 KECCAK256 PUSH1 0x0 SWAP1 SLOAD SWAP1 PUSH2 0x100 EXP SWAP1 DIV PUSH1 0xFF AND ISZERO PUSH3 0x114 JUMPI PUSH1 0x40 MLOAD PUSH32 0x8C379A000000000000000000000000000000000000000000000000000000000 DUP2 MSTORE PUSH1 0x4 ADD PUSH3 0x10B SWAP1 PUSH3 0x532 JUMP JUMPDEST PUSH1 0x40 MLOAD DUP1 SWAP2 SUB SWAP1 REVERT JUMPDEST PUSH1 0x1 DUP1 PUSH1 0x0 DUP6 DUP5 DUP2 MLOAD DUP2 LT PUSH3 0x12F JUMPI PUSH3 0x12E PUSH3 0x4B3 JUMP JUMPDEST JUMPDEST PUSH1 0x20 MUL PUSH1 0x20 ADD ADD MLOAD DUP2 MSTORE PUSH1 0x20 ADD SWAP1 DUP2 MSTORE PUSH1 0x20 ADD PUSH1 0x0 KECCAK256 PUSH1 0x0 PUSH2 0x100 EXP DUP2 SLOAD DUP2 PUSH1 0xFF MUL NOT AND SWAP1 DUP4 ISZERO ISZERO MUL OR SWAP1 SSTORE POP DUP1 DUP1 PUSH3 0x169 SWAP1 PUSH3 0x583 JUMP JUMPDEST SWAP2 POP POP PUSH3 0x89 JUMP JUMPDEST POP DUP2 MLOAD PUSH1 0x2 DUP2 SWAP1 SSTORE POP DUP1 PUSH1 0x3 DUP2 SWAP1 SSTORE POP CALLER PUSH1 0x4 PUSH1 0x0 PUSH2 0x100 EXP DUP2 SLOAD DUP2 PUSH20 0xFFFFFFFFFFFFFFFFFFFFFFFFFFFFFFFFFFFFFFFF MUL NOT AND SWAP1 DUP4 PUSH20 0xFFFFFFFFFFFFFFFFFFFFFFFFFFFFFFFFFFFFFFFF AND MUL OR SWAP1 SSTORE POP POP POP PUSH3 0x5D0 JUMP JUMPDEST PUSH1 0x0 PUSH1 0x40 MLOAD SWAP1 POP SWAP1 JUMP JUMPDEST PUSH1 0x0 DUP1 REVERT JUMPDEST PUSH1 0x0 DUP1 REVERT JUMPDEST PUSH1 0x0 DUP1 REVERT JUMPDEST PUSH1 0x0 PUSH1 0x1F NOT PUSH1 0x1F DUP4 ADD AND SWAP1 POP SWAP2 SWAP1 POP JUMP JUMPDEST PUSH32 0x4E487B7100000000000000000000000000000000000000000000000000000000 PUSH1 0x0 MSTORE PUSH1 0x41 PUSH1 0x4 MSTORE PUSH1 0x24 PUSH1 0x0 REVERT JUMPDEST PUSH3 0x22F DUP3 PUSH3 0x1E4 JUMP JUMPDEST DUP2 ADD DUP2 DUP2 LT PUSH8 0xFFFFFFFFFFFFFFFF DUP3 GT OR ISZERO PUSH3 0x251 JUMPI PUSH3 0x250 PUSH3 0x1F5 JUMP JUMPDEST JUMPDEST DUP1 PUSH1 0x40 MSTORE POP POP POP JUMP JUMPDEST PUSH1 0x0 PUSH3 0x266 PUSH3 0x1CB JUMP JUMPDEST SWAP1 POP PUSH3 0x274 DUP3 DUP3 PUSH3 0x224 JUMP JUMPDEST SWAP2 SWAP1 POP JUMP JUMPDEST PUSH1 0x0 PUSH8 0xFFFFFFFFFFFFFFFF DUP3 GT ISZERO PUSH3 0x297 JUMPI PUSH3 0x296 PUSH3 0x1F5 JUMP JUMPDEST JUMPDEST PUSH1 0x20 DUP3 MUL SWAP1 POP PUSH1 0x20 DUP2 ADD SWAP1 POP SWAP2 SWAP1 POP JUMP JUMPDEST PUSH1 0x0 DUP1 REVERT JUMPDEST PUSH1 0x0 DUP2 SWAP1 POP SWAP2 SWAP1 POP JUMP JUMPDEST PUSH3 0x2C2 DUP2 PUSH3 0x2AD JUMP JUMPDEST DUP2 EQ PUSH3 0x2CE JUMPI PUSH1 0x0 DUP1 REVERT JUMPDEST POP JUMP JUMPDEST PUSH1 0x0 DUP2 MLOAD SWAP1 POP PUSH3 0x2E2 DUP2 PUSH3 0x2B7 JUMP JUMPDEST SWAP3 SWAP2 POP POP JUMP JUMPDEST PUSH1 0x0 PUSH3 0x2FF PUSH3 0x2F9 DUP5 PUSH3 0x279 JUMP JUMPDEST PUSH3 0x25A JUMP JUMPDEST SWAP1 POP DUP1 DUP4 DUP3 MSTORE PUSH1 0x20 DUP3 ADD SWAP1 POP PUSH1 0x20 DUP5 MUL DUP4 ADD DUP6 DUP2 GT ISZERO PUSH3 0x325 JUMPI PUSH3 0x324 PUSH3 0x2A8 JUMP JUMPDEST JUMPDEST DUP4 JUMPDEST DUP2 DUP2 LT ISZERO PUSH3 0x352 JUMPI DUP1 PUSH3 0x33D DUP9 DUP3 PUSH3 0x2D1 JUMP JUMPDEST DUP5 MSTORE PUSH1 0x20 DUP5 ADD SWAP4 POP POP PUSH1 0x20 DUP2 ADD SWAP1 POP PUSH3 0x327 JUMP JUMPDEST POP POP POP SWAP4 SWAP3 POP POP POP JUMP JUMPDEST PUSH1 0x0 DUP3 PUSH1 0x1F DUP4 ADD SLT PUSH3 0x374 JUMPI PUSH3 0x373 PUSH3 0x1DF JUMP JUMPDEST JUMPDEST DUP2 MLOAD PUSH3 0x386 DUP5 DUP3 PUSH1 0x20 DUP7 ADD PUSH3 0x2E8 JUMP JUMPDEST SWAP2 POP POP SWAP3 SWAP2 POP POP JUMP JUMPDEST PUSH1 0x0 DUP2 SWAP1 POP SWAP2 SWAP1 POP JUMP JUMPDEST PUSH3 0x3A4 DUP2 PUSH3 0x38F JUMP JUMPDEST DUP2 EQ PUSH3 0x3B0 JUMPI PUSH1 0x0 DUP1 REVERT JUMPDEST POP JUMP JUMPDEST PUSH1 0x0 DUP2 MLOAD SWAP1 POP PUSH3 0x3C4 DUP2 PUSH3 0x399 JUMP JUMPDEST SWAP3 SWAP2 POP POP JUMP JUMPDEST PUSH1 0x0 DUP1 PUSH1 0x40 DUP4 DUP6 SUB SLT ISZERO PUSH3 0x3E4 JUMPI PUSH3 0x3E3 PUSH3 0x1D5 JUMP JUMPDEST JUMPDEST PUSH1 0x0 DUP4 ADD MLOAD PUSH8 0xFFFFFFFFFFFFFFFF DUP2 GT ISZERO PUSH3 0x405 JUMPI PUSH3 0x404 PUSH3 0x1DA JUMP JUMPDEST JUMPDEST PUSH3 0x413 DUP6 DUP3 DUP7 ADD PUSH3 0x35C JUMP JUMPDEST SWAP3 POP POP PUSH1 0x20 PUSH3 0x426 DUP6 DUP3 DUP7 ADD PUSH3 0x3B3 JUMP JUMPDEST SWAP2 POP POP SWAP3 POP SWAP3 SWAP1 POP JUMP JUMPDEST PUSH1 0x0 DUP3 DUP3 MSTORE PUSH1 0x20 DUP3 ADD SWAP1 POP SWAP3 SWAP2 POP POP JUMP JUMPDEST PUSH32 0x7468726573686F6C6420746F6F20686967680000000000000000000000000000 PUSH1 0x0 DUP3 ADD MSTORE POP JUMP JUMPDEST PUSH1 0x0 PUSH3 0x479 PUSH1 0x12 DUP4 PUSH3 0x430 JUMP JUMPDEST SWAP2 POP PUSH3 0x486 DUP3 PUSH3 0x441 JUMP JUMPDEST PUSH1 0x20 DUP3 ADD SWAP1 POP SWAP2 SWAP1 POP JUMP JUMPDEST PUSH1 0x0 PUSH1 0x20 DUP3 ADD SWAP1 POP DUP2 DUP2 SUB PUSH1 0x0 DUP4 ADD MSTORE PUSH3 0x4AC DUP2 PUSH3 0x46A JUMP JUMPDEST SWAP1 POP SWAP2 SWAP1 POP JUMP JUMPDEST PUSH32 0x4E487B7100000000000000000000000000000000000000000000000000000000 PUSH1 0x0 MSTORE PUSH1 0x32 PUSH1 0x4 MSTORE PUSH1 0x24 PUSH1 0x0 REVERT JUMPDEST PUSH32 0x6475706C696361746520677561726469616E0000000000000000000000000000 PUSH1 0x0 DUP3 ADD MSTORE POP JUMP JUMPDEST PUSH1 0x0 PUSH3 0x51A PUSH1 0x12 DUP4 PUSH3 0x430 JUMP JUMPDEST SWAP2 POP PUSH3 0x527 DUP3 PUSH3 0x4E2 JUMP JUMPDEST PUSH1 0x20 DUP3 ADD SWAP1 POP SWAP2 SWAP1 POP JUMP JUMPDEST PUSH1 0x0 PUSH1 0x20 DUP3 ADD SWAP1 POP DUP2 DUP2 SUB PUSH1 0x0 DUP4 ADD MSTORE PUSH3 0x54D DUP2 PUSH3 0x50B JUMP JUMPDEST SWAP1 POP SWAP2 SWAP1 POP JUMP JUMPDEST PUSH32 0x4E487B7100000000000000000000000000000000000000000000000000000000 PUSH1 0x0 MSTORE PUSH1 0x11 PUSH1 0x4 MSTORE PUSH1 0x24 PUSH1 0x0 REVERT JUMPDEST PUSH1 0x0 PUSH3 0x590 DUP3 PUSH3 0x38F JUMP JUMPDEST SWAP2 POP PUSH32 0xFFFFFFFFFFFFFFFFFFFFFFFFFFFFFFFFFFFFFFFFFFFFFFFFFFFFFFFFFFFFFFFF DUP3 SUB PUSH3 0x5C5 JUMPI PUSH3 0x5C4 PUSH3 0x554 JUMP JUMPDEST JUMPDEST PUSH1 0x1 DUP3 ADD SWAP1 POP SWAP2 SWAP1 POP JUMP JUMPDEST PUSH2 0x3B98 DUP1 PUSH3 0x5E0 PUSH1 0x0 CODECOPY PUSH1 0x0 RETURN INVALID PUSH1 0x80 PUSH1 0x40 MSTORE PUSH1 0x4 CALLDATASIZE LT PUSH2 0x1F2 JUMPI PUSH1 0x0 CALLDATALOAD PUSH1 0xE0 SHR DUP1 PUSH4 0x7D2B51D3 GT PUSH2 0x10D JUMPI DUP1 PUSH4 0xC42FE50A GT PUSH2 0xA0 JUMPI DUP1 PUSH4 0xDF6204AE GT PUSH2 0x6F JUMPI DUP1 PUSH4 0xDF6204AE EQ PUSH2 0x7A6 JUMPI DUP1 PUSH4 0xE42C264F EQ PUSH2 0x7CF JUMPI DUP1 PUSH4 0xF05151DF EQ PUSH2 0x7FA JUMPI DUP1 PUSH4 0xF23A6E61 EQ PUSH2 0x825 JUMPI DUP1 PUSH4 0xF48BF4C3 EQ PUSH2 0x862 JUMPI PUSH2 0x247 JUMP JUMPDEST DUP1 PUSH4 0xC42FE50A EQ PUSH2 0x70D JUMPI DUP1 PUSH4 0xD0E30DB0 EQ PUSH2 0x74A JUMPI DUP1 PUSH4 0xD5CE9AAD EQ PUSH2 0x754 JUMPI DUP1 PUSH4 0xDAAFAA75 EQ PUSH2 0x77D JUMPI PUSH2 0x247 JUMP JUMPDEST DUP1 PUSH4 0xA526D83B GT PUSH2 0xDC JUMPI DUP1 PUSH4 0xA526D83B EQ PUSH2 0x665 JUMPI DUP1 PUSH4 0xA774F412 EQ PUSH2 0x68E JUMPI DUP1 PUSH4 0xACE7C993 EQ PUSH2 0x6A5 JUMPI DUP1 PUSH4 0xBC197C81 EQ PUSH2 0x6D0 JUMPI PUSH2 0x247 JUMP JUMPDEST DUP1 PUSH4 0x7D2B51D3 EQ PUSH2 0x595 JUMPI DUP1 PUSH4 0x8DA5CB5B EQ PUSH2 0x5D2 JUMPI DUP1 PUSH4 0x91E8715F EQ PUSH2 0x5FD JUMPI DUP1 PUSH4 0xA079E2A1 EQ PUSH2 0x626 JUMPI PUSH2 0x247 JUMP JUMPDEST DUP1 PUSH4 0x3C7CA796 GT PUSH2 0x185 JUMPI DUP1 PUSH4 0x5FC489A7 GT PUSH2 0x154 JUMPI DUP1 PUSH4 0x5FC489A7 EQ PUSH2 0x4C9 JUMPI DUP1 PUSH4 0x61253DF9 EQ PUSH2 0x4F2 JUMPI DUP1 PUSH4 0x71404156 EQ PUSH2 0x52F JUMPI DUP1 PUSH4 0x7C725E9A EQ PUSH2 0x558 JUMPI PUSH2 0x247 JUMP JUMPDEST DUP1 PUSH4 0x3C7CA796 EQ PUSH2 0x421 JUMPI DUP1 PUSH4 0x42CDE4E8 EQ PUSH2 0x44A JUMPI DUP1 PUSH4 0x4D822C3D EQ PUSH2 0x475 JUMPI DUP1 PUSH4 0x57E685BC EQ PUSH2 0x4A0 JUMPI PUSH2 0x247 JUMP JUMPDEST DUP1 PUSH4 0x22EDECD6 GT PUSH2 0x1C1 JUMPI DUP1 PUSH4 0x22EDECD6 EQ PUSH2 0x353 JUMPI DUP1 PUSH4 0x2E1A7D4D EQ PUSH2 0x392 JUMPI DUP1 PUSH4 0x361AD252 EQ PUSH2 0x3BB JUMPI DUP1 PUSH4 0x3BC2C4A7 EQ PUSH2 0x3F8 JUMPI PUSH2 0x247 JUMP JUMPDEST DUP1 PUSH4 0x1FFC9A7 EQ PUSH2 0x297 JUMPI DUP1 PUSH4 0xBA234D6 EQ PUSH2 0x2D4 JUMPI DUP1 PUSH4 0x12065FE0 EQ PUSH2 0x2EB JUMPI DUP1 PUSH4 0x150B7A02 EQ PUSH2 0x316 JUMPI PUSH2 0x247 JUMP JUMPDEST CALLDATASIZE PUSH2 0x247 JUMPI CALLER PUSH20 0xFFFFFFFFFFFFFFFFFFFFFFFFFFFFFFFFFFFFFFFF AND PUSH32 0xE1FFFCC4923D04B559F4D29A8BFC6CDA04EB5B0D3C460751C2402C5C5CC9109C CALLVALUE PUSH1 0x40 MLOAD PUSH2 0x23D SWAP2 SWAP1 PUSH2 0x2800 JUMP JUMPDEST PUSH1 0x40 MLOAD DUP1 SWAP2 SUB SWAP1 LOG2 STOP JUMPDEST CALLER PUSH20 0xFFFFFFFFFFFFFFFFFFFFFFFFFFFFFFFFFFFFFFFF AND PUSH32 0xE1FFFCC4923D04B559F4D29A8BFC6CDA04EB5B0D3C460751C2402C5C5CC9109C CALLVALUE PUSH1 0x40 MLOAD PUSH2 0x28D SWAP2 SWAP1 PUSH2 0x2800 JUMP JUMPDEST PUSH1 0x40 MLOAD DUP1 SWAP2 SUB SWAP1 LOG2 STOP JUMPDEST CALLVALUE DUP1 ISZERO PUSH2 0x2A3 JUMPI PUSH1 0x0 DUP1 REVERT JUMPDEST POP PUSH2 0x2BE PUSH1 0x4 DUP1 CALLDATASIZE SUB DUP2 ADD SWAP1 PUSH2 0x2B9 SWAP2 SWAP1 PUSH2 0x2887 JUMP JUMPDEST PUSH2 0x89F JUMP JUMPDEST PUSH1 0x40 MLOAD PUSH2 0x2CB SWAP2 SWAP1 PUSH2 0x28CF JUMP JUMPDEST PUSH1 0x40 MLOAD DUP1 SWAP2 SUB SWAP1 RETURN JUMPDEST CALLVALUE DUP1 ISZERO PUSH2 0x2E0 JUMPI PUSH1 0x0 DUP1 REVERT JUMPDEST POP PUSH2 0x2E9 PUSH2 0x942 JUMP JUMPDEST STOP JUMPDEST CALLVALUE DUP1 ISZERO PUSH2 0x2F7 JUMPI PUSH1 0x0 DUP1 REVERT JUMPDEST POP PUSH2 0x300 PUSH2 0xA78 JUMP JUMPDEST PUSH1 0x40 MLOAD PUSH2 0x30D SWAP2 SWAP1 PUSH2 0x2800 JUMP JUMPDEST PUSH1 0x40 MLOAD DUP1 SWAP2 SUB SWAP1 RETURN JUMPDEST CALLVALUE DUP1 ISZERO PUSH2 0x322 JUMPI PUSH1 0x0 DUP1 REVERT JUMPDEST POP PUSH2 0x33D PUSH1 0x4 DUP1 CALLDATASIZE SUB DUP2 ADD SWAP1 PUSH2 0x338 SWAP2 SWAP1 PUSH2 0x2ABA JUMP JUMPDEST PUSH2 0xA80 JUMP JUMPDEST PUSH1 0x40 MLOAD PUSH2 0x34A SWAP2 SWAP1 PUSH2 0x2B4C JUMP JUMPDEST PUSH1 0x40 MLOAD DUP1 SWAP2 SUB SWAP1 RETURN JUMPDEST CALLVALUE DUP1 ISZERO PUSH2 0x35F JUMPI PUSH1 0x0 DUP1 REVERT JUMPDEST POP PUSH2 0x37A PUSH1 0x4 DUP1 CALLDATASIZE SUB DUP2 ADD SWAP1 PUSH2 0x375 SWAP2 SWAP1 PUSH2 0x2B67 JUMP JUMPDEST PUSH2 0xA94 JUMP JUMPDEST PUSH1 0x40 MLOAD PUSH2 0x389 SWAP4 SWAP3 SWAP2 SWAP1 PUSH2 0x2BA3 JUMP JUMPDEST PUSH1 0x40 MLOAD DUP1 SWAP2 SUB SWAP1 RETURN JUMPDEST CALLVALUE DUP1 ISZERO PUSH2 0x39E JUMPI PUSH1 0x0 DUP1 REVERT JUMPDEST POP PUSH2 0x3B9 PUSH1 0x4 DUP1 CALLDATASIZE SUB DUP2 ADD SWAP1 PUSH2 0x3B4 SWAP2 SWAP1 PUSH2 0x2BDA JUMP JUMPDEST PUSH2 0xB7E JUMP JUMPDEST STOP JUMPDEST CALLVALUE DUP1 ISZERO PUSH2 0x3C7 JUMPI PUSH1 0x0 DUP1 REVERT JUMPDEST POP PUSH2 0x3E2 PUSH1 0x4 DUP1 CALLDATASIZE SUB DUP2 ADD SWAP1 PUSH2 0x3DD SWAP2 SWAP1 PUSH2 0x2C3D JUMP JUMPDEST PUSH2 0xCF0 JUMP JUMPDEST PUSH1 0x40 MLOAD PUSH2 0x3EF SWAP2 SWAP1 PUSH2 0x2800 JUMP JUMPDEST PUSH1 0x40 MLOAD DUP1 SWAP2 SUB SWAP1 RETURN JUMPDEST CALLVALUE DUP1 ISZERO PUSH2 0x404 JUMPI PUSH1 0x0 DUP1 REVERT JUMPDEST POP PUSH2 0x41F PUSH1 0x4 DUP1 CALLDATASIZE SUB DUP2 ADD SWAP1 PUSH2 0x41A SWAP2 SWAP1 PUSH2 0x2B67 JUMP JUMPDEST PUSH2 0xD08 JUMP JUMPDEST STOP JUMPDEST CALLVALUE DUP1 ISZERO PUSH2 0x42D JUMPI PUSH1 0x0 DUP1 REVERT JUMPDEST POP PUSH2 0x448 PUSH1 0x4 DUP1 CALLDATASIZE SUB DUP2 ADD SWAP1 PUSH2 0x443 SWAP2 SWAP1 PUSH2 0x2C6A JUMP JUMPDEST PUSH2 0xF3A JUMP JUMPDEST STOP JUMPDEST CALLVALUE DUP1 ISZERO PUSH2 0x456 JUMPI PUSH1 0x0 DUP1 REVERT JUMPDEST POP PUSH2 0x45F PUSH2 0x1118 JUMP JUMPDEST PUSH1 0x40 MLOAD PUSH2 0x46C SWAP2 SWAP1 PUSH2 0x2800 JUMP JUMPDEST PUSH1 0x40 MLOAD DUP1 SWAP2 SUB SWAP1 RETURN JUMPDEST CALLVALUE DUP1 ISZERO PUSH2 0x481 JUMPI PUSH1 0x0 DUP1 REVERT JUMPDEST POP PUSH2 0x48A PUSH2 0x111E JUMP JUMPDEST PUSH1 0x40 MLOAD PUSH2 0x497 SWAP2 SWAP1 PUSH2 0x2800 JUMP JUMPDEST PUSH1 0x40 MLOAD DUP1 SWAP2 SUB SWAP1 RETURN JUMPDEST CALLVALUE DUP1 ISZERO PUSH2 0x4AC JUMPI PUSH1 0x0 DUP1 REVERT JUMPDEST POP PUSH2 0x4C7 PUSH1 0x4 DUP1 CALLDATASIZE SUB DUP2 ADD SWAP1 PUSH2 0x4C2 SWAP2 SWAP1 PUSH2 0x2B67 JUMP JUMPDEST PUSH2 0x1128 JUMP JUMPDEST STOP JUMPDEST CALLVALUE DUP1 ISZERO PUSH2 0x4D5 JUMPI PUSH1 0x0 DUP1 REVERT JUMPDEST POP PUSH2 0x4F0 PUSH1 0x4 DUP1 CALLDATASIZE SUB DUP2 ADD SWAP1 PUSH2 0x4EB SWAP2 SWAP1 PUSH2 0x2D0A JUMP JUMPDEST PUSH2 0x1390 JUMP JUMPDEST STOP JUMPDEST CALLVALUE DUP1 ISZERO PUSH2 0x4FE JUMPI PUSH1 0x0 DUP1 REVERT JUMPDEST POP PUSH2 0x519 PUSH1 0x4 DUP1 CALLDATASIZE SUB DUP2 ADD SWAP1 PUSH2 0x514 SWAP2 SWAP1 PUSH2 0x2D6A JUMP JUMPDEST PUSH2 0x1806 JUMP JUMPDEST PUSH1 0x40 MLOAD PUSH2 0x526 SWAP2 SWAP1 PUSH2 0x2800 JUMP JUMPDEST PUSH1 0x40 MLOAD DUP1 SWAP2 SUB SWAP1 RETURN JUMPDEST CALLVALUE DUP1 ISZERO PUSH2 0x53B JUMPI PUSH1 0x0 DUP1 REVERT JUMPDEST POP PUSH2 0x556 PUSH1 0x4 DUP1 CALLDATASIZE SUB DUP2 ADD SWAP1 PUSH2 0x551 SWAP2 SWAP1 PUSH2 0x2B67 JUMP JUMPDEST PUSH2 0x1864 JUMP JUMPDEST STOP JUMPDEST CALLVALUE DUP1 ISZERO PUSH2 0x564 JUMPI PUSH1 0x0 DUP1 REVERT JUMPDEST POP PUSH2 0x57F PUSH1 0x4 DUP1 CALLDATASIZE SUB DUP2 ADD SWAP1 PUSH2 0x57A SWAP2 SWAP1 PUSH2 0x2BDA JUMP JUMPDEST PUSH2 0x1A37 JUMP JUMPDEST PUSH1 0x40 MLOAD PUSH2 0x58C SWAP2 SWAP1 PUSH2 0x2800 JUMP JUMPDEST PUSH1 0x40 MLOAD DUP1 SWAP2 SUB SWAP1 RETURN JUMPDEST CALLVALUE DUP1 ISZERO PUSH2 0x5A1 JUMPI PUSH1 0x0 DUP1 REVERT JUMPDEST POP PUSH2 0x5BC PUSH1 0x4 DUP1 CALLDATASIZE SUB DUP2 ADD SWAP1 PUSH2 0x5B7 SWAP2 SWAP1 PUSH2 0x2B67 JUMP JUMPDEST PUSH2 0x1A55 JUMP JUMPDEST PUSH1 0x40 MLOAD PUSH2 0x5C9 SWAP2 SWAP1 PUSH2 0x2DB9 JUMP JUMPDEST PUSH1 0x40 MLOAD DUP1 SWAP2 SUB SWAP1 RETURN JUMPDEST CALLVALUE DUP1 ISZERO PUSH2 0x5DE JUMPI PUSH1 0x0 DUP1 REVERT JUMPDEST POP PUSH2 0x5E7 PUSH2 0x1A85 JUMP JUMPDEST PUSH1 0x40 MLOAD PUSH2 0x5F4 SWAP2 SWAP1 PUSH2 0x2DD4 JUMP JUMPDEST PUSH1 0x40 MLOAD DUP1 SWAP2 SUB SWAP1 RETURN JUMPDEST CALLVALUE DUP1 ISZERO PUSH2 0x609 JUMPI PUSH1 0x0 DUP1 REVERT JUMPDEST POP PUSH2 0x624 PUSH1 0x4 DUP1 CALLDATASIZE SUB DUP2 ADD SWAP1 PUSH2 0x61F SWAP2 SWAP1 PUSH2 0x2C3D JUMP JUMPDEST PUSH2 0x1AAB JUMP JUMPDEST STOP JUMPDEST CALLVALUE DUP1 ISZERO PUSH2 0x632 JUMPI PUSH1 0x0 DUP1 REVERT JUMPDEST POP PUSH2 0x64D PUSH1 0x4 DUP1 CALLDATASIZE SUB DUP2 ADD SWAP1 PUSH2 0x648 SWAP2 SWAP1 PUSH2 0x2B67 JUMP JUMPDEST PUSH2 0x1B57 JUMP JUMPDEST PUSH1 0x40 MLOAD PUSH2 0x65C SWAP4 SWAP3 SWAP2 SWAP1 PUSH2 0x2BA3 JUMP JUMPDEST PUSH1 0x40 MLOAD DUP1 SWAP2 SUB SWAP1 RETURN JUMPDEST CALLVALUE DUP1 ISZERO PUSH2 0x671 JUMPI PUSH1 0x0 DUP1 REVERT JUMPDEST POP PUSH2 0x68C PUSH1 0x4 DUP1 CALLDATASIZE SUB DUP2 ADD SWAP1 PUSH2 0x687 SWAP2 SWAP1 PUSH2 0x2B67 JUMP JUMPDEST PUSH2 0x1BAE JUMP JUMPDEST STOP JUMPDEST CALLVALUE DUP1 ISZERO PUSH2 0x69A JUMPI PUSH1 0x0 DUP1 REVERT JUMPDEST POP PUSH2 0x6A3 PUSH2 0x1D44 JUMP JUMPDEST STOP JUMPDEST CALLVALUE DUP1 ISZERO PUSH2 0x6B1 JUMPI PUSH1 0x0 DUP1 REVERT JUMPDEST POP PUSH2 0x6BA PUSH2 0x1E36 JUMP JUMPDEST PUSH1 0x40 MLOAD PUSH2 0x6C7 SWAP2 SWAP1 PUSH2 0x2800 JUMP JUMPDEST PUSH1 0x40 MLOAD DUP1 SWAP2 SUB SWAP1 RETURN JUMPDEST CALLVALUE DUP1 ISZERO PUSH2 0x6DC JUMPI PUSH1 0x0 DUP1 REVERT JUMPDEST POP PUSH2 0x6F7 PUSH1 0x4 DUP1 CALLDATASIZE SUB DUP2 ADD SWAP1 PUSH2 0x6F2 SWAP2 SWAP1 PUSH2 0x2E9B JUMP JUMPDEST PUSH2 0x1E3C JUMP JUMPDEST PUSH1 0x40 MLOAD PUSH2 0x704 SWAP2 SWAP1 PUSH2 0x2B4C JUMP JUMPDEST PUSH1 0x40 MLOAD DUP1 SWAP2 SUB SWAP1 RETURN JUMPDEST CALLVALUE DUP1 ISZERO PUSH2 0x719 JUMPI PUSH1 0x0 DUP1 REVERT JUMPDEST POP PUSH2 0x734 PUSH1 0x4 DUP1 CALLDATASIZE SUB DUP2 ADD SWAP1 PUSH2 0x72F SWAP2 SWAP1 PUSH2 0x2C3D JUMP JUMPDEST PUSH2 0x1E54 JUMP JUMPDEST PUSH1 0x40 MLOAD PUSH2 0x741 SWAP2 SWAP1 PUSH2 0x28CF JUMP JUMPDEST PUSH1 0x40 MLOAD DUP1 SWAP2 SUB SWAP1 RETURN JUMPDEST PUSH2 0x752 PUSH2 0x1E74 JUMP JUMPDEST STOP JUMPDEST CALLVALUE DUP1 ISZERO PUSH2 0x760 JUMPI PUSH1 0x0 DUP1 REVERT JUMPDEST POP PUSH2 0x77B PUSH1 0x4 DUP1 CALLDATASIZE SUB DUP2 ADD SWAP1 PUSH2 0x776 SWAP2 SWAP1 PUSH2 0x2B67 JUMP JUMPDEST PUSH2 0x1F54 JUMP JUMPDEST STOP JUMPDEST CALLVALUE DUP1 ISZERO PUSH2 0x789 JUMPI PUSH1 0x0 DUP1 REVERT JUMPDEST POP PUSH2 0x7A4 PUSH1 0x4 DUP1 CALLDATASIZE SUB DUP2 ADD SWAP1 PUSH2 0x79F SWAP2 SWAP1 PUSH2 0x2C3D JUMP JUMPDEST PUSH2 0x2205 JUMP JUMPDEST STOP JUMPDEST CALLVALUE DUP1 ISZERO PUSH2 0x7B2 JUMPI PUSH1 0x0 DUP1 REVERT JUMPDEST POP PUSH2 0x7CD PUSH1 0x4 DUP1 CALLDATASIZE SUB DUP2 ADD SWAP1 PUSH2 0x7C8 SWAP2 SWAP1 PUSH2 0x2C3D JUMP JUMPDEST PUSH2 0x239B JUMP JUMPDEST STOP JUMPDEST CALLVALUE DUP1 ISZERO PUSH2 0x7DB JUMPI PUSH1 0x0 DUP1 REVERT JUMPDEST POP PUSH2 0x7E4 PUSH2 0x25B1 JUMP JUMPDEST PUSH1 0x40 MLOAD PUSH2 0x7F1 SWAP2 SWAP1 PUSH2 0x2800 JUMP JUMPDEST PUSH1 0x40 MLOAD DUP1 SWAP2 SUB SWAP1 RETURN JUMPDEST CALLVALUE DUP1 ISZERO PUSH2 0x806 JUMPI PUSH1 0x0 DUP1 REVERT JUMPDEST POP PUSH2 0x80F PUSH2 0x25B7 JUMP JUMPDEST PUSH1 0x40 MLOAD PUSH2 0x81C SWAP2 SWAP1 PUSH2 0x28CF JUMP JUMPDEST PUSH1 0x40 MLOAD DUP1 SWAP2 SUB SWAP1 RETURN JUMPDEST CALLVALUE DUP1 ISZERO PUSH2 0x831 JUMPI PUSH1 0x0 DUP1 REVERT JUMPDEST POP PUSH2 0x84C PUSH1 0x4 DUP1 CALLDATASIZE SUB DUP2 ADD SWAP1 PUSH2 0x847 SWAP2 SWAP1 PUSH2 0x2F77 JUMP JUMPDEST PUSH2 0x25CA JUMP JUMPDEST PUSH1 0x40 MLOAD PUSH2 0x859 SWAP2 SWAP1 PUSH2 0x2B4C JUMP JUMPDEST PUSH1 0x40 MLOAD DUP1 SWAP2 SUB SWAP1 RETURN JUMPDEST CALLVALUE DUP1 ISZERO PUSH2 0x86E JUMPI PUSH1 0x0 DUP1 REVERT JUMPDEST POP PUSH2 0x889 PUSH1 0x4 DUP1 CALLDATASIZE SUB DUP2 ADD SWAP1 PUSH2 0x884 SWAP2 SWAP1 PUSH2 0x3011 JUMP JUMPDEST PUSH2 0x25E0 JUMP JUMPDEST PUSH1 0x40 MLOAD PUSH2 0x896 SWAP2 SWAP1 PUSH2 0x30FF JUMP JUMPDEST PUSH1 0x40 MLOAD DUP1 SWAP2 SUB SWAP1 RETURN JUMPDEST PUSH1 0x0 PUSH4 0x1FFC9A7 PUSH1 0xE0 SHL DUP3 PUSH28 0xFFFFFFFFFFFFFFFFFFFFFFFFFFFFFFFFFFFFFFFFFFFFFFFFFFFFFFFF NOT AND EQ DUP1 PUSH2 0x8FA JUMPI POP PUSH4 0x150B7A02 PUSH1 0xE0 SHL DUP3 PUSH28 0xFFFFFFFFFFFFFFFFFFFFFFFFFFFFFFFFFFFFFFFFFFFFFFFFFFFFFFFF NOT AND EQ JUMPDEST DUP1 PUSH2 0x92A JUMPI POP PUSH4 0x4E2312E0 PUSH1 0xE0 SHL DUP3 PUSH28 0xFFFFFFFFFFFFFFFFFFFFFFFFFFFFFFFFFFFFFFFFFFFFFFFFFFFFFFFF NOT AND EQ JUMPDEST ISZERO PUSH2 0x938 JUMPI PUSH1 0x1 SWAP1 POP PUSH2 0x93D JUMP JUMPDEST PUSH1 0x0 SWAP1 POP JUMPDEST SWAP2 SWAP1 POP JUMP JUMPDEST PUSH1 0x4 PUSH1 0x0 SWAP1 SLOAD SWAP1 PUSH2 0x100 EXP SWAP1 DIV PUSH20 0xFFFFFFFFFFFFFFFFFFFFFFFFFFFFFFFFFFFFFFFF AND PUSH20 0xFFFFFFFFFFFFFFFFFFFFFFFFFFFFFFFFFFFFFFFF AND CALLER PUSH20 0xFFFFFFFFFFFFFFFFFFFFFFFFFFFFFFFFFFFFFFFF AND EQ PUSH2 0x9D2 JUMPI PUSH1 0x40 MLOAD PUSH32 0x8C379A000000000000000000000000000000000000000000000000000000000 DUP2 MSTORE PUSH1 0x4 ADD PUSH2 0x9C9 SWAP1 PUSH2 0x317E JUMP JUMPDEST PUSH1 0x40 MLOAD DUP1 SWAP2 SUB SWAP1 REVERT JUMPDEST PUSH1 0x4 PUSH1 0x14 SWAP1 SLOAD SWAP1 PUSH2 0x100 EXP SWAP1 DIV PUSH1 0xFF AND PUSH2 0xA21 JUMPI PUSH1 0x40 MLOAD PUSH32 0x8C379A000000000000000000000000000000000000000000000000000000000 DUP2 MSTORE PUSH1 0x4 ADD PUSH2 0xA18 SWAP1 PUSH2 0x31EA JUMP JUMPDEST PUSH1 0x40 MLOAD DUP1 SWAP2 SUB SWAP1 REVERT JUMPDEST PUSH1 0x0 PUSH1 0x4 PUSH1 0x14 PUSH2 0x100 EXP DUP2 SLOAD DUP2 PUSH1 0xFF MUL NOT AND SWAP1 DUP4 ISZERO ISZERO MUL OR SWAP1 SSTORE POP PUSH1 0x5 SLOAD PUSH32 0x500EC1D4B692D3C788BFD78A898DE379CFD93AB8177575EFC7593F87BD051A07 CALLER PUSH1 0x40 MLOAD PUSH2 0xA6E SWAP2 SWAP1 PUSH2 0x2DD4 JUMP JUMPDEST PUSH1 0x40 MLOAD DUP1 SWAP2 SUB SWAP1 LOG2 JUMP JUMPDEST PUSH1 0x0 SELFBALANCE SWAP1 POP SWAP1 JUMP JUMPDEST PUSH1 0x0 PUSH4 0x150B7A02 PUSH1 0xE0 SHL SWAP1 POP SWAP5 SWAP4 POP POP POP POP JUMP JUMPDEST PUSH1 0x0 DUP1 PUSH1 0x0 DUP1 PUSH1 0x8 PUSH1 0x0 DUP7 PUSH20 0xFFFFFFFFFFFFFFFFFFFFFFFFFFFFFFFFFFFFFFFF AND PUSH20 0xFFFFFFFFFFFFFFFFFFFFFFFFFFFFFFFFFFFFFFFF AND DUP2 MSTORE PUSH1 0x20 ADD SWAP1 DUP2 MSTORE PUSH1 0x20 ADD PUSH1 0x0 KECCAK256 PUSH1 0x40 MLOAD DUP1 PUSH1 0x60 ADD PUSH1 0x40 MSTORE SWAP1 DUP2 PUSH1 0x0 DUP3 ADD PUSH1 0x0 SWAP1 SLOAD SWAP1 PUSH2 0x100 EXP SWAP1 DIV PUSH20 0xFFFFFFFFFFFFFFFFFFFFFFFFFFFFFFFFFFFFFFFF AND PUSH20 0xFFFFFFFFFFFFFFFFFFFFFFFFFFFFFFFFFFFFFFFF AND PUSH20 0xFFFFFFFFFFFFFFFFFFFFFFFFFFFFFFFFFFFFFFFF AND DUP2 MSTORE PUSH1 0x20 ADD PUSH1 0x1 DUP3 ADD SLOAD DUP2 MSTORE PUSH1 0x20 ADD PUSH1 0x2 DUP3 ADD PUSH1 0x0 SWAP1 SLOAD SWAP1 PUSH2 0x100 EXP SWAP1 DIV PUSH1 0xFF AND ISZERO ISZERO ISZERO ISZERO DUP2 MSTORE POP POP SWAP1 POP DUP1 PUSH1 0x0 ADD MLOAD DUP2 PUSH1 0x20 ADD MLOAD DUP3 PUSH1 0x40 ADD MLOAD SWAP4 POP SWAP4 POP SWAP4 POP POP SWAP2 SWAP4 SWAP1 SWAP3 POP JUMP JUMPDEST PUSH1 0x4 PUSH1 0x0 SWAP1 SLOAD SWAP1 PUSH2 0x100 EXP SWAP1 DIV PUSH20 0xFFFFFFFFFFFFFFFFFFFFFFFFFFFFFFFFFFFFFFFF AND PUSH20 0xFFFFFFFFFFFFFFFFFFFFFFFFFFFFFFFFFFFFFFFF AND CALLER PUSH20 0xFFFFFFFFFFFFFFFFFFFFFFFFFFFFFFFFFFFFFFFF AND EQ PUSH2 0xC0E JUMPI PUSH1 0x40 MLOAD PUSH32 0x8C379A000000000000000000000000000000000000000000000000000000000 DUP2 MSTORE PUSH1 0x4 ADD PUSH2 0xC05 SWAP1 PUSH2 0x317E JUMP JUMPDEST PUSH1 0x40 MLOAD DUP1 SWAP2 SUB SWAP1 REVERT JUMPDEST PUSH2 0xC16 PUSH2 0xA78 JUMP JUMPDEST DUP2 GT ISZERO PUSH2 0xC58 JUMPI PUSH1 0x40 MLOAD PUSH32 0x8C379A000000000000000000000000000000000000000000000000000000000 DUP2 MSTORE PUSH1 0x4 ADD PUSH2 0xC4F SWAP1 PUSH2 0x3256 JUMP JUMPDEST PUSH1 0x40 MLOAD DUP1 SWAP2 SUB SWAP1 REVERT JUMPDEST CALLER PUSH20 0xFFFFFFFFFFFFFFFFFFFFFFFFFFFFFFFFFFFFFFFF AND PUSH2 0x8FC DUP3 SWAP1 DUP2 ISZERO MUL SWAP1 PUSH1 0x40 MLOAD PUSH1 0x0 PUSH1 0x40 MLOAD DUP1 DUP4 SUB DUP2 DUP6 DUP9 DUP9 CALL SWAP4 POP POP POP POP ISZERO DUP1 ISZERO PUSH2 0xC9E JUMPI RETURNDATASIZE PUSH1 0x0 DUP1 RETURNDATACOPY RETURNDATASIZE PUSH1 0x0 REVERT JUMPDEST POP CALLER PUSH20 0xFFFFFFFFFFFFFFFFFFFFFFFFFFFFFFFFFFFFFFFF AND PUSH32 0x884EDAD9CE6FA2440D8A54CC123490EB96D2768479D49FF9C7366125A9424364 DUP3 PUSH1 0x40 MLOAD PUSH2 0xCE5 SWAP2 SWAP1 PUSH2 0x2800 JUMP JUMPDEST PUSH1 0x40 MLOAD DUP1 SWAP2 SUB SWAP1 LOG2 POP JUMP JUMPDEST PUSH1 0x6 PUSH1 0x20 MSTORE DUP1 PUSH1 0x0 MSTORE PUSH1 0x40 PUSH1 0x0 KECCAK256 PUSH1 0x0 SWAP2 POP SWAP1 POP SLOAD DUP2 JUMP JUMPDEST PUSH1 0x1 PUSH1 0x0 CALLER PUSH1 0x40 MLOAD PUSH1 0x20 ADD PUSH2 0xD1D SWAP2 SWAP1 PUSH2 0x32BE JUMP JUMPDEST PUSH1 0x40 MLOAD PUSH1 0x20 DUP2 DUP4 SUB SUB DUP2 MSTORE SWAP1 PUSH1 0x40 MSTORE DUP1 MLOAD SWAP1 PUSH1 0x20 ADD KECCAK256 DUP2 MSTORE PUSH1 0x20 ADD SWAP1 DUP2 MSTORE PUSH1 0x20 ADD PUSH1 0x0 KECCAK256 PUSH1 0x0 SWAP1 SLOAD SWAP1 PUSH2 0x100 EXP SWAP1 DIV PUSH1 0xFF AND PUSH2 0xD8E JUMPI PUSH1 0x40 MLOAD PUSH32 0x8C379A000000000000000000000000000000000000000000000000000000000 DUP2 MSTORE PUSH1 0x4 ADD PUSH2 0xD85 SWAP1 PUSH2 0x3325 JUMP JUMPDEST PUSH1 0x40 MLOAD DUP1 SWAP2 SUB SWAP1 REVERT JUMPDEST PUSH1 0x4 PUSH1 0x14 SWAP1 SLOAD SWAP1 PUSH2 0x100 EXP SWAP1 DIV PUSH1 0xFF AND PUSH2 0xDDD JUMPI PUSH1 0x40 MLOAD PUSH32 0x8C379A000000000000000000000000000000000000000000000000000000000 DUP2 MSTORE PUSH1 0x4 ADD PUSH2 0xDD4 SWAP1 PUSH2 0x31EA JUMP JUMPDEST PUSH1 0x40 MLOAD DUP1 SWAP2 SUB SWAP1 REVERT JUMPDEST PUSH1 0x3 SLOAD PUSH1 0x7 PUSH1 0x0 PUSH1 0x5 SLOAD DUP2 MSTORE PUSH1 0x20 ADD SWAP1 DUP2 MSTORE PUSH1 0x20 ADD PUSH1 0x0 KECCAK256 PUSH1 0x1 ADD PUSH1 0x0 DUP4 PUSH20 0xFFFFFFFFFFFFFFFFFFFFFFFFFFFFFFFFFFFFFFFF AND PUSH20 0xFFFFFFFFFFFFFFFFFFFFFFFFFFFFFFFFFFFFFFFF AND DUP2 MSTORE PUSH1 0x20 ADD SWAP1 DUP2 MSTORE PUSH1 0x20 ADD PUSH1 0x0 KECCAK256 SLOAD LT ISZERO PUSH2 0xE77 JUMPI PUSH1 0x40 MLOAD PUSH32 0x8C379A000000000000000000000000000000000000000000000000000000000 DUP2 MSTORE PUSH1 0x4 ADD PUSH2 0xE6E SWAP1 PUSH2 0x33B7 JUMP JUMPDEST PUSH1 0x40 MLOAD DUP1 SWAP2 SUB SWAP1 REVERT JUMPDEST PUSH1 0x0 PUSH1 0x4 PUSH1 0x14 PUSH2 0x100 EXP DUP2 SLOAD DUP2 PUSH1 0xFF MUL NOT AND SWAP1 DUP4 ISZERO ISZERO MUL OR SWAP1 SSTORE POP PUSH1 0x0 PUSH1 0x4 PUSH1 0x0 SWAP1 SLOAD SWAP1 PUSH2 0x100 EXP SWAP1 DIV PUSH20 0xFFFFFFFFFFFFFFFFFFFFFFFFFFFFFFFFFFFFFFFF AND SWAP1 POP DUP2 PUSH1 0x4 PUSH1 0x0 PUSH2 0x100 EXP DUP2 SLOAD DUP2 PUSH20 0xFFFFFFFFFFFFFFFFFFFFFFFFFFFFFFFFFFFFFFFF MUL NOT AND SWAP1 DUP4 PUSH20 0xFFFFFFFFFFFFFFFFFFFFFFFFFFFFFFFFFFFFFFFF AND MUL OR SWAP1 SSTORE POP PUSH1 0x5 SLOAD PUSH32 0xCBAA7C7C351E2D5655FC08D9C383ADCF4736AF160C800B53DF1F1DD221F826C8 DUP3 DUP5 PUSH1 0x40 MLOAD PUSH2 0xF2E SWAP3 SWAP2 SWAP1 PUSH2 0x33D7 JUMP JUMPDEST PUSH1 0x40 MLOAD DUP1 SWAP2 SUB SWAP1 LOG2 POP POP JUMP JUMPDEST PUSH1 0x4 PUSH1 0x0 SWAP1 SLOAD SWAP1 PUSH2 0x100 EXP SWAP1 DIV PUSH20 0xFFFFFFFFFFFFFFFFFFFFFFFFFFFFFFFFFFFFFFFF AND PUSH20 0xFFFFFFFFFFFFFFFFFFFFFFFFFFFFFFFFFFFFFFFF AND CALLER PUSH20 0xFFFFFFFFFFFFFFFFFFFFFFFFFFFFFFFFFFFFFFFF AND EQ PUSH2 0xFCA JUMPI PUSH1 0x40 MLOAD PUSH32 0x8C379A000000000000000000000000000000000000000000000000000000000 DUP2 MSTORE PUSH1 0x4 ADD PUSH2 0xFC1 SWAP1 PUSH2 0x317E JUMP JUMPDEST PUSH1 0x40 MLOAD DUP1 SWAP2 SUB SWAP1 REVERT JUMPDEST PUSH1 0x0 PUSH1 0x6 PUSH1 0x0 DUP5 DUP2 MSTORE PUSH1 0x20 ADD SWAP1 DUP2 MSTORE PUSH1 0x20 ADD PUSH1 0x0 KECCAK256 SLOAD GT PUSH2 0x1020 JUMPI PUSH1 0x40 MLOAD PUSH32 0x8C379A000000000000000000000000000000000000000000000000000000000 DUP2 MSTORE PUSH1 0x4 ADD PUSH2 0x1017 SWAP1 PUSH2 0x3472 JUMP JUMPDEST PUSH1 0x40 MLOAD DUP1 SWAP2 SUB SWAP1 REVERT JUMPDEST TIMESTAMP PUSH1 0x6 PUSH1 0x0 DUP5 DUP2 MSTORE PUSH1 0x20 ADD SWAP1 DUP2 MSTORE PUSH1 0x20 ADD PUSH1 0x0 KECCAK256 SLOAD GT ISZERO PUSH2 0x1076 JUMPI PUSH1 0x40 MLOAD PUSH32 0x8C379A000000000000000000000000000000000000000000000000000000000 DUP2 MSTORE PUSH1 0x4 ADD PUSH2 0x106D SWAP1 PUSH2 0x34DE JUMP JUMPDEST PUSH1 0x40 MLOAD DUP1 SWAP2 SUB SWAP1 REVERT JUMPDEST PUSH1 0x0 PUSH1 0x6 PUSH1 0x0 DUP5 DUP2 MSTORE PUSH1 0x20 ADD SWAP1 DUP2 MSTORE PUSH1 0x20 ADD PUSH1 0x0 KECCAK256 DUP2 SWAP1 SSTORE POP PUSH1 0x0 PUSH1 0x1 PUSH1 0x0 DUP5 DUP2 MSTORE PUSH1 0x20 ADD SWAP1 DUP2 MSTORE PUSH1 0x20 ADD PUSH1 0x0 KECCAK256 PUSH1 0x0 PUSH2 0x100 EXP DUP2 SLOAD DUP2 PUSH1 0xFF MUL NOT AND SWAP1 DUP4 ISZERO ISZERO MUL OR SWAP1 SSTORE POP PUSH1 0x1 DUP1 PUSH1 0x0 DUP4 DUP2 MSTORE PUSH1 0x20 ADD SWAP1 DUP2 MSTORE PUSH1 0x20 ADD PUSH1 0x0 KECCAK256 PUSH1 0x0 PUSH2 0x100 EXP DUP2 SLOAD DUP2 PUSH1 0xFF MUL NOT AND SWAP1 DUP4 ISZERO ISZERO MUL OR SWAP1 SSTORE POP DUP1 DUP3 PUSH32 0x9012E3ECB8E2EA8FF7EF8D688FE1593A8040A61D7C6678ACCC84F3556C8B722D PUSH1 0x40 MLOAD PUSH1 0x40 MLOAD DUP1 SWAP2 SUB SWAP1 LOG3 POP POP JUMP JUMPDEST PUSH1 0x3 SLOAD DUP2 JUMP JUMPDEST PUSH1 0x0 PUSH1 0x5 SLOAD SWAP1 POP SWAP1 JUMP JUMPDEST PUSH1 0x1 PUSH1 0x0 CALLER PUSH1 0x40 MLOAD PUSH1 0x20 ADD PUSH2 0x113D SWAP2 SWAP1 PUSH2 0x32BE JUMP JUMPDEST PUSH1 0x40 MLOAD PUSH1 0x20 DUP2 DUP4 SUB SUB DUP2 MSTORE SWAP1 PUSH1 0x40 MSTORE DUP1 MLOAD SWAP1 PUSH1 0x20 ADD KECCAK256 DUP2 MSTORE PUSH1 0x20 ADD SWAP1 DUP2 MSTORE PUSH1 0x20 ADD PUSH1 0x0 KECCAK256 PUSH1 0x0 SWAP1 SLOAD SWAP1 PUSH2 0x100 EXP SWAP1 DIV PUSH1 0xFF AND PUSH2 0x11AE JUMPI PUSH1 0x40 MLOAD PUSH32 0x8C379A000000000000000000000000000000000000000000000000000000000 DUP2 MSTORE PUSH1 0x4 ADD PUSH2 0x11A5 SWAP1 PUSH2 0x3325 JUMP JUMPDEST PUSH1 0x40 MLOAD DUP1 SWAP2 SUB SWAP1 REVERT JUMPDEST PUSH1 0x4 PUSH1 0x14 SWAP1 SLOAD SWAP1 PUSH2 0x100 EXP SWAP1 DIV PUSH1 0xFF AND PUSH2 0x11FD JUMPI PUSH1 0x40 MLOAD PUSH32 0x8C379A000000000000000000000000000000000000000000000000000000000 DUP2 MSTORE PUSH1 0x4 ADD PUSH2 0x11F4 SWAP1 PUSH2 0x31EA JUMP JUMPDEST PUSH1 0x40 MLOAD DUP1 SWAP2 SUB SWAP1 REVERT JUMPDEST PUSH1 0x40 MLOAD DUP1 PUSH1 0x60 ADD PUSH1 0x40 MSTORE DUP1 DUP3 PUSH20 0xFFFFFFFFFFFFFFFFFFFFFFFFFFFFFFFFFFFFFFFF AND DUP2 MSTORE PUSH1 0x20 ADD PUSH1 0x5 SLOAD DUP2 MSTORE PUSH1 0x20 ADD PUSH1 0x0 ISZERO ISZERO DUP2 MSTORE POP PUSH1 0x8 PUSH1 0x0 CALLER PUSH20 0xFFFFFFFFFFFFFFFFFFFFFFFFFFFFFFFFFFFFFFFF AND PUSH20 0xFFFFFFFFFFFFFFFFFFFFFFFFFFFFFFFFFFFFFFFF AND DUP2 MSTORE PUSH1 0x20 ADD SWAP1 DUP2 MSTORE PUSH1 0x20 ADD PUSH1 0x0 KECCAK256 PUSH1 0x0 DUP3 ADD MLOAD DUP2 PUSH1 0x0 ADD PUSH1 0x0 PUSH2 0x100 EXP DUP2 SLOAD DUP2 PUSH20 0xFFFFFFFFFFFFFFFFFFFFFFFFFFFFFFFFFFFFFFFF MUL NOT AND SWAP1 DUP4 PUSH20 0xFFFFFFFFFFFFFFFFFFFFFFFFFFFFFFFFFFFFFFFF AND MUL OR SWAP1 SSTORE POP PUSH1 0x20 DUP3 ADD MLOAD DUP2 PUSH1 0x1 ADD SSTORE PUSH1 0x40 DUP3 ADD MLOAD DUP2 PUSH1 0x2 ADD PUSH1 0x0 PUSH2 0x100 EXP DUP2 SLOAD DUP2 PUSH1 0xFF MUL NOT AND SWAP1 DUP4 ISZERO ISZERO MUL OR SWAP1 SSTORE POP SWAP1 POP POP PUSH1 0x7 PUSH1 0x0 PUSH1 0x5 SLOAD DUP2 MSTORE PUSH1 0x20 ADD SWAP1 DUP2 MSTORE PUSH1 0x20 ADD PUSH1 0x0 KECCAK256 PUSH1 0x1 ADD PUSH1 0x0 DUP3 PUSH20 0xFFFFFFFFFFFFFFFFFFFFFFFFFFFFFFFFFFFFFFFF AND PUSH20 0xFFFFFFFFFFFFFFFFFFFFFFFFFFFFFFFFFFFFFFFF AND DUP2 MSTORE PUSH1 0x20 ADD SWAP1 DUP2 MSTORE PUSH1 0x20 ADD PUSH1 0x0 KECCAK256 PUSH1 0x0 DUP2 SLOAD DUP1 SWAP3 SWAP2 SWAP1 PUSH2 0x134C SWAP1 PUSH2 0x352D JUMP JUMPDEST SWAP2 SWAP1 POP SSTORE POP PUSH1 0x5 SLOAD PUSH32 0x7A0B940199FF58E943823FE8C0E916DF112BE357049D8105A7E83CF9A4000E4A CALLER DUP4 PUSH1 0x40 MLOAD PUSH2 0x1385 SWAP3 SWAP2 SWAP1 PUSH2 0x33D7 JUMP JUMPDEST PUSH1 0x40 MLOAD DUP1 SWAP2 SUB SWAP1 LOG2 POP JUMP JUMPDEST PUSH1 0x1 PUSH1 0x0 CALLER PUSH1 0x40 MLOAD PUSH1 0x20 ADD PUSH2 0x13A5 SWAP2 SWAP1 PUSH2 0x32BE JUMP JUMPDEST PUSH1 0x40 MLOAD PUSH1 0x20 DUP2 DUP4 SUB SUB DUP2 MSTORE SWAP1 PUSH1 0x40 MSTORE DUP1 MLOAD SWAP1 PUSH1 0x20 ADD KECCAK256 DUP2 MSTORE PUSH1 0x20 ADD SWAP1 DUP2 MSTORE PUSH1 0x20 ADD PUSH1 0x0 KECCAK256 PUSH1 0x0 SWAP1 SLOAD SWAP1 PUSH2 0x100 EXP SWAP1 DIV PUSH1 0xFF AND PUSH2 0x1416 JUMPI PUSH1 0x40 MLOAD PUSH32 0x8C379A000000000000000000000000000000000000000000000000000000000 DUP2 MSTORE PUSH1 0x4 ADD PUSH2 0x140D SWAP1 PUSH2 0x3325 JUMP JUMPDEST PUSH1 0x40 MLOAD DUP1 SWAP2 SUB SWAP1 REVERT JUMPDEST PUSH1 0x4 PUSH1 0x14 SWAP1 SLOAD SWAP1 PUSH2 0x100 EXP SWAP1 DIV PUSH1 0xFF AND PUSH2 0x1465 JUMPI PUSH1 0x40 MLOAD PUSH32 0x8C379A000000000000000000000000000000000000000000000000000000000 DUP2 MSTORE PUSH1 0x4 ADD PUSH2 0x145C SWAP1 PUSH2 0x31EA JUMP JUMPDEST PUSH1 0x40 MLOAD DUP1 SWAP2 SUB SWAP1 REVERT JUMPDEST PUSH1 0x3 SLOAD DUP3 DUP3 SWAP1 POP LT ISZERO PUSH2 0x14AD JUMPI PUSH1 0x40 MLOAD PUSH32 0x8C379A000000000000000000000000000000000000000000000000000000000 DUP2 MSTORE PUSH1 0x4 ADD PUSH2 0x14A4 SWAP1 PUSH2 0x33B7 JUMP JUMPDEST PUSH1 0x40 MLOAD DUP1 SWAP2 SUB SWAP1 REVERT JUMPDEST PUSH1 0x0 JUMPDEST DUP3 DUP3 SWAP1 POP DUP2 LT ISZERO PUSH2 0x1740 JUMPI PUSH1 0x0 PUSH1 0x8 PUSH1 0x0 DUP6 DUP6 DUP6 DUP2 DUP2 LT PUSH2 0x14D4 JUMPI PUSH2 0x14D3 PUSH2 0x3575 JUMP JUMPDEST JUMPDEST SWAP1 POP PUSH1 0x20 MUL ADD PUSH1 0x20 DUP2 ADD SWAP1 PUSH2 0x14E9 SWAP2 SWAP1 PUSH2 0x2B67 JUMP JUMPDEST PUSH20 0xFFFFFFFFFFFFFFFFFFFFFFFFFFFFFFFFFFFFFFFF AND PUSH20 0xFFFFFFFFFFFFFFFFFFFFFFFFFFFFFFFFFFFFFFFF AND DUP2 MSTORE PUSH1 0x20 ADD SWAP1 DUP2 MSTORE PUSH1 0x20 ADD PUSH1 0x0 KECCAK256 PUSH1 0x40 MLOAD DUP1 PUSH1 0x60 ADD PUSH1 0x40 MSTORE SWAP1 DUP2 PUSH1 0x0 DUP3 ADD PUSH1 0x0 SWAP1 SLOAD SWAP1 PUSH2 0x100 EXP SWAP1 DIV PUSH20 0xFFFFFFFFFFFFFFFFFFFFFFFFFFFFFFFFFFFFFFFF AND PUSH20 0xFFFFFFFFFFFFFFFFFFFFFFFFFFFFFFFFFFFFFFFF AND PUSH20 0xFFFFFFFFFFFFFFFFFFFFFFFFFFFFFFFFFFFFFFFF AND DUP2 MSTORE PUSH1 0x20 ADD PUSH1 0x1 DUP3 ADD SLOAD DUP2 MSTORE PUSH1 0x20 ADD PUSH1 0x2 DUP3 ADD PUSH1 0x0 SWAP1 SLOAD SWAP1 PUSH2 0x100 EXP SWAP1 DIV PUSH1 0xFF AND ISZERO ISZERO ISZERO ISZERO DUP2 MSTORE POP POP SWAP1 POP PUSH1 0x5 SLOAD DUP2 PUSH1 0x20 ADD MLOAD EQ PUSH2 0x15F3 JUMPI PUSH1 0x40 MLOAD PUSH32 0x8C379A000000000000000000000000000000000000000000000000000000000 DUP2 MSTORE PUSH1 0x4 ADD PUSH2 0x15EA SWAP1 PUSH2 0x35F0 JUMP JUMPDEST PUSH1 0x40 MLOAD DUP1 SWAP2 SUB SWAP1 REVERT JUMPDEST DUP5 PUSH20 0xFFFFFFFFFFFFFFFFFFFFFFFFFFFFFFFFFFFFFFFF AND DUP2 PUSH1 0x0 ADD MLOAD PUSH20 0xFFFFFFFFFFFFFFFFFFFFFFFFFFFFFFFFFFFFFFFF AND EQ PUSH2 0x1665 JUMPI PUSH1 0x40 MLOAD PUSH32 0x8C379A000000000000000000000000000000000000000000000000000000000 DUP2 MSTORE PUSH1 0x4 ADD PUSH2 0x165C SWAP1 PUSH2 0x365C JUMP JUMPDEST PUSH1 0x40 MLOAD DUP1 SWAP2 SUB SWAP1 REVERT JUMPDEST DUP1 PUSH1 0x40 ADD MLOAD ISZERO PUSH2 0x16AA JUMPI PUSH1 0x40 MLOAD PUSH32 0x8C379A000000000000000000000000000000000000000000000000000000000 DUP2 MSTORE PUSH1 0x4 ADD PUSH2 0x16A1 SWAP1 PUSH2 0x36EE JUMP JUMPDEST PUSH1 0x40 MLOAD DUP1 SWAP2 SUB SWAP1 REVERT JUMPDEST PUSH1 0x1 PUSH1 0x8 PUSH1 0x0 DUP7 DUP7 DUP7 DUP2 DUP2 LT PUSH2 0x16C3 JUMPI PUSH2 0x16C2 PUSH2 0x3575 JUMP JUMPDEST JUMPDEST SWAP1 POP PUSH1 0x20 MUL ADD PUSH1 0x20 DUP2 ADD SWAP1 PUSH2 0x16D8 SWAP2 SWAP1 PUSH2 0x2B67 JUMP JUMPDEST PUSH20 0xFFFFFFFFFFFFFFFFFFFFFFFFFFFFFFFFFFFFFFFF AND PUSH20 0xFFFFFFFFFFFFFFFFFFFFFFFFFFFFFFFFFFFFFFFF AND DUP2 MSTORE PUSH1 0x20 ADD SWAP1 DUP2 MSTORE PUSH1 0x20 ADD PUSH1 0x0 KECCAK256 PUSH1 0x2 ADD PUSH1 0x0 PUSH2 0x100 EXP DUP2 SLOAD DUP2 PUSH1 0xFF MUL NOT AND SWAP1 DUP4 ISZERO ISZERO MUL OR SWAP1 SSTORE POP POP DUP1 DUP1 PUSH2 0x1738 SWAP1 PUSH2 0x352D JUMP JUMPDEST SWAP2 POP POP PUSH2 0x14B0 JUMP JUMPDEST POP PUSH1 0x0 PUSH1 0x4 PUSH1 0x14 PUSH2 0x100 EXP DUP2 SLOAD DUP2 PUSH1 0xFF MUL NOT AND SWAP1 DUP4 ISZERO ISZERO MUL OR SWAP1 SSTORE POP PUSH1 0x0 PUSH1 0x4 PUSH1 0x0 SWAP1 SLOAD SWAP1 PUSH2 0x100 EXP SWAP1 DIV PUSH20 0xFFFFFFFFFFFFFFFFFFFFFFFFFFFFFFFFFFFFFFFF AND SWAP1 POP DUP4 PUSH1 0x4 PUSH1 0x0 PUSH2 0x100 EXP DUP2 SLOAD DUP2 PUSH20 0xFFFFFFFFFFFFFFFFFFFFFFFFFFFFFFFFFFFFFFFF MUL NOT AND SWAP1 DUP4 PUSH20 0xFFFFFFFFFFFFFFFFFFFFFFFFFFFFFFFFFFFFFFFF AND MUL OR SWAP1 SSTORE POP PUSH1 0x5 SLOAD PUSH32 0xCBAA7C7C351E2D5655FC08D9C383ADCF4736AF160C800B53DF1F1DD221F826C8 DUP3 DUP7 PUSH1 0x40 MLOAD PUSH2 0x17F8 SWAP3 SWAP2 SWAP1 PUSH2 0x33D7 JUMP JUMPDEST PUSH1 0x40 MLOAD DUP1 SWAP2 SUB SWAP1 LOG2 POP POP POP POP JUMP JUMPDEST PUSH1 0x0 PUSH1 0x7 PUSH1 0x0 DUP5 DUP2 MSTORE PUSH1 0x20 ADD SWAP1 DUP2 MSTORE PUSH1 0x20 ADD PUSH1 0x0 KECCAK256 PUSH1 0x1 ADD PUSH1 0x0 DUP4 PUSH20 0xFFFFFFFFFFFFFFFFFFFFFFFFFFFFFFFFFFFFFFFF AND PUSH20 0xFFFFFFFFFFFFFFFFFFFFFFFFFFFFFFFFFFFFFFFF AND DUP2 MSTORE PUSH1 0x20 ADD SWAP1 DUP2 MSTORE PUSH1 0x20 ADD PUSH1 0x0 KECCAK256 SLOAD SWAP1 POP SWAP3 SWAP2 POP POP JUMP JUMPDEST PUSH1 0x4 PUSH1 0x0 SWAP1 SLOAD SWAP1 PUSH2 0x100 EXP SWAP1 DIV PUSH20 0xFFFFFFFFFFFFFFFFFFFFFFFFFFFFFFFFFFFFFFFF AND PUSH20 0xFFFFFFFFFFFFFFFFFFFFFFFFFFFFFFFFFFFFFFFF AND CALLER PUSH20 0xFFFFFFFFFFFFFFFFFFFFFFFFFFFFFFFFFFFFFFFF AND EQ PUSH2 0x18F4 JUMPI PUSH1 0x40 MLOAD PUSH32 0x8C379A000000000000000000000000000000000000000000000000000000000 DUP2 MSTORE PUSH1 0x4 ADD PUSH2 0x18EB SWAP1 PUSH2 0x317E JUMP JUMPDEST PUSH1 0x40 MLOAD DUP1 SWAP2 SUB SWAP1 REVERT JUMPDEST PUSH1 0x4 PUSH1 0x14 SWAP1 SLOAD SWAP1 PUSH2 0x100 EXP SWAP1 DIV PUSH1 0xFF AND ISZERO PUSH2 0x1944 JUMPI PUSH1 0x40 MLOAD PUSH32 0x8C379A000000000000000000000000000000000000000000000000000000000 DUP2 MSTORE PUSH1 0x4 ADD PUSH2 0x193B SWAP1 PUSH2 0x3780 JUMP JUMPDEST PUSH1 0x40 MLOAD DUP1 SWAP2 SUB SWAP1 REVERT JUMPDEST PUSH1 0x3 SLOAD PUSH1 0x1 PUSH1 0x2 SLOAD PUSH2 0x1956 SWAP2 SWAP1 PUSH2 0x37A0 JUMP JUMPDEST LT ISZERO PUSH2 0x1997 JUMPI PUSH1 0x40 MLOAD PUSH32 0x8C379A000000000000000000000000000000000000000000000000000000000 DUP2 MSTORE PUSH1 0x4 ADD PUSH2 0x198E SWAP1 PUSH2 0x3820 JUMP JUMPDEST PUSH1 0x40 MLOAD DUP1 SWAP2 SUB SWAP1 REVERT JUMPDEST PUSH1 0x0 DUP2 PUSH1 0x40 MLOAD PUSH1 0x20 ADD PUSH2 0x19AA SWAP2 SWAP1 PUSH2 0x32BE JUMP JUMPDEST PUSH1 0x40 MLOAD PUSH1 0x20 DUP2 DUP4 SUB SUB DUP2 MSTORE SWAP1 PUSH1 0x40 MSTORE DUP1 MLOAD SWAP1 PUSH1 0x20 ADD KECCAK256 SWAP1 POP PUSH1 0x0 PUSH1 0x1 PUSH1 0x0 DUP4 DUP2 MSTORE PUSH1 0x20 ADD SWAP1 DUP2 MSTORE PUSH1 0x20 ADD PUSH1 0x0 KECCAK256 PUSH1 0x0 PUSH2 0x100 EXP DUP2 SLOAD DUP2 PUSH1 0xFF MUL NOT AND SWAP1 DUP4 ISZERO ISZERO MUL OR SWAP1 SSTORE POP PUSH1 0x2 PUSH1 0x0 DUP2 SLOAD DUP1 SWAP3 SWAP2 SWAP1 PUSH2 0x1A01 SWAP1 PUSH2 0x3840 JUMP JUMPDEST SWAP2 SWAP1 POP SSTORE POP DUP1 PUSH32 0xC96852B343177E80D71DFADBB85FE0F2A94DD48301B2385A51564A187B7925AF PUSH1 0x40 MLOAD PUSH1 0x40 MLOAD DUP1 SWAP2 SUB SWAP1 LOG2 POP POP JUMP JUMPDEST PUSH1 0x7 PUSH1 0x20 MSTORE DUP1 PUSH1 0x0 MSTORE PUSH1 0x40 PUSH1 0x0 KECCAK256 PUSH1 0x0 SWAP2 POP SWAP1 POP DUP1 PUSH1 0x0 ADD SLOAD SWAP1 POP DUP2 JUMP JUMPDEST PUSH1 0x0 DUP2 PUSH1 0x40 MLOAD PUSH1 0x20 ADD PUSH2 0x1A68 SWAP2 SWAP1 PUSH2 0x32BE JUMP JUMPDEST PUSH1 0x40 MLOAD PUSH1 0x20 DUP2 DUP4 SUB SUB DUP2 MSTORE SWAP1 PUSH1 0x40 MSTORE DUP1 MLOAD SWAP1 PUSH1 0x20 ADD KECCAK256 SWAP1 POP SWAP2 SWAP1 POP JUMP JUMPDEST PUSH1 0x4 PUSH1 0x0 SWAP1 SLOAD SWAP1 PUSH2 0x100 EXP SWAP1 DIV PUSH20 0xFFFFFFFFFFFFFFFFFFFFFFFFFFFFFFFFFFFFFFFF AND DUP2 JUMP JUMPDEST PUSH1 0x4 PUSH1 0x0 SWAP1 SLOAD SWAP1 PUSH2 0x100 EXP SWAP1 DIV PUSH20 0xFFFFFFFFFFFFFFFFFFFFFFFFFFFFFFFFFFFFFFFF AND PUSH20 0xFFFFFFFFFFFFFFFFFFFFFFFFFFFFFFFFFFFFFFFF AND CALLER PUSH20 0xFFFFFFFFFFFFFFFFFFFFFFFFFFFFFFFFFFFFFFFF AND EQ PUSH2 0x1B3B JUMPI PUSH1 0x40 MLOAD PUSH32 0x8C379A000000000000000000000000000000000000000000000000000000000 DUP2 MSTORE PUSH1 0x4 ADD PUSH2 0x1B32 SWAP1 PUSH2 0x317E JUMP JUMPDEST PUSH1 0x40 MLOAD DUP1 SWAP2 SUB SWAP1 REVERT JUMPDEST PUSH1 0x0 PUSH1 0x6 PUSH1 0x0 DUP4 DUP2 MSTORE PUSH1 0x20 ADD SWAP1 DUP2 MSTORE PUSH1 0x20 ADD PUSH1 0x0 KECCAK256 DUP2 SWAP1 SSTORE POP POP JUMP JUMPDEST PUSH1 0x8 PUSH1 0x20 MSTORE DUP1 PUSH1 0x0 MSTORE PUSH1 0x40 PUSH1 0x0 KECCAK256 PUSH1 0x0 SWAP2 POP SWAP1 POP DUP1 PUSH1 0x0 ADD PUSH1 0x0 SWAP1 SLOAD SWAP1 PUSH2 0x100 EXP SWAP1 DIV PUSH20 0xFFFFFFFFFFFFFFFFFFFFFFFFFFFFFFFFFFFFFFFF AND SWAP1 DUP1 PUSH1 0x1 ADD SLOAD SWAP1 DUP1 PUSH1 0x2 ADD PUSH1 0x0 SWAP1 SLOAD SWAP1 PUSH2 0x100 EXP SWAP1 DIV PUSH1 0xFF AND SWAP1 POP DUP4 JUMP JUMPDEST PUSH1 0x4 PUSH1 0x0 SWAP1 SLOAD SWAP1 PUSH2 0x100 EXP SWAP1 DIV PUSH20 0xFFFFFFFFFFFFFFFFFFFFFFFFFFFFFFFFFFFFFFFF AND PUSH20 0xFFFFFFFFFFFFFFFFFFFFFFFFFFFFFFFFFFFFFFFF AND CALLER PUSH20 0xFFFFFFFFFFFFFFFFFFFFFFFFFFFFFFFFFFFFFFFF AND EQ PUSH2 0x1C3E JUMPI PUSH1 0x40 MLOAD PUSH32 0x8C379A000000000000000000000000000000000000000000000000000000000 DUP2 MSTORE PUSH1 0x4 ADD PUSH2 0x1C35 SWAP1 PUSH2 0x317E JUMP JUMPDEST PUSH1 0x40 MLOAD DUP1 SWAP2 SUB SWAP1 REVERT JUMPDEST PUSH1 0x4 PUSH1 0x14 SWAP1 SLOAD SWAP1 PUSH2 0x100 EXP SWAP1 DIV PUSH1 0xFF AND ISZERO PUSH2 0x1C8E JUMPI PUSH1 0x40 MLOAD PUSH32 0x8C379A000000000000000000000000000000000000000000000000000000000 DUP2 MSTORE PUSH1 0x4 ADD PUSH2 0x1C85 SWAP1 PUSH2 0x3780 JUMP JUMPDEST PUSH1 0x40 MLOAD DUP1 SWAP2 SUB SWAP1 REVERT JUMPDEST PUSH1 0x0 DUP2 PUSH1 0x40 MLOAD PUSH1 0x20 ADD PUSH2 0x1CA1 SWAP2 SWAP1 PUSH2 0x32BE JUMP JUMPDEST PUSH1 0x40 MLOAD PUSH1 0x20 DUP2 DUP4 SUB SUB DUP2 MSTORE SWAP1 PUSH1 0x40 MSTORE DUP1 MLOAD SWAP1 PUSH1 0x20 ADD KECCAK256 SWAP1 POP PUSH1 0x1 DUP1 PUSH1 0x0 DUP4 DUP2 MSTORE PUSH1 0x20 ADD SWAP1 DUP2 MSTORE PUSH1 0x20 ADD PUSH1 0x0 KECCAK256 PUSH1 0x0 PUSH2 0x100 EXP DUP2 SLOAD DUP2 PUSH1 0xFF MUL NOT AND SWAP1 DUP4 ISZERO ISZERO MUL OR SWAP1 SSTORE POP PUSH1 0x2 PUSH1 0x0 DUP2 SLOAD DUP1 SWAP3 SWAP2 SWAP1 PUSH2 0x1CF7 SWAP1 PUSH2 0x352D JUMP JUMPDEST SWAP2 SWAP1 POP SSTORE POP DUP2 PUSH20 0xFFFFFFFFFFFFFFFFFFFFFFFFFFFFFFFFFFFFFFFF AND DUP2 PUSH32 0xDFD29CF87A6FD17A11DDB0053BBD9909617308A4F52602E97030F428065AD22C PUSH1 0x40 MLOAD PUSH1 0x40 MLOAD DUP1 SWAP2 SUB SWAP1 LOG3 POP POP JUMP JUMPDEST PUSH1 0x1 PUSH1 0x0 CALLER PUSH1 0x40 MLOAD PUSH1 0x20 ADD PUSH2 0x1D59 SWAP2 SWAP1 PUSH2 0x32BE JUMP JUMPDEST PUSH1 0x40 MLOAD PUSH1 0x20 DUP2 DUP4 SUB SUB DUP2 MSTORE SWAP1 PUSH1 0x40 MSTORE DUP1 MLOAD SWAP1 PUSH1 0x20 ADD KECCAK256 DUP2 MSTORE PUSH1 0x20 ADD SWAP1 DUP2 MSTORE PUSH1 0x20 ADD PUSH1 0x0 KECCAK256 PUSH1 0x0 SWAP1 SLOAD SWAP1 PUSH2 0x100 EXP SWAP1 DIV PUSH1 0xFF AND PUSH2 0x1DCA JUMPI PUSH1 0x40 MLOAD PUSH32 0x8C379A000000000000000000000000000000000000000000000000000000000 DUP2 MSTORE PUSH1 0x4 ADD PUSH2 0x1DC1 SWAP1 PUSH2 0x3325 JUMP JUMPDEST PUSH1 0x40 MLOAD DUP1 SWAP2 SUB SWAP1 REVERT JUMPDEST CALLER PUSH20 0xFFFFFFFFFFFFFFFFFFFFFFFFFFFFFFFFFFFFFFFF AND CALLER PUSH1 0x40 MLOAD PUSH1 0x20 ADD PUSH2 0x1DF2 SWAP2 SWAP1 PUSH2 0x32BE JUMP JUMPDEST PUSH1 0x40 MLOAD PUSH1 0x20 DUP2 DUP4 SUB SUB DUP2 MSTORE SWAP1 PUSH1 0x40 MSTORE DUP1 MLOAD SWAP1 PUSH1 0x20 ADD KECCAK256 PUSH32 0xAEEE4DC34642964BD6D8194B8689894338B209DE063B46447E53FE54D54EB99B PUSH1 0x40 MLOAD PUSH1 0x40 MLOAD DUP1 SWAP2 SUB SWAP1 LOG3 JUMP JUMPDEST PUSH1 0x5 SLOAD DUP2 JUMP JUMPDEST PUSH1 0x0 PUSH4 0xBC197C81 PUSH1 0xE0 SHL SWAP1 POP SWAP9 SWAP8 POP POP POP POP POP POP POP POP JUMP JUMPDEST PUSH1 0x1 PUSH1 0x20 MSTORE DUP1 PUSH1 0x0 MSTORE PUSH1 0x40 PUSH1 0x0 KECCAK256 PUSH1 0x0 SWAP2 POP SLOAD SWAP1 PUSH2 0x100 EXP SWAP1 DIV PUSH1 0xFF AND DUP2 JUMP JUMPDEST PUSH1 0x4 PUSH1 0x0 SWAP1 SLOAD SWAP1 PUSH2 0x100 EXP SWAP1 DIV PUSH20 0xFFFFFFFFFFFFFFFFFFFFFFFFFFFFFFFFFFFFFFFF AND PUSH20 0xFFFFFFFFFFFFFFFFFFFFFFFFFFFFFFFFFFFFFFFF AND CALLER PUSH20 0xFFFFFFFFFFFFFFFFFFFFFFFFFFFFFFFFFFFFFFFF AND EQ PUSH2 0x1F04 JUMPI PUSH1 0x40 MLOAD PUSH32 0x8C379A000000000000000000000000000000000000000000000000000000000 DUP2 MSTORE PUSH1 0x4 ADD PUSH2 0x1EFB SWAP1 PUSH2 0x317E JUMP JUMPDEST PUSH1 0x40 MLOAD DUP1 SWAP2 SUB SWAP1 REVERT JUMPDEST CALLER PUSH20 0xFFFFFFFFFFFFFFFFFFFFFFFFFFFFFFFFFFFFFFFF AND PUSH32 0xE1FFFCC4923D04B559F4D29A8BFC6CDA04EB5B0D3C460751C2402C5C5CC9109C CALLVALUE PUSH1 0x40 MLOAD PUSH2 0x1F4A SWAP2 SWAP1 PUSH2 0x2800 JUMP JUMPDEST PUSH1 0x40 MLOAD DUP1 SWAP2 SUB SWAP1 LOG2 JUMP JUMPDEST PUSH1 0x1 PUSH1 0x0 CALLER PUSH1 0x40 MLOAD PUSH1 0x20 ADD PUSH2 0x1F69 SWAP2 SWAP1 PUSH2 0x32BE JUMP JUMPDEST PUSH1 0x40 MLOAD PUSH1 0x20 DUP2 DUP4 SUB SUB DUP2 MSTORE SWAP1 PUSH1 0x40 MSTORE DUP1 MLOAD SWAP1 PUSH1 0x20 ADD KECCAK256 DUP2 MSTORE PUSH1 0x20 ADD SWAP1 DUP2 MSTORE PUSH1 0x20 ADD PUSH1 0x0 KECCAK256 PUSH1 0x0 SWAP1 SLOAD SWAP1 PUSH2 0x100 EXP SWAP1 DIV PUSH1 0xFF AND PUSH2 0x1FDA JUMPI PUSH1 0x40 MLOAD PUSH32 0x8C379A000000000000000000000000000000000000000000000000000000000 DUP2 MSTORE PUSH1 0x4 ADD PUSH2 0x1FD1 SWAP1 PUSH2 0x3325 JUMP JUMPDEST PUSH1 0x40 MLOAD DUP1 SWAP2 SUB SWAP1 REVERT JUMPDEST PUSH1 0x4 PUSH1 0x14 SWAP1 SLOAD SWAP1 PUSH2 0x100 EXP SWAP1 DIV PUSH1 0xFF AND ISZERO PUSH2 0x202A JUMPI PUSH1 0x40 MLOAD PUSH32 0x8C379A000000000000000000000000000000000000000000000000000000000 DUP2 MSTORE PUSH1 0x4 ADD PUSH2 0x2021 SWAP1 PUSH2 0x38B5 JUMP JUMPDEST PUSH1 0x40 MLOAD DUP1 SWAP2 SUB SWAP1 REVERT JUMPDEST PUSH1 0x5 PUSH1 0x0 DUP2 SLOAD DUP1 SWAP3 SWAP2 SWAP1 PUSH2 0x203D SWAP1 PUSH2 0x352D JUMP JUMPDEST SWAP2 SWAP1 POP SSTORE POP PUSH1 0x40 MLOAD DUP1 PUSH1 0x60 ADD PUSH1 0x40 MSTORE DUP1 DUP3 PUSH20 0xFFFFFFFFFFFFFFFFFFFFFFFFFFFFFFFFFFFFFFFF AND DUP2 MSTORE PUSH1 0x20 ADD PUSH1 0x5 SLOAD DUP2 MSTORE PUSH1 0x20 ADD PUSH1 0x0 ISZERO ISZERO DUP2 MSTORE POP PUSH1 0x8 PUSH1 0x0 CALLER PUSH20 0xFFFFFFFFFFFFFFFFFFFFFFFFFFFFFFFFFFFFFFFF AND PUSH20 0xFFFFFFFFFFFFFFFFFFFFFFFFFFFFFFFFFFFFFFFF AND DUP2 MSTORE PUSH1 0x20 ADD SWAP1 DUP2 MSTORE PUSH1 0x20 ADD PUSH1 0x0 KECCAK256 PUSH1 0x0 DUP3 ADD MLOAD DUP2 PUSH1 0x0 ADD PUSH1 0x0 PUSH2 0x100 EXP DUP2 SLOAD DUP2 PUSH20 0xFFFFFFFFFFFFFFFFFFFFFFFFFFFFFFFFFFFFFFFF MUL NOT AND SWAP1 DUP4 PUSH20 0xFFFFFFFFFFFFFFFFFFFFFFFFFFFFFFFFFFFFFFFF AND MUL OR SWAP1 SSTORE POP PUSH1 0x20 DUP3 ADD MLOAD DUP2 PUSH1 0x1 ADD SSTORE PUSH1 0x40 DUP3 ADD MLOAD DUP2 PUSH1 0x2 ADD PUSH1 0x0 PUSH2 0x100 EXP DUP2 SLOAD DUP2 PUSH1 0xFF MUL NOT AND SWAP1 DUP4 ISZERO ISZERO MUL OR SWAP1 SSTORE POP SWAP1 POP POP PUSH1 0x1 PUSH1 0x4 PUSH1 0x14 PUSH2 0x100 EXP DUP2 SLOAD DUP2 PUSH1 0xFF MUL NOT AND SWAP1 DUP4 ISZERO ISZERO MUL OR SWAP1 SSTORE POP PUSH1 0x7 PUSH1 0x0 PUSH1 0x5 SLOAD DUP2 MSTORE PUSH1 0x20 ADD SWAP1 DUP2 MSTORE PUSH1 0x20 ADD PUSH1 0x0 KECCAK256 PUSH1 0x1 ADD PUSH1 0x0 DUP3 PUSH20 0xFFFFFFFFFFFFFFFFFFFFFFFFFFFFFFFFFFFFFFFF AND PUSH20 0xFFFFFFFFFFFFFFFFFFFFFFFFFFFFFFFFFFFFFFFF AND DUP2 MSTORE PUSH1 0x20 ADD SWAP1 DUP2 MSTORE PUSH1 0x20 ADD PUSH1 0x0 KECCAK256 PUSH1 0x0 DUP2 SLOAD DUP1 SWAP3 SWAP2 SWAP1 PUSH2 0x21AC SWAP1 PUSH2 0x352D JUMP JUMPDEST SWAP2 SWAP1 POP SSTORE POP PUSH1 0x5 SLOAD CALLER PUSH20 0xFFFFFFFFFFFFFFFFFFFFFFFFFFFFFFFFFFFFFFFF AND PUSH32 0xE290EA2CC3CFEB5114F992DC8BE9E503DE30042C13B9298644A2679B09E17A04 DUP4 PUSH1 0x40 MLOAD PUSH2 0x21FA SWAP2 SWAP1 PUSH2 0x2DD4 JUMP JUMPDEST PUSH1 0x40 MLOAD DUP1 SWAP2 SUB SWAP1 LOG3 POP JUMP JUMPDEST PUSH1 0x4 PUSH1 0x0 SWAP1 SLOAD SWAP1 PUSH2 0x100 EXP SWAP1 DIV PUSH20 0xFFFFFFFFFFFFFFFFFFFFFFFFFFFFFFFFFFFFFFFF AND PUSH20 0xFFFFFFFFFFFFFFFFFFFFFFFFFFFFFFFFFFFFFFFF AND CALLER PUSH20 0xFFFFFFFFFFFFFFFFFFFFFFFFFFFFFFFFFFFFFFFF AND EQ PUSH2 0x2295 JUMPI PUSH1 0x40 MLOAD PUSH32 0x8C379A000000000000000000000000000000000000000000000000000000000 DUP2 MSTORE PUSH1 0x4 ADD PUSH2 0x228C SWAP1 PUSH2 0x317E JUMP JUMPDEST PUSH1 0x40 MLOAD DUP1 SWAP2 SUB SWAP1 REVERT JUMPDEST PUSH1 0x1 PUSH1 0x0 DUP3 DUP2 MSTORE PUSH1 0x20 ADD SWAP1 DUP2 MSTORE PUSH1 0x20 ADD PUSH1 0x0 KECCAK256 PUSH1 0x0 SWAP1 SLOAD SWAP1 PUSH2 0x100 EXP SWAP1 DIV PUSH1 0xFF AND PUSH2 0x22F5 JUMPI PUSH1 0x40 MLOAD PUSH32 0x8C379A000000000000000000000000000000000000000000000000000000000 DUP2 MSTORE PUSH1 0x4 ADD PUSH2 0x22EC SWAP1 PUSH2 0x3921 JUMP JUMPDEST PUSH1 0x40 MLOAD DUP1 SWAP2 SUB SWAP1 REVERT JUMPDEST PUSH1 0x4 PUSH1 0x14 SWAP1 SLOAD SWAP1 PUSH2 0x100 EXP SWAP1 DIV PUSH1 0xFF AND ISZERO PUSH2 0x2345 JUMPI PUSH1 0x40 MLOAD PUSH32 0x8C379A000000000000000000000000000000000000000000000000000000000 DUP2 MSTORE PUSH1 0x4 ADD PUSH2 0x233C SWAP1 PUSH2 0x3780 JUMP JUMPDEST PUSH1 0x40 MLOAD DUP1 SWAP2 SUB SWAP1 REVERT JUMPDEST PUSH3 0x3F480 TIMESTAMP PUSH2 0x2354 SWAP2 SWAP1 PUSH2 0x3941 JUMP JUMPDEST PUSH1 0x6 PUSH1 0x0 DUP4 DUP2 MSTORE PUSH1 0x20 ADD SWAP1 DUP2 MSTORE PUSH1 0x20 ADD PUSH1 0x0 KECCAK256 DUP2 SWAP1 SSTORE POP DUP1 PUSH32 0x7C5906C97ABCEB0E2AA5B3AA0181DECC25FF01FE67D8926B62600F44E0785E45 PUSH1 0x40 MLOAD PUSH1 0x40 MLOAD DUP1 SWAP2 SUB SWAP1 LOG2 POP JUMP JUMPDEST PUSH1 0x1 PUSH1 0x0 CALLER PUSH1 0x40 MLOAD PUSH1 0x20 ADD PUSH2 0x23B0 SWAP2 SWAP1 PUSH2 0x32BE JUMP JUMPDEST PUSH1 0x40 MLOAD PUSH1 0x20 DUP2 DUP4 SUB SUB DUP2 MSTORE SWAP1 PUSH1 0x40 MSTORE DUP1 MLOAD SWAP1 PUSH1 0x20 ADD KECCAK256 DUP2 MSTORE PUSH1 0x20 ADD SWAP1 DUP2 MSTORE PUSH1 0x20 ADD PUSH1 0x0 KECCAK256 PUSH1 0x0 SWAP1 SLOAD SWAP1 PUSH2 0x100 EXP SWAP1 DIV PUSH1 0xFF AND PUSH2 0x2421 JUMPI PUSH1 0x40 MLOAD PUSH32 0x8C379A000000000000000000000000000000000000000000000000000000000 DUP2 MSTORE PUSH1 0x4 ADD PUSH2 0x2418 SWAP1 PUSH2 0x3325 JUMP JUMPDEST PUSH1 0x40 MLOAD DUP1 SWAP2 SUB SWAP1 REVERT JUMPDEST PUSH1 0x4 PUSH1 0x14 SWAP1 SLOAD SWAP1 PUSH2 0x100 EXP SWAP1 DIV PUSH1 0xFF AND ISZERO PUSH2 0x2471 JUMPI PUSH1 0x40 MLOAD PUSH32 0x8C379A000000000000000000000000000000000000000000000000000000000 DUP2 MSTORE PUSH1 0x4 ADD PUSH2 0x2468 SWAP1 PUSH2 0x38B5 JUMP JUMPDEST PUSH1 0x40 MLOAD DUP1 SWAP2 SUB SWAP1 REVERT JUMPDEST PUSH1 0x0 PUSH1 0x6 PUSH1 0x0 CALLER PUSH1 0x40 MLOAD PUSH1 0x20 ADD PUSH2 0x2488 SWAP2 SWAP1 PUSH2 0x32BE JUMP JUMPDEST PUSH1 0x40 MLOAD PUSH1 0x20 DUP2 DUP4 SUB SUB DUP2 MSTORE SWAP1 PUSH1 0x40 MSTORE DUP1 MLOAD SWAP1 PUSH1 0x20 ADD KECCAK256 DUP2 MSTORE PUSH1 0x20 ADD SWAP1 DUP2 MSTORE PUSH1 0x20 ADD PUSH1 0x0 KECCAK256 SLOAD EQ PUSH2 0x24ED JUMPI PUSH1 0x40 MLOAD PUSH32 0x8C379A000000000000000000000000000000000000000000000000000000000 DUP2 MSTORE PUSH1 0x4 ADD PUSH2 0x24E4 SWAP1 PUSH2 0x39E7 JUMP JUMPDEST PUSH1 0x40 MLOAD DUP1 SWAP2 SUB SWAP1 REVERT JUMPDEST PUSH1 0x0 PUSH1 0x1 PUSH1 0x0 CALLER PUSH1 0x40 MLOAD PUSH1 0x20 ADD PUSH2 0x2504 SWAP2 SWAP1 PUSH2 0x32BE JUMP JUMPDEST PUSH1 0x40 MLOAD PUSH1 0x20 DUP2 DUP4 SUB SUB DUP2 MSTORE SWAP1 PUSH1 0x40 MSTORE DUP1 MLOAD SWAP1 PUSH1 0x20 ADD KECCAK256 DUP2 MSTORE PUSH1 0x20 ADD SWAP1 DUP2 MSTORE PUSH1 0x20 ADD PUSH1 0x0 KECCAK256 PUSH1 0x0 PUSH2 0x100 EXP DUP2 SLOAD DUP2 PUSH1 0xFF MUL NOT AND SWAP1 DUP4 ISZERO ISZERO MUL OR SWAP1 SSTORE POP PUSH1 0x1 DUP1 PUSH1 0x0 DUP4 DUP2 MSTORE PUSH1 0x20 ADD SWAP1 DUP2 MSTORE PUSH1 0x20 ADD PUSH1 0x0 KECCAK256 PUSH1 0x0 PUSH2 0x100 EXP DUP2 SLOAD DUP2 PUSH1 0xFF MUL NOT AND SWAP1 DUP4 ISZERO ISZERO MUL OR SWAP1 SSTORE POP DUP1 CALLER PUSH20 0xFFFFFFFFFFFFFFFFFFFFFFFFFFFFFFFFFFFFFFFF AND PUSH32 0xEBB73463791AB4E1CE8AC274520ECA412B3AEA13FCFAC358E8E834F6D8BA7166 PUSH1 0x40 MLOAD PUSH1 0x40 MLOAD DUP1 SWAP2 SUB SWAP1 LOG3 POP JUMP JUMPDEST PUSH1 0x2 SLOAD DUP2 JUMP JUMPDEST PUSH1 0x4 PUSH1 0x14 SWAP1 SLOAD SWAP1 PUSH2 0x100 EXP SWAP1 DIV PUSH1 0xFF AND DUP2 JUMP JUMPDEST PUSH1 0x0 PUSH4 0xF23A6E61 PUSH1 0xE0 SHL SWAP1 POP SWAP7 SWAP6 POP POP POP POP POP POP JUMP JUMPDEST PUSH1 0x60 PUSH1 0x4 PUSH1 0x0 SWAP1 SLOAD SWAP1 PUSH2 0x100 EXP SWAP1 DIV PUSH20 0xFFFFFFFFFFFFFFFFFFFFFFFFFFFFFFFFFFFFFFFF AND PUSH20 0xFFFFFFFFFFFFFFFFFFFFFFFFFFFFFFFFFFFFFFFF AND CALLER PUSH20 0xFFFFFFFFFFFFFFFFFFFFFFFFFFFFFFFFFFFFFFFF AND EQ PUSH2 0x2672 JUMPI PUSH1 0x40 MLOAD PUSH32 0x8C379A000000000000000000000000000000000000000000000000000000000 DUP2 MSTORE PUSH1 0x4 ADD PUSH2 0x2669 SWAP1 PUSH2 0x317E JUMP JUMPDEST PUSH1 0x40 MLOAD DUP1 SWAP2 SUB SWAP1 REVERT JUMPDEST PUSH2 0x267A PUSH2 0x278E JUMP JUMPDEST PUSH1 0x0 DUP1 DUP6 PUSH20 0xFFFFFFFFFFFFFFFFFFFFFFFFFFFFFFFFFFFFFFFF AND DUP6 DUP6 PUSH1 0x40 MLOAD PUSH2 0x26A3 SWAP2 SWAP1 PUSH2 0x3A43 JUMP JUMPDEST PUSH1 0x0 PUSH1 0x40 MLOAD DUP1 DUP4 SUB DUP2 DUP6 DUP8 GAS CALL SWAP3 POP POP POP RETURNDATASIZE DUP1 PUSH1 0x0 DUP2 EQ PUSH2 0x26E0 JUMPI PUSH1 0x40 MLOAD SWAP2 POP PUSH1 0x1F NOT PUSH1 0x3F RETURNDATASIZE ADD AND DUP3 ADD PUSH1 0x40 MSTORE RETURNDATASIZE DUP3 MSTORE RETURNDATASIZE PUSH1 0x0 PUSH1 0x20 DUP5 ADD RETURNDATACOPY PUSH2 0x26E5 JUMP JUMPDEST PUSH1 0x60 SWAP2 POP JUMPDEST POP SWAP2 POP SWAP2 POP DUP2 PUSH2 0x272A JUMPI PUSH1 0x40 MLOAD PUSH32 0x8C379A000000000000000000000000000000000000000000000000000000000 DUP2 MSTORE PUSH1 0x4 ADD PUSH2 0x2721 SWAP1 PUSH2 0x3AA6 JUMP JUMPDEST PUSH1 0x40 MLOAD DUP1 SWAP2 SUB SWAP1 REVERT JUMPDEST DUP6 PUSH20 0xFFFFFFFFFFFFFFFFFFFFFFFFFFFFFFFFFFFFFFFF AND PUSH32 0x47D99AD340F52DA66535AFF7E10DA1CEB85A32BCBD9FA1C42314D194545E14D2 DUP7 DUP7 PUSH1 0x40 MLOAD PUSH2 0x2772 SWAP3 SWAP2 SWAP1 PUSH2 0x3AC6 JUMP JUMPDEST PUSH1 0x40 MLOAD DUP1 SWAP2 SUB SWAP1 LOG2 DUP1 SWAP3 POP POP POP PUSH2 0x2787 PUSH2 0x27DD JUMP JUMPDEST SWAP4 SWAP3 POP POP POP JUMP JUMPDEST PUSH1 0x2 PUSH1 0x0 SLOAD SUB PUSH2 0x27D3 JUMPI PUSH1 0x40 MLOAD PUSH32 0x8C379A000000000000000000000000000000000000000000000000000000000 DUP2 MSTORE PUSH1 0x4 ADD PUSH2 0x27CA SWAP1 PUSH2 0x3B42 JUMP JUMPDEST PUSH1 0x40 MLOAD DUP1 SWAP2 SUB SWAP1 REVERT JUMPDEST PUSH1 0x2 PUSH1 0x0 DUP2 SWAP1 SSTORE POP JUMP JUMPDEST PUSH1 0x1 PUSH1 0x0 DUP2 SWAP1 SSTORE POP JUMP JUMPDEST PUSH1 0x0 DUP2 SWAP1 POP SWAP2 SWAP1 POP JUMP JUMPDEST PUSH2 0x27FA DUP2 PUSH2 0x27E7 JUMP JUMPDEST DUP3 MSTORE POP POP JUMP JUMPDEST PUSH1 0x0 PUSH1 0x20 DUP3 ADD SWAP1 POP PUSH2 0x2815 PUSH1 0x0 DUP4 ADD DUP5 PUSH2 0x27F1 JUMP JUMPDEST SWAP3 SWAP2 POP POP JUMP JUMPDEST PUSH1 0x0 PUSH1 0x40 MLOAD SWAP1 POP SWAP1 JUMP JUMPDEST PUSH1 0x0 DUP1 REVERT JUMPDEST PUSH1 0x0 DUP1 REVERT JUMPDEST PUSH1 0x0 PUSH32 0xFFFFFFFF00000000000000000000000000000000000000000000000000000000 DUP3 AND SWAP1 POP SWAP2 SWAP1 POP JUMP JUMPDEST PUSH2 0x2864 DUP2 PUSH2 0x282F JUMP JUMPDEST DUP2 EQ PUSH2 0x286F JUMPI PUSH1 0x0 DUP1 REVERT JUMPDEST POP JUMP JUMPDEST PUSH1 0x0 DUP2 CALLDATALOAD SWAP1 POP PUSH2 0x2881 DUP2 PUSH2 0x285B JUMP JUMPDEST SWAP3 SWAP2 POP POP JUMP JUMPDEST PUSH1 0x0 PUSH1 0x20 DUP3 DUP5 SUB SLT ISZERO PUSH2 0x289D JUMPI PUSH2 0x289C PUSH2 0x2825 JUMP JUMPDEST JUMPDEST PUSH1 0x0 PUSH2 0x28AB DUP5 DUP3 DUP6 ADD PUSH2 0x2872 JUMP JUMPDEST SWAP2 POP POP SWAP3 SWAP2 POP POP JUMP JUMPDEST PUSH1 0x0 DUP2 ISZERO ISZERO SWAP1 POP SWAP2 SWAP1 POP JUMP JUMPDEST PUSH2 0x28C9 DUP2 PUSH2 0x28B4 JUMP JUMPDEST DUP3 MSTORE POP POP JUMP JUMPDEST PUSH1 0x0 PUSH1 0x20 DUP3 ADD SWAP1 POP PUSH2 0x28E4 PUSH1 0x0 DUP4 ADD DUP5 PUSH2 0x28C0 JUMP JUMPDEST SWAP3 SWAP2 POP POP JUMP JUMPDEST PUSH1 0x0 PUSH20 0xFFFFFFFFFFFFFFFFFFFFFFFFFFFFFFFFFFFFFFFF DUP3 AND SWAP1 POP SWAP2 SWAP1 POP JUMP JUMPDEST PUSH1 0x0 PUSH2 0x2915 DUP3 PUSH2 0x28EA JUMP JUMPDEST SWAP1 POP SWAP2 SWAP1 POP JUMP JUMPDEST PUSH2 0x2925 DUP2 PUSH2 0x290A JUMP JUMPDEST DUP2 EQ PUSH2 0x2930 JUMPI PUSH1 0x0 DUP1 REVERT JUMPDEST POP JUMP JUMPDEST PUSH1 0x0 DUP2 CALLDATALOAD SWAP1 POP PUSH2 0x2942 DUP2 PUSH2 0x291C JUMP JUMPDEST SWAP3 SWAP2 POP POP JUMP JUMPDEST PUSH2 0x2951 DUP2 PUSH2 0x27E7 JUMP JUMPDEST DUP2 EQ PUSH2 0x295C JUMPI PUSH1 0x0 DUP1 REVERT JUMPDEST POP JUMP JUMPDEST PUSH1 0x0 DUP2 CALLDATALOAD SWAP1 POP PUSH2 0x296E DUP2 PUSH2 0x2948 JUMP JUMPDEST SWAP3 SWAP2 POP POP JUMP JUMPDEST PUSH1 0x0 DUP1 REVERT JUMPDEST PUSH1 0x0 DUP1 REVERT JUMPDEST PUSH1 0x0 PUSH1 0x1F NOT PUSH1 0x1F DUP4 ADD AND SWAP1 POP SWAP2 SWAP1 POP JUMP JUMPDEST PUSH32 0x4E487B7100000000000000000000000000000000000000000000000000000000 PUSH1 0x0 MSTORE PUSH1 0x41 PUSH1 0x4 MSTORE PUSH1 0x24 PUSH1 0x0 REVERT JUMPDEST PUSH2 0x29C7 DUP3 PUSH2 0x297E JUMP JUMPDEST DUP2 ADD DUP2 DUP2 LT PUSH8 0xFFFFFFFFFFFFFFFF DUP3 GT OR ISZERO PUSH2 0x29E6 JUMPI PUSH2 0x29E5 PUSH2 0x298F JUMP JUMPDEST JUMPDEST DUP1 PUSH1 0x40 MSTORE POP POP POP JUMP JUMPDEST PUSH1 0x0 PUSH2 0x29F9 PUSH2 0x281B JUMP JUMPDEST SWAP1 POP PUSH2 0x2A05 DUP3 DUP3 PUSH2 0x29BE JUMP JUMPDEST SWAP2 SWAP1 POP JUMP JUMPDEST PUSH1 0x0 PUSH8 0xFFFFFFFFFFFFFFFF DUP3 GT ISZERO PUSH2 0x2A25 JUMPI PUSH2 0x2A24 PUSH2 0x298F JUMP JUMPDEST JUMPDEST PUSH2 0x2A2E DUP3 PUSH2 0x297E JUMP JUMPDEST SWAP1 POP PUSH1 0x20 DUP2 ADD SWAP1 POP SWAP2 SWAP1 POP JUMP JUMPDEST DUP3 DUP2 DUP4 CALLDATACOPY PUSH1 0x0 DUP4 DUP4 ADD MSTORE POP POP POP JUMP JUMPDEST PUSH1 0x0 PUSH2 0x2A5D PUSH2 0x2A58 DUP5 PUSH2 0x2A0A JUMP JUMPDEST PUSH2 0x29EF JUMP JUMPDEST SWAP1 POP DUP3 DUP2 MSTORE PUSH1 0x20 DUP2 ADD DUP5 DUP5 DUP5 ADD GT ISZERO PUSH2 0x2A79 JUMPI PUSH2 0x2A78 PUSH2 0x2979 JUMP JUMPDEST JUMPDEST PUSH2 0x2A84 DUP5 DUP3 DUP6 PUSH2 0x2A3B JUMP JUMPDEST POP SWAP4 SWAP3 POP POP POP JUMP JUMPDEST PUSH1 0x0 DUP3 PUSH1 0x1F DUP4 ADD SLT PUSH2 0x2AA1 JUMPI PUSH2 0x2AA0 PUSH2 0x2974 JUMP JUMPDEST JUMPDEST DUP2 CALLDATALOAD PUSH2 0x2AB1 DUP5 DUP3 PUSH1 0x20 DUP7 ADD PUSH2 0x2A4A JUMP JUMPDEST SWAP2 POP POP SWAP3 SWAP2 POP POP JUMP JUMPDEST PUSH1 0x0 DUP1 PUSH1 0x0 DUP1 PUSH1 0x80 DUP6 DUP8 SUB SLT ISZERO PUSH2 0x2AD4 JUMPI PUSH2 0x2AD3 PUSH2 0x2825 JUMP JUMPDEST JUMPDEST PUSH1 0x0 PUSH2 0x2AE2 DUP8 DUP3 DUP9 ADD PUSH2 0x2933 JUMP JUMPDEST SWAP5 POP POP PUSH1 0x20 PUSH2 0x2AF3 DUP8 DUP3 DUP9 ADD PUSH2 0x2933 JUMP JUMPDEST SWAP4 POP POP PUSH1 0x40 PUSH2 0x2B04 DUP8 DUP3 DUP9 ADD PUSH2 0x295F JUMP JUMPDEST SWAP3 POP POP PUSH1 0x60 DUP6 ADD CALLDATALOAD PUSH8 0xFFFFFFFFFFFFFFFF DUP2 GT ISZERO PUSH2 0x2B25 JUMPI PUSH2 0x2B24 PUSH2 0x282A JUMP JUMPDEST JUMPDEST PUSH2 0x2B31 DUP8 DUP3 DUP9 ADD PUSH2 0x2A8C JUMP JUMPDEST SWAP2 POP POP SWAP3 SWAP6 SWAP2 SWAP5 POP SWAP3 POP JUMP JUMPDEST PUSH2 0x2B46 DUP2 PUSH2 0x282F JUMP JUMPDEST DUP3 MSTORE POP POP JUMP JUMPDEST PUSH1 0x0 PUSH1 0x20 DUP3 ADD SWAP1 POP PUSH2 0x2B61 PUSH1 0x0 DUP4 ADD DUP5 PUSH2 0x2B3D JUMP JUMPDEST SWAP3 SWAP2 POP POP JUMP JUMPDEST PUSH1 0x0 PUSH1 0x20 DUP3 DUP5 SUB SLT ISZERO PUSH2 0x2B7D JUMPI PUSH2 0x2B7C PUSH2 0x2825 JUMP JUMPDEST JUMPDEST PUSH1 0x0 PUSH2 0x2B8B DUP5 DUP3 DUP6 ADD PUSH2 0x2933 JUMP JUMPDEST SWAP2 POP POP SWAP3 SWAP2 POP POP JUMP JUMPDEST PUSH2 0x2B9D DUP2 PUSH2 0x290A JUMP JUMPDEST DUP3 MSTORE POP POP JUMP JUMPDEST PUSH1 0x0 PUSH1 0x60 DUP3 ADD SWAP1 POP PUSH2 0x2BB8 PUSH1 0x0 DUP4 ADD DUP7 PUSH2 0x2B94 JUMP JUMPDEST PUSH2 0x2BC5 PUSH1 0x20 DUP4 ADD DUP6 PUSH2 0x27F1 JUMP JUMPDEST PUSH2 0x2BD2 PUSH1 0x40 DUP4 ADD DUP5 PUSH2 0x28C0 JUMP JUMPDEST SWAP5 SWAP4 POP POP POP POP JUMP JUMPDEST PUSH1 0x0 PUSH1 0x20 DUP3 DUP5 SUB SLT ISZERO PUSH2 0x2BF0 JUMPI PUSH2 0x2BEF PUSH2 0x2825 JUMP JUMPDEST JUMPDEST PUSH1 0x0 PUSH2 0x2BFE DUP5 DUP3 DUP6 ADD PUSH2 0x295F JUMP JUMPDEST SWAP2 POP POP SWAP3 SWAP2 POP POP JUMP JUMPDEST PUSH1 0x0 DUP2 SWAP1 POP SWAP2 SWAP1 POP JUMP JUMPDEST PUSH2 0x2C1A DUP2 PUSH2 0x2C07 JUMP JUMPDEST DUP2 EQ PUSH2 0x2C25 JUMPI PUSH1 0x0 DUP1 REVERT JUMPDEST POP JUMP JUMPDEST PUSH1 0x0 DUP2 CALLDATALOAD SWAP1 POP PUSH2 0x2C37 DUP2 PUSH2 0x2C11 JUMP JUMPDEST SWAP3 SWAP2 POP POP JUMP JUMPDEST PUSH1 0x0 PUSH1 0x20 DUP3 DUP5 SUB SLT ISZERO PUSH2 0x2C53 JUMPI PUSH2 0x2C52 PUSH2 0x2825 JUMP JUMPDEST JUMPDEST PUSH1 0x0 PUSH2 0x2C61 DUP5 DUP3 DUP6 ADD PUSH2 0x2C28 JUMP JUMPDEST SWAP2 POP POP SWAP3 SWAP2 POP POP JUMP JUMPDEST PUSH1 0x0 DUP1 PUSH1 0x40 DUP4 DUP6 SUB SLT ISZERO PUSH2 0x2C81 JUMPI PUSH2 0x2C80 PUSH2 0x2825 JUMP JUMPDEST JUMPDEST PUSH1 0x0 PUSH2 0x2C8F DUP6 DUP3 DUP7 ADD PUSH2 0x2C28 JUMP JUMPDEST SWAP3 POP POP PUSH1 0x20 PUSH2 0x2CA0 DUP6 DUP3 DUP7 ADD PUSH2 0x2C28 JUMP JUMPDEST SWAP2 POP POP SWAP3 POP SWAP3 SWAP1 POP JUMP JUMPDEST PUSH1 0x0 DUP1 REVERT JUMPDEST PUSH1 0x0 DUP1 REVERT JUMPDEST PUSH1 0x0 DUP1 DUP4 PUSH1 0x1F DUP5 ADD SLT PUSH2 0x2CCA JUMPI PUSH2 0x2CC9 PUSH2 0x2974 JUMP JUMPDEST JUMPDEST DUP3 CALLDATALOAD SWAP1 POP PUSH8 0xFFFFFFFFFFFFFFFF DUP2 GT ISZERO PUSH2 0x2CE7 JUMPI PUSH2 0x2CE6 PUSH2 0x2CAA JUMP JUMPDEST JUMPDEST PUSH1 0x20 DUP4 ADD SWAP2 POP DUP4 PUSH1 0x20 DUP3 MUL DUP4 ADD GT ISZERO PUSH2 0x2D03 JUMPI PUSH2 0x2D02 PUSH2 0x2CAF JUMP JUMPDEST JUMPDEST SWAP3 POP SWAP3 SWAP1 POP JUMP JUMPDEST PUSH1 0x0 DUP1 PUSH1 0x0 PUSH1 0x40 DUP5 DUP7 SUB SLT ISZERO PUSH2 0x2D23 JUMPI PUSH2 0x2D22 PUSH2 0x2825 JUMP JUMPDEST JUMPDEST PUSH1 0x0 PUSH2 0x2D31 DUP7 DUP3 DUP8 ADD PUSH2 0x2933 JUMP JUMPDEST SWAP4 POP POP PUSH1 0x20 DUP5 ADD CALLDATALOAD PUSH8 0xFFFFFFFFFFFFFFFF DUP2 GT ISZERO PUSH2 0x2D52 JUMPI PUSH2 0x2D51 PUSH2 0x282A JUMP JUMPDEST JUMPDEST PUSH2 0x2D5E DUP7 DUP3 DUP8 ADD PUSH2 0x2CB4 JUMP JUMPDEST SWAP3 POP SWAP3 POP POP SWAP3 POP SWAP3 POP SWAP3 JUMP JUMPDEST PUSH1 0x0 DUP1 PUSH1 0x40 DUP4 DUP6 SUB SLT ISZERO PUSH2 0x2D81 JUMPI PUSH2 0x2D80 PUSH2 0x2825 JUMP JUMPDEST JUMPDEST PUSH1 0x0 PUSH2 0x2D8F DUP6 DUP3 DUP7 ADD PUSH2 0x295F JUMP JUMPDEST SWAP3 POP POP PUSH1 0x20 PUSH2 0x2DA0 DUP6 DUP3 DUP7 ADD PUSH2 0x2933 JUMP JUMPDEST SWAP2 POP POP SWAP3 POP SWAP3 SWAP1 POP JUMP JUMPDEST PUSH2 0x2DB3 DUP2 PUSH2 0x2C07 JUMP JUMPDEST DUP3 MSTORE POP POP JUMP JUMPDEST PUSH1 0x0 PUSH1 0x20 DUP3 ADD SWAP1 POP PUSH2 0x2DCE PUSH1 0x0 DUP4 ADD DUP5 PUSH2 0x2DAA JUMP JUMPDEST SWAP3 SWAP2 POP POP JUMP JUMPDEST PUSH1 0x0 PUSH1 0x20 DUP3 ADD SWAP1 POP PUSH2 0x2DE9 PUSH1 0x0 DUP4 ADD DUP5 PUSH2 0x2B94 JUMP JUMPDEST SWAP3 SWAP2 POP POP JUMP JUMPDEST PUSH1 0x0 DUP1 DUP4 PUSH1 0x1F DUP5 ADD SLT PUSH2 0x2E05 JUMPI PUSH2 0x2E04 PUSH2 0x2974 JUMP JUMPDEST JUMPDEST DUP3 CALLDATALOAD SWAP1 POP PUSH8 0xFFFFFFFFFFFFFFFF DUP2 GT ISZERO PUSH2 0x2E22 JUMPI PUSH2 0x2E21 PUSH2 0x2CAA JUMP JUMPDEST JUMPDEST PUSH1 0x20 DUP4 ADD SWAP2 POP DUP4 PUSH1 0x20 DUP3 MUL DUP4 ADD GT ISZERO PUSH2 0x2E3E JUMPI PUSH2 0x2E3D PUSH2 0x2CAF JUMP JUMPDEST JUMPDEST SWAP3 POP SWAP3 SWAP1 POP JUMP JUMPDEST PUSH1 0x0 DUP1 DUP4 PUSH1 0x1F DUP5 ADD SLT PUSH2 0x2E5B JUMPI PUSH2 0x2E5A PUSH2 0x2974 JUMP JUMPDEST JUMPDEST DUP3 CALLDATALOAD SWAP1 POP PUSH8 0xFFFFFFFFFFFFFFFF DUP2 GT ISZERO PUSH2 0x2E78 JUMPI PUSH2 0x2E77 PUSH2 0x2CAA JUMP JUMPDEST JUMPDEST PUSH1 0x20 DUP4 ADD SWAP2 POP DUP4 PUSH1 0x1 DUP3 MUL DUP4 ADD GT ISZERO PUSH2 0x2E94 JUMPI PUSH2 0x2E93 PUSH2 0x2CAF JUMP JUMPDEST JUMPDEST SWAP3 POP SWAP3 SWAP1 POP JUMP JUMPDEST PUSH1 0x0 DUP1 PUSH1 0x0 DUP1 PUSH1 0x0 DUP1 PUSH1 0x0 DUP1 PUSH1 0xA0 DUP10 DUP12 SUB SLT ISZERO PUSH2 0x2EBB JUMPI PUSH2 0x2EBA PUSH2 0x2825 JUMP JUMPDEST JUMPDEST PUSH1 0x0 PUSH2 0x2EC9 DUP12 DUP3 DUP13 ADD PUSH2 0x2933 JUMP JUMPDEST SWAP9 POP POP PUSH1 0x20 PUSH2 0x2EDA DUP12 DUP3 DUP13 ADD PUSH2 0x2933 JUMP JUMPDEST SWAP8 POP POP PUSH1 0x40 DUP10 ADD CALLDATALOAD PUSH8 0xFFFFFFFFFFFFFFFF DUP2 GT ISZERO PUSH2 0x2EFB JUMPI PUSH2 0x2EFA PUSH2 0x282A JUMP JUMPDEST JUMPDEST PUSH2 0x2F07 DUP12 DUP3 DUP13 ADD PUSH2 0x2DEF JUMP JUMPDEST SWAP7 POP SWAP7 POP POP PUSH1 0x60 DUP10 ADD CALLDATALOAD PUSH8 0xFFFFFFFFFFFFFFFF DUP2 GT ISZERO PUSH2 0x2F2A JUMPI PUSH2 0x2F29 PUSH2 0x282A JUMP JUMPDEST JUMPDEST PUSH2 0x2F36 DUP12 DUP3 DUP13 ADD PUSH2 0x2DEF JUMP JUMPDEST SWAP5 POP SWAP5 POP POP PUSH1 0x80 DUP10 ADD CALLDATALOAD PUSH8 0xFFFFFFFFFFFFFFFF DUP2 GT ISZERO PUSH2 0x2F59 JUMPI PUSH2 0x2F58 PUSH2 0x282A JUMP JUMPDEST JUMPDEST PUSH2 0x2F65 DUP12 DUP3 DUP13 ADD PUSH2 0x2E45 JUMP JUMPDEST SWAP3 POP SWAP3 POP POP SWAP3 SWAP6 SWAP9 POP SWAP3 SWAP6 SWAP9 SWAP1 SWAP4 SWAP7 POP JUMP JUMPDEST PUSH1 0x0 DUP1 PUSH1 0x0 DUP1 PUSH1 0x0 DUP1 PUSH1 0xA0 DUP8 DUP10 SUB SLT ISZERO PUSH2 0x2F94 JUMPI PUSH2 0x2F93 PUSH2 0x2825 JUMP JUMPDEST JUMPDEST PUSH1 0x0 PUSH2 0x2FA2 DUP10 DUP3 DUP11 ADD PUSH2 0x2933 JUMP JUMPDEST SWAP7 POP POP PUSH1 0x20 PUSH2 0x2FB3 DUP10 DUP3 DUP11 ADD PUSH2 0x2933 JUMP JUMPDEST SWAP6 POP POP PUSH1 0x40 PUSH2 0x2FC4 DUP10 DUP3 DUP11 ADD PUSH2 0x295F JUMP JUMPDEST SWAP5 POP POP PUSH1 0x60 PUSH2 0x2FD5 DUP10 DUP3 DUP11 ADD PUSH2 0x295F JUMP JUMPDEST SWAP4 POP POP PUSH1 0x80 DUP8 ADD CALLDATALOAD PUSH8 0xFFFFFFFFFFFFFFFF DUP2 GT ISZERO PUSH2 0x2FF6 JUMPI PUSH2 0x2FF5 PUSH2 0x282A JUMP JUMPDEST JUMPDEST PUSH2 0x3002 DUP10 DUP3 DUP11 ADD PUSH2 0x2E45 JUMP JUMPDEST SWAP3 POP SWAP3 POP POP SWAP3 SWAP6 POP SWAP3 SWAP6 POP SWAP3 SWAP6 JUMP JUMPDEST PUSH1 0x0 DUP1 PUSH1 0x0 PUSH1 0x60 DUP5 DUP7 SUB SLT ISZERO PUSH2 0x302A JUMPI PUSH2 0x3029 PUSH2 0x2825 JUMP JUMPDEST JUMPDEST PUSH1 0x0 PUSH2 0x3038 DUP7 DUP3 DUP8 ADD PUSH2 0x2933 JUMP JUMPDEST SWAP4 POP POP PUSH1 0x20 PUSH2 0x3049 DUP7 DUP3 DUP8 ADD PUSH2 0x295F JUMP JUMPDEST SWAP3 POP POP PUSH1 0x40 DUP5 ADD CALLDATALOAD PUSH8 0xFFFFFFFFFFFFFFFF DUP2 GT ISZERO PUSH2 0x306A JUMPI PUSH2 0x3069 PUSH2 0x282A JUMP JUMPDEST JUMPDEST PUSH2 0x3076 DUP7 DUP3 DUP8 ADD PUSH2 0x2A8C JUMP JUMPDEST SWAP2 POP POP SWAP3 POP SWAP3 POP SWAP3 JUMP JUMPDEST PUSH1 0x0 DUP2 MLOAD SWAP1 POP SWAP2 SWAP1 POP JUMP JUMPDEST PUSH1 0x0 DUP3 DUP3 MSTORE PUSH1 0x20 DUP3 ADD SWAP1 POP SWAP3 SWAP2 POP POP JUMP JUMPDEST PUSH1 0x0 JUMPDEST DUP4 DUP2 LT ISZERO PUSH2 0x30BA JUMPI DUP1 DUP3 ADD MLOAD DUP2 DUP5 ADD MSTORE PUSH1 0x20 DUP2 ADD SWAP1 POP PUSH2 0x309F JUMP JUMPDEST PUSH1 0x0 DUP5 DUP5 ADD MSTORE POP POP POP POP JUMP JUMPDEST PUSH1 0x0 PUSH2 0x30D1 DUP3 PUSH2 0x3080 JUMP JUMPDEST PUSH2 0x30DB DUP2 DUP6 PUSH2 0x308B JUMP JUMPDEST SWAP4 POP PUSH2 0x30EB DUP2 DUP6 PUSH1 0x20 DUP7 ADD PUSH2 0x309C JUMP JUMPDEST PUSH2 0x30F4 DUP2 PUSH2 0x297E JUMP JUMPDEST DUP5 ADD SWAP2 POP POP SWAP3 SWAP2 POP POP JUMP JUMPDEST PUSH1 0x0 PUSH1 0x20 DUP3 ADD SWAP1 POP DUP2 DUP2 SUB PUSH1 0x0 DUP4 ADD MSTORE PUSH2 0x3119 DUP2 DUP5 PUSH2 0x30C6 JUMP JUMPDEST SWAP1 POP SWAP3 SWAP2 POP POP JUMP JUMPDEST PUSH1 0x0 DUP3 DUP3 MSTORE PUSH1 0x20 DUP3 ADD SWAP1 POP SWAP3 SWAP2 POP POP JUMP JUMPDEST PUSH32 0x6F6E6C79206F776E657200000000000000000000000000000000000000000000 PUSH1 0x0 DUP3 ADD MSTORE POP JUMP JUMPDEST PUSH1 0x0 PUSH2 0x3168 PUSH1 0xA DUP4 PUSH2 0x3121 JUMP JUMPDEST SWAP2 POP PUSH2 0x3173 DUP3 PUSH2 0x3132 JUMP JUMPDEST PUSH1 0x20 DUP3 ADD SWAP1 POP SWAP2 SWAP1 POP JUMP JUMPDEST PUSH1 0x0 PUSH1 0x20 DUP3 ADD SWAP1 POP DUP2 DUP2 SUB PUSH1 0x0 DUP4 ADD MSTORE PUSH2 0x3197 DUP2 PUSH2 0x315B JUMP JUMPDEST SWAP1 POP SWAP2 SWAP1 POP JUMP JUMPDEST PUSH32 0x77616C6C6574206973206E6F7420696E207265636F76657279206D6F64650000 PUSH1 0x0 DUP3 ADD MSTORE POP JUMP JUMPDEST PUSH1 0x0 PUSH2 0x31D4 PUSH1 0x1E DUP4 PUSH2 0x3121 JUMP JUMPDEST SWAP2 POP PUSH2 0x31DF DUP3 PUSH2 0x319E JUMP JUMPDEST PUSH1 0x20 DUP3 ADD SWAP1 POP SWAP2 SWAP1 POP JUMP JUMPDEST PUSH1 0x0 PUSH1 0x20 DUP3 ADD SWAP1 POP DUP2 DUP2 SUB PUSH1 0x0 DUP4 ADD MSTORE PUSH2 0x3203 DUP2 PUSH2 0x31C7 JUMP JUMPDEST SWAP1 POP SWAP2 SWAP1 POP JUMP JUMPDEST PUSH32 0x6E6F7420656E6F7567682062616C616E63650000000000000000000000000000 PUSH1 0x0 DUP3 ADD MSTORE POP JUMP JUMPDEST PUSH1 0x0 PUSH2 0x3240 PUSH1 0x12 DUP4 PUSH2 0x3121 JUMP JUMPDEST SWAP2 POP PUSH2 0x324B DUP3 PUSH2 0x320A JUMP JUMPDEST PUSH1 0x20 DUP3 ADD SWAP1 POP SWAP2 SWAP1 POP JUMP JUMPDEST PUSH1 0x0 PUSH1 0x20 DUP3 ADD SWAP1 POP DUP2 DUP2 SUB PUSH1 0x0 DUP4 ADD MSTORE PUSH2 0x326F DUP2 PUSH2 0x3233 JUMP JUMPDEST SWAP1 POP SWAP2 SWAP1 POP JUMP JUMPDEST PUSH1 0x0 DUP2 PUSH1 0x60 SHL SWAP1 POP SWAP2 SWAP1 POP JUMP JUMPDEST PUSH1 0x0 PUSH2 0x328E DUP3 PUSH2 0x3276 JUMP JUMPDEST SWAP1 POP SWAP2 SWAP1 POP JUMP JUMPDEST PUSH1 0x0 PUSH2 0x32A0 DUP3 PUSH2 0x3283 JUMP JUMPDEST SWAP1 POP SWAP2 SWAP1 POP JUMP JUMPDEST PUSH2 0x32B8 PUSH2 0x32B3 DUP3 PUSH2 0x290A JUMP JUMPDEST PUSH2 0x3295 JUMP JUMPDEST DUP3 MSTORE POP POP JUMP JUMPDEST PUSH1 0x0 PUSH2 0x32CA DUP3 DUP5 PUSH2 0x32A7 JUMP JUMPDEST PUSH1 0x14 DUP3 ADD SWAP2 POP DUP2 SWAP1 POP SWAP3 SWAP2 POP POP JUMP JUMPDEST PUSH32 0x6F6E6C7920677561726469616E00000000000000000000000000000000000000 PUSH1 0x0 DUP3 ADD MSTORE POP JUMP JUMPDEST PUSH1 0x0 PUSH2 0x330F PUSH1 0xD DUP4 PUSH2 0x3121 JUMP JUMPDEST SWAP2 POP PUSH2 0x331A DUP3 PUSH2 0x32D9 JUMP JUMPDEST PUSH1 0x20 DUP3 ADD SWAP1 POP SWAP2 SWAP1 POP JUMP JUMPDEST PUSH1 0x0 PUSH1 0x20 DUP3 ADD SWAP1 POP DUP2 DUP2 SUB PUSH1 0x0 DUP4 ADD MSTORE PUSH2 0x333E DUP2 PUSH2 0x3302 JUMP JUMPDEST SWAP1 POP SWAP2 SWAP1 POP JUMP JUMPDEST PUSH32 0x6D6F726520677561726469616E7320726571756972656420746F207472616E73 PUSH1 0x0 DUP3 ADD MSTORE PUSH32 0x666572206F776E65727368697000000000000000000000000000000000000000 PUSH1 0x20 DUP3 ADD MSTORE POP JUMP JUMPDEST PUSH1 0x0 PUSH2 0x33A1 PUSH1 0x2D DUP4 PUSH2 0x3121 JUMP JUMPDEST SWAP2 POP PUSH2 0x33AC DUP3 PUSH2 0x3345 JUMP JUMPDEST PUSH1 0x40 DUP3 ADD SWAP1 POP SWAP2 SWAP1 POP JUMP JUMPDEST PUSH1 0x0 PUSH1 0x20 DUP3 ADD SWAP1 POP DUP2 DUP2 SUB PUSH1 0x0 DUP4 ADD MSTORE PUSH2 0x33D0 DUP2 PUSH2 0x3394 JUMP JUMPDEST SWAP1 POP SWAP2 SWAP1 POP JUMP JUMPDEST PUSH1 0x0 PUSH1 0x40 DUP3 ADD SWAP1 POP PUSH2 0x33EC PUSH1 0x0 DUP4 ADD DUP6 PUSH2 0x2B94 JUMP JUMPDEST PUSH2 0x33F9 PUSH1 0x20 DUP4 ADD DUP5 PUSH2 0x2B94 JUMP JUMPDEST SWAP4 SWAP3 POP POP POP JUMP JUMPDEST PUSH32 0x677561726469616E2069736E27742071756575656420666F722072656D6F7661 PUSH1 0x0 DUP3 ADD MSTORE PUSH32 0x6C00000000000000000000000000000000000000000000000000000000000000 PUSH1 0x20 DUP3 ADD MSTORE POP JUMP JUMPDEST PUSH1 0x0 PUSH2 0x345C PUSH1 0x21 DUP4 PUSH2 0x3121 JUMP JUMPDEST SWAP2 POP PUSH2 0x3467 DUP3 PUSH2 0x3400 JUMP JUMPDEST PUSH1 0x40 DUP3 ADD SWAP1 POP SWAP2 SWAP1 POP JUMP JUMPDEST PUSH1 0x0 PUSH1 0x20 DUP3 ADD SWAP1 POP DUP2 DUP2 SUB PUSH1 0x0 DUP4 ADD MSTORE PUSH2 0x348B DUP2 PUSH2 0x344F JUMP JUMPDEST SWAP1 POP SWAP2 SWAP1 POP JUMP JUMPDEST PUSH32 0x74696D652064656C617920686173206E6F742070617373656400000000000000 PUSH1 0x0 DUP3 ADD MSTORE POP JUMP JUMPDEST PUSH1 0x0 PUSH2 0x34C8 PUSH1 0x19 DUP4 PUSH2 0x3121 JUMP JUMPDEST SWAP2 POP PUSH2 0x34D3 DUP3 PUSH2 0x3492 JUMP JUMPDEST PUSH1 0x20 DUP3 ADD SWAP1 POP SWAP2 SWAP1 POP JUMP JUMPDEST PUSH1 0x0 PUSH1 0x20 DUP3 ADD SWAP1 POP DUP2 DUP2 SUB PUSH1 0x0 DUP4 ADD MSTORE PUSH2 0x34F7 DUP2 PUSH2 0x34BB JUMP JUMPDEST SWAP1 POP SWAP2 SWAP1 POP JUMP JUMPDEST PUSH32 0x4E487B7100000000000000000000000000000000000000000000000000000000 PUSH1 0x0 MSTORE PUSH1 0x11 PUSH1 0x4 MSTORE PUSH1 0x24 PUSH1 0x0 REVERT JUMPDEST PUSH1 0x0 PUSH2 0x3538 DUP3 PUSH2 0x27E7 JUMP JUMPDEST SWAP2 POP PUSH32 0xFFFFFFFFFFFFFFFFFFFFFFFFFFFFFFFFFFFFFFFFFFFFFFFFFFFFFFFFFFFFFFFF DUP3 SUB PUSH2 0x356A JUMPI PUSH2 0x3569 PUSH2 0x34FE JUMP JUMPDEST JUMPDEST PUSH1 0x1 DUP3 ADD SWAP1 POP SWAP2 SWAP1 POP JUMP JUMPDEST PUSH32 0x4E487B7100000000000000000000000000000000000000000000000000000000 PUSH1 0x0 MSTORE PUSH1 0x32 PUSH1 0x4 MSTORE PUSH1 0x24 PUSH1 0x0 REVERT JUMPDEST PUSH32 0x726F756E64206D69736D61746368000000000000000000000000000000000000 PUSH1 0x0 DUP3 ADD MSTORE POP JUMP JUMPDEST PUSH1 0x0 PUSH2 0x35DA PUSH1 0xE DUP4 PUSH2 0x3121 JUMP JUMPDEST SWAP2 POP PUSH2 0x35E5 DUP3 PUSH2 0x35A4 JUMP JUMPDEST PUSH1 0x20 DUP3 ADD SWAP1 POP SWAP2 SWAP1 POP JUMP JUMPDEST PUSH1 0x0 PUSH1 0x20 DUP3 ADD SWAP1 POP DUP2 DUP2 SUB PUSH1 0x0 DUP4 ADD MSTORE PUSH2 0x3609 DUP2 PUSH2 0x35CD JUMP JUMPDEST SWAP1 POP SWAP2 SWAP1 POP JUMP JUMPDEST PUSH32 0x64697361677265656D656E74206F6E206E6577206F776E657200000000000000 PUSH1 0x0 DUP3 ADD MSTORE POP JUMP JUMPDEST PUSH1 0x0 PUSH2 0x3646 PUSH1 0x19 DUP4 PUSH2 0x3121 JUMP JUMPDEST SWAP2 POP PUSH2 0x3651 DUP3 PUSH2 0x3610 JUMP JUMPDEST PUSH1 0x20 DUP3 ADD SWAP1 POP SWAP2 SWAP1 POP JUMP JUMPDEST PUSH1 0x0 PUSH1 0x20 DUP3 ADD SWAP1 POP DUP2 DUP2 SUB PUSH1 0x0 DUP4 ADD MSTORE PUSH2 0x3675 DUP2 PUSH2 0x3639 JUMP JUMPDEST SWAP1 POP SWAP2 SWAP1 POP JUMP JUMPDEST PUSH32 0x6475706C696361746520677561726469616E207573656420696E207265636F76 PUSH1 0x0 DUP3 ADD MSTORE PUSH32 0x6572790000000000000000000000000000000000000000000000000000000000 PUSH1 0x20 DUP3 ADD MSTORE POP JUMP JUMPDEST PUSH1 0x0 PUSH2 0x36D8 PUSH1 0x23 DUP4 PUSH2 0x3121 JUMP JUMPDEST SWAP2 POP PUSH2 0x36E3 DUP3 PUSH2 0x367C JUMP JUMPDEST PUSH1 0x40 DUP3 ADD SWAP1 POP SWAP2 SWAP1 POP JUMP JUMPDEST PUSH1 0x0 PUSH1 0x20 DUP3 ADD SWAP1 POP DUP2 DUP2 SUB PUSH1 0x0 DUP4 ADD MSTORE PUSH2 0x3707 DUP2 PUSH2 0x36CB JUMP JUMPDEST SWAP1 POP SWAP2 SWAP1 POP JUMP JUMPDEST PUSH32 0x63616E6E6F742072656D6F766520677561726469616E20647572696E67207265 PUSH1 0x0 DUP3 ADD MSTORE PUSH32 0x636F766572790000000000000000000000000000000000000000000000000000 PUSH1 0x20 DUP3 ADD MSTORE POP JUMP JUMPDEST PUSH1 0x0 PUSH2 0x376A PUSH1 0x26 DUP4 PUSH2 0x3121 JUMP JUMPDEST SWAP2 POP PUSH2 0x3775 DUP3 PUSH2 0x370E JUMP JUMPDEST PUSH1 0x40 DUP3 ADD SWAP1 POP SWAP2 SWAP1 POP JUMP JUMPDEST PUSH1 0x0 PUSH1 0x20 DUP3 ADD SWAP1 POP DUP2 DUP2 SUB PUSH1 0x0 DUP4 ADD MSTORE PUSH2 0x3799 DUP2 PUSH2 0x375D JUMP JUMPDEST SWAP1 POP SWAP2 SWAP1 POP JUMP JUMPDEST PUSH1 0x0 PUSH2 0x37AB DUP3 PUSH2 0x27E7 JUMP JUMPDEST SWAP2 POP PUSH2 0x37B6 DUP4 PUSH2 0x27E7 JUMP JUMPDEST SWAP3 POP DUP3 DUP3 SUB SWAP1 POP DUP2 DUP2 GT ISZERO PUSH2 0x37CE JUMPI PUSH2 0x37CD PUSH2 0x34FE JUMP JUMPDEST JUMPDEST SWAP3 SWAP2 POP POP JUMP JUMPDEST PUSH32 0x63616E6E6F742072656D6F766520677561726469616E00000000000000000000 PUSH1 0x0 DUP3 ADD MSTORE POP JUMP JUMPDEST PUSH1 0x0 PUSH2 0x380A PUSH1 0x16 DUP4 PUSH2 0x3121 JUMP JUMPDEST SWAP2 POP PUSH2 0x3815 DUP3 PUSH2 0x37D4 JUMP JUMPDEST PUSH1 0x20 DUP3 ADD SWAP1 POP SWAP2 SWAP1 POP JUMP JUMPDEST PUSH1 0x0 PUSH1 0x20 DUP3 ADD SWAP1 POP DUP2 DUP2 SUB PUSH1 0x0 DUP4 ADD MSTORE PUSH2 0x3839 DUP2 PUSH2 0x37FD JUMP JUMPDEST SWAP1 POP SWAP2 SWAP1 POP JUMP JUMPDEST PUSH1 0x0 PUSH2 0x384B DUP3 PUSH2 0x27E7 JUMP JUMPDEST SWAP2 POP PUSH1 0x0 DUP3 SUB PUSH2 0x385E JUMPI PUSH2 0x385D PUSH2 0x34FE JUMP JUMPDEST JUMPDEST PUSH1 0x1 DUP3 SUB SWAP1 POP SWAP2 SWAP1 POP JUMP JUMPDEST PUSH32 0x77616C6C657420697320696E207265636F76657279206D6F6465000000000000 PUSH1 0x0 DUP3 ADD MSTORE POP JUMP JUMPDEST PUSH1 0x0 PUSH2 0x389F PUSH1 0x1A DUP4 PUSH2 0x3121 JUMP JUMPDEST SWAP2 POP PUSH2 0x38AA DUP3 PUSH2 0x3869 JUMP JUMPDEST PUSH1 0x20 DUP3 ADD SWAP1 POP SWAP2 SWAP1 POP JUMP JUMPDEST PUSH1 0x0 PUSH1 0x20 DUP3 ADD SWAP1 POP DUP2 DUP2 SUB PUSH1 0x0 DUP4 ADD MSTORE PUSH2 0x38CE DUP2 PUSH2 0x3892 JUMP JUMPDEST SWAP1 POP SWAP2 SWAP1 POP JUMP JUMPDEST PUSH32 0x6E6F74206120677561726469616E000000000000000000000000000000000000 PUSH1 0x0 DUP3 ADD MSTORE POP JUMP JUMPDEST PUSH1 0x0 PUSH2 0x390B PUSH1 0xE DUP4 PUSH2 0x3121 JUMP JUMPDEST SWAP2 POP PUSH2 0x3916 DUP3 PUSH2 0x38D5 JUMP JUMPDEST PUSH1 0x20 DUP3 ADD SWAP1 POP SWAP2 SWAP1 POP JUMP JUMPDEST PUSH1 0x0 PUSH1 0x20 DUP3 ADD SWAP1 POP DUP2 DUP2 SUB PUSH1 0x0 DUP4 ADD MSTORE PUSH2 0x393A DUP2 PUSH2 0x38FE JUMP JUMPDEST SWAP1 POP SWAP2 SWAP1 POP JUMP JUMPDEST PUSH1 0x0 PUSH2 0x394C DUP3 PUSH2 0x27E7 JUMP JUMPDEST SWAP2 POP PUSH2 0x3957 DUP4 PUSH2 0x27E7 JUMP JUMPDEST SWAP3 POP DUP3 DUP3 ADD SWAP1 POP DUP1 DUP3 GT ISZERO PUSH2 0x396F JUMPI PUSH2 0x396E PUSH2 0x34FE JUMP JUMPDEST JUMPDEST SWAP3 SWAP2 POP POP JUMP JUMPDEST PUSH32 0x677561726469616E207175657565756420666F722072656D6F76616C2C206361 PUSH1 0x0 DUP3 ADD MSTORE PUSH32 0x6E6E6F74207472616E7366657220677561726469616E73686970000000000000 PUSH1 0x20 DUP3 ADD MSTORE POP JUMP JUMPDEST PUSH1 0x0 PUSH2 0x39D1 PUSH1 0x3A DUP4 PUSH2 0x3121 JUMP JUMPDEST SWAP2 POP PUSH2 0x39DC DUP3 PUSH2 0x3975 JUMP JUMPDEST PUSH1 0x40 DUP3 ADD SWAP1 POP SWAP2 SWAP1 POP JUMP JUMPDEST PUSH1 0x0 PUSH1 0x20 DUP3 ADD SWAP1 POP DUP2 DUP2 SUB PUSH1 0x0 DUP4 ADD MSTORE PUSH2 0x3A00 DUP2 PUSH2 0x39C4 JUMP JUMPDEST SWAP1 POP SWAP2 SWAP1 POP JUMP JUMPDEST PUSH1 0x0 DUP2 SWAP1 POP SWAP3 SWAP2 POP POP JUMP JUMPDEST PUSH1 0x0 PUSH2 0x3A1D DUP3 PUSH2 0x3080 JUMP JUMPDEST PUSH2 0x3A27 DUP2 DUP6 PUSH2 0x3A07 JUMP JUMPDEST SWAP4 POP PUSH2 0x3A37 DUP2 DUP6 PUSH1 0x20 DUP7 ADD PUSH2 0x309C JUMP JUMPDEST DUP1 DUP5 ADD SWAP2 POP POP SWAP3 SWAP2 POP POP JUMP JUMPDEST PUSH1 0x0 PUSH2 0x3A4F DUP3 DUP5 PUSH2 0x3A12 JUMP JUMPDEST SWAP2 POP DUP2 SWAP1 POP SWAP3 SWAP2 POP POP JUMP JUMPDEST PUSH32 0x65787465726E616C2063616C6C20726576657274656400000000000000000000 PUSH1 0x0 DUP3 ADD MSTORE POP JUMP JUMPDEST PUSH1 0x0 PUSH2 0x3A90 PUSH1 0x16 DUP4 PUSH2 0x3121 JUMP JUMPDEST SWAP2 POP PUSH2 0x3A9B DUP3 PUSH2 0x3A5A JUMP JUMPDEST PUSH1 0x20 DUP3 ADD SWAP1 POP SWAP2 SWAP1 POP JUMP JUMPDEST PUSH1 0x0 PUSH1 0x20 DUP3 ADD SWAP1 POP DUP2 DUP2 SUB PUSH1 0x0 DUP4 ADD MSTORE PUSH2 0x3ABF DUP2 PUSH2 0x3A83 JUMP JUMPDEST SWAP1 POP SWAP2 SWAP1 POP JUMP JUMPDEST PUSH1 0x0 PUSH1 0x40 DUP3 ADD SWAP1 POP PUSH2 0x3ADB PUSH1 0x0 DUP4 ADD DUP6 PUSH2 0x27F1 JUMP JUMPDEST DUP2 DUP2 SUB PUSH1 0x20 DUP4 ADD MSTORE PUSH2 0x3AED DUP2 DUP5 PUSH2 0x30C6 JUMP JUMPDEST SWAP1 POP SWAP4 SWAP3 POP POP POP JUMP JUMPDEST PUSH32 0x5265656E7472616E637947756172643A207265656E7472616E742063616C6C00 PUSH1 0x0 DUP3 ADD MSTORE POP JUMP JUMPDEST PUSH1 0x0 PUSH2 0x3B2C PUSH1 0x1F DUP4 PUSH2 0x3121 JUMP JUMPDEST SWAP2 POP PUSH2 0x3B37 DUP3 PUSH2 0x3AF6 JUMP JUMPDEST PUSH1 0x20 DUP3 ADD SWAP1 POP SWAP2 SWAP1 POP JUMP JUMPDEST PUSH1 0x0 PUSH1 0x20 DUP3 ADD SWAP1 POP DUP2 DUP2 SUB PUSH1 0x0 DUP4 ADD MSTORE PUSH2 0x3B5B DUP2 PUSH2 0x3B1F JUMP JUMPDEST SWAP1 POP SWAP2 SWAP1 POP JUMP INVALID LOG2 PUSH5 0x6970667358 0x22 SLT KECCAK256 SMOD 0xA9 AND TIMESTAMP MULMOD 0xC7 EQ 0x5C 0xA5 SWAP13 DIV 0x5C KECCAK256 SHR DUP1 0x2D SWAP13 LOG0 0xC PUSH8 0xE985227123B1C232 SUB 0xDE 0xF8 BASEFEE PUSH5 0x736F6C6343 STOP ADDMOD GT STOP CALLER "},"methodIdentifiers":{"addGuardian(address)":"a526d83b","cancelGuardianRemoval(bytes32)":"91e8715f","cancelRecovery()":"0ba234d6","currRecoveryRound()":"ace7c993","deposit()":"d0e30db0","executeExternalTx(address,uint256,bytes)":"f48bf4c3","executeGuardianRemoval(bytes32,bytes32)":"3c7ca796","executeRecovery(address)":"3bc2c4a7","executeRecovery(address,address[])":"5fc489a7","getBalance()":"12065fe0","getGuardianHash(address)":"7d2b51d3","getGuardianRecovery(address)":"22edecd6","getNewOwnerVoteCount(uint256,address)":"61253df9","getRecoveryRound()":"4d822c3d","guardianHashToRemovalTimestamp(bytes32)":"361ad252","guardianLength()":"e42c264f","guardianToRecovery(address)":"a079e2a1","inRecovery()":"f05151df","initiateGuardianRemoval(bytes32)":"daafaa75","initiateRecovery(address)":"d5ce9aad","isGuardian(bytes32)":"c42fe50a","onERC1155BatchReceived(address,address,uint256[],uint256[],bytes)":"bc197c81","onERC1155Received(address,address,uint256,uint256,bytes)":"f23a6e61","onERC721Received(address,address,uint256,bytes)":"150b7a02","owner()":"8da5cb5b","recoveryRounds(uint256)":"7c725e9a","removeGuardian(address)":"71404156","revealGuardianIdentity()":"a774f412","supportRecovery(address)":"57e685bc","supportsInterface(bytes4)":"01ffc9a7","threshold()":"42cde4e8","transferGuardianship(bytes32)":"df6204ae","withdraw(uint256)":"2e1a7d4d"}}}}}