{
  "_format": "hh-sol-artifact-1",
  "contractName": "Hash",
  "sourceName": "contracts/utils/Hash.sol",
  "abi": [
    {
      "inputs": [
        {
          "internalType": "address",
          "name": "addr",
          "type": "address"
        }
      ],
      "name": "getHashOf",
      "outputs": [
        {
          "internalType": "bytes32",
          "name": "",
          "type": "bytes32"
        }
      ],
      "stateMutability": "pure",
      "type": "function"
    }
  ],
  "bytecode": "0x608060405234801561001057600080fd5b506101ed806100206000396000f3fe608060405234801561001057600080fd5b506004361061002b5760003560e01c8063bb43a11e14610030575b600080fd5b61004a600480360381019061004591906100f3565b610060565b6040516100579190610139565b60405180910390f35b600081604051602001610073919061019c565b604051602081830303815290604052805190602001209050919050565b600080fd5b600073ffffffffffffffffffffffffffffffffffffffff82169050919050565b60006100c082610095565b9050919050565b6100d0816100b5565b81146100db57600080fd5b50565b6000813590506100ed816100c7565b92915050565b60006020828403121561010957610108610090565b5b6000610117848285016100de565b91505092915050565b6000819050919050565b61013381610120565b82525050565b600060208201905061014e600083018461012a565b92915050565b60008160601b9050919050565b600061016c82610154565b9050919050565b600061017e82610161565b9050919050565b610196610191826100b5565b610173565b82525050565b60006101a88284610185565b6014820191508190509291505056fea2646970667358221220c9d0144fcf9d3f1164ee70dee596d3fb50d8cec35d3c785a8f795c48e838e19464736f6c63430008110033",
  "linkReferences": {},
  "deployedLinkReferences": {}
}