{
  "_format": "hh-sol-artifact-1",
  "contractName": "Wallet",
  "sourceName": "contracts/Wallet.sol",
  "abi": [
    {
      "inputs": [
        {
          "internalType": "bytes32[]",
          "name": "guardianAddrHashes",
          "type": "bytes32[]"
        },
        {
          "internalType": "uint256",
          "name": "_threshold",
          "type": "uint256"
        }
      ],
      "stateMutability": "nonpayable",
      "type": "constructor"
    },
    {
      "anonymous": false,
      "inputs": [
        {
          "indexed": true,
          "internalType": "address",
          "name": "from",
          "type": "address"
        },
        {
          "indexed": false,
          "internalType": "uint256",
          "name": "value",
          "type": "uint256"
        }
      ],
      "name": "Deposit",
      "type": "event"
    },
    {
      "anonymous": false,
      "inputs": [
        {
          "indexed": true,
          "internalType": "bytes32",
          "name": "guardianHash",
          "type": "bytes32"
        },
        {
          "indexed": true,
          "internalType": "address",
          "name": "guardianAddr",
          "type": "address"
        }
      ],
      "name": "GuardianAdded",
      "type": "event"
    },
    {
      "anonymous": false,
      "inputs": [
        {
          "indexed": true,
          "internalType": "bytes32",
          "name": "oldGuardianHash",
          "type": "bytes32"
        },
        {
          "indexed": true,
          "internalType": "bytes32",
          "name": "newGuardianHash",
          "type": "bytes32"
        }
      ],
      "name": "GuardianChanged",
      "type": "event"
    },
    {
      "anonymous": false,
      "inputs": [
        {
          "indexed": true,
          "internalType": "bytes32",
          "name": "guardianHash",
          "type": "bytes32"
        }
      ],
      "name": "GuardianRemovalQueued",
      "type": "event"
    },
    {
      "anonymous": false,
      "inputs": [
        {
          "indexed": true,
          "internalType": "bytes32",
          "name": "guardianHash",
          "type": "bytes32"
        }
      ],
      "name": "GuardianRemoved",
      "type": "event"
    },
    {
      "anonymous": false,
      "inputs": [
        {
          "indexed": true,
          "internalType": "bytes32",
          "name": "guardianHash",
          "type": "bytes32"
        },
        {
          "indexed": true,
          "internalType": "address",
          "name": "guardianAddr",
          "type": "address"
        }
      ],
      "name": "GuardianRevealed",
      "type": "event"
    },
    {
      "anonymous": false,
      "inputs": [
        {
          "indexed": true,
          "internalType": "address",
          "name": "from",
          "type": "address"
        },
        {
          "indexed": true,
          "internalType": "bytes32",
          "name": "newGuardianHash",
          "type": "bytes32"
        }
      ],
      "name": "GuardinshipTransferred",
      "type": "event"
    },
    {
      "anonymous": false,
      "inputs": [
        {
          "indexed": false,
          "internalType": "address",
          "name": "by",
          "type": "address"
        },
        {
          "indexed": true,
          "internalType": "uint256",
          "name": "round",
          "type": "uint256"
        }
      ],
      "name": "RecoveryCancelled",
      "type": "event"
    },
    {
      "anonymous": false,
      "inputs": [
        {
          "indexed": false,
          "internalType": "address",
          "name": "oldOwner",
          "type": "address"
        },
        {
          "indexed": false,
          "internalType": "address",
          "name": "newOwner",
          "type": "address"
        },
        {
          "indexed": true,
          "internalType": "uint256",
          "name": "round",
          "type": "uint256"
        }
      ],
      "name": "RecoveryExecuted",
      "type": "event"
    },
    {
      "anonymous": false,
      "inputs": [
        {
          "indexed": true,
          "internalType": "address",
          "name": "by",
          "type": "address"
        },
        {
          "indexed": false,
          "internalType": "address",
          "name": "newProposedOwner",
          "type": "address"
        },
        {
          "indexed": true,
          "internalType": "uint256",
          "name": "round",
          "type": "uint256"
        }
      ],
      "name": "RecoveryInitiated",
      "type": "event"
    },
    {
      "anonymous": false,
      "inputs": [
        {
          "indexed": false,
          "internalType": "address",
          "name": "by",
          "type": "address"
        },
        {
          "indexed": false,
          "internalType": "address",
          "name": "newProposedOwner",
          "type": "address"
        },
        {
          "indexed": true,
          "internalType": "uint256",
          "name": "round",
          "type": "uint256"
        }
      ],
      "name": "RecoverySupported",
      "type": "event"
    },
    {
      "anonymous": false,
      "inputs": [
        {
          "indexed": true,
          "internalType": "address",
          "name": "callee",
          "type": "address"
        },
        {
          "indexed": false,
          "internalType": "uint256",
          "name": "value",
          "type": "uint256"
        },
        {
          "indexed": false,
          "internalType": "bytes",
          "name": "data",
          "type": "bytes"
        }
      ],
      "name": "TransactionExecuted",
      "type": "event"
    },
    {
      "anonymous": false,
      "inputs": [
        {
          "indexed": true,
          "internalType": "address",
          "name": "to",
          "type": "address"
        },
        {
          "indexed": false,
          "internalType": "uint256",
          "name": "value",
          "type": "uint256"
        }
      ],
      "name": "Withdraw",
      "type": "event"
    },
    {
      "stateMutability": "payable",
      "type": "fallback"
    },
    {
      "inputs": [
        {
          "internalType": "address",
          "name": "guardian",
          "type": "address"
        }
      ],
      "name": "addGuardian",
      "outputs": [],
      "stateMutability": "nonpayable",
      "type": "function"
    },
    {
      "inputs": [
        {
          "internalType": "bytes32",
          "name": "guardianHash",
          "type": "bytes32"
        }
      ],
      "name": "cancelGuardianRemoval",
      "outputs": [],
      "stateMutability": "nonpayable",
      "type": "function"
    },
    {
      "inputs": [],
      "name": "cancelRecovery",
      "outputs": [],
      "stateMutability": "nonpayable",
      "type": "function"
    },
    {
      "inputs": [],
      "name": "currRecoveryRound",
      "outputs": [
        {
          "internalType": "uint256",
          "name": "",
          "type": "uint256"
        }
      ],
      "stateMutability": "view",
      "type": "function"
    },
    {
      "inputs": [],
      "name": "deposit",
      "outputs": [],
      "stateMutability": "payable",
      "type": "function"
    },
    {
      "inputs": [
        {
          "internalType": "address",
          "name": "callee",
          "type": "address"
        },
        {
          "internalType": "uint256",
          "name": "value",
          "type": "uint256"
        },
        {
          "internalType": "bytes",
          "name": "data",
          "type": "bytes"
        }
      ],
      "name": "executeExternalTx",
      "outputs": [
        {
          "internalType": "bytes",
          "name": "",
          "type": "bytes"
        }
      ],
      "stateMutability": "nonpayable",
      "type": "function"
    },
    {
      "inputs": [
        {
          "internalType": "bytes32",
          "name": "oldGuardianHash",
          "type": "bytes32"
        },
        {
          "internalType": "bytes32",
          "name": "newGuardianHash",
          "type": "bytes32"
        }
      ],
      "name": "executeGuardianRemoval",
      "outputs": [],
      "stateMutability": "nonpayable",
      "type": "function"
    },
    {
      "inputs": [
        {
          "internalType": "address",
          "name": "newOwner",
          "type": "address"
        }
      ],
      "name": "executeRecovery",
      "outputs": [],
      "stateMutability": "nonpayable",
      "type": "function"
    },
    {
      "inputs": [
        {
          "internalType": "address",
          "name": "newOwner",
          "type": "address"
        },
        {
          "internalType": "address[]",
          "name": "guardianList",
          "type": "address[]"
        }
      ],
      "name": "executeRecovery",
      "outputs": [],
      "stateMutability": "nonpayable",
      "type": "function"
    },
    {
      "inputs": [],
      "name": "getBalance",
      "outputs": [
        {
          "internalType": "uint256",
          "name": "",
          "type": "uint256"
        }
      ],
      "stateMutability": "view",
      "type": "function"
    },
    {
      "inputs": [
        {
          "internalType": "address",
          "name": "guardian",
          "type": "address"
        }
      ],
      "name": "getGuardianHash",
      "outputs": [
        {
          "internalType": "bytes32",
          "name": "",
          "type": "bytes32"
        }
      ],
      "stateMutability": "pure",
      "type": "function"
    },
    {
      "inputs": [
        {
          "internalType": "address",
          "name": "guardian",
          "type": "address"
        }
      ],
      "name": "getGuardianRecovery",
      "outputs": [
        {
          "internalType": "address",
          "name": "",
          "type": "address"
        },
        {
          "internalType": "uint256",
          "name": "",
          "type": "uint256"
        },
        {
          "internalType": "bool",
          "name": "",
          "type": "bool"
        }
      ],
      "stateMutability": "view",
      "type": "function"
    },
    {
      "inputs": [
        {
          "internalType": "uint256",
          "name": "recoveryRoundNum",
          "type": "uint256"
        },
        {
          "internalType": "address",
          "name": "newOwnerAddress",
          "type": "address"
        }
      ],
      "name": "getNewOwnerVoteCount",
      "outputs": [
        {
          "internalType": "uint256",
          "name": "",
          "type": "uint256"
        }
      ],
      "stateMutability": "view",
      "type": "function"
    },
    {
      "inputs": [],
      "name": "getRecoveryRound",
      "outputs": [
        {
          "internalType": "uint256",
          "name": "",
          "type": "uint256"
        }
      ],
      "stateMutability": "view",
      "type": "function"
    },
    {
      "inputs": [
        {
          "internalType": "bytes32",
          "name": "",
          "type": "bytes32"
        }
      ],
      "name": "guardianHashToRemovalTimestamp",
      "outputs": [
        {
          "internalType": "uint256",
          "name": "",
          "type": "uint256"
        }
      ],
      "stateMutability": "view",
      "type": "function"
    },
    {
      "inputs": [],
      "name": "guardianLength",
      "outputs": [
        {
          "internalType": "uint256",
          "name": "",
          "type": "uint256"
        }
      ],
      "stateMutability": "view",
      "type": "function"
    },
    {
      "inputs": [
        {
          "internalType": "address",
          "name": "",
          "type": "address"
        }
      ],
      "name": "guardianToRecovery",
      "outputs": [
        {
          "internalType": "address",
          "name": "proposedOwner",
          "type": "address"
        },
        {
          "internalType": "uint256",
          "name": "recoveryRound",
          "type": "uint256"
        },
        {
          "internalType": "bool",
          "name": "usedInExecuteRecovery",
          "type": "bool"
        }
      ],
      "stateMutability": "view",
      "type": "function"
    },
    {
      "inputs": [],
      "name": "inRecovery",
      "outputs": [
        {
          "internalType": "bool",
          "name": "",
          "type": "bool"
        }
      ],
      "stateMutability": "view",
      "type": "function"
    },
    {
      "inputs": [
        {
          "internalType": "bytes32",
          "name": "guardianHash",
          "type": "bytes32"
        }
      ],
      "name": "initiateGuardianRemoval",
      "outputs": [],
      "stateMutability": "nonpayable",
      "type": "function"
    },
    {
      "inputs": [
        {
          "internalType": "address",
          "name": "_proposedOwner",
          "type": "address"
        }
      ],
      "name": "initiateRecovery",
      "outputs": [],
      "stateMutability": "nonpayable",
      "type": "function"
    },
    {
      "inputs": [
        {
          "internalType": "bytes32",
          "name": "",
          "type": "bytes32"
        }
      ],
      "name": "isGuardian",
      "outputs": [
        {
          "internalType": "bool",
          "name": "",
          "type": "bool"
        }
      ],
      "stateMutability": "view",
      "type": "function"
    },
    {
      "inputs": [
        {
          "internalType": "address",
          "name": "",
          "type": "address"
        },
        {
          "internalType": "address",
          "name": "",
          "type": "address"
        },
        {
          "internalType": "uint256[]",
          "name": "",
          "type": "uint256[]"
        },
        {
          "internalType": "uint256[]",
          "name": "",
          "type": "uint256[]"
        },
        {
          "internalType": "bytes",
          "name": "",
          "type": "bytes"
        }
      ],
      "name": "onERC1155BatchReceived",
      "outputs": [
        {
          "internalType": "bytes4",
          "name": "",
          "type": "bytes4"
        }
      ],
      "stateMutability": "pure",
      "type": "function"
    },
    {
      "inputs": [
        {
          "internalType": "address",
          "name": "",
          "type": "address"
        },
        {
          "internalType": "address",
          "name": "",
          "type": "address"
        },
        {
          "internalType": "uint256",
          "name": "",
          "type": "uint256"
        },
        {
          "internalType": "uint256",
          "name": "",
          "type": "uint256"
        },
        {
          "internalType": "bytes",
          "name": "",
          "type": "bytes"
        }
      ],
      "name": "onERC1155Received",
      "outputs": [
        {
          "internalType": "bytes4",
          "name": "",
          "type": "bytes4"
        }
      ],
      "stateMutability": "pure",
      "type": "function"
    },
    {
      "inputs": [
        {
          "internalType": "address",
          "name": "",
          "type": "address"
        },
        {
          "internalType": "address",
          "name": "",
          "type": "address"
        },
        {
          "internalType": "uint256",
          "name": "",
          "type": "uint256"
        },
        {
          "internalType": "bytes",
          "name": "",
          "type": "bytes"
        }
      ],
      "name": "onERC721Received",
      "outputs": [
        {
          "internalType": "bytes4",
          "name": "",
          "type": "bytes4"
        }
      ],
      "stateMutability": "pure",
      "type": "function"
    },
    {
      "inputs": [],
      "name": "owner",
      "outputs": [
        {
          "internalType": "address",
          "name": "",
          "type": "address"
        }
      ],
      "stateMutability": "view",
      "type": "function"
    },
    {
      "inputs": [
        {
          "internalType": "uint256",
          "name": "",
          "type": "uint256"
        }
      ],
      "name": "recoveryRounds",
      "outputs": [
        {
          "internalType": "uint256",
          "name": "round",
          "type": "uint256"
        }
      ],
      "stateMutability": "view",
      "type": "function"
    },
    {
      "inputs": [
        {
          "internalType": "address",
          "name": "guardian",
          "type": "address"
        }
      ],
      "name": "removeGuardian",
      "outputs": [],
      "stateMutability": "nonpayable",
      "type": "function"
    },
    {
      "inputs": [],
      "name": "revealGuardianIdentity",
      "outputs": [],
      "stateMutability": "nonpayable",
      "type": "function"
    },
    {
      "inputs": [
        {
          "internalType": "address",
          "name": "_proposedOwner",
          "type": "address"
        }
      ],
      "name": "supportRecovery",
      "outputs": [],
      "stateMutability": "nonpayable",
      "type": "function"
    },
    {
      "inputs": [
        {
          "internalType": "bytes4",
          "name": "interfaceId",
          "type": "bytes4"
        }
      ],
      "name": "supportsInterface",
      "outputs": [
        {
          "internalType": "bool",
          "name": "",
          "type": "bool"
        }
      ],
      "stateMutability": "pure",
      "type": "function"
    },
    {
      "inputs": [],
      "name": "threshold",
      "outputs": [
        {
          "internalType": "uint256",
          "name": "",
          "type": "uint256"
        }
      ],
      "stateMutability": "view",
      "type": "function"
    },
    {
      "inputs": [
        {
          "internalType": "bytes32",
          "name": "newGuardianHash",
          "type": "bytes32"
        }
      ],
      "name": "transferGuardianship",
      "outputs": [],
      "stateMutability": "nonpayable",
      "type": "function"
    },
    {
      "inputs": [
        {
          "internalType": "uint256",
          "name": "amount",
          "type": "uint256"
        }
      ],
      "name": "withdraw",
      "outputs": [],
      "stateMutability": "nonpayable",
      "type": "function"
    },
    {
      "stateMutability": "payable",
      "type": "receive"
    }
  ],
  "bytecode": "0x60806040523480156200001157600080fd5b5060405162004178380380620041788339818101604052810190620000379190620003ca565b6001600081905550815181111562000086576040517f08c379a00000000000000000000000000000000000000000000000000000000081526004016200007d9062000491565b60405180910390fd5b60005b8251811015620001725760016000848381518110620000ad57620000ac620004b3565b5b6020026020010151815260200190815260200160002060009054906101000a900460ff161562000114576040517f08c379a00000000000000000000000000000000000000000000000000000000081526004016200010b9062000532565b60405180910390fd5b60018060008584815181106200012f576200012e620004b3565b5b6020026020010151815260200190815260200160002060006101000a81548160ff0219169083151502179055508080620001699062000583565b91505062000089565b5081516002819055508060038190555033600460006101000a81548173ffffffffffffffffffffffffffffffffffffffff021916908373ffffffffffffffffffffffffffffffffffffffff1602179055505050620005d0565b6000604051905090565b600080fd5b600080fd5b600080fd5b6000601f19601f8301169050919050565b7f4e487b7100000000000000000000000000000000000000000000000000000000600052604160045260246000fd5b6200022f82620001e4565b810181811067ffffffffffffffff82111715620002515762000250620001f5565b5b80604052505050565b600062000266620001cb565b905062000274828262000224565b919050565b600067ffffffffffffffff821115620002975762000296620001f5565b5b602082029050602081019050919050565b600080fd5b6000819050919050565b620002c281620002ad565b8114620002ce57600080fd5b50565b600081519050620002e281620002b7565b92915050565b6000620002ff620002f98462000279565b6200025a565b90508083825260208201905060208402830185811115620003255762000324620002a8565b5b835b818110156200035257806200033d8882620002d1565b84526020840193505060208101905062000327565b5050509392505050565b600082601f830112620003745762000373620001df565b5b815162000386848260208601620002e8565b91505092915050565b6000819050919050565b620003a4816200038f565b8114620003b057600080fd5b50565b600081519050620003c48162000399565b92915050565b60008060408385031215620003e457620003e3620001d5565b5b600083015167ffffffffffffffff811115620004055762000404620001da565b5b62000413858286016200035c565b92505060206200042685828601620003b3565b9150509250929050565b600082825260208201905092915050565b7f7468726573686f6c6420746f6f20686967680000000000000000000000000000600082015250565b60006200047960128362000430565b9150620004868262000441565b602082019050919050565b60006020820190508181036000830152620004ac816200046a565b9050919050565b7f4e487b7100000000000000000000000000000000000000000000000000000000600052603260045260246000fd5b7f6475706c696361746520677561726469616e0000000000000000000000000000600082015250565b60006200051a60128362000430565b91506200052782620004e2565b602082019050919050565b600060208201905081810360008301526200054d816200050b565b9050919050565b7f4e487b7100000000000000000000000000000000000000000000000000000000600052601160045260246000fd5b600062000590826200038f565b91507fffffffffffffffffffffffffffffffffffffffffffffffffffffffffffffffff8203620005c557620005c462000554565b5b600182019050919050565b613b9880620005e06000396000f3fe6080604052600436106101f25760003560e01c80637d2b51d31161010d578063c42fe50a116100a0578063df6204ae1161006f578063df6204ae146107a6578063e42c264f146107cf578063f05151df146107fa578063f23a6e6114610825578063f48bf4c31461086257610247565b8063c42fe50a1461070d578063d0e30db01461074a578063d5ce9aad14610754578063daafaa751461077d57610247565b8063a526d83b116100dc578063a526d83b14610665578063a774f4121461068e578063ace7c993146106a5578063bc197c81146106d057610247565b80637d2b51d3146105955780638da5cb5b146105d257806391e8715f146105fd578063a079e2a11461062657610247565b80633c7ca796116101855780635fc489a7116101545780635fc489a7146104c957806361253df9146104f2578063714041561461052f5780637c725e9a1461055857610247565b80633c7ca7961461042157806342cde4e81461044a5780634d822c3d1461047557806357e685bc146104a057610247565b806322edecd6116101c157806322edecd6146103535780632e1a7d4d14610392578063361ad252146103bb5780633bc2c4a7146103f857610247565b806301ffc9a7146102975780630ba234d6146102d457806312065fe0146102eb578063150b7a021461031657610247565b36610247573373ffffffffffffffffffffffffffffffffffffffff167fe1fffcc4923d04b559f4d29a8bfc6cda04eb5b0d3c460751c2402c5c5cc9109c3460405161023d9190612800565b60405180910390a2005b3373ffffffffffffffffffffffffffffffffffffffff167fe1fffcc4923d04b559f4d29a8bfc6cda04eb5b0d3c460751c2402c5c5cc9109c3460405161028d9190612800565b60405180910390a2005b3480156102a357600080fd5b506102be60048036038101906102b99190612887565b61089f565b6040516102cb91906128cf565b60405180910390f35b3480156102e057600080fd5b506102e9610942565b005b3480156102f757600080fd5b50610300610a78565b60405161030d9190612800565b60405180910390f35b34801561032257600080fd5b5061033d60048036038101906103389190612aba565b610a80565b60405161034a9190612b4c565b60405180910390f35b34801561035f57600080fd5b5061037a60048036038101906103759190612b67565b610a94565b60405161038993929190612ba3565b60405180910390f35b34801561039e57600080fd5b506103b960048036038101906103b49190612bda565b610b7e565b005b3480156103c757600080fd5b506103e260048036038101906103dd9190612c3d565b610cf0565b6040516103ef9190612800565b60405180910390f35b34801561040457600080fd5b5061041f600480360381019061041a9190612b67565b610d08565b005b34801561042d57600080fd5b5061044860048036038101906104439190612c6a565b610f3a565b005b34801561045657600080fd5b5061045f611118565b60405161046c9190612800565b60405180910390f35b34801561048157600080fd5b5061048a61111e565b6040516104979190612800565b60405180910390f35b3480156104ac57600080fd5b506104c760048036038101906104c29190612b67565b611128565b005b3480156104d557600080fd5b506104f060048036038101906104eb9190612d0a565b611390565b005b3480156104fe57600080fd5b5061051960048036038101906105149190612d6a565b611806565b6040516105269190612800565b60405180910390f35b34801561053b57600080fd5b5061055660048036038101906105519190612b67565b611864565b005b34801561056457600080fd5b5061057f600480360381019061057a9190612bda565b611a37565b60405161058c9190612800565b60405180910390f35b3480156105a157600080fd5b506105bc60048036038101906105b79190612b67565b611a55565b6040516105c99190612db9565b60405180910390f35b3480156105de57600080fd5b506105e7611a85565b6040516105f49190612dd4565b60405180910390f35b34801561060957600080fd5b50610624600480360381019061061f9190612c3d565b611aab565b005b34801561063257600080fd5b5061064d60048036038101906106489190612b67565b611b57565b60405161065c93929190612ba3565b60405180910390f35b34801561067157600080fd5b5061068c60048036038101906106879190612b67565b611bae565b005b34801561069a57600080fd5b506106a3611d44565b005b3480156106b157600080fd5b506106ba611e36565b6040516106c79190612800565b60405180910390f35b3480156106dc57600080fd5b506106f760048036038101906106f29190612e9b565b611e3c565b6040516107049190612b4c565b60405180910390f35b34801561071957600080fd5b50610734600480360381019061072f9190612c3d565b611e54565b60405161074191906128cf565b60405180910390f35b610752611e74565b005b34801561076057600080fd5b5061077b60048036038101906107769190612b67565b611f54565b005b34801561078957600080fd5b506107a4600480360381019061079f9190612c3d565b612205565b005b3480156107b257600080fd5b506107cd60048036038101906107c89190612c3d565b61239b565b005b3480156107db57600080fd5b506107e46125b1565b6040516107f19190612800565b60405180910390f35b34801561080657600080fd5b5061080f6125b7565b60405161081c91906128cf565b60405180910390f35b34801561083157600080fd5b5061084c60048036038101906108479190612f77565b6125ca565b6040516108599190612b4c565b60405180910390f35b34801561086e57600080fd5b5061088960048036038101906108849190613011565b6125e0565b60405161089691906130ff565b60405180910390f35b60006301ffc9a760e01b827bffffffffffffffffffffffffffffffffffffffffffffffffffffffff191614806108fa575063150b7a0260e01b827bffffffffffffffffffffffffffffffffffffffffffffffffffffffff1916145b8061092a5750634e2312e060e01b827bffffffffffffffffffffffffffffffffffffffffffffffffffffffff1916145b15610938576001905061093d565b600090505b919050565b600460009054906101000a900473ffffffffffffffffffffffffffffffffffffffff1673ffffffffffffffffffffffffffffffffffffffff163373ffffffffffffffffffffffffffffffffffffffff16146109d2576040517f08c379a00000000000000000000000000000000000000000000000000000000081526004016109c99061317e565b60405180910390fd5b600460149054906101000a900460ff16610a21576040517f08c379a0000000000000000000000000000000000000000000000000000000008152600401610a18906131ea565b60405180910390fd5b6000600460146101000a81548160ff0219169083151502179055506005547f500ec1d4b692d3c788bfd78a898de379cfd93ab8177575efc7593f87bd051a0733604051610a6e9190612dd4565b60405180910390a2565b600047905090565b600063150b7a0260e01b9050949350505050565b600080600080600860008673ffffffffffffffffffffffffffffffffffffffff1673ffffffffffffffffffffffffffffffffffffffff1681526020019081526020016000206040518060600160405290816000820160009054906101000a900473ffffffffffffffffffffffffffffffffffffffff1673ffffffffffffffffffffffffffffffffffffffff1673ffffffffffffffffffffffffffffffffffffffff168152602001600182015481526020016002820160009054906101000a900460ff1615151515815250509050806000015181602001518260400151935093509350509193909250565b600460009054906101000a900473ffffffffffffffffffffffffffffffffffffffff1673ffffffffffffffffffffffffffffffffffffffff163373ffffffffffffffffffffffffffffffffffffffff1614610c0e576040517f08c379a0000000000000000000000000000000000000000000000000000000008152600401610c059061317e565b60405180910390fd5b610c16610a78565b811115610c58576040517f08c379a0000000000000000000000000000000000000000000000000000000008152600401610c4f90613256565b60405180910390fd5b3373ffffffffffffffffffffffffffffffffffffffff166108fc829081150290604051600060405180830381858888f19350505050158015610c9e573d6000803e3d6000fd5b503373ffffffffffffffffffffffffffffffffffffffff167f884edad9ce6fa2440d8a54cc123490eb96d2768479d49ff9c7366125a942436482604051610ce59190612800565b60405180910390a250565b60066020528060005260406000206000915090505481565b6001600033604051602001610d1d91906132be565b60405160208183030381529060405280519060200120815260200190815260200160002060009054906101000a900460ff16610d8e576040517f08c379a0000000000000000000000000000000000000000000000000000000008152600401610d8590613325565b60405180910390fd5b600460149054906101000a900460ff16610ddd576040517f08c379a0000000000000000000000000000000000000000000000000000000008152600401610dd4906131ea565b60405180910390fd5b60035460076000600554815260200190815260200160002060010160008373ffffffffffffffffffffffffffffffffffffffff1673ffffffffffffffffffffffffffffffffffffffff168152602001908152602001600020541015610e77576040517f08c379a0000000000000000000000000000000000000000000000000000000008152600401610e6e906133b7565b60405180910390fd5b6000600460146101000a81548160ff0219169083151502179055506000600460009054906101000a900473ffffffffffffffffffffffffffffffffffffffff16905081600460006101000a81548173ffffffffffffffffffffffffffffffffffffffff021916908373ffffffffffffffffffffffffffffffffffffffff1602179055506005547fcbaa7c7c351e2d5655fc08d9c383adcf4736af160c800b53df1f1dd221f826c88284604051610f2e9291906133d7565b60405180910390a25050565b600460009054906101000a900473ffffffffffffffffffffffffffffffffffffffff1673ffffffffffffffffffffffffffffffffffffffff163373ffffffffffffffffffffffffffffffffffffffff1614610fca576040517f08c379a0000000000000000000000000000000000000000000000000000000008152600401610fc19061317e565b60405180910390fd5b6000600660008481526020019081526020016000205411611020576040517f08c379a000000000000000000000000000000000000000000000000000000000815260040161101790613472565b60405180910390fd5b4260066000848152602001908152602001600020541115611076576040517f08c379a000000000000000000000000000000000000000000000000000000000815260040161106d906134de565b60405180910390fd5b6000600660008481526020019081526020016000208190555060006001600084815260200190815260200160002060006101000a81548160ff021916908315150217905550600180600083815260200190815260200160002060006101000a81548160ff02191690831515021790555080827f9012e3ecb8e2ea8ff7ef8d688fe1593a8040a61d7c6678accc84f3556c8b722d60405160405180910390a35050565b60035481565b6000600554905090565b600160003360405160200161113d91906132be565b60405160208183030381529060405280519060200120815260200190815260200160002060009054906101000a900460ff166111ae576040517f08c379a00000000000000000000000000000000000000000000000000000000081526004016111a590613325565b60405180910390fd5b600460149054906101000a900460ff166111fd576040517f08c379a00000000000000000000000000000000000000000000000000000000081526004016111f4906131ea565b60405180910390fd5b60405180606001604052808273ffffffffffffffffffffffffffffffffffffffff168152602001600554815260200160001515815250600860003373ffffffffffffffffffffffffffffffffffffffff1673ffffffffffffffffffffffffffffffffffffffff16815260200190815260200160002060008201518160000160006101000a81548173ffffffffffffffffffffffffffffffffffffffff021916908373ffffffffffffffffffffffffffffffffffffffff1602179055506020820151816001015560408201518160020160006101000a81548160ff02191690831515021790555090505060076000600554815260200190815260200160002060010160008273ffffffffffffffffffffffffffffffffffffffff1673ffffffffffffffffffffffffffffffffffffffff168152602001908152602001600020600081548092919061134c9061352d565b91905055506005547f7a0b940199ff58e943823fe8c0e916df112be357049d8105a7e83cf9a4000e4a33836040516113859291906133d7565b60405180910390a250565b60016000336040516020016113a591906132be565b60405160208183030381529060405280519060200120815260200190815260200160002060009054906101000a900460ff16611416576040517f08c379a000000000000000000000000000000000000000000000000000000000815260040161140d90613325565b60405180910390fd5b600460149054906101000a900460ff16611465576040517f08c379a000000000000000000000000000000000000000000000000000000000815260040161145c906131ea565b60405180910390fd5b6003548282905010156114ad576040517f08c379a00000000000000000000000000000000000000000000000000000000081526004016114a4906133b7565b60405180910390fd5b60005b82829050811015611740576000600860008585858181106114d4576114d3613575565b5b90506020020160208101906114e99190612b67565b73ffffffffffffffffffffffffffffffffffffffff1673ffffffffffffffffffffffffffffffffffffffff1681526020019081526020016000206040518060600160405290816000820160009054906101000a900473ffffffffffffffffffffffffffffffffffffffff1673ffffffffffffffffffffffffffffffffffffffff1673ffffffffffffffffffffffffffffffffffffffff168152602001600182015481526020016002820160009054906101000a900460ff16151515158152505090506005548160200151146115f3576040517f08c379a00000000000000000000000000000000000000000000000000000000081526004016115ea906135f0565b60405180910390fd5b8473ffffffffffffffffffffffffffffffffffffffff16816000015173ffffffffffffffffffffffffffffffffffffffff1614611665576040517f08c379a000000000000000000000000000000000000000000000000000000000815260040161165c9061365c565b60405180910390fd5b8060400151156116aa576040517f08c379a00000000000000000000000000000000000000000000000000000000081526004016116a1906136ee565b60405180910390fd5b6001600860008686868181106116c3576116c2613575565b5b90506020020160208101906116d89190612b67565b73ffffffffffffffffffffffffffffffffffffffff1673ffffffffffffffffffffffffffffffffffffffff16815260200190815260200160002060020160006101000a81548160ff0219169083151502179055505080806117389061352d565b9150506114b0565b506000600460146101000a81548160ff0219169083151502179055506000600460009054906101000a900473ffffffffffffffffffffffffffffffffffffffff16905083600460006101000a81548173ffffffffffffffffffffffffffffffffffffffff021916908373ffffffffffffffffffffffffffffffffffffffff1602179055506005547fcbaa7c7c351e2d5655fc08d9c383adcf4736af160c800b53df1f1dd221f826c882866040516117f89291906133d7565b60405180910390a250505050565b60006007600084815260200190815260200160002060010160008373ffffffffffffffffffffffffffffffffffffffff1673ffffffffffffffffffffffffffffffffffffffff16815260200190815260200160002054905092915050565b600460009054906101000a900473ffffffffffffffffffffffffffffffffffffffff1673ffffffffffffffffffffffffffffffffffffffff163373ffffffffffffffffffffffffffffffffffffffff16146118f4576040517f08c379a00000000000000000000000000000000000000000000000000000000081526004016118eb9061317e565b60405180910390fd5b600460149054906101000a900460ff1615611944576040517f08c379a000000000000000000000000000000000000000000000000000000000815260040161193b90613780565b60405180910390fd5b600354600160025461195691906137a0565b1015611997576040517f08c379a000000000000000000000000000000000000000000000000000000000815260040161198e90613820565b60405180910390fd5b6000816040516020016119aa91906132be565b60405160208183030381529060405280519060200120905060006001600083815260200190815260200160002060006101000a81548160ff02191690831515021790555060026000815480929190611a0190613840565b9190505550807fc96852b343177e80d71dfadbb85fe0f2a94dd48301b2385a51564a187b7925af60405160405180910390a25050565b60076020528060005260406000206000915090508060000154905081565b600081604051602001611a6891906132be565b604051602081830303815290604052805190602001209050919050565b600460009054906101000a900473ffffffffffffffffffffffffffffffffffffffff1681565b600460009054906101000a900473ffffffffffffffffffffffffffffffffffffffff1673ffffffffffffffffffffffffffffffffffffffff163373ffffffffffffffffffffffffffffffffffffffff1614611b3b576040517f08c379a0000000000000000000000000000000000000000000000000000000008152600401611b329061317e565b60405180910390fd5b6000600660008381526020019081526020016000208190555050565b60086020528060005260406000206000915090508060000160009054906101000a900473ffffffffffffffffffffffffffffffffffffffff16908060010154908060020160009054906101000a900460ff16905083565b600460009054906101000a900473ffffffffffffffffffffffffffffffffffffffff1673ffffffffffffffffffffffffffffffffffffffff163373ffffffffffffffffffffffffffffffffffffffff1614611c3e576040517f08c379a0000000000000000000000000000000000000000000000000000000008152600401611c359061317e565b60405180910390fd5b600460149054906101000a900460ff1615611c8e576040517f08c379a0000000000000000000000000000000000000000000000000000000008152600401611c8590613780565b60405180910390fd5b600081604051602001611ca191906132be565b604051602081830303815290604052805190602001209050600180600083815260200190815260200160002060006101000a81548160ff02191690831515021790555060026000815480929190611cf79061352d565b91905055508173ffffffffffffffffffffffffffffffffffffffff16817fdfd29cf87a6fd17a11ddb0053bbd9909617308a4f52602e97030f428065ad22c60405160405180910390a35050565b6001600033604051602001611d5991906132be565b60405160208183030381529060405280519060200120815260200190815260200160002060009054906101000a900460ff16611dca576040517f08c379a0000000000000000000000000000000000000000000000000000000008152600401611dc190613325565b60405180910390fd5b3373ffffffffffffffffffffffffffffffffffffffff1633604051602001611df291906132be565b604051602081830303815290604052805190602001207faeee4dc34642964bd6d8194b8689894338b209de063b46447e53fe54d54eb99b60405160405180910390a3565b60055481565b600063bc197c8160e01b905098975050505050505050565b60016020528060005260406000206000915054906101000a900460ff1681565b600460009054906101000a900473ffffffffffffffffffffffffffffffffffffffff1673ffffffffffffffffffffffffffffffffffffffff163373ffffffffffffffffffffffffffffffffffffffff1614611f04576040517f08c379a0000000000000000000000000000000000000000000000000000000008152600401611efb9061317e565b60405180910390fd5b3373ffffffffffffffffffffffffffffffffffffffff167fe1fffcc4923d04b559f4d29a8bfc6cda04eb5b0d3c460751c2402c5c5cc9109c34604051611f4a9190612800565b60405180910390a2565b6001600033604051602001611f6991906132be565b60405160208183030381529060405280519060200120815260200190815260200160002060009054906101000a900460ff16611fda576040517f08c379a0000000000000000000000000000000000000000000000000000000008152600401611fd190613325565b60405180910390fd5b600460149054906101000a900460ff161561202a576040517f08c379a0000000000000000000000000000000000000000000000000000000008152600401612021906138b5565b60405180910390fd5b6005600081548092919061203d9061352d565b919050555060405180606001604052808273ffffffffffffffffffffffffffffffffffffffff168152602001600554815260200160001515815250600860003373ffffffffffffffffffffffffffffffffffffffff1673ffffffffffffffffffffffffffffffffffffffff16815260200190815260200160002060008201518160000160006101000a81548173ffffffffffffffffffffffffffffffffffffffff021916908373ffffffffffffffffffffffffffffffffffffffff1602179055506020820151816001015560408201518160020160006101000a81548160ff0219169083151502179055509050506001600460146101000a81548160ff02191690831515021790555060076000600554815260200190815260200160002060010160008273ffffffffffffffffffffffffffffffffffffffff1673ffffffffffffffffffffffffffffffffffffffff16815260200190815260200160002060008154809291906121ac9061352d565b91905055506005543373ffffffffffffffffffffffffffffffffffffffff167fe290ea2cc3cfeb5114f992dc8be9e503de30042c13b9298644a2679b09e17a04836040516121fa9190612dd4565b60405180910390a350565b600460009054906101000a900473ffffffffffffffffffffffffffffffffffffffff1673ffffffffffffffffffffffffffffffffffffffff163373ffffffffffffffffffffffffffffffffffffffff1614612295576040517f08c379a000000000000000000000000000000000000000000000000000000000815260040161228c9061317e565b60405180910390fd5b6001600082815260200190815260200160002060009054906101000a900460ff166122f5576040517f08c379a00000000000000000000000000000000000000000000000000000000081526004016122ec90613921565b60405180910390fd5b600460149054906101000a900460ff1615612345576040517f08c379a000000000000000000000000000000000000000000000000000000000815260040161233c90613780565b60405180910390fd5b6203f480426123549190613941565b6006600083815260200190815260200160002081905550807f7c5906c97abceb0e2aa5b3aa0181decc25ff01fe67d8926b62600f44e0785e4560405160405180910390a250565b60016000336040516020016123b091906132be565b60405160208183030381529060405280519060200120815260200190815260200160002060009054906101000a900460ff16612421576040517f08c379a000000000000000000000000000000000000000000000000000000000815260040161241890613325565b60405180910390fd5b600460149054906101000a900460ff1615612471576040517f08c379a0000000000000000000000000000000000000000000000000000000008152600401612468906138b5565b60405180910390fd5b6000600660003360405160200161248891906132be565b60405160208183030381529060405280519060200120815260200190815260200160002054146124ed576040517f08c379a00000000000000000000000000000000000000000000000000000000081526004016124e4906139e7565b60405180910390fd5b6000600160003360405160200161250491906132be565b60405160208183030381529060405280519060200120815260200190815260200160002060006101000a81548160ff021916908315150217905550600180600083815260200190815260200160002060006101000a81548160ff021916908315150217905550803373ffffffffffffffffffffffffffffffffffffffff167febb73463791ab4e1ce8ac274520eca412b3aea13fcfac358e8e834f6d8ba716660405160405180910390a350565b60025481565b600460149054906101000a900460ff1681565b600063f23a6e6160e01b90509695505050505050565b6060600460009054906101000a900473ffffffffffffffffffffffffffffffffffffffff1673ffffffffffffffffffffffffffffffffffffffff163373ffffffffffffffffffffffffffffffffffffffff1614612672576040517f08c379a00000000000000000000000000000000000000000000000000000000081526004016126699061317e565b60405180910390fd5b61267a61278e565b6000808573ffffffffffffffffffffffffffffffffffffffff1685856040516126a39190613a43565b60006040518083038185875af1925050503d80600081146126e0576040519150601f19603f3d011682016040523d82523d6000602084013e6126e5565b606091505b50915091508161272a576040517f08c379a000000000000000000000000000000000000000000000000000000000815260040161272190613aa6565b60405180910390fd5b8573ffffffffffffffffffffffffffffffffffffffff167f47d99ad340f52da66535aff7e10da1ceb85a32bcbd9fa1c42314d194545e14d28686604051612772929190613ac6565b60405180910390a280925050506127876127dd565b9392505050565b6002600054036127d3576040517f08c379a00000000000000000000000000000000000000000000000000000000081526004016127ca90613b42565b60405180910390fd5b6002600081905550565b6001600081905550565b6000819050919050565b6127fa816127e7565b82525050565b600060208201905061281560008301846127f1565b92915050565b6000604051905090565b600080fd5b600080fd5b60007fffffffff0000000000000000000000000000000000000000000000000000000082169050919050565b6128648161282f565b811461286f57600080fd5b50565b6000813590506128818161285b565b92915050565b60006020828403121561289d5761289c612825565b5b60006128ab84828501612872565b91505092915050565b60008115159050919050565b6128c9816128b4565b82525050565b60006020820190506128e460008301846128c0565b92915050565b600073ffffffffffffffffffffffffffffffffffffffff82169050919050565b6000612915826128ea565b9050919050565b6129258161290a565b811461293057600080fd5b50565b6000813590506129428161291c565b92915050565b612951816127e7565b811461295c57600080fd5b50565b60008135905061296e81612948565b92915050565b600080fd5b600080fd5b6000601f19601f8301169050919050565b7f4e487b7100000000000000000000000000000000000000000000000000000000600052604160045260246000fd5b6129c78261297e565b810181811067ffffffffffffffff821117156129e6576129e561298f565b5b80604052505050565b60006129f961281b565b9050612a0582826129be565b919050565b600067ffffffffffffffff821115612a2557612a2461298f565b5b612a2e8261297e565b9050602081019050919050565b82818337600083830152505050565b6000612a5d612a5884612a0a565b6129ef565b905082815260208101848484011115612a7957612a78612979565b5b612a84848285612a3b565b509392505050565b600082601f830112612aa157612aa0612974565b5b8135612ab1848260208601612a4a565b91505092915050565b60008060008060808587031215612ad457612ad3612825565b5b6000612ae287828801612933565b9450506020612af387828801612933565b9350506040612b048782880161295f565b925050606085013567ffffffffffffffff811115612b2557612b2461282a565b5b612b3187828801612a8c565b91505092959194509250565b612b468161282f565b82525050565b6000602082019050612b616000830184612b3d565b92915050565b600060208284031215612b7d57612b7c612825565b5b6000612b8b84828501612933565b91505092915050565b612b9d8161290a565b82525050565b6000606082019050612bb86000830186612b94565b612bc560208301856127f1565b612bd260408301846128c0565b949350505050565b600060208284031215612bf057612bef612825565b5b6000612bfe8482850161295f565b91505092915050565b6000819050919050565b612c1a81612c07565b8114612c2557600080fd5b50565b600081359050612c3781612c11565b92915050565b600060208284031215612c5357612c52612825565b5b6000612c6184828501612c28565b91505092915050565b60008060408385031215612c8157612c80612825565b5b6000612c8f85828601612c28565b9250506020612ca085828601612c28565b9150509250929050565b600080fd5b600080fd5b60008083601f840112612cca57612cc9612974565b5b8235905067ffffffffffffffff811115612ce757612ce6612caa565b5b602083019150836020820283011115612d0357612d02612caf565b5b9250929050565b600080600060408486031215612d2357612d22612825565b5b6000612d3186828701612933565b935050602084013567ffffffffffffffff811115612d5257612d5161282a565b5b612d5e86828701612cb4565b92509250509250925092565b60008060408385031215612d8157612d80612825565b5b6000612d8f8582860161295f565b9250506020612da085828601612933565b9150509250929050565b612db381612c07565b82525050565b6000602082019050612dce6000830184612daa565b92915050565b6000602082019050612de96000830184612b94565b92915050565b60008083601f840112612e0557612e04612974565b5b8235905067ffffffffffffffff811115612e2257612e21612caa565b5b602083019150836020820283011115612e3e57612e3d612caf565b5b9250929050565b60008083601f840112612e5b57612e5a612974565b5b8235905067ffffffffffffffff811115612e7857612e77612caa565b5b602083019150836001820283011115612e9457612e93612caf565b5b9250929050565b60008060008060008060008060a0898b031215612ebb57612eba612825565b5b6000612ec98b828c01612933565b9850506020612eda8b828c01612933565b975050604089013567ffffffffffffffff811115612efb57612efa61282a565b5b612f078b828c01612def565b9650965050606089013567ffffffffffffffff811115612f2a57612f2961282a565b5b612f368b828c01612def565b9450945050608089013567ffffffffffffffff811115612f5957612f5861282a565b5b612f658b828c01612e45565b92509250509295985092959890939650565b60008060008060008060a08789031215612f9457612f93612825565b5b6000612fa289828a01612933565b9650506020612fb389828a01612933565b9550506040612fc489828a0161295f565b9450506060612fd589828a0161295f565b935050608087013567ffffffffffffffff811115612ff657612ff561282a565b5b61300289828a01612e45565b92509250509295509295509295565b60008060006060848603121561302a57613029612825565b5b600061303886828701612933565b93505060206130498682870161295f565b925050604084013567ffffffffffffffff81111561306a5761306961282a565b5b61307686828701612a8c565b9150509250925092565b600081519050919050565b600082825260208201905092915050565b60005b838110156130ba57808201518184015260208101905061309f565b60008484015250505050565b60006130d182613080565b6130db818561308b565b93506130eb81856020860161309c565b6130f48161297e565b840191505092915050565b6000602082019050818103600083015261311981846130c6565b905092915050565b600082825260208201905092915050565b7f6f6e6c79206f776e657200000000000000000000000000000000000000000000600082015250565b6000613168600a83613121565b915061317382613132565b602082019050919050565b600060208201905081810360008301526131978161315b565b9050919050565b7f77616c6c6574206973206e6f7420696e207265636f76657279206d6f64650000600082015250565b60006131d4601e83613121565b91506131df8261319e565b602082019050919050565b60006020820190508181036000830152613203816131c7565b9050919050565b7f6e6f7420656e6f7567682062616c616e63650000000000000000000000000000600082015250565b6000613240601283613121565b915061324b8261320a565b602082019050919050565b6000602082019050818103600083015261326f81613233565b9050919050565b60008160601b9050919050565b600061328e82613276565b9050919050565b60006132a082613283565b9050919050565b6132b86132b38261290a565b613295565b82525050565b60006132ca82846132a7565b60148201915081905092915050565b7f6f6e6c7920677561726469616e00000000000000000000000000000000000000600082015250565b600061330f600d83613121565b915061331a826132d9565b602082019050919050565b6000602082019050818103600083015261333e81613302565b9050919050565b7f6d6f726520677561726469616e7320726571756972656420746f207472616e7360008201527f666572206f776e65727368697000000000000000000000000000000000000000602082015250565b60006133a1602d83613121565b91506133ac82613345565b604082019050919050565b600060208201905081810360008301526133d081613394565b9050919050565b60006040820190506133ec6000830185612b94565b6133f96020830184612b94565b9392505050565b7f677561726469616e2069736e27742071756575656420666f722072656d6f766160008201527f6c00000000000000000000000000000000000000000000000000000000000000602082015250565b600061345c602183613121565b915061346782613400565b604082019050919050565b6000602082019050818103600083015261348b8161344f565b9050919050565b7f74696d652064656c617920686173206e6f742070617373656400000000000000600082015250565b60006134c8601983613121565b91506134d382613492565b602082019050919050565b600060208201905081810360008301526134f7816134bb565b9050919050565b7f4e487b7100000000000000000000000000000000000000000000000000000000600052601160045260246000fd5b6000613538826127e7565b91507fffffffffffffffffffffffffffffffffffffffffffffffffffffffffffffffff820361356a576135696134fe565b5b600182019050919050565b7f4e487b7100000000000000000000000000000000000000000000000000000000600052603260045260246000fd5b7f726f756e64206d69736d61746368000000000000000000000000000000000000600082015250565b60006135da600e83613121565b91506135e5826135a4565b602082019050919050565b60006020820190508181036000830152613609816135cd565b9050919050565b7f64697361677265656d656e74206f6e206e6577206f776e657200000000000000600082015250565b6000613646601983613121565b915061365182613610565b602082019050919050565b6000602082019050818103600083015261367581613639565b9050919050565b7f6475706c696361746520677561726469616e207573656420696e207265636f7660008201527f6572790000000000000000000000000000000000000000000000000000000000602082015250565b60006136d8602383613121565b91506136e38261367c565b604082019050919050565b60006020820190508181036000830152613707816136cb565b9050919050565b7f63616e6e6f742072656d6f766520677561726469616e20647572696e6720726560008201527f636f766572790000000000000000000000000000000000000000000000000000602082015250565b600061376a602683613121565b91506137758261370e565b604082019050919050565b600060208201905081810360008301526137998161375d565b9050919050565b60006137ab826127e7565b91506137b6836127e7565b92508282039050818111156137ce576137cd6134fe565b5b92915050565b7f63616e6e6f742072656d6f766520677561726469616e00000000000000000000600082015250565b600061380a601683613121565b9150613815826137d4565b602082019050919050565b60006020820190508181036000830152613839816137fd565b9050919050565b600061384b826127e7565b91506000820361385e5761385d6134fe565b5b600182039050919050565b7f77616c6c657420697320696e207265636f76657279206d6f6465000000000000600082015250565b600061389f601a83613121565b91506138aa82613869565b602082019050919050565b600060208201905081810360008301526138ce81613892565b9050919050565b7f6e6f74206120677561726469616e000000000000000000000000000000000000600082015250565b600061390b600e83613121565b9150613916826138d5565b602082019050919050565b6000602082019050818103600083015261393a816138fe565b9050919050565b600061394c826127e7565b9150613957836127e7565b925082820190508082111561396f5761396e6134fe565b5b92915050565b7f677561726469616e207175657565756420666f722072656d6f76616c2c20636160008201527f6e6e6f74207472616e7366657220677561726469616e73686970000000000000602082015250565b60006139d1603a83613121565b91506139dc82613975565b604082019050919050565b60006020820190508181036000830152613a00816139c4565b9050919050565b600081905092915050565b6000613a1d82613080565b613a278185613a07565b9350613a3781856020860161309c565b80840191505092915050565b6000613a4f8284613a12565b915081905092915050565b7f65787465726e616c2063616c6c20726576657274656400000000000000000000600082015250565b6000613a90601683613121565b9150613a9b82613a5a565b602082019050919050565b60006020820190508181036000830152613abf81613a83565b9050919050565b6000604082019050613adb60008301856127f1565b8181036020830152613aed81846130c6565b90509392505050565b7f5265656e7472616e637947756172643a207265656e7472616e742063616c6c00600082015250565b6000613b2c601f83613121565b9150613b3782613af6565b602082019050919050565b60006020820190508181036000830152613b5b81613b1f565b905091905056fea264697066735822122007a9164209c7145ca59c045c201c802d9ca00c67e985227123b1c23203def84864736f6c63430008110033",
  "linkReferences": {},
  "deployedLinkReferences": {}
}